:020000040800F2
:10000000A8B20024AD020008B72C00080161000866
:10001000012C0008890C0008ED3D000800000000DC
:10002000000000000000000000000000D1020008F5
:10003000D10C000800000000A3030008B30300086F
:10004000C7020008C7020008C7020008C70200086C
:10005000C7020008C7020008C7020008C70200085C
:10006000C7020008C7020008C7020008C70200084C
:10007000C7020008C7020008C7020008C70200083C
:10008000C7020008C7020008C7020008C70200082C
:10009000C7020008C7020008C7020008C70200081C
:1000A000C7020008C7020008C7020008C70200080C
:1000B000C1360008C7020008C7020008C7020008CE
:1000C000C7020008C7020008C7020008C7020008EC
:1000D000C7020008D53C0008C7020008DD3C000844
:1000E000C7020008C702000800000000C70200089D
:1000F000C7020008C7020008C7020008C7020008BC
:10010000C7020008C7020008C7020008C7020008AB
:10011000C7020008C7020008C7020008C70200089B
:10012000C7020008C7020008C7020008C70200088B
:10013000C7020008C7020008C7020008C70200087B
:1001400000000000000000000000000000000000AF
:10015000C7020008C7020008C7020008C70200085B
:10016000C7020008C7020008C7020008C70200084B
:10017000C7020008C7020008C7020008000000000C
:10018000C7020008C7020008C7020008C70200082B
:10019000C7020008C7020008C7020008C70200081B
:1001A000C7020008C7020008C7020008C70200080B
:1001B000C7020008C7020008C7020008C7020008FB
:1001C000C7020008C7020008C7020008C7020008EB
:1001D000C7020008C7020008C7020008C7020008DB
:1001E000C7020008C7020008C7020008C7020008CB
:1001F000C7020008C7020008C7020008C7020008BB
:10020000C7020008C7020008C7020008C7020008AA
:10021000C7020008C7020008C7020008C70200089A
:10022000C7020008C7020008C7020008000000005B
:10023000C7020008C702000800000000C70200084B
:10024000C7020008C7020008C7020008C70200086A
:10025000C7020008C7020008C7020008C70200085A
:10026000C7020008C7020008C7020008C70200084A
:10027000C7020008C7020008C7020008000000000B
:10028000C7020008C7020008C702000800000000FB
:1002900000000000C7020008DFF80CD000F0F0FA00
:1002A00000480047194C0008A8B2002406488047BF
:1002B00006480047FEE7FEE7FEE7FEE7FEE7FEE74B
:1002C000FEE7FEE7FEE7FEE7ED33000899020008CF
:1002D0001EF0040F0CBFEFF30880EFF30980816973
:1002E00011F8021C00294ED101B590E80F10E0472B
:1002F000BDE80050CCF80000324B93E80600914274
:1003000008BF70471A6041B91EF0100F2CD12E4B58
:10031000186820F00100186026E0ACF1200C1EF0F7
:10032000100F08BFACF1400C81F822E0C1F838C0D2
:1003300006B4084605F0DCF906BC50B90C464FF08F
:10034000010004F0BFFD214B5A681A6094F822E0C6
:10035000DAE7D1F838C091F822E01EF0100F08BF9C
:10036000ACEC108A8CE8F00F906B92F8221061F0E0
:10037000FF0E1EF0100F08BFB0EC108AB0E8F00FAF
:1003800080F309887047124A13689942FAD801B578
:1003900052F821C00FC8E047BDE80050CCF800007B
:1003A000704701B504F060FFBDE80140EFF3098C30
:1003B000A2E701B505F00AFABDE80140EFF3098CA8
:1003C0009AE700003000002434EF00E03000002401
:1003D0009C7100082DE9F05F0546002092469B467F
:1003E00088460646814640241BE02846414647464B
:1003F000224600F07CF853465A46C01A914110D369
:1004000011461846224600F063F82D1A67EB0108E2
:100410004F4622460120002100F05AF817EB000950
:100420004E41201EA4F10104DFDC484631462A4635
:100430004346BDE8F09F00000649074A086850435C
:1004400043F23902104408604008704701490860CF
:1004500070470000040000246D4EC64140EA0103CD
:100460009B0703D009E008C9121F08C0042AFAD26A
:1004700003E011F8013B00F8013B521EF9D270472E
:10048000D2B201E000F8012B491EFBD270470022D6
:10049000F6E710B513460A4604461946FFF7F0FF83
:1004A000204610BD30B50B46014600202022012415
:1004B00009E021FA02F59D4205D303FA02F5491B32
:1004C00004FA02F52844151EA2F10102F1DC30BD48
:1004D000202A04DB203A00FA02F100207047914004
:1004E000C2F1200320FA03F3194390407047202AF9
:1004F00004DB203A21FA02F00021704721FA02F3CE
:10050000D040C2F1200291400843194670472DE9BE
:10051000FE4F804681EA0300C00F0C46009021F098
:10052000004123F00045B8EB0200A94105D2404646
:10053000214690461C460B46024623F000401043DD
:1005400047D0270DC7F30A00C3F30A510290401A9F
:10055000019040286BDAC3F3130040F4801B00982D
:10056000924620B10023D2EB030A63EB0B0B0198F8
:100570005946C0F140025046FFF7AAFF06460D4615
:1005800050465946019A00F08DF910EB0800614180
:10059000002487EA115284EAE7731A4340D0009A94
:1005A00062B3019A012A4FEA075215DC001B61EB86
:1005B00002014FF0004202EA0752CDE90042001C5E
:1005C00041F5801132462B4600F08DF903B0BDE8AD
:1005D000F08F40462146F9E7001B61EB0201001C49
:1005E00041F5801300185B412018A2F5001747EB76
:1005F000030140EAD570B6196D4111E06D084FEA6C
:10060000360645EAC0754FEA0752001B61EB02014E
:10061000001C41F5801149084FEA30000019514192
:1006200032462B4603B0BDE8F04F00F04DB90098BC
:10063000012240000023D0EB020263EBE07300983C
:1006400021464FEAE074B8EB000061EB0401E9E7F2
:1006500083F000435BE781F0004158E72DE9FE4F4E
:1006600081EA030404F0004421F0004100944FF0BB
:10067000000B23F0004350EA01045ED052EA030469
:100680005BD0C3F30A54C1F30A552C44A4F2F334EB
:100690000194A0FB0254C1F3130141F48011C3F390
:1006A000130343F4801301FB024400FB034E840A4E
:1006B000970A44EA815447EA8357A4FB07680295E6
:1006C0008D0A05FB07854FEA932C04FB0C54270584
:1006D000029D4FEA065847EA1637B5EB08056EEB60
:1006E000070C870E920E47EA811742EA8312A7FB96
:1006F0000201B6EB0B0164EB00042B0D43EA0C3353
:100700005E1844EB1C50DA465146E7FB0201C5F384
:1007100013044FEA0B3343EA14534FEA0432019CAB
:1007200043EA0603A4F10C040294009CCDE900B452
:1007300000F0D9F803B0BDE8F08F00200146F9E7DA
:100740002DE9F04D81EA030404F0004B21F000454F
:1007500014464FF0000A23F0004150EA050220D071
:1007600054EA01021DD0C5F30A570246C5F313032C
:10077000C1F31300C1F30A5640F4801543F480130B
:10078000A7EB0608101BD64608F2FD3873EB0500F0
:1007900002D308F1010801E092185B41B8F1000FA3
:1007A00003DA00200146BDE8F08D00204FF48011EF
:1007B000064684460EE0171B73EB050705D3121B94
:1007C00063EB050306434CEA010C49084FEA30008D
:1007D00092185B4150EA0107EDD152EA030012D0B2
:1007E00082EA040083EA0501084305D0101BAB41EF
:1007F00006D20122002306E000224FF0004302E06F
:100800006FF0010253101AEB06004CEB085110EB8D
:100810000A0041EB0B01BDE8F04D00F055B8C1F303
:100820000A52C1F3130140F2FF3341F480119A429E
:1008300002DA00200146704740F233439A42A2F2A6
:10084000334202DC5242FFF752BEFFF741BE0000C6
:1008500030B5041E71F1000404DB4FF00044404247
:1008600064EB0101141E73F1000405DB1C464FF01C
:100870000043524263EB0403994208BF904230BDEB
:10088000064C074D06E0E06840F0010394E80700DD
:1008900098471034AC42F6D3FFF702FD1C7B0008EA
:1008A0003C7B0008202A06DBCB17203A41FA02F0F5
:1008B00043EAE07306E041FA02F3D040C2F12002BD
:1008C000914008431946704710B5141E73F1000497
:1008D00008DA401C41F1000192185B411A4301D132
:1008E00020F0010010BD2DE9F04D92469B4611B15C
:1008F000B1FA81F202E0B0FA80F220329046FFF7BE
:10090000E7FD04460F4640EA0A0041EA0B01534660
:100910005A46084313D0114653EA010019D0C8F1D2
:1009200040025046FFF7E3FD05460E465046594645
:100930004246FFF7CDFD084305D0012004E02046E4
:100940003946BDE8F08D0020054346EAE0762C43A9
:1009500037430A986305E40AA0EB08000022FD0A69
:1009600044EA47540A3002D500200146E9E7010570
:1009700010196941DDE9084500196941BDE8F04DEC
:10098000A2E7704704F0ACF900F1C804022003F0BC
:10099000FFFD204604F072F9C834F7E782B00A4E32
:1009A0000DF1070409A57069214600224FF0FF33BD
:1009B00004F0D6F920B99DF80710284605F0AAFBE7
:1009C0000A2004F03FF9EEE7C000002447657420D8
:1009D000746865206D657373616765206973202590
:1009E000630A000001F07EFE03F0BFFA1548164AC4
:1009F000164D0021A847294C164A00216060144872
:100A0000A847A0601448154A0021A8472060144850
:100A1000144A0021A847E0601348144A0021A8475F
:100A20002061134A1020012104F0E2F9606104F012
:100A300057F9441C02F0A4FC204604F01FF90134CD
:100A4000F8E700BF9D090008CC700008195900089C
:100A500085090008A8700008A10A0008387100087C
:100A6000750A0008147100088309000884700008E2
:100A70008471000882B00DF10704084D0020214662
:100A800003F0D6FD30B1686921460022002304F04E
:100A9000D1F9F3E7142004F0D5F8EFE7C000002403
:100AA000ACB00DAC9FED588B9FED599B0FF2B41974
:100AB000DFF8ACA19FED6CAA4FF00A0804F1180012
:100AC000059026AD03F036FA072831D004283BD034
:100AD000012835D10427182F00F0888003F03AFA56
:100AE000FFF7B4FCFFF7A8FC00EE100AB8EEC00B4D
:100AF00080EE080B20EE090BB7EEC00B20EE0A1AB1
:100B0000BCEEC11A11EE100AB1EE401AB0FBF8F1BA
:100B100001EB8101A0EB4100052838BFB0EE410A8E
:100B2000E81980ED000A052003F0F0F90437D2E758
:100B300051A006F0D5F920460DF1330103F0F0FD88
:100B4000142004F07FF8BDE733A037498847002020
:100B50008DF8330021460DF13302284601F0FEFEE8
:100B600006A8214603F048FF30A02F492746DDE9BB
:100B700009B60B9C9DED06BA9DED07CA9DED08DAFE
:100B80008847B7EECD0AB7EECC1A2CA08DED020B3C
:100B9000B7EECB0A8DED001B53EC102B05F0BAFA23
:100BA0001BEE100A1CEE101A1DEE102A5B46CDE952
:100BB00000643C46029703F08FFF26A01A4988473D
:100BC0000127059E052FBBD04FF0000BBBF1100F86
:100BD00006D006EB0B0002F0A9F80BF1040BF5E7C9
:100BE000484606F07DF914360137EBE71FA006F002
:100BF00077F90426182EA3D0A81902F097F8043626
:100C0000F8E700BF00BF00BF0000C0FFFFFFDF41EB
:100C100044174154FB210940D5FDD4CBB6AFD1A731
:100C2000BCC6CBE30D000000E16E000867657445AB
:100C3000756C6572416E676C653A0D002531312E19
:100C40003666202531312E3666202531312E366626
:100C5000200D0A0067657454464B3A0D00000000F1
:100C6000447A00080D0000000000C8420ABBA1B68B
:100C7000C8C8A1D6B5A3BA00C4E6D4CBB6AFD1A735
:100C8000BCC6CBE30D000000FEE7000080B50828DD
:100C900004D240B206A151F8200080BD03484FF4B1
:100CA0008E7100F016F8002080BD00BFEC7A0008BD
:100CB0002401002400000000500100240000000076
:100CC0000000000000000000000000000000000024
:100CD000704701B1FEE770478949097851B1C0F307
:100CE000C621054AC0F30220515C21FA00F000F051
:100CF000010070470020704700160024F8B5804CB2
:100D0000124D04F11807A66900F0FEF8B04212D2A5
:100D10000123D5E84F1FC5E8423F02B1F9E70906B4
:100D200009D12169002301312161D5E84F1FC5E8B0
:100D3000423F02B1F9E757E8001F47E8000202B15D
:100D4000F9E78E4208BFF8BDDDE700BFC40100240B
:100D5000F8B514460D460646FFF7BEFF98B1374674
:100D6000C0F20807FFF7CAFF0146EFF3058000282D
:100D700008BFB7B22A46234607F1407001B0BDE86C
:100D8000F04000F041B80120F8BD00002DE9F04727
:100D9000994692460F460646FFF79EFF58B33446E3
:100DA000DDF82080C0F20804FFF7A8FF0546EFF346
:100DB0000580002808BFB4B251480130D0E84F1F69
:100DC0004A1CC0E8432F03B1F8E74FF4E0203A464D
:100DD000534600EA01462946A01900F1807000F050
:100DE00013F858B1074829464A4643463043BDE800
:100DF000F04700F009B80120BDE8F0870020BDE809
:100E0000F08700BF010000022DE9F04F4FF0805441
:100E100091464FF000529A468B466FF00706DFF876
:100E2000E4E004EAD10402EA9902204310434FF0BF
:100E3000804202EA530240EA0208314800F1040C01
:100E4000013680F05180614651E8004F601C41E856
:100E5000000505B1F8E704F03F0504F470740EEBEB
:100E6000051048EA843400F10C0744F0406257E86A
:100E7000004FA10103D3BFF32F8F002406E004F03D
:100E80000044144347E8004303B1F0E76101D7D5BC
:100E900084F004422BF000412C0102F0004319447D
:100EA0004EF8041029F000442AF00041194423446C
:100EB000C0E9013157E8001F890103D2BFF32F8F2A
:100EC000002004E047E8002303B1F3E7012058B114
:100ED0000B48083050E8001F4A1C40E8002303B1CB
:100EE000F8E70120BDE8F08F05480C3050E8001FFE
:100EF0004A1C40E8002303B1F8E70020BDE8F08F6A
:100F0000801600240012002401480068704700BFCA
:100F1000041000E00146014801F05FBF01F3010049
:100F20000146014801F059BF05F3020001464FF4A4
:100F3000734001F052BF00000146014801F04DBF6F
:100F400003F302000146014801F047BF02F301002C
:100F50000146014801F041BF04F302000146014887
:100F600001F03BBF0DF5020001464FF4714001F066
:100F700034BF0A4601464FF21910FFF7E9BE0000E0
:100F80000146014801F029BF06F101000146014870
:100F900001F023BF13F101000148002101F01DBF42
:100FA00001F101000148002101F017BF02F1020028
:100FB0000148002101F011BF07F1010001480021A3
:100FC00001F00BBF08F102001CB501F0DDFF024883
:100FD00002F02EF81CBD00BF01F002000A460146D7
:100FE0000148FFF7B5BE00BF04F00200E0B501F014
:100FF00056FF0248FFF7CAFE8CBD00BF05F0020095
:101000001CB501F0C1FF024802F012F81CBD00BF80
:1010100003F00200E0B501F042FF0248FFF7B6FE20
:101020008CBD00BF02F00200E0B501F038FF4FF4C4
:101030003C30FFF7ABFE8CBD0146014801F0CDBE50
:1010400008F902000A4601460148FFF781BE00BFC9
:1010500003FA02000A4601464FF47A40FFF778BED1
:101060001CB501F091FF024801F0E2FF1CBD00BF7A
:101070000CFA0100E0B501F012FF0248FFF786FE0E
:101080008CBD00BF0DFA02000146014801F0A5BE6B
:101090000EFA02000A4601460148FFF759BE00BF9A
:1010A00009FA02000A4601460148FFF751BE00BF97
:1010B0000AFA0200E0B501F0F2FE0248FFF766FE10
:1010C0008CBD00BF01FA01000A4601460148FFF746
:1010D0003FBE00BF0BFA02000A4601460148FFF777
:1010E00037BE00BF10FA02001CB501F04DFF0248E8
:1010F00001F09EFF1CBD00BF06FA0100E0B501F043
:10110000CEFE0248FFF742FE8CBD00BF07FA020088
:101110000146014801F061BE08FA02000A46014694
:101120000148FFF715BE00BF0FFA02000146014853
:1011300001F053BE08F702000A4601460148FFF7D6
:1011400007BE00BF09F702000A4601460148FFF743
:10115000FFBD00BF0CF702000146014801F03DBE93
:1011600008F802000A4601460148FFF7F1BD00BF3A
:1011700016F203000B4601460348002A0CBF1A462C
:101180002930FFF7E5BD00BF03F202000146014828
:1011900001F023BE1CF202000A4601464FF47240E1
:1011A000FFF7D6BD0148002101F017BE1AF2010079
:1011B0001CB501F0E9FE024801F03AFF1CBD00BF7A
:1011C00009F402000146014801F007BE08F40200DC
:1011D0000146014801F001BE15F20200E0B501F040
:1011E0005EFE0248FFF7D2FD8CBD00BF01F2010098
:1011F0000146014801F0F1BD18F203000146014823
:1012000001F0EBBD19F202000A4601460148FFF762
:101210009FBD00BF17F203000A4601460148FFF7D1
:1012200097BD00BF01F60200F0B5B3F5804F0FD1B6
:1012300050F82230094C234091E8F000896923439B
:1012400043EA051343EA0623194341EA074101E053
:101250006FF0704140F822100020F0BD0000F0CF88
:101260002DE9F0410A6801F1080750F8223023F017
:10127000010340F82230D1E900C3F0CFD1E9062EB6
:101280002343082C08BF43F040032B4333433B4325
:1012900001F120071A434EEA020EF8CFD1E90D28DA
:1012A00043EA0E032343104C2B4333433B431A437F
:1012B00050F82C3042EA080223401A4340F82C2010
:1012C0000A6BB2F5801F05D10A684AB1026842F480
:1012D000801202600A681AB1496B0268114301600A
:1012E0000020BDE8F08100BF8004C0FF2DE9F04779
:1012F00000EB8203174DAA46D3F80480D1E9042EEF
:10130000D1E90096D1E9027C8C6905EB025208F024
:10131000404545EA090545EA061545EA072545EA37
:101320000C452A4322430EF1FE0442EA04625A604D
:101330000268D2020BD54268096922F470020AEBF6
:1013400001511143426822F47002114341600020B0
:10135000BDE8F0870000F0FF014801F080BE00BF4B
:10136000200400582DE9F84F594A4FF00A0A4FF06F
:1013700000084FF0010B4FF0000C9042554A08BF97
:101380004FF0090A02444FEAB223092B38BF4FEA53
:10139000B22A00220D6835FA02F600F097800BFAA7
:1013A00002F715EA070900F084804E68122E00F259
:1013B00086800BFA06F414F0061F00F080800323E9
:1013C00003FA0CF48368CD68A34305FA0CF56FEAC1
:1013D000040E2B43836033094568BD439340570097
:1013E0002B434360C3688C6803EA0E03BC4023436D
:1013F000C36046F01003122B11D16FF0030508F003
:101400001C030F2405EA52059C4005442E6A26EA77
:1014100004040E6906FA03F323432B624E68036843
:1014200006F0030403EA0E03BC4023430360F30009
:101430003FD52A4C2A4F4FF0B04E236843F00203A9
:10144000236023680F2403F002030093009D08F03B
:101450000C0322F003059C400AFA03F3EE5926EA36
:1014600004042343EB511C4FFB6F4D6843EA09040E
:10147000EE0358BF23EA0904FC67AE03D7F88030B7
:1014800043EA090458BF23EA0904C7F88040EE0282
:10149000DEF8003043EA090458BF23EA0904CEF815
:1014A0000040AD023B6843EA090458BF23EA09043F
:1014B0003C6008F104080CF1020C01326AE70323D6
:1014C000674603FA0CF46FEA040E8BE7BDE8F88F69
:1014D000002402580000FEA704000058F4440258FB
:1014E0000804005801480068000C70470010005CB8
:1014F00080B503F0DFFB022803D1BDE8804003F094
:10150000EFBB1F480068800B68B100BF013800BF07
:1015100000BF00BF00BF00BF00BF00BF00BF00BFD3
:1015200000BF00BFF0E7024908680130086080BDD5
:10153000C001002480B5032000F09EF800F022FED8
:101540000E495A4B0A68096801F00F01C2F30322E1
:10155000595C9A5C01F01F0102F01F02D040084A5A
:101560001060C840074908600F2000F00DF808B16E
:10157000012080BD00F04AF8002080BD18440258C8
:10158000140000241800002400207047027811493C
:1015900043780B60D2B143684B60037B42EA03722D
:1015A000C37A42EA0362837A42EAC342437B42EA55
:1015B0008342837B42EA4342C37B42EA0342437A4B
:1015C000007A42EA032242EA400001E0002048603B
:1015D0008860704798ED00E00B48BFF35F8F0168AB
:1015E00021F480310160002101677047064940F015
:1015F00001000867086840F480300860BFF34F8F2F
:10160000BFF36F8F704700BF24ED00E0704700000C
:10161000002808D400F01F010122400902FA01F15C
:10162000014A42F82010704700E100E0F0B5184B85
:101630004FF0FF361C68C4F30224E51E84F0070453
:1016400038BF002506FA05F7BA43042C28BF042446
:1016500006FA04F4A14300F00F04A940043C11432E
:101660002344044A09010C33B0F1FF3FC8BF83187B
:101670001970F0BD00E400E005494FF6FF030A6869
:101680001A4060F30A22034810430860704700BF05
:101690000CED00E00000FA0580B500F03DFD0249C8
:1016A000024A01F022BC00BF204402585C700008CE
:1016B000B0B51C498B6A8A6ACC6ACD6BC2F305321D
:1016C000B2B1C4F3001401F05DFD15D0BBB90B68D5
:1016D0009B0651BF9FED161A0B68C3F3C103154C4F
:1016E00042BF24FA03F301EE103AB8EE411A08E0C3
:1016F0000021C0E9001112E09FED0C1A01E09FEDFE
:101700000A1A8B6B9FED0C3A01F0FDFC8A6B01F01D
:1017100042FB8A6B01F077FC896B01F026FC81604B
:10172000B0BD00BF004402580024744A20BCBE4B28
:101730000024744C0090D00300000039B0B51C495F
:101740008B6A8A6ACC6A4D6CC2F30552B2B1C4F39B
:10175000002401F017FD15D0BBB90B689B0651BFE3
:101760009FED161A0B68C3F3C103154C42BF24FA50
:1017700003F301EE103AB8EE411A08E00021C0E987
:10178000001112E09FED0C1A01E09FED0A1A0B6C9C
:101790009FED0C3A01F0B7FC0A6C01F0FCFA0A6C00
:1017A00001F031FC096C01F0E0FB8160B0BD00BFCD
:1017B000004402580024744A20BCBE4B0024744CE0
:1017C0000090D003000000392DE9F0470446C078AE
:1017D000A74F00071CD5606E4FEA3051032908D887
:1017E000DFE801F002090C11F96941F40031F961F7
:1017F00009E001260DE001F080FB01E001F06CFC46
:10180000064630B9606E396C21F4401108433864E3
:1018100000266078BA46C00701D1354620E0606DE9
:1018200004280BD83546DFE800F0030C0F12120035
:10183000F869354640F40030F86108E001250127D9
:101840000FE001F07EFC01E001F03CFB05462F4675
:101850003DB9606D01F044FB21F0070101F0A1FBEF
:101860003746607880071ED5A06D4FEAB010042877
:1018700007D8DFE800F003090C0F0F0001F0ECFAC5
:1018800008E0012501260FE001F05BFC01E001F01A
:1018900019FB05462E463DB9A06D01F021FB21F450
:1018A000E07101F07EFB3E466078400702D4B0460E
:1018B000574623E0D4F8A40057464FEA7050042856
:1018C00007D8DFE800F0030A0D10100001F025FB37
:1018D00009E001254FF0010810E001F032FC01E0C1
:1018E00001F0F0FA0546A84645B9D4F8A400B96C51
:1018F0000025B04621F460010843B8646078000711
:1019000020D5D4F8A8004FEA3060042807D8DFE8D3
:1019100000F003090C0F0F0001F0FFFA08E00125A9
:10192000012710E001F00DFC01E001F0CBFA0546C3
:101930002F4645B9D4F8A80001F0CDFA21F0E061B6
:1019400001F0DFFA4746E07880071DD5A06C4FEA2A
:101950003010032806D8DFE800F00B02080B01F076
:101960007BFA05E0012501260FE001F0C6FA0546E5
:101970002E4655B9A06CDAF83C100025524621F0ED
:1019800030010843CAF83C003E466078C0061ED5C8
:10199000E06D4FEA3030042807D8DFE800F0030993
:1019A0000C0F0F0001F058FA08E0012501270FE0A5
:1019B00001F0C7FB01E001F085FA05462F463DB96D
:1019C000E06D01F08DFA21F4E04101F0EAFA3746CA
:1019D000607880061BD5206E4FEA3040052807D876
:1019E000DFE800F00C03090C0C0C01F070FA04E0C5
:1019F000012501260CE001F0BAFB05462E463DB953
:101A0000206E01F06DFA21F4E02101F0CAFA3E46A1
:101A1000607840061DD5D4F8AC004FEA3070052838
:101A200007D8DFE800F00C03090C0C0C01F04FFAAA
:101A300004E0012501270DE001F099FB05462F4642
:101A400045B9D4F8AC0001F046FA21F0E04101F0CC
:101A500058FA37466078000618D5E06E68B1B0F1E4
:101A6000005F07D0B0F1805F22D101F0F5F904E00A
:101A70001044025801F02BFA05462E463DB9E06E9F
:101A800001F02EFA21F0405101F08BFA3E46E07849
:101A9000C00702D1B04657461EE0606C5746032887
:101AA00009D8DFE800F00F020C0F01F036FA09E068
:101AB00001250126EBE701254FF001080CE001F0BC
:101AC0001CFA0546A8463DB9606CF96B0025B04686
:101AD00021F003010843F863A078400601D447468B
:101AE00016E0D7F8F00340F48070C7F8F003FFF772
:101AF000FFFC0646D7F8F003C00507D4FFF7F8FC53
:101B0000801B6428F6D90325032701E02F467DB109
:101B10002078C00746D0A06F4FEAF000052832D8E1
:101B2000DFE800F037033437373701F0D0F92FE022
:101B3000DAF86010D4F8B0005546414011F4407F07
:101B40000BD0296E2A6E42F480322A6621F440714D
:101B50002A6E22F480322A662966B0F5807F40F032
:101B6000BD81FFF7C5FC064641F288390327DAF844
:101B70006000800700F1AF81FFF7BAFC801B0325EE
:101B80004845F4D9C4E7012501260CE001F0EFFA3D
:101B900005462E463DB9A06F01F0B7F921F0380196
:101BA00001F003FA3E462078800719D5606F0528BA
:101BB00007D8DFE800F00C03090C0C0C01F087F9E2
:101BC00004E0012501270CE001F0D1FA05462F467B
:101BD0003DB9606F01F099F921F0070101F0E5F9D5
:101BE0003746207840071BD5D4F89000052807D841
:101BF000DFE800F00C03090C0C0C01F068F904E0BC
:101C0000012501260DE001F0B2FA05462E4645B940
:101C1000D4F8900001F05FF921F0070101F071F9AB
:101C20003E46207880061DD5D4F88C004FEA3070EF
:101C3000052807D8DFE800F00C03090C0C0C01F0B4
:101C400080FA04E0012501270DE001F045FA054680
:101C50002F4645B9D4F88C0001F057F921F0E04146
:101C600001F0A3F93746207840061DD5D4F8980036
:101C70004FEAB020052807D8DFE800F00C03090C74
:101C80000C0C01F05EFA04E0012501260DE001F0E4
:101C900023FA05462E4645B9D4F8980001F01BF901
:101CA00021F4E05101F02DF93E46207800061DD5C3
:101CB000D4F89C004FEA7030052807D8DFE800F020
:101CC0000C03090C0C0C01F03CFA04E0012501277F
:101CD0000DE001F001FA05462F4645B9D4F89C0005
:101CE00001F0F9F821F4604101F00BF93746206862
:101CF000010713D5D4F88000B0F5805F06D101F05C
:101D0000EBF9002818BF0127D4F88000DAF8441056
:101D1000524621F4405101F048F92068C10613D51C
:101D2000D4F89400B0F5807F06D101F0D5F90028F1
:101D300018BF0127D4F89400DAF84810524621F46D
:101D4000407101F0DEF82068000318D5D4F8A00037
:101D5000B0F5003F09D0B0F5803F03D010BB01F0D3
:101D6000F0F901E001F0B8F905462E4645B9D4F87E
:101D7000A00001F0B0F821F4403101F0C2F83E4675
:101D8000A07840071ED5D4F88400B0F5401F0FD0CE
:101D9000B0F5001F09D0B0F5801F40F0998001F028
:101DA0005BF805E001250126EAE701F0E0F90546C8
:101DB0002F4645B9D4F8840001F0A7F821F440116A
:101DC00001F0F3F83746A078C00701D13E4619E08C
:101DD000E06CB0F5803F03D090B901F03DF802E02F
:101DE00001F08BF805462E4665B9E06CDAF83C1038
:101DF0000025524621F480310843CAF83C00E5E74B
:101E0000012501262068810005D501F065F900282B
:101E100018BF0126206881031BD5E16F6FF0010216
:101E200002EB3122022A0AD34FEA31223AB1012AC7
:101E300006D1DAF81C2042F40032CAF81C200DB199
:101E4000012606E0DAF8442022F440721143CAF871
:101E50004410C10207D5216FDAF8402022F0004279
:101E60001143CAF84010C10008D5D4F8B410DAF80C
:101E7000002022F480421143CAF80010810207D5E5
:101E8000A16EDAF8402022F080721143CAF84010A7
:101E900041000CD5DAF8001021F40041CAF8001016
:101EA000D4F8B810DAF800201143CAF80010B0F1E5
:101EB000FF3F07DC206DDAF83C1021F04051084369
:101EC000CAF83C00002E18BF01263046BDE8F08756
:101ED0000125012777E75546D4F8B0002A6809495B
:101EE00000F4407322F47C5201EA1011B3F5407FF4
:101EF0006FF31F3008BF0A432A60296E0843286623
:101F00000025ECE5CFFFFF002DE9F843002800F0A5
:101F1000FB807F4D04468846286800F00F00884209
:101F20000BD2286820F00F0040EA080028602868DB
:101F300000F00F00404540F0E7802068C64F4107A1
:101F400009D52169BA6901F08FF804D9BA6922F07C
:101F500070021143B961010709D56169FA6901F09D
:101F600083F804D9FA6922F070021143F961C106BD
:101F70000AD5A169FA6902F4E062914204D9FA69CA
:101F800022F4E0621143F961810609D5E1693A6AF8
:101F900001F06AF804D93A6A22F0700211433962FA
:101FA00010F002010AD0E268BB6903F00F039A4205
:101FB00004D9BB6923F00F031A43BA61C2073AD0B0
:101FC000D4E90101BA6922F470621143B9610128B0
:101FD00007D0032809D002280BD1396889030CD413
:101FE00092E03968C90508D48EE03968890104D4C3
:101FF0008AE03968490740F187803969A94621F0AC
:10200000070108433861FFF773FA064641F2883545
:102010006068396901F03801B1EBC00F07D0FFF7F4
:1020200067FA801BA842F3D90320BDE8F883206833
:102030004D4600F0020151B1E168BA6902F00F02A9
:10204000914204D2BA6922F00F021143B9612968A2
:1020500001F00F0141450AD9296821F00F0141EA39
:1020600008012960296801F00F0141454CD1410761
:1020700009D52169BA6900F0F7FF04D2BA6922F0E4
:1020800070021143B961010709D56169FA6900F06D
:10209000EBFF04D2FA6922F070021143F961C10624
:1020A0000AD5A169FA6902F4E062914204D2FA69A0
:1020B00022F4E0621143F96180060AD5E069396AC9
:1020C00001F07001884204D2396A21F0700108439E
:1020D000386200F057F8B969294A1C4BC1F3032153
:1020E000515C01F01F01C840B969186001F00F018F
:1020F000515C01F01F01C84015490860054800689F
:10210000BDE8F843FFF740BA0120BDE8F88300BFFF
:10211000002000521000002480B500F033F80A4976
:10212000174B0A68096801F00F01C2F30322595CDA
:102130009A5C01F01F0102F01F02D040034A1060B8
:10214000C8400349086080BD1844025814000024A8
:102150001800002480B5FFF7DFFF0849084A096826
:10216000C1F3021100F0B3BF80B5FFF7D5FF0349FB
:10217000034A0968C1F3022100F0A9BF1C440258B8
:102180005C70000810B534490869C0F3C200032828
:102190000FD0022804BF324810BD40B9086880063D
:1021A000334858D50968C1F3C101C84010BD2B4858
:1021B00010BD8A6A886ACB6A4C6BC0F30510F0B117
:1021C00003F00103C4F3CC0402F003026343022AC8
:1021D00000EE103AB8EE400A13D0AAB90A68920687
:1021E00051BF9FED221A0A68C2F3C102204B42BFC1
:1021F00023FA02F201EE102AB8EE411A06E000209E
:1022000010BD9FED191A01E09FED161A0A6B9FEDA4
:10221000193A6FF35F2202EE102AB8EE422A00EE5E
:10222000032AB7EE000A32EE000A02EE100A086B2B
:10223000C0F34620B8EE422A013081EE021A21EEA8
:10224000000A01EE100AB8EE411A80EE010ABCEE57
:10225000C00A10EE100A10BD0044025800093D00EB
:1022600040787D010024744A20BCBE4B0024744C8D
:102270000090D00300000039F8B5002800F0E1809C
:1022800004460078D14EC00712D0306900F0380102
:10229000B06A102905D018292AD100F003000228BD
:1022A00026D13068800303D56068002800F0C9801B
:1022B000207880074AD5306910F03801B06A26D0FE
:1022C000182901D1800722D03068E168002900F088
:1022D000018120F01900084300F05AFD05463068DE
:1022E00040071BD4FFF704F9401B0228F7D94FE140
:1022F0006068002800F02581B0F5A02F00F0338140
:10230000B0F5803F00F0338100F09EFD32E130688F
:10231000400703D5E068002800F09380FFF7E2F85B
:1023200041F2030188420AD82069716821F47C31A6
:10233000402814BF41EA003041F4003005E0206934
:10234000716821F0FE4141EA006070602078C006AB
:102350003DD5306900F03801B06A082905D0182948
:102360001BD100F00300012817D13068C00502D549
:10237000E069802865D1FFF7B5F841F20301884292
:102380001ED8206A716821F0F841202814BF41EA64
:10239000806041F08040706019E03068E169002998
:1023A00000F0C08040F0800000F0F2FC054630688C
:1023B000C005E0D4FFF79CF8401B0228F7D9E7E0FE
:1023C000206AF16821F07C5141EA0060F0602078D9
:1023D000000738D42078800647D42078400756D4A8
:1023E000676A67B3306900F03800182840F0D2807F
:1023F000B16A306B012F24D0A26A01F0030393422B
:102400001FD1E26AC1F3051191421AD10146226B34
:102410006FF35F21013A914213D1626BC0F3462101
:10242000013A91420DD1A26BC0F30641013A9142AB
:1024300007D1E16BC0F306600139884201D1002069
:102440004EE10120F8BD706F616999B340F0010061
:102450007067FFF74DF80546706F8007BAD4FFF735
:1024600047F8401B0228F7D992E03068A16900299B
:1024700049D040F4805000F08BFC05463068800461
:10248000ABD4FFF735F8401B0228F7D980E0D6F827
:10249000000440F48070C6F80004FFF729F80546F0
:1024A000D6F80004C00524D4FFF722F8401B6428A6
:1024B000F6D96DE020F001007067FFF719F80546C6
:1024C000706F80077FF586AFFFF712F8401B022878
:1024D000F6D95DE020F0010000F05AFC05463068B6
:1024E00040077FF533AFFFF703F800F088FDF6D91A
:1024F000F6E0A06800286BD005287CD001287ED0AB
:1025000000F02BFD7EE020F4805000F041FC0546F9
:10251000306880047FF561AFFEF7EAFF00F06FFDE1
:10252000F6D9DDE020F0800000F032FC054630688E
:10253000C0057FF54CAFFEF7DBFF00F060FDF6D97C
:10254000CEE000F081FC00F023FC054641F2883724
:10255000306880037FF5ACAEFEF7CAFF411B032055
:10256000B942F5D9BCE0306840F480203060306872
:1025700040F4803000F00CFC054641F288373068AA
:1025800080033FF595AEFEF7B3FF401BB842F6D986
:102590000320F8BD306820F0807000F0F9FB05469C
:1025A000022F08D1306880013DD5FEF7A1FF00F071
:1025B00026FDF7D994E0306880017FF540AFFEF743
:1025C00097FF00F01CFDF6D98AE000BF00440258D6
:1025D00000F0C3FC3067FEF78BFF054641F28837F9
:1025E000306F80077FF5FCAEFEF782FF411B0320B2
:1025F000B942F5D974E0306F40F004003067306FB5
:1026000040F001003067FEF773FF054641F288375E
:10261000306F80073FF5E4AEFEF76AFF411B0320F1
:10262000B942F5D95CE004F12805B06A40F2F33113
:1026300088432ECD0843591E40EA0210B0626FF362
:102640005F214FF4FE024FF47E4000EB452080B244
:102650000844A16B02EB01414FF0FE4201F4FE0180
:102660000844E16B02EB016101F0FE410844306374
:102670004FF6F871F06A20F00100F062706B884349
:10268000A16C40EAC1007063206CF16A21F00C017A
:102690000843F062F06A616C20F002000843F062C7
:1026A000F06A40F48030F062F06A40F40030F0628A
:1026B000F06A40F48020F062F06A40F00100F062BD
:1026C000306840F0807000F063FB044630688001A1
:1026D0003FF5B5AEFEF70CFF011B03200229F5D92B
:1026E000F8BD00001E4800F033BC00BF70B370B5E9
:1026F000044690F8450015460E4628B9002084F897
:102700004400204600F026F8206804F10801FEF796
:10271000A7FD2068A2683146FEF7E8FDD4E9010272
:10272000E36A2946FEF780FD2068A16850F8212061
:1027300042F0010240F821200548016841F00041C3
:102740000160012084F84500002070BD0120704721
:102750000040005270470000014800F0B3BC00BFC9
:1027600010E000E058B110B500F0BBFC03D100F060
:1027700025FC00F006F800F010FD00F075BB01200C
:102780007047704790F83D1001290ED1022180F862
:102790003D10084A01688868734600F088FC9E4630
:1027A00018BFB2F5803F02D170470120704700F09A
:1027B0009DBC00BF0700010010B548B10446D0F829
:1027C000800008B900F02EFC00F0FCFA012801D1CD
:1027D000012010BDA06A08B100F001FC00F0F8FB78
:1027E00021F02A01816000F09BFCBDE8104001F05F
:1027F000B9B8704709490968084018BF01207047F7
:1028000000290649096814BF084321EA000003496A
:102810000860086802490860704700BFCC010024C6
:1028200000100060B0B5234A9168B1F1FF3F38DD78
:102830002149136822A44B62137981F82830537917
:10284000CB6253690B63D3888B8693688B63D368A1
:10285000CB6392690A64194B0022292A06D0A55C31
:10286000DD601D686D06FCD50132F6E700220A60C6
:102870000A68002AFCD002684A6042688A6082685E
:10288000CA60C2680A6102694A6142698A618269F2
:10289000CA61C06908620020086008680028FCD08E
:1028A000B0BD916841F00041916081690231816160
:1028B000B0BD00BF24ED00E07C0100241C100140ED
:1028C0000D0A456E74657220486172644661756CCC
:1028D000745F48616E646C65722C20537973746503
:1028E0006D2048616C742E0D0A000000F8B5044696
:1028F00007280ED8FF2500260027072E17D8F0B28C
:1029000000F03AF900281CBF354601200744013683
:10291000F3E7092C15D0082C1DD1002000F02CF96C
:10292000C8B10120012400F027F9A8B913E0F9B2D9
:1029300085EA040081F001010843B0FA80F04409FF
:102940000AE0012000F018F928B1022000F014F983
:1029500008B1012400E000242046F8BD2DE9F0472D
:102960002DED108B9AB090ED010A7C4C92460D46ED
:102970000646A047B0EE408A96ED020AA047B0EEA8
:1029800040DA96ED040AA047B0EE40AA96ED050A9B
:10299000A047B0EE409A00F05BFBA04768EE009ABB
:1029A000B0EE40CA96ED010A6D4F6AEE29AAB8470B
:1029B000B0EE40BA96ED020AB847F0EE408A96EDC6
:1029C000040AB847B0EE40FAEBEE00AA96ED050A0D
:1029D000B847B0EE40EA00F03BFBB84720EE482A8B
:1029E0009AF80000B1EE401A00282EEE023AA9EE45
:1029F0002A3A40D029EE022A8DED073A2FEE013A0D
:102A00002CEE494A00201690CDE917008DED133ABF
:102A10002AEE003AAEEE6A2AA3EE0E4A8DED082A9F
:102A20002AEE4B2A8DED124A9FED4F4AA9EE8F2ACE
:102A30008DED092A9FED4B2A28EE822AACEE042A5E
:102A40008DED142A00F08CFB8DED112A00F054FB63
:102A50008DED0E2A00F0D1F98DED0A0A2CEE4A0A0E
:102A60008DED0F3A00F0BEFA8DED0C2A8DED0D1AAA
:102A700001A860303FE029EE022A85ED063A2FEEEC
:102A8000013A2CEE494A0020C5E91500E86585EDBC
:102A9000123A2AEE003A05F16000AEEE6A2AA3EE81
:102AA0000E4A85ED072A2AEE4B2A85ED114A9FED45
:102AB0002E4AA9EE8F2A85ED082A9FED2A2A28EEB4
:102AC000822AACEE042A85ED132A00F049FB85ED3D
:102AD000102A00F011FB85ED0D2A00F08EF985ED2E
:102AE000090A2CEE4A0A85ED0E3A00F07BFA85EDD4
:102AF0000B2A85ED0C1A4FF07E51016001A81835A4
:102B00004FF001090FF26C0818A600F11807B9F18F
:102B1000050F1BD00024102C10D09AF80010381983
:102B2000002908BF281990ED000AB7EEC00A304608
:102B300053EC102B03F0EEFA0434ECE7404604F0BB
:102B4000CFF91437143509F10109E0E701208AF8BB
:102B500000001AB0BDEC108BBDE8F087F13D000815
:102B6000813E000800007AC3008089432531312E60
:102B7000366620000D000000074901EBC00251F845
:102B80003000938800699179184018BF0120081A15
:102B9000B0FA80F04009704700720008F0B501F10A
:102BA000140C14304FF0010E9FED140ABEF1040F07
:102BB00008BFF0BD01246146042C1AD002EB0E15AB
:102BC000B0EE401A002605EB840745F824600D4658
:102BD0000C2E0BD0831995ED003A1035043693ED89
:102BE000002AA2EE031A87ED001AF1E7043101343E
:102BF000E2E710300EF1010ED8E700BF0000000040
:102C0000FEE710B500F1280151E8002F12B9BFF31B
:102C10002F8F04E0531E41E8003404B1F4E772B191
:102C20002C300121006850B1821CD2E84F3FC2E82D
:102C3000441F04B1F9E71A0602D00830F2E7002079
:102C400010BD70B5024652F8305F4DB1CC7800230C
:102C50005DB12E46ED78A5420DD275683346F7E793
:102C60000023C1E90133C1620DE00024C1E9014341
:102C700000F12C0403E0C1E9016306F108042160BE
:102C8000002B18BF1A1D1160283050E8001F4A1C85
:102C900040E8002303B1F8E770BDD1E9012312B188
:102CA00093608B6800E0C362191D002B08BF00F120
:102CB00030010A60704770471A480068704700BFCB
:102CC00019480178012905D105494FF080620A6051
:102CD000002101701348016841F001010160704753
:102CE00004ED00E04FF0FF307047000040B10B49A9
:102CF0000968B1FBF0F0411E0020B0EB116F02D06B
:102D00004FF0FF307047064AFF231370054A062331
:102D100013605160044908709060704714000024EB
:102D200023ED00E010E000E0E896002490ED000ABA
:102D30005046B7EEC00A53EC102B03F0EBB9B7EED8
:102D4000C00A80EE090B20EE0A0BB7EEC08BB0EE86
:102D5000480A3847BFF34F8FBFF36F8F704706EBBA
:102D6000460084F80A800130C0B201F029BC6060DE
:102D70002168084020607047608AD4E90012105C26
:102D80008862608A01306082A18980B2884270477F
:102D90003060FEF7ADBBC2F34622B8EE433A32EEE6
:102DA000002A81EE031A21EE021A02EE102AB8EE72
:102DB000422A32EE002A81EE022ABCEEC22A80EDBF
:102DC000002A70472420C4F880002068016821F0A0
:102DD00001010160204600F0F1BD0022FDF7B8BFFF
:102DE0002168D4E90223204602F048B920466FF05A
:102DF00003016FF00305FEF72DB9B2EE042A2DEEA4
:102E0000022AA0EE032AB3EE090A2BEE003A28EEBE
:102E1000000A20EE020A23EE023A2BEE012A29EEE6
:102E2000011A7047C4F8DC00D4F8DC007047C0B267
:102E300001F0C6BB386840F001003860386800F027
:102E40000100309030987047306820F48030306056
:102E5000306820F480207047DAF81C00514640F4B6
:102E60000030CAF81C007047012084F8480084F83C
:102E70003E0084F83F0084F8400084F8410084F864
:102E8000420084F8430084F8440084F8450084F844
:102E9000460084F8470084F83D00002010BD13462A
:102EA0000A4601460020009070474FF0FF304FF077
:102EB000FF34FEF759B80021002206464FF0000803
:102EC00002F068BC04F12400002100F0CDB9201DFF
:102ED000012100F069B9DAF8481000255246704720
:102EE000DAF840100025524670470968C1F3021114
:102EF000515C01F01F01C84080BD201D022100F07F
:102F000053B90843CAF848007047DAF8441000255E
:102F1000524670473860FEF7EBBAF86940F400306B
:102F2000F861704795ED091A95ED0E0AB1EE411A58
:102F3000B7EEC00AB7EEC11A03F002BA386840F023
:102F400002003860386800F0020000900098704776
:102F5000016841F0020101607047306F20F001000C
:102F60003067306F20F004007047C1F3066102EE55
:102F7000101AB8EE422A32EE000A81EE000ABCEEC8
:102F8000C00A10EE101A704714460A460146009314
:102F900070476FF00500FDF7E7BF20464146FEF79A
:102FA00081B80843CAF8400070470843CAF8440093
:102FB000704700222B46204600F04CBE002084F8CB
:102FC0003C00204670471968C1F3C101C8407047F2
:102FD0002068416821F49041416081687047204633
:102FE00000F06CBC2EEE022A2BEE011A20EE0B0A2A
:102FF000A8EE0F0AA9EE402AAEEE001A7047411B58
:10300000032002297047C2F3064202EE102AB8EEEE
:10301000422A32EE002A81EE022ABCEEC22A80ED5C
:10302000012A7047002084F87C002046FFF7E1BBAE
:103030002346FDF7ABBE6FF0050080BD6FF00301C6
:103040006FF00306FEF706B80021C16002F078BBFE
:1030500096ED020A96ED031A30EE010A70470168F8
:1030600041F001010160704702F070029142704727
:10307000B8626FF35F214FF47E4000EB42204FF0C7
:10308000FE4280B208444FF4FE0101EB034101F41B
:10309000FE010844296902EB016101F0FE41084488
:1030A0007047204602F0B6BA204602F0DCBA024071
:1030B0000020062A7047B1EEC10AB4EE400AF1EED4
:1030C00010FA7047016821F0020101607047515CFD
:1030D00001F01F01C84080BD04F12400022100F06E
:1030E000C3B8044690F83D0000287047086840F0D7
:1030F00001000860002070472CEE0B2A22EE0F2AF8
:10310000A8EE0A2A70476FF35F2302EE103AB8EE7A
:10311000422A00EE032A03EE102AB7EE000A704797
:10312000016841F0010101602046704794F82320B6
:10313000616A204600F06CBBB7EEC00AB7EEC11A58
:103140003047201D002100F02FB821F4D07101601C
:10315000816821F0010181602020C4F8800070475F
:1031600029EE032AB2EE063A9CEE4E2A704704F18D
:103170002400012100F078B8A86968612146012087
:1031800001F0A0BEC5F3CC0503F003036C43022B92
:1031900000EE104AB8EE400A7047022084F83D0065
:1031A000211D206800F0CEBAF8B5B74F0546B86AC1
:1031B00000F00300032804BF0120F8BD38680C4666
:1031C00020F08060FFF7A6FE06463868000105D5AE
:1031D000FEF78EF9801B0228F7D941E095E80F0031
:1031E000BE6A26F47C36013946EA0030FFF740FF1C
:1031F000B8636869F96A21F0C0010843F862A869F8
:10320000F96A21F020010843F8624FF6F871F86A74
:1032100020F01000F862F86B8843E969012C40EA5D
:10322000C100F863F86A40F01000F8624FF4001033
:1032300008BF4FF48010002C08BF4FF40020F96A3B
:103240000843F862386840F08060FFF763FE044688
:103250003868000106D4FEF74BF9001B0328F7D3AA
:103260000320F8BD0020F8BDF8B5874F0546B86AC1
:1032700000F00300032804BF0120F8BD38680C46A5
:1032800020F08050FFF746FE06463868800005D5DE
:10329000FEF72EF9801B0228F7D941E095E80F00D0
:1032A000BE6A26F07C76013946EA0050FFF7E0FE60
:1032B00038646869F96A21F440610843F862A869D2
:1032C000F96A21F400710843F8624FF6F871F86A60
:1032D00020F48070F862786C8843E969012C40EA38
:1032E000C1007864F86A40F48070F8624FF0807032
:1032F00008BF4FF40000002C08BF4FF48000F96AAB
:103300000843F862386840F08050FFF703FE044637
:103310003868800006D4FEF7EBF8001B0328F7D3CB
:103320000320F8BD0020F8BDFEB50C48016841F04F
:1033300002010160006800F0020000900320049088
:10334000002003900120029004200190009801A920
:103350000348FEF707F806B080BD00BFE0440258FE
:1033600000040258704700000448042101607047BF
:1033700002484FF480210160704700BF18040258D2
:1033800010B5EF4CA06828B1A0680138A06001D149
:103390000120A0700020012130280ED02218136ACD
:1033A0004BB1136A013B136205D15177137F012B97
:1033B00001D1536A13620C30EEE760686FF0004190
:1033C000013060606068884201D10020606001F0D7
:1033D00007F9607801306070C0B20A2838BF10BDAC
:1033E00000206070BDE8104001F0F8B8B0B5244886
:1033F000244BD0F8801041F47001C0F88010196897
:1034000001F00F01062904D81968072262F30301AD
:103410001960AA491D4D0A6842F001020A600022A3
:103420000A610C682C400C601C68240704D51C68D9
:10343000072565F303041C60154B8A61CA610A62A3
:103440008B62144BCB62144B0B634A638B63CA636E
:103450000B644A640B6823F480230B600A660F49EF
:103460000968B2EB517F02D10D4901220A600D4972
:1034700043F2D2020A604FF000610160B0BD00BFAC
:1034800008ED00E000200052004402587FEDF6EA0B
:10349000000202020000FF01800201010010005C36
:1034A00008810051004000522DE9F0419CB0FEF728
:1034B00093F812208DF80C000DF1040803248DF808
:1034C0000F404FF0105002900120ADF804007748F3
:1034D00004904FF48070ADF80D004046FEF756F8AA
:1034E0000F208DF80C0000258DF80F40ADF80D5021
:1034F0004FF0C040029040F20110ADF804004FF0D0
:10350000807004904046FEF741F80420FEF76EF804
:103510006748016889030BD4FFF71CFCC0F83C52D4
:10352000FFF718FC016841F400310160FFF712FC5D
:103530000168C90324D40021016743F6E07CBFF38E
:103540004F8FC26EC2F3C903C2F34E319A075C1C9F
:103550000CEA41161746234647EA060507F140479D
:10356000013BC0F84C52F7D14B1E00291946EFD150
:10357000BFF34F8F016841F480310160FFF7EAFB30
:10358000FDF7D8FF14A82021FCF781FF08F10800FF
:103590004421FCF77CFF4748016821F004010160E9
:1035A0000021009144490A6822F001020A6009687A
:1035B00001F001010091C16841F44041C160C1685E
:1035C00001F4404100910099C1688904FCD50220B2
:1035D00010900E90CDE90A00A02100240D9108253D
:1035E00008940494129411954FF4803002900521B0
:1035F0000C910120019004200F9001A8FEF73CFEE1
:1036000000B1FEE740201B90CDE918004FF4806127
:103610001A91CDE916450320159004213F201490FE
:1036200014A8FEF771FC00B1FEE7244C206840F0BE
:1036300080002060D4F8F40040F00200C4F8F400E8
:10364000D4F8F40000F0020000900098FDF784FE2A
:10365000D4F8DC0040F00050FFF7E4FB00F000502D
:1036600000900098D4F8DC0040F08040FFF7DAFBCF
:1036700000F0804000900098D4F8DC0040F000405A
:10368000FFF7D0FB00F0004000900098D4F8A800AD
:1036900040F08050C4F8A800D4F8A80040F00050D2
:1036A000C4F8A8001CB0BDE8F08100BF0000010113
:1036B00014ED00E00C4802582C0400580044025855
:1036C00010B51E4C61682068890709D510F002000A
:1036D00006D04FF6FD70FFF74AFB1948C0688047D7
:1036E00061682068490709D510F0040006D04FF63C
:1036F000FB70FFF73CFB1248006980476168206857
:10370000090709D510F0080006D04FF6F770FFF74B
:103710002EFB0B484069804761682068C9060BD5BD
:1037200010F0100008D04FF6EF70FFF720FB0448B0
:103730008069BDE81040004710BD00BF0C0000408C
:10374000D800002470B52A4A0368904222D0B0F114
:10375000804F1CBF274CA04240D123F070034C681F
:103760002343B0F1804F19D0224CA0421CBF224C01
:10377000A04213D0224CA0421CBF204CA0420DD02E
:10378000204CA0420AD0204CA04207D01F4CA0429F
:1037900004D007E023F070034C682343CC6823F483
:1037A000407323434E6923F080030C688D683343D4
:1037B0000360C562846290420BD0104A904208D0E8
:1037C000104A904205D0104A904202D00F4A9042CF
:1037D00001D1096901630121416170BD064CA0421C
:1037E000BBD0064CA042B8D0054CA042B5D0B8E73B
:1037F00000000140000400400008004000040140B7
:10380000000C0040004001400048014000440140DD
:1038100010B5930712D400F12803D00715D153E84F
:10382000000F084203D1BFF32F8F002005E020EAEC
:10383000010243E8002404B1F1E710BD806AD20719
:1038400000EA010312D1A3B912E053E8000F00EA25
:1038500001028A4203D0BFF32F8F002005E020EA47
:10386000010243E8002404B1EFE710BD8B4200D011
:10387000002010BDB0B5104A0023443215462C6814
:103880003CB12569A94209D3491B04F10C05234623
:10389000F5E70024C0E90234016106E00161C0E9F6
:1038A0000234A0602569691A2161002B18BF03F159
:1038B0000C021060B0BD00BF1C00002410B5816A6E
:1038C000CA0706D00268C36A546824F4003423434C
:1038D00053608A0706D50268036B546824F4803469
:1038E000234353604A0706D50268436B546824F4A7
:1038F0008024234353600A0706D50268836B54680B
:1039000024F4004423435360CA0606D50268C36BFF
:10391000946824F48054234393608A0606D5026891
:10392000036C946824F40054234393604A060FD533
:103930000268436C546824F480141C435460B3F54B
:10394000801F05D1836C546824F4C0042343536062
:10395000090606D50168C06C4A6822F400221043AB
:10396000486010BDBCB504460020C4F88800FDF7CF
:10397000BFFD054620680168090708D56FF07E4045
:1039800000904FF40011FFF714FB58B9206800684D
:10399000400709D56FF07E4000904FF48001FFF79B
:1039A00008FB08B10320BCBD00202021C4F8801012
:1039B00084F87C00C4F88410BCBD0000FEB5044649
:1039C000016880688F4ED4E903230D682E401843A8
:1039D0006569636E2843E569284318438B4B304380
:1039E0000860894E486820F4405010434860A06940
:1039F000B1421CBF226A10438A681A40844B1043AC
:103A00008860626AC86A20F00F001043C86281486B
:103A100081421CBF804881420BD0804881421CBF3C
:103A20007F48814205D07F4881421CBF7E48814249
:103A300008D1586D00F00700062819D27F4F38448E
:103A4000077816E0B1420CD07848814202D078481D
:103A500081420DD1586DC0F3C200062808D2784FBC
:103A6000EDE7986D00F00700062801D271A7E6E7A0
:103A700080277448B1420FD00121B5F5004F1BD10A
:103A8000082F25D8DFE807F00569A8A86CA8A8A822
:103A90007000FEF75FFB6BE0402F2DD0042F2ED07F
:103AA000082F30D0102F36D0202F3AD0022F40F0E0
:103AB0009280FDF7F1FD2AE0082F13D8DFE807F028
:103AC000056D8C8C708C8C8C7400FEF743FB6FE062
:103AD000102F00F08980202F4CD0402F7CD14FF444
:103AE000004047E0102F00F08680202F62D0402F4A
:103AF00072D14FF400405DE04FF4004011E06846A1
:103B0000FDF7D6FD02E06846FDF718FE0198002893
:103B10005FD0626A05E0186880064B4801D5FFF760
:103B200052FA4A4931F812106268B0FBF1F002EB28
:103B3000420188424FD3B0EB023F4CD8010E000245
:103B400010EB520041F100010023FCF743FCA0F50B
:103B500040713F4A91423AD33DE0FEF705FB07E052
:103B60006846FDF7A5FD02E06846FDF7E7FD019810
:103B700078B3626A354931F81210B0FBF1F0616830
:103B80004A0802EB4000B0FBF1F04FF6F071014043
:103B900021D0C0F34200084319E0FEF7E5FA07E040
:103BA0006846FDF785FD02E06846FDF7C7FD019810
:103BB00078B1626A254931F81210B0FBF1F0616802
:103BC00000EB5100B0FBF1F080B2102803D3216864
:103BD000C860002100E0012100204FF00112C4E97B
:103BE0001A2020670846FEBD186880061648C1D511
:103BF000FFF7E9F9BEE7186880061348DAD5FFF742
:103C0000E2F9D7E7F369FFCF000C0058FFF4FF118A
:103C1000004402580044004000480040004C00406E
:103C20000050004000780040007C0040001401403B
:103C300000100140020408102040000056700008E7
:103C40005070000800093D000090D0035C7100082E
:103C500000FD0F002DE9F843DDF82090044698465A
:103C600016460F46006809F10105C1693940C91BB4
:103C7000B1FA81F14909B1421CD1002DF5D0FDF70F
:103C800037FCA0EB0802206801684A4515D8B9F155
:103C9000000F12D04907E8D5C1690905E5D54FF4F1
:103CA000006101620168FFF750FAC4F8840004F172
:103CB000880006E00020BDE8F883FFF746FA04F12B
:103CC0008400002184F87C10202101600320BDE8DD
:103CD000F8830000034800F007B800BF01482C300B
:103CE00000F002B82401002470B504460068C669DB
:103CF00005688168B10616D5406AA168E28A8854D1
:103D0000E18A4A1CE282E18992B28A4201D300220E
:103D1000E282628B8A4202D2618B01316183616AE5
:103D200009B1C0B28847300618D5280616D5A08A32
:103D300058B1012084F82800FFF71EF801D30020B5
:103D40006082A08A0138A08208E02068016821F022
:103D500080010160016841F040010160700617D5E3
:103D6000680615D5A08A40B1FFF706F801D30020F8
:103D70006082A08A0138A0820AE02168206A0A686D
:103D800022F040020A6000B18047002084F8280039
:103D90002068016A41F001010162016A41F00201FB
:103DA0000162016A41F004010162016A41F0080107
:103DB0000162016A41F010010162016A41F04001B3
:103DC0000162016A41F480710162016A41F400718B
:103DD0000162016A41F400310162016A41F480111B
:103DE0000162016A41F02001016270BDFEE700003E
:103DF0009FED201AB5EE002A00EE012A9FED1E1A53
:103E0000BDEEC20AB5EEC02AF1EE10FA10EE100AAD
:103E1000B8BF013800EE100A0020B8EEC00A32EE3A
:103E2000400A9FED162A20EE010ABCEEC01A11EEE0
:103E3000101A30EE021AB0EB512F18BF002102EE1B
:103E4000101A47F2402000FE010AC0F60000B8EE4A
:103E5000422A00EB810090ED011A30EE420AB7EEE3
:103E6000002A32EE402A20EE010A90ED001A02EEFE
:103E7000010A704783F9223E00000044000000C49C
:103E80009FED1F1A20EE010A9FED1F2ABDEEC01AFA
:103E9000B5EEC00AF1EE10FA11EE100AB8BF013803
:103EA00001EE100A0020B8EEC11A30EE410A9FED73
:103EB000151A20EE010ABCEEC01A11EE101A30EEEF
:103EC000021AB0EB512F18BF002102EE101A47F270
:103ED000402000FE010AC0F60000B8EE422A00EBC6
:103EE000810090ED011A30EE420AB7EE002A32EE60
:103EF000402A20EE010A90ED001A02EE010A7047F6
:103F000083F9223E00000044000000C410B580B1D7
:103F10000121F84C81F31088012808BF0220A0601D
:103F20000020A07080F3108800F01EF8A07801280F
:103F3000FAD110BDD2498A7AC87A824201D10020D2
:103F40007047885C0132D3B2092B88BF00228A7285
:103F5000704700BF012080F310880021E5484068C9
:103F600081F31088704700BF704780B500F00CF8EF
:103F700000F01EF900F0C6F900F018F800F084F91E
:103F8000BDE8804000F090B90648016841F08071BA
:103F90000160054800214160016841F001010160B4
:103FA000704700BFFCED00E0001000E02DE9F04399
:103FB0009BB050484FF003094FF0010802274E4DC7
:103FC0004E4E016841F008010160016801F00801EE
:103FD00008910899016841F010010160016801F041
:103FE000100108910899016841F0400101600168E1
:103FF00001F0400108910899016841F080010160D9
:10400000016801F0800108910899016841F480710C
:104010000160016801F480710891089950F80C1C46
:1040200041F4805140F80C1C50F80C0C00F4805006
:1040300008900898CDF82C90CDF8288009970C208E
:104040000C904CF2B370089008AC28462146B0475B
:104050004FF680700890214605F58060B04705F561
:1040600040602146CDF82090B0474FF47F40089043
:10407000214605F58050B04740F2CF6008902146B8
:1040800005F5A050B0474FF480510020CDE9100154
:104090001A90CDE91800CDE90E00CDE90A00CDE96E
:1040A0000670CDE90487CDE902772021CDE90C0126
:1040B000052001901249089104F1280001F5827150
:1040C00009911821FCF7E3F901A920460A46FEF7F9
:1040D0000DFB20B10BA04FF49271FCF7FAFD1148D3
:1040E00040F6147101601049006808601BB0BDE81B
:1040F000F08300BFE0440258000C0258651300082A
:10410000004000522E2E2F2E2E2F557365722F62D7
:1041100073702F7372632F6273705F666D635F6974
:104120006F2E6300CC0100240010006010B594B025
:1041300001AC302104F11C00FCF7A9F91948016811
:1041400041F00101016000684FF0FF3100F0010013
:10415000009004914FF08041019100208021CDE931
:1041600006010590039064480F490068B0FBF1F028
:10417000013880B2029000982046FEF7F3FA20B191
:104180000A484FF40C71FCF7A4FD1C200021022208
:10419000FDF74CFA1C20FDF73BFA01A8FEF7F2FAF6
:1041A00014B010BDE844025880841E00CD7A000887
:1041B00070B586B0324800210222642300240173C6
:1041C0004181EC48A02C05D00519103429732A71BF
:1041D000AB60F7E706216422A0F86B10A0F8682016
:1041E000A0F85B10A0F85820A0F84B10A0F84820C9
:1041F000A0F83B100287AE480025224E016841F02E
:1042000002010160016801F0020101910199016858
:1042100041F004010160016801F00401019101997C
:10422000016841F040010160016801F04001019125
:104230000199016841F080010160016801F080018D
:1042400001910199016841F480710160006800F4F6
:10425000807001900198CDE902550320049001ACD3
:10426000082D0AD006EBC50021468088019056F83B
:104270003500FDF777F80135F2E706B070BD00BFF5
:1042800098A200240072000810B5064C0120A04737
:104290000220A0470320A04704202146BDE810408B
:1042A000084700BF7945000810B5002111480022D9
:1042B000302A06D083180C3219625962597719775F
:1042C000F6E70D494FF47A720968B1FBF2F14A1E24
:1042D0000021B1EB126F07D1084BF0245A60084A55
:1042E000147099600721196001210170BDE8104028
:1042F000FFF71CBFD80000241400002410E000E0E9
:1043000023ED00E02DE9F04FB5B05F485F4B002191
:104310004FF004225E4C614E5E4D01824182C182AB
:104320000183418381828187C187A0F84210A0F870
:104330004410A0F84610C0E90232574BC0E90D32D4
:10434000C0E90054564CC0E90B46C0E90711416270
:1043500080F82810A0F84010524A80F85410534EAC
:1043600002651F91504BC0E91263012001900126A4
:1043700001A8FDF729FA4E4F4FF00709DFF838A1E1
:10438000FEF758FDFEF756FD386940F01000386121
:10439000386900F0100030903098CDF8D0900320AC
:1043A000CDE93260022031904FF40070309030AE91
:1043B000404831468346D047584631464FF48068DE
:1043C000CDF8D090CDF8C080D04725200421002220
:1043D000FDF72CF92520FDF71BF928464FF4E131B4
:1043E00000220C2300F0FEF8286A314640F040001D
:1043F0002862A86940F00800A861286840F0200001
:1044000028600BF58065FEF799FDFEF797FDB8680B
:1044100040F48020B860B86800F4802000900098D4
:10442000CDF8D09003203390012032900220CDE9C6
:1044300030802846D0474FF4006030903146CDF8A8
:10444000D0902846D047272004210322FDF7EEF81C
:104450002720FDF7DDF820464FF4165100220C23EB
:1044600000F0C0F8206A40F040002062A06940F0EF
:104470000800A061206840F020002060FEF754FF93
:1044800035B0BDE8F08F00BF24010024D001002426
:10449000D009002400100140D0050024D00D0024D4
:1044A0000048004065330008713300086933000894
:1044B000E044025800000258651300082DE9F04757
:1044C0004FF0000A2B4D4FF005094FF0010800276F
:1044D0000026A02F4BD0F0B2EC19FEF707FA217995
:1044E00020B1042907D884F804902CE0062907D3CA
:1044F00084F8049023E0092906D8481C207122E0A2
:1045000099B1481E20711AE0A07A08B9FEF727FC7D
:104510002089C0B1E188814218D20131E180814215
:1045200011D106EB460003301EE0A07A012806D127
:1045300006EB460084F80AA00230FEF778FC84F807
:104540000CA0A4F806A010370136C2E7E07A0028D4
:10455000F9D0217B01312173C9B28142F3D306EB3B
:10456000460084F80CA00130FEF761FCEBE7BDE8E3
:10457000F08700BFF8A100240138C1B2032988BF29
:10458000704740B20D4951F820000121FEF738B9BB
:104590000138C1B2032988BF704710B540B207493E
:1045A00051F820402046FEF725F9B0FA80F0410985
:1045B0002046BDE81040FEF723B900BF7471000823
:1045C0000549CA7A8854C87A0130C2B2092A88BF1C
:1045D0000020C872704700BF98A20024FFF76EBF8A
:1045E000704700002DE9F041A4B00DF104080E461B
:1045F000074668211C46154608F12400FBF747FFD3
:104600000020CDE903000990CDE90700CDE901764E
:10461000CDE905544046FEF7CFF820B1034840F2FB
:104620002631FCF756FB24B0BDE8F081EC7A000897
:1046300010B50C46FCF72AFBF8B1012181F3108874
:10464000428B002181F31088C2B1018B8268515CDA
:104650002170012181F31088018B01310183C2890E
:1046600089B2914201D300210183418B01394183F9
:10467000002080F31088012100E00021084610BDD1
:104680002DE9FC4114468846FCF700FB00283CD08D
:104690000646C06900B18047002001210022A242E5
:1046A0002ED081F31088B38AADF8063080F31088DD
:1046B000B389BDF806709F420CD3BDF806709F42C7
:1046C000EFD133681F683F06EBD41F6847F08007BF
:1046D0001F60E6E718F802307768358A7B5581F36A
:1046E0001088338A01333382B5899BB2AB4228BF2D
:1046F0003082B38A01320133B38280F31088CEE76F
:104700003068016841F080010160BDE8FC81E0B5DE
:104710008DF807100DF107010122FFF7B1FF8CBDE5
:104720002DE9F84F2DED1E1B05460878012840F0B5
:104730001D81BFEE009BF7EE00EA9FED8F8B9FED92
:1047400090AB8B460027904CDFED90CADFED90DAFE
:10475000A0A60FF270290DF1200A0FB1022F0CD183
:10476000B0EE480BB0EE491B01F0EAFDFEF7DAFBB4
:104770003AEE400BB7EEC0BB0BE0B0EE480BB7EE25
:10478000001B01F0DDFDFEF7CDFBB7EEC00BB1EE77
:1047900040BAB0EE4B0A8DED09BAFFF729FBB0EE37
:1047A00040CAB0EE4B0AFFF76BFBB0EE40DA95ED76
:1047B000071A95ED060A95ED0C3A95ED0B2A21EEB8
:1047C0004D1A20EE4D0AA3EE0C1AA2EE0C0A21EEB1
:1047D000011AA0EE001AFEF76EFC80F1C280B1EE65
:1047E000401A032F95ED0D2A07F1010800FE011A6A
:1047F000002F00FE010A95ED081A21EE4D1AB7EEC2
:10480000C00AA2EE0C1AB7EEC11AA047B7EEC0EB71
:104810008DED0CEAB0EE4E0AFFF732FB95ED0B2A58
:10482000B0EE40FA95ED070A95ED061A95ED0C3AB3
:1048300020EE4D0A22EE4C2AA3EE0C0AA1EE0D2A20
:1048400080EE0F0A82EE0F1AB7EEC00AB7EEC11A59
:10485000A04795ED0D2A95ED081AF7EEC0FB95EDF2
:10486000120A2DEE022AB1EE400ACDED0DFAA1EEAC
:104870000C2A80EE0F0AB7EEC00A82EE0F1AB7EECE
:10488000C11AA047B7EEC0FBB0EE4F0AFFF7B0FA6F
:10489000F0EE40BAB0EE4F0AFFF7F2FA95ED0E3A9D
:1048A00095ED132A95ED091A2DEE033A9BEEEC2AAD
:1048B000A1EE0C3AC2EE2DBAA0EE2C3AB7EEEB2ADE
:1048C00083EE2DCAB0EE420BB7EECC1AA047B7EE7E
:1048D000C00BF4EE6EBAF1EE10FA8DED0A0A3FEE5F
:1048E000401A8DED0B1A12DCBFEE002AF4EE42BA2C
:1048F000F1EE10FA0BDBB4EE6ECAF1EE10FA06DC44
:10490000BFEE002AB4EE42CAF1EE10FA09DA3046E0
:10491000414601F0FFFBB8F1040F47467FF41DAF9D
:1049200024E0B7EEC00AB7EEC11AB7EEEF2AB7EE31
:10493000CE3A18A041468DED043B8DED062B8DEC53
:10494000040BB7EECB0A53EC102B01F0E3FB484607
:10495000414601F0DFFB504629465A46FDF7FEFF6F
:10496000D9E7B0EE410A01F0CFFD38E7BDEC1E1BE0
:1049700001B0BDE8F08F00BF0000000000000000A3
:10498000182D4454FB21094041630008008089C36D
:1049900000007A43B5DA2564D7E9BDE23A0A253149
:1049A000312E3666202531312E3666202531312EC6
:1049B0003666202531312E3666202531312E366679
:1049C0000D0A0000D1E9D6A4B5DA2564D7E9BDE225
:1049D0003A0D0A00B5DA2564D7E9BDE2B4EDCEF3AD
:1049E000A3A10D0A0000000010B50446C1B20020CA
:1049F000FFF78DFE204610BD70B52DED048B91EDB7
:104A0000121A91ED110A0D460446B7EEC11AB7EE1F
:104A1000C00A21EE011B00EE001BB7EEC11BFEF722
:104A20004AFB48D695ED102AB7EEC01A284EB1EED3
:104A3000420AB7EEC00AB04795ED061AB7EEC09B22
:104A400095ED0B0AFEF778FB95ED121AB0EE408B50
:104A500095ED110AFEF770FBB7EEC91A9FED182B02
:104A60009FED193BB7EEC00B04F10C03686AA96B0C
:104A7000EA6C07C381EE021BB7EEC00A21EE031BEE
:104A800080EE020BB7EEC11B20EE030B84ED011A82
:104A9000B7EEC81BB7EEC00BB7EEC11A84ED000A23
:104AA00081EE021B21EE031BB7EEC11B84ED021A3F
:104AB000BDEC048B70BDB0EE410A01F025FDB1E7FD
:104AC00044174154FB21094000000000008066406B
:104AD00041630008000000002DE9F0472DED068B32
:104AE000D0B000EE100A9FED469B9FED47AB484FBC
:104AF00000244FF07E59984692460E464994CDE9DF
:104B00004644CDF81491FEF71AF98DED4A0AB0EE3D
:104B1000480A404DA847B1EE400A4D948DED4B0A2E
:104B2000B0EE480AA8478DED4E0AB0EE480AB847E5
:104B30008DED4F0A00EE106AFEF701F98DED350A92
:104B4000B0EE480A3694A8478DED370AB0EE480A11
:104B50003B94CDE93949A847B1EE400A3E948DED2A
:104B60003D0AB0EE480AB8478DED3F0A00EE10AAA4
:104B7000FEF7E5F88DED250AB0EE480AA847B1EE3C
:104B8000400A27948DED260AB0EE480AA8478DED1D
:104B9000290AB0EE480AB847CDF8BC90CDE92D44BB
:104BA0002B948DED2A0A20A830A910AD2A46FDF7D6
:104BB000F5FF40A96A462846FDF7F0FF6098C0E976
:104BC000154405AB099DC562C465C0F86090C0F886
:104BD00024800ECB8161C26103620D9901640A9940
:104BE00001630E9941640B9941630F9981645F9948
:104BF000C1645E99816350B0BDEC068BBDE8F0875F
:104C0000000000000080664044174154FB21094029
:104C1000F13D0008813E0008FEF746FCFDF79CFDD3
:104C200000F070F80448054A002100F075FE0449C0
:104C3000086000F07FF8FEE7E5090008F070000862
:104C4000C801002410B50446FCF764F9EFF30580B1
:104C500028B9EFF3108010B9EFF3118030B16FF085
:104C60000500FCF763F96FF0050010BD2046DFF882
:104C700008C000DF10BD00BF5D59000810B5044634
:104C8000FCF760F9EFF3058028B9EFF3108010B955
:104C9000EFF3118030B16FF00500FCF747F96FF0CA
:104CA000050010BD2046DFF808C000DF10BD00BFC2
:104CB00091590008EFF3058048B9EFF3108030B93F
:104CC000EFF3118018B9EFF31480C00701D100F0A1
:104CD0007FBEDFF808C000DF704700BFD159000871
:104CE000EFF3058028B9EFF3108010B9EFF31180CE
:104CF00008B100F075BEDFF808C000DF704700BFE4
:104D0000E159000880B500F0E8F8FCF745F9EFF349
:104D1000058028B9EFF3108010B9EFF3118018B1B6
:104D2000FEF737F9FEF787B9DFF804C000DF80BD72
:104D3000F559000880B5FCF73BF9EFF3058028B979
:104D4000EFF3108010B9EFF3118018B1FEF721F9DD
:104D5000FEF771B9DFF804C000DF80BDF95A000822
:104D6000F8B51F4616460C460546FCF779F9EFF3F1
:104D7000058028B9EFF3108010B9EFF3118030B33C
:104D8000E5B12878FA2819D1C4B1BFB92846FDF792
:104D900038FF20B3074600F10C016A6A2046FBF792
:104DA0005DFB0EB1F87830703846FD6000F0A0FA77
:104DB00028462146FCF7B2F9002406E028466FF0A9
:104DC00003016FF00304FCF745F92046F8BD2846BF
:104DD000DFF818C0214632463B4600DFF8BD2846C2
:104DE0002146FCF779F96FF00204EEE7955B0008C5
:104DF00070B514460D460646FCF75CF9EFF30580E6
:104E000028B9EFF3108010B9EFF3118038B100200A
:104E10006FF005010024FCF71DF9204670BD3046F7
:104E2000DFF80CC02946224600DF0446F5E700BF44
:104E3000895C0008F8B51F4616460C460546FCF787
:104E400053F9EFF3058028B9EFF3108010B9EFF3B1
:104E5000118020B3F5B12878FA281BD1D4B1CFB98D
:104E600005F10C0000F0BDF808B307466A6A0C3083
:104E70002146FBF7F3FAF9203870FE700026C7E9E7
:104E80000145BE70384600F033FA28462146FCF74B
:104E900001F902E02846FEF7D1F83046F8BD284671
:104EA000DFF818C0214632463B4600DFF8BD2846F1
:104EB0002146FCF709F96FF00206EEE7C55D000830
:104EC000FEE7FEE7B0B50C460546FCF752F828466B
:104ED0002146BDE8B040FFF7F3BF7047F8B5A8B171
:104EE000A1B1042A12D2034601F10F0424F00704F1
:104EF00053F8086F35465E6826F003071F44EF1B22
:104F0000A74209D22E682B46002EF3D1002400239D
:104F1000FCF75AF82046F8BDD0E900C7844407EBF7
:104F2000040EC0F804E05CF8047C774504D2ACF1D0
:104F30000806C6F804E05E6846B126F0030614438E
:104F4000F550F5181D602B466C6001E014435C6061
:104F500003F108042346DBE7B0B560B159B100F1B5
:104F60000804A1F10802002394420AD025462468CF
:104F7000002C2B46F8D100240022FCF74BF82046E9
:104F8000B0BD51F8045C446825F00305641B44601F
:104F900013B112681A6002E0002241F8042C0124C7
:104FA0000122EAE710B530B140EA010212F007022F
:104FB00001D1172902D8002400220EE00A1810247B
:104FC000C0E90014A2F108038360002342F8083C02
:104FD0008268546001240122C360FCF725F8204652
:104FE00010BDB0B5002817D000F1140151E8004FF2
:104FF00014B9BFF32F8F04E0226841E8002303B106
:10500000F4E73CB1011D51E8002F531C41E8003585
:1050100005B1F8E7214602E0002400200021FBF75B
:10502000DDFF2046B0BDB0B500281FD0C2688A425F
:105030001CD802698A4219D900F1140213680B6066
:10504000BFF35F8F52E8003F0C689C42F6D142E804
:10505000001505B1F2E7021D52E8003F5C1E42E870
:10506000004505B1F8E70024002203E06FF00304D7
:105070006FF00302FBF7BAFF2046B0BD70B5E0B198
:105080000E46D1B11446C2B1014600201D46CBB137
:1050900004FB0652C1E90060C1E9024508462B46FF
:1050A000C1E9042531462246FBF7AAFF701E30B144
:1050B0002919296001380D46F9E7002070BD00204C
:1050C0002860012070BD2DE9F04104468078A8B326
:1050D000E56821462846FDF7E0FD002005F10C06B5
:1050E000207021463046FFF79EFFA86820B3304667
:1050F000FFF777FF00B30446284600F08BFAFDF770
:10510000DAFE304600F0EAFA476806466A6A04F1B9
:105110000C003946FBF7A2F9F9202070214684F8EB
:105120000280B068E0702846FDF78BFD28463946BE
:10513000BDE8F041FBF7B6BFBDE8F081D4E9011549
:10514000A86830B34078832823D12846FBF7AAFF0C
:10515000284600F05FFAFDF7AEFE304600F0BEFADA
:10516000466807466A6A04F10C013046FBF776F997
:10517000B86808B1E178017028463146FBF7CEFFE8
:1051800084F8008005F10C002146BDE8F041FFF7EE
:105190004ABF2846FBF786FF28462146BDE8F04176
:1051A000FDF74FBD80B507480821D0E91A2000F06F
:1051B0006BFDE349C8640021002808BF4FF0FF31B0
:1051C000084680BDA86F00082DE9F041044600277D
:1051D0004FF0010814B325466469E8780007F9D553
:1051E000284600212F76FBF7AFFFA8680028F1D0F2
:1051F000284600F00FFA00210022064600F0CAFA05
:10520000F06AC5E90367686100B1056128460121BC
:1052100085F81880F562FBF78FFFDBE7BDE8F081CA
:10522000B0B5C278920718D5C06890F82120C36A3B
:10523000DC78A4070AD59C688C4208BF8C682CB126
:1052400094F9204055B2AC42C8BFE2B25B69002B72
:10525000EED190F82010914200D1B0BD80F820200E
:10526000BDE8B04000F005BA70B5E04C04F1560559
:1052700004F15A06B4F85400D5E85F1F11B9BFF322
:105280002F8F04E04A1EC5E8532F03B1F4E7090449
:1052900029D0D6E85F1F4A1C904200D80022C6E8F9
:1052A000532F03B1F5E788B2E16D51F82000D0B17A
:1052B0000178F1390829DDD8DFE801F00605090594
:1052C000050C0F051200D5E7216E8847D2E7616E05
:1052D0008847CFE7A16E8847CCE7E16E8847C9E7EA
:1052E000216F8847C6E70020BDE8704000F02AB96A
:1052F00070B50146F84800F15603B0F85420D3E8E1
:105300005F4FA24202D8BFF32F8F04E0651CC3E8B1
:10531000565F06B1F3E7A3B2934214D200F15803EB
:10532000D3E85F4F651CAA4200D80025C3E8565F4A
:1053300006B1F5E7A2B2C36D43F82210417A39B144
:105340000121817270BD0220BDE87040FFF7BABD37
:1053500002484FF08051016070BD00BF04ED00E0D5
:1053600010B50121417090F92030F8491C310A46EE
:10537000896841B191F920409C42F8DCC0E90212F1
:1053800090600C3104E00021C0E9021202F1080132
:105390000860BDE81040FBF72BBF00BFB0B54A1C4A
:1053A0000DD0EA4A00232C3215462C68E4B1E56999
:1053B000A94221D3491B04F110052346F5E7F4491E
:1053C000002301F1300214461946236803F110044A
:1053D000002BF9D14FF0FF33C3610023C0E9043142
:1053E000C1B101F1100215E0C161C0E90443002B15
:1053F00018BF03F110020DE0002BC0E90443C161A6
:1054000018BF03F1100210602CB1E269511AE1617A
:1054100004F114021060B0BDC2690169531C0AD0C6
:1054200021B143694B61CB691A44CA6142693AB9F7
:10543000D74AD16207E009B142694A6142692AB19B
:105440000023436111610021C1617047D04A11639B
:10545000F9E700BF70B5FB4EF46A1CB1E069013892
:10546000E06103D070BDE06900284CD1607813384A
:105470004FEA3010082830D8DFE800F0052F090D7A
:10548000121C21262B002046FBF74AFD25E0204672
:10549000FBF798FE21E0FDF707FEFBF75FFD1CE040
:1054A000FDF702FE21460546FFF7BAFE2846FBF748
:1054B0003DFE12E0FDF7F8FDFBF74EFE0DE0FDF7B7
:1054C000F3FDFBF7B9FD08E0FDF7EEFDFBF7DCFDB2
:1054D00003E0FDF7E9FDFBF71BFE94F82200C00690
:1054E0004FF0200058BF6020A16B41582046FBF7C9
:1054F0008BFE204600F0ADF8204600F0E5F8246968
:10550000002CB0D101E000206061F46270BD00BFEA
:1055100010B50446C078C00703D1204600F03CF81F
:1055200009E00020E06004206070F348416BA16056
:1055300001B1CC6044632046BDE81040FBF726BEB5
:105540001C000024B0B50546EB48017A446965B1FA
:10555000022905D194F9200095F92010814211DC2F
:105560002846BDE8B04000F0AFB8022912D1456A24
:1055700085B194F9200095F9201081420ADD284672
:1055800000F067F82046FFF7EBFE2846BDE8B04084
:1055900000F0D6B8B0BD00BF10B504460020208092
:1055A000A07881070DD5C00605D4D348216B406F84
:1055B000FFF7D2FC05E0D048216BD0F88400FFF75C
:1055C00032FDA078C00708BF10BDCB49D1F88800D4
:1055D00020B12146BDE81040FFF725BDD1F880007D
:1055E0002146BDE81040FFF7B7BC00BF1C000024F7
:1055F00010B50446806930B10021002200F0CAF8DD
:10560000A069FBF7E5FD6078232802D1A06800219E
:10561000816110BD0146806882688A6002B1D160F4
:105620000021C160704710B591F9203002468068B2
:1056300040B190F920409C42F8DAC1E90202916041
:105640000C3004E00020C1E9020202F10800016010
:1056500010BDC16831B182688A60826802B1D160D0
:105660000021C16070470178F12901D1C068FAE7D3
:105670007047B0B50446054625B12878F12802D117
:10568000ED68F9E7B0BD2046FFF7E3FF2846214665
:10569000BDE8B040FFF7C7BFB0B504464078332837
:1056A00011D1FDF743FD70B1054620460022294681
:1056B00000F070F894F82310606A2A462346BDE88B
:1056C000B040FBF775BDB0BD014601204870C84829
:1056D0001C30FFF7A8BF00BF1C00002490F8221068
:1056E000C9064FF0200158BF6021806B0844704705
:1056F000016B806B884205D908680349884201D153
:105700000120704700207047A52E5AE270B5F84C72
:105710000A480021A26D666E00F0EAFBF34DA86214
:1057200046B1B04740B9E96CD4E9172000F0E0FB7E
:10573000A86408B1012070BD002070BDC34E0008F0
:10574000EA49886102214170FBF758BD1C00002422
:10575000F8B5E64F0546387A022816D1786AA0B126
:105760007E690C463046FBF7FDFC304621467570DD
:10577000FFF714FE786A8168796211B107F11C02A3
:10578000CA60FDF761FC0120F8BD0020F8BD00BF34
:105790001C00002470B515460E460446FBF734FD88
:1057A00094F82200C0064FF0200058BF6020A16B83
:1057B00046502046FFF730FE2046002DBDE87040E1
:1057C00008BFFFF781BFFFF7BDBE0000B0B5FDF712
:1057D00073FAEC4DE8680130E860FFF73BFE00200B
:1057E000FFF7B0FE286D00B18047296C41B3A8696E
:1057F000EA6B904205D0C269E86322B9C1610A46EA
:1058000001E0C26912B1511EC16119D1297A022980
:1058100016D16C6AA4B190F8200094F8201081424F
:105820000ED12046FFF715FFE86BFFF74DFFE86B41
:10583000FBF7DEFC2046FFF783FF286CEC63E0619A
:10584000B0BD00BF1C00002480B5FFF7ABFC10B159
:105850004FF0FF3080BDCB4801490165002080BD7D
:105860008D58000882B004466D4620462946002225
:105870004FF0FF33FFF774FA0028F6D1DDE900019D
:10588000FBF7CAFCDDE900108847EEE72DE9F0419F
:10589000FC4D6C6C74B320696E694FF001080138DF
:1058A000206134B3206920BBE06808B1A168816041
:1058B0006864E86C04F1180100220023FFF7BAFACB
:1058C00060B1D5E90570686121460320FFF7FAFA57
:1058D00086EA07006969084308BF0646E0780128A0
:1058E00011BF84F8018061692046FDF7C3FF6C6C2D
:1058F000D7E76E61BDE8F0811C000024FBF752FC85
:10590000DFF810C000DF4FF0FF310020FBF744FC50
:10591000FEE700BF955E000870B514460D460646CA
:10592000FBF75CFCEFF3058028B9EFF3108010B9AA
:10593000EFF3118038B100206FF005010024FBF770
:105940002BFC204670BD3046DFF80CC029462246AD
:1059500000DF0446F5E700BFF15E000810B550B166
:10596000044613202146FFF7F3FE48B12046FBF71B
:10597000E3FA00240AE06FF003046FF0030003E091
:105980004FF0FF344FF0FF30FBF7D0FA204610BD48
:1059900010B5BC49C968441A0CD0B4F1FF3F09DD09
:1059A00013202146FFF7D4FE48B12046FBF7D0FA7A
:1059B00000240AE06FF003046FF0030003E04FF0EF
:1059C000FF344FF0FF30FBF7B1FA204610BD00BFA7
:1059D00010B5FA48047A2046FBF7D2FA204610BDEB
:1059E00010B5F64CE068FBF7D1FAE06810BD00BFD7
:1059F0001C0000242DE9F843DFF8F08698F8080031
:105A000020B101286BD0FDF750FA6BE05F4F388A68
:105A1000D7E90B41A8F85400D7E90202C8F84000C2
:105A2000C8F85C202046FFF7BDFA08B1C8F88040EE
:105A3000D7E90541DFF8BC90D7E907562046C847AB
:105A4000D8F880100028284618BF2146C8F87410DE
:105A50003146C847D8F88010002818BF2946C8F832
:105A60007810D7E909412046C847D8F880100028A7
:105A700018BF21467C6BC8F87C101CB1FDF7B0F94B
:105A8000C8F88440BC6B1CB1FDF7AAF9C8F888407F
:105A9000FC6B1CB1FDF7A4F9C8F88C403C6C1CB140
:105AA000FDF79EF9C8F890407C6C1CB1FDF798F9A1
:105AB000C8F89440BC6C1CB1FDF792F9C8F8984046
:105AC000FC6C1CB1FDF78CF9C8F89C403C6D1CB116
:105AD000FDF786F9C8F8A040012088F80800FBF718
