:020000040800F2
:10000000A8B20024AD020008632300086550000870
:10001000AD220008B5050008D53300080000000037
:10002000000000000000000000000000D1020008F5
:10003000FD05000800000000A3030008B30300084A
:10004000C7020008C7020008C7020008C70200086C
:10005000C7020008C7020008C7020008C70200085C
:10006000C7020008C7020008C7020008C70200084C
:10007000C7020008C7020008C7020008C70200083C
:10008000C7020008C7020008C7020008C70200082C
:10009000C7020008C7020008C7020008C70200081C
:1000A000C7020008C7020008C7020008C70200080C
:1000B000A92C0008C7020008C7020008C7020008F0
:1000C000C7020008C7020008C7020008C7020008EC
:1000D000C7020008BD320008C7020008C532000888
:1000E000C7020008C702000800000000C70200089D
:1000F000C7020008C7020008C7020008C7020008BC
:10010000C7020008C7020008C7020008C7020008AB
:10011000C7020008C7020008C7020008C70200089B
:10012000C7020008C7020008C7020008C70200088B
:10013000C7020008C7020008C7020008C70200087B
:1001400000000000000000000000000000000000AF
:10015000C7020008C7020008C7020008C70200085B
:10016000C7020008C7020008C7020008C70200084B
:10017000C7020008C7020008C7020008000000000C
:10018000C7020008C7020008C7020008C70200082B
:10019000C7020008C7020008C7020008C70200081B
:1001A000C7020008C7020008C7020008C70200080B
:1001B000C7020008C7020008C7020008C7020008FB
:1001C000C7020008C7020008C7020008C7020008EB
:1001D000C7020008C7020008C7020008C7020008DB
:1001E000C7020008C7020008C7020008C7020008CB
:1001F000C7020008C7020008C7020008C7020008BB
:10020000C7020008C7020008C7020008C7020008AA
:10021000C7020008C7020008C7020008C70200089A
:10022000C7020008C7020008C7020008000000005B
:10023000C7020008C702000800000000C70200084B
:10024000C7020008C7020008C7020008C70200086A
:10025000C7020008C7020008C7020008C70200085A
:10026000C7020008C7020008C7020008C70200084A
:10027000C7020008C7020008C7020008000000000B
:10028000C7020008C7020008C702000800000000FB
:1002900000000000C7020008DFF80CD000F00EF9E3
:1002A00000480047C13B0008A8B200240648804728
:1002B00006480047FEE7FEE7FEE7FEE7FEE7FEE74B
:1002C000FEE7FEE7FEE7FEE7D529000899020008F1
:1002D0001EF0040F0CBFEFF30880EFF30980816973
:1002E00011F8021C00294ED101B590E80F10E0472B
:1002F000BDE80050CCF80000324B93E80600914274
:1003000008BF70471A6041B91EF0100F2CD12E4B58
:10031000186820F00100186026E0ACF1200C1EF0F7
:10032000100F08BFACF1400C81F822E0C1F838C0D2
:1003300006B4084604F08EF906BC50B90C464FF0DE
:10034000010003F071FD214B5A681A6094F822E015
:10035000DAE7D1F838C091F822E01EF0100F08BF9C
:10036000ACEC108A8CE8F00F906B92F8221061F0E0
:10037000FF0E1EF0100F08BFB0EC108AB0E8F00FAF
:1003800080F309887047124A13689942FAD801B578
:1003900052F821C00FC8E047BDE80050CCF800007B
:1003A000704701B503F012FFBDE80140EFF3098C7F
:1003B000A2E701B504F0BCF9BDE80140EFF3098CF8
:1003C0009AE700002800002434EF00E02800002411
:1003D0004C5200082DE9F05F0546002092469B46EE
:1003E00088460646814640241BE02846414647464B
:1003F000224600F053F853465A46C01A914110D392
:1004000011461846224600F03AF82D1A67EB01080B
:100410004F4622460120002100F031F817EB000979
:100420004E41201EA4F10104DFDC484631462A4635
:100430004346BDE8F09F40EA01039B0703D009E073
:1004400008C9121F08C0042AFAD203E011F8013BC0
:1004500000F8013B521EF9D27047D2B201E000F819
:10046000012B491EFBD270470022F6E710B5134658
:100470000A4604461946FFF7F0FF204610BD202A21
:1004800004DB203A00FA02F1002070479140C2F1EB
:10049000200320FA03F3194390407047202A04DB1D
:1004A000203A21FA02F00021704721FA02F3D040ED
:1004B000C2F120029140084319467047064C074D8F
:1004C00006E0E06840F0010394E807009847103424
:1004D000AC42F6D3FFF7E4FE84530008A4530008AF
:1004E00003F0D2FB00F1C804022003F099FA204681
:1004F00003F098FBC834F7E70A2003F077FBFBE72B
:1005000001F088FD02F078FF0F48104A104C0021DE
:10051000A047104D114A002168600F48A047A8600D
:100520000F48104A0021A04728600F4800210022F0
:10053000A047E86003F0A8FB441C02F015FA20462F
:1005400003F070FB0134F8E7F9040008B851000823
:100550007D480008C0000024E10400089451000810
:100560008D050008005200086D05000882B00DF1ED
:1005700007040020214603F0A3FA0028F9D0002048
:100580002146012203F0C4FAF3E7000005A402F0BB
:1005900023FF012802D1204604F07CFD142003F043
:1005A00025FBF4E74B45595F444F574E5F4B310DE8
:1005B00000000000FEE7000080B5082804D240B229
:1005C00006A151F8200080BD03484FF48E7100F061
:1005D00016F8002080BD00BF535300081C01002402
:1005E000000000004801002400000000000000009E
:1005F000000000000000000000000000704701B192
:10060000FEE770478949097851B1C0F3C621054A10
:10061000C0F30220515C21FA00F000F001007047A5
:100620000020704700160024F8B5804C124D04F1EC
:100630001807A66900F0FEF8B04212D20123D5E8EF
:100640004F1FC5E8423F02B1F9E7090609D1216908
:10065000002301312161D5E84F1FC5E8423F02B1B7
:10066000F9E757E8001F47E8000202B1F9E78E42B8
:1006700008BFF8BDDDE700BFBC010024F8B5144693
:100680000D460646FFF7BEFF98B13746C0F2080791
:10069000FFF7CAFF0146EFF30580002808BFB7B295
:1006A0002A46234607F1407001B0BDE8F04000F053
:1006B00041B80120F8BD00002DE9F0479946924667
:1006C0000F460646FFF79EFF58B33446DDF82080FC
:1006D000C0F20804FFF7A8FF0546EFF305800028E5
:1006E00008BFB4B251480130D0E84F1F4A1CC0E8DF
:1006F000432F03B1F8E74FF4E0203A46534600EAAF
:1007000001462946A01900F1807000F013F858B195
:10071000074829464A4643463043BDE8F04700F0C3
:1007200009B80120BDE8F0870020BDE8F08700BFD0
:10073000010000022DE9F04F4FF0805491464FF038
:1007400000529A468B466FF00706DFF8E4E004EAB1
:10075000D10402EA9902204310434FF0804202EA9A
:10076000530240EA0208314800F1040C013680F0DF
:100770005180614651E8004F601C41E8000505B119
:10078000F8E704F03F0504F470740EEB051048EA36
:10079000843400F10C0744F0406257E8004FA10197
:1007A00003D3BFF32F8F002406E004F0004414436A
:1007B00047E8004303B1F0E76101D7D584F0044274
:1007C0002BF000412C0102F0004319444EF80410B4
:1007D00029F000442AF0004119442344C0E90131C2
:1007E00057E8001F890103D2BFF32F8F002004E0D8
:1007F00047E8002303B1F3E7012058B10B48083064
:1008000050E8001F4A1C40E8002303B1F8E701202C
:10081000BDE8F08F05480C3050E8001F4A1C40E846
:10082000002303B1F8E70020BDE8F08F8016002414
:100830000012002401480068704700BF041000E067
:100840000146014801F00BBE01F3010001460148D9
:1008500001F005BE05F3020001464FF4734001F0BC
:10086000FEBD00000146014801F0F9BD03F302009E
:100870000146014801F0F3BD02F3010001460148C1
:1008800001F0EDBD04F302000146014801F0E7BDAF
:100890000DF5020001464FF4714001F0E0BD0A463B
:1008A00001464FF21910FFF7E9BE0000014601486A
:1008B00001F0D5BD06F101000146014801F0CFBDB0
:1008C00013F101000148002101F0C9BD01F101004F
:1008D0000148002101F0C3BD02F1020001480021DE
:1008E00001F0BDBD07F101000148002101F0B7BDD5
:1008F00008F102001CB501F068FE024801F0ACFEF0
:100900001CBD00BF01F002000A4601460148FFF786
:10091000B5BE00BF04F00200E0B501F0EDFD0248F5
:10092000FFF7CAFE8CBD00BF05F002001CB501F048
:100930004CFE024801F090FE1CBD00BF03F0020017
:10094000E0B501F0D9FD0248FFF7B6FE8CBD00BF4F
:1009500002F00200E0B501F0CFFD4FF43C30FFF7AC
:10096000ABFE8CBD0146014801F079BD08F90200DB
:100970000A4601460148FFF781BE00BF03FA0200A4
:100980000A4601464FF47A40FFF778BE1CB501F0E5
:100990001CFE024801F060FE1CBD00BF0CFA010005
:1009A000E0B501F0A9FD0248FFF786FE8CBD00BF4F
:1009B0000DFA02000146014801F051BD0EFA020095
:1009C0000A4601460148FFF759BE00BF09FA020076
:1009D0000A4601460148FFF751BE00BF0AFA02006D
:1009E0000A4601460148FFF749BE00BF0BFA020064
:1009F0000A4601460148FFF741BE00BF10FA020057
:100A00001CB501F0E2FD024801F026FE1CBD00BF4E
:100A100006FA0100E0B501F06FFD0248FFF74CFE59
:100A20008CBD00BF07FA02000146014801F017BD66
:100A300008FA02000A4601460148FFF71FBE00BF40
:100A40000FFA02000146014801F009BD08F7020053
:100A50000A4601460148FFF711BE00BF09F7020030
:100A60000A4601460148FFF709BE00BF0CF7020025
:100A70000146014801F0F3BC08F802000A460146AD
:100A80000148FFF7FBBD00BF16F203000B4601460D
:100A90000348002A0CBF1A462930FFF7EFBD00BFFC
:100AA00003F202000146014801F0D9BC1CF2020029
:100AB0000A4601464FF47240FFF7E0BD01480021AD
:100AC00001F0CDBC1AF201001CB501F07EFD024818
:100AD00001F0C2FD1CBD00BF09F40200014601483F
:100AE00001F0BDBC08F402000146014801F0B7BCAA
:100AF00015F20200E0B501F0FFFC0248FFF7DCFD53
:100B00008CBD00BF01F201000146014801F0A7BC05
:100B100018F203000146014801F0A1BC19F20200DD
:100B20000A4601460148FFF7A9BD00BF17F20300BE
:100B30000A4601460148FFF7A1BD00BF01F60200C9
:100B4000F0B5B3F5804F0FD150F82230094C234057
:100B500091E8F0008969234343EA051343EA062339
:100B6000194341EA074101E06FF0704140F822105B
:100B70000020F0BD0000F0CF2DE9F0410A6801F13E
:100B8000080750F8223023F0010340F82230D1E961
:100B900000C3F0CFD1E9062E2343082C08BF43F051
:100BA00040032B4333433B4301F120071A434EEAF2
:100BB000020EF8CFD1E90D2843EA0E032343104C6F
:100BC0002B4333433B431A4350F82C3042EA08028C
:100BD00023401A4340F82C200A6BB2F5801F05D140
:100BE0000A684AB1026842F4801202600A681AB1C7
:100BF000496B0268114301600020BDE8F08100BF2D
:100C00008004C0FF2DE9F04700EB8203174DAA4690
:100C1000D3F80480D1E9042ED1E90096D1E9027C11
:100C20008C6905EB025208F0404545EA090545EAA2
:100C3000061545EA072545EA0C452A4322430EF1ED
:100C4000FE0442EA04625A600268D2020BD542688E
:100C5000096922F470020AEB01511143426822F43F
:100C60007002114341600020BDE8F0870000F0FFF2
:100C7000014801F001BD00BF200400582DE9F84FE4
:100C8000594A4FF00A0A4FF000084FF0010B4FF09D
:100C9000000C9042554A08BF4FF0090A02444FEA3F
:100CA000B223092B38BF4FEAB22A00220D6835FA69
:100CB00002F600F097800BFA02F715EA070900F038
:100CC00084804E68122E00F286800BFA06F414F02F
:100CD000061F00F08080032303FA0CF48368CD68BC
:100CE000A34305FA0CF56FEA040E2B438360330926
:100CF0004568BD43934057002B434360C3688C68ED
:100D000003EA0E03BC402343C36046F01003122BDA
:100D100011D16FF0030508F01C030F2405EA5205FA
:100D20009C4005442E6A26EA04040E6906FA03F381
:100D300023432B624E68036806F0030403EA0E03A4
:100D4000BC4023430360F3003FD57C4C294F4FF058
:100D5000B04E236843F00203236023680F2403F09E
:100D600002030093009D08F00C0322F003059C4051
:100D70000AFA03F3EE5926EA04042343EB511C4F0D
:100D8000FB6F4D6843EA0904EE0358BF23EA0904E8
:100D9000FC67AE03D7F8803043EA090458BF23EA62
:100DA0000904C7F88040EE02DEF8003043EA090487
:100DB00058BF23EA0904CEF80040AD023B6843EA7D
:100DC000090458BF23EA09043C6008F104080CF147
:100DD000020C01326AE70323674603FA0CF46FEA58
:100DE000040E8BE7BDE8F88F002402580000FEA730
:100DF000040000580804005801480068000C7047BF
:100E00000010005C80B502F029FF022803D1BDE884
:100E1000804002F039BF1F480068800B68B100BFF6
:100E2000013800BF00BF00BF00BF00BF00BF00BF50
:100E300000BF00BF00BF00BFF0E7024908680130F3
:100E4000086080BDB801002480B5032000F0ACF834
:100E500000F030FE0E49614B0A68096801F00F018D
:100E6000C2F30322595C9A5C01F01F0102F01F02D9
:100E7000D040084A1060C840074908600F2000F0C1
:100E80000DF808B1012080BD00F04AF8002080BDB7
:100E9000184402580C000024100000240020704761
:100EA0000278114943780B60D2B143684B60037BF1
:100EB00042EA0372C37A42EA0362837A42EAC34295
:100EC000437B42EA8342837B42EA4342C37B42EA5A
:100ED0000342437A007A42EA032242EA400001E0F8
:100EE000002048608860704798ED00E00B48BFF331
:100EF0005F8F016821F48031016000210167704734
:100F0000064940F001000867086840F48030086036
:100F1000BFF34F8FBFF36F8F704700BF24ED00E02A
:100F200081B00648016841F002010160006800F0EC
:100F300002000090009801B0704700BFF4440258CE
:100F4000002808D400F01F010122400902FA01F133
:100F5000014A42F82010704700E100E0F0B5184B5C
:100F60004FF0FF361C68C4F30224E51E84F007042A
:100F700038BF002506FA05F7BA43042C28BF04241D
:100F800006FA04F4A14300F00F04A940043C114305
:100F90002344044A09010C33B0F1FF3FC8BF831852
:100FA0001970F0BD00E400E005494FF6FF030A6840
:100FB0001A4060F30A22034810430860704700BFDC
:100FC0000CED00E00000FA0580B500F03DFD02499F
:100FD000024A01F0B7BA00BF204402586C51000821
:100FE000B0B51C498B6A8A6ACC6ACD6BC2F30532F4
:100FF000B2B1C4F3001401F0B8FB15D0BBB90B6853
:101000009B0651BF9FED161A0B68C3F3C103154C25
:1010100042BF24FA03F301EE103AB8EE411A08E099
:101020000021C0E9001112E09FED0C1A01E09FEDD4
:101030000A1A8B6B9FED0C3A01F064FB8A6B01F08E
:10104000ECF98A6B01F0F3FA896B01F0AFFA816079
:10105000B0BD00BF004402580024744A20BCBE4BFF
:101060000024744C0090D00300000039B0B51C4936
:101070008B6A8A6ACC6A4D6CC2F30552B2B1C4F372
:10108000002401F072FB15D0BBB90B689B0651BF61
:101090009FED161A0B68C3F3C103154C42BF24FA27
:1010A00003F301EE103AB8EE411A08E00021C0E95E
:1010B000001112E09FED0C1A01E09FED0A1A0B6C73
:1010C0009FED0C3A01F01EFB0A6C01F0A6F90A6CC8
:1010D00001F0ADFA096C01F069FA8160B0BD00BFA2
:1010E000004402580024744A20BCBE4B0024744CB7
:1010F0000090D003000000392DE9F0470446C07885
:10110000A74F00071CD5606E4FEA3051032908D85D
:10111000DFE801F002090C11F96941F40031F961CD
:1011200009E001260DE001F015FA01E001F0DAFA1C
:10113000064630B9606E396C21F4401108433864BA
:1011400000266078BA46C00701D1354620E0606DC0
:1011500004280BD83546DFE800F0030C0F1212000C
:10116000F869354640F40030F86108E001250127B0
:101170000FE001F0E0FA01E001F0D1F905462F4659
:101180003DB9606D01F0D9F921F0070101F02AFAAB
:101190003746607880071ED5A06D4FEAB01004284E
:1011A00007D8DFE800F003090C0F0F0001F081F908
:1011B00008E0012501260FE001F0BDFA01E001F091
:1011C000AEF905462E463DB9A06D01F0B6F921F401
:1011D000E07101F007FA3E466078400702D4B0465D
:1011E000574623E0D4F8A40057464FEA705004282D
:1011F00007D8DFE800F0030A0D10100001F0BAF97B
:1012000009E001254FF0010810E001F094FA01E037
:1012100001F085F90546A84645B9D4F8A400B96C93
:101220000025B04621F460010843B86460780007E7
:1012300020D5D4F8A8004FEA3060042807D8DFE8AA
:1012400000F003090C0F0F0001F094F908E00125EC
:10125000012710E001F06FFA01E001F060F90546A6
:101260002F4645B9D4F8A80001F062F921F0E061F9
:1012700001F074F94746E07880071DD5A06C4FEA6D
:101280003010032806D8DFE800F00B02080B01F04D
:1012900010F905E0012501260FE001F05BF9054694
:1012A0002E4655B9A06CDAF83C100025524621F0C4
:1012B00030010843CAF83C003E466078C0061ED59F
:1012C000E06D4FEA3030042807D8DFE800F003096A
:1012D0000C0F0F0001F0EDF808E0012501270FE0E9
:1012E00001F029FA01E001F01AF905462F463DB94F
:1012F000E06D01F022F921F4E04101F073F9374685
:10130000607880061BD5206E4FEA3040052807D84C
:10131000DFE800F00C03090C0C0C01F005F904E007
:10132000012501260CE001F015FA05462E463DB9CF
:10133000206E01F002F921F4E02101F053F93E465C
:10134000607840061DD5D4F8AC004FEA307005280F
:1013500007D8DFE800F00C03090C0C0C01F0E4F8EE
:1013600004E0012501270DE001F0F4F905462F46C0
:1013700045B9D4F8AC0001F0DBF821F0E04101F010
:10138000EDF837466078000618D5E06E68B1B0F128
:10139000005F07D0B0F1805F22D101F08AF804E04D
:1013A0001044025801F0C0F805462E463DB9E06EE3
:1013B00001F0C3F821F0405101F014F93E46E07805
:1013C000C00702D1B04657461EE0606C574603285E
:1013D00009D8DFE800F00F020C0F01F0CBF809E0AC
:1013E00001250126EBE701254FF001080CE001F093
:1013F000B1F80546A8463DB9606CF96B0025B046CA
:1014000021F003010843F863A078400601D4474661
:1014100016E0D7F8F00340F48070C7F8F003FFF748
:10142000F1FC0646D7F8F003C00507D4FFF7EAFC45
:10143000801B6428F6D90325032701E02F467DB1E0
:101440002078C00746D0A06F4FEAF000052832D8B8
:10145000DFE800F037033437373701F065F82FE065
:10146000DAF86010D4F8B0005546414011F4407FDE
:101470000BD0296E2A6E42F480322A6621F4407124
:101480002A6E22F480322A662966B0F5807F40F009
:10149000BD81FFF7B7FC064641F288390327DAF829
:1014A0006000800700F1AF81FFF7ACFC801B0325D3
:1014B0004845F4D9C4E7012501260CE001F04AF9BA
:1014C00005462E463DB9A06F01F04CF821F03801D9
:1014D00001F08CF83E462078800719D5606F05280A
:1014E00007D8DFE800F00C03090C0C0C01F01CF825
:1014F00004E0012501270CE001F02CF905462F46F8
:101500003DB9606F01F02EF821F0070101F06EF88F
:101510003746207840071BD5D4F89000052807D817
:10152000DFE800F00C03090C0C0C00F0FDFF04E0F8
:10153000012501260DE001F00DF905462E4645B9BD
:10154000D4F8900000F0F4FF21F0070101F006F854
:101550003E46207880061DD5D4F88C004FEA3070C6
:10156000052807D8DFE800F00C03090C0C0C01F08B
:10157000E2F804E0012501270DE001F0B3F805468B
:101580002F4645B9D4F88C0000F0ECFF21F0E04183
:1015900001F02CF83746207840061DD5D4F8980085
:1015A0004FEAB020052807D8DFE800F00C03090C4B
:1015B0000C0C01F0C0F804E0012501260DE001F05B
:1015C00091F805462E4645B9D4F8980000F0B0FFD2
:1015D00021F4E05100F0C2FF3E46207800061DD500
:1015E000D4F89C004FEA7030052807D8DFE800F0F7
:1015F0000C03090C0C0C01F09EF804E001250127F6
:101600000DE001F06FF805462F4645B9D4F89C006F
:1016100000F08EFF21F4604100F0A0FF3746206803
:10162000010713D5D4F88000B0F5805F06D101F032
:1016300059F8002818BF0127D4F88000DAF84410C0
:10164000524621F4405100F0D1FF2068C10613D565
:10165000D4F89400B0F5807F06D101F043F800285B
:1016600018BF0127D4F89400DAF84810524621F444
:10167000407100F073FF2068000318D5D4F8A00073
:10168000B0F5003F09D0B0F5803F03D010BB01F0AA
:1016900052F801E001F026F805462E4645B9D4F887
:1016A000A00000F045FF21F4403100F057FF3E4616
:1016B000A07840071ED5D4F88400B0F5401F0FD0A5
:1016C000B0F5001F09D0B0F5801F40F0998000F000
:1016D000F0FE05E001250126EAE701F03BF80546AA
:1016E0002F4645B9D4F8840000F03CFF21F44011A6
:1016F00000F07CFF3746A078C00701D13E4619E0D4
:10170000E06CB0F5803F03D090B900F0D2FE02E06B
:1017100000F020FF05462E4665B9E06CDAF83C1073
:101720000025524621F480310843CAF83C00E5E721
:10173000012501262068810005D500F0D3FF00288F
:1017400018BF0126206881031BD5E16F6FF00102ED
:1017500002EB3122022A0AD34FEA31223AB1012A9E
:1017600006D1DAF81C2042F40032CAF81C200DB170
:10177000012606E0DAF8442022F440721143CAF848
:101780004410C10207D5216FDAF8402022F0004250
:101790001143CAF84010C10008D5D4F8B410DAF8E3
:1017A000002022F480421143CAF80010810207D5BC
:1017B000A16EDAF8402022F080721143CAF840107E
:1017C00041000CD5DAF8001021F40041CAF80010ED
:1017D000D4F8B810DAF800201143CAF80010B0F1BC
:1017E000FF3F07DC206DDAF83C1021F04051084340
:1017F000CAF83C00002E18BF01263046BDE8F0872D
:101800000125012777E75546D4F8B0002A68094931
:1018100000F4407322F47C5201EA1011B3F5407FCA
:101820006FF31F3008BF0A432A60296E08432866F9
:101830000025ECE5CFFFFF002DE9F843002800F07C
:10184000FB807F4D04468846286800F00F008842E0
:101850000BD2286820F00F0040EA080028602868B2
:1018600000F00F00404540F0E7802068C64F410778
:1018700009D52169BA6900F004FF04D9BA6922F0D8
:1018800070021143B961010709D56169FA6900F075
:10189000F8FE04D9FA6922F070021143F961C10619
:1018A0000AD5A169FA6902F4E062914204D9FA69A1
:1018B00022F4E0621143F961810609D5E1693A6ACF
:1018C00000F0DFFE04D93A6A22F070021143396257
:1018D00010F002010AD0E268BB6903F00F039A42DC
:1018E00004D9BB6923F00F031A43BA61C2073AD087
:1018F000D4E90101BA6922F470621143B961012887
:1019000007D0032809D002280BD1396889030CD4E9
:1019100092E03968C90508D48EE03968890104D499
:101920008AE03968490740F187803969A94621F082
:10193000070108433861FFF765FA064641F288352A
:101940006068396901F03801B1EBC00F07D0FFF7CB
:1019500059FA801BA842F3D90320BDE8F883206818
:101960004D4600F0020151B1E168BA6902F00F0280
:10197000914204D2BA6922F00F021143B961296879
:1019800001F00F0141450AD9296821F00F0141EA10
:1019900008012960296801F00F0141454CD1410738
:1019A00009D52169BA6900F06CFE04D2BA6922F047
:1019B00070021143B961010709D56169FA6900F044
:1019C00060FE04D2FA6922F070021143F961C10687
:1019D0000AD5A169FA6902F4E062914204D2FA6977
:1019E00022F4E0621143F96180060AD5E069396AA0
:1019F00001F07001884204D2396A21F07001084375
:101A0000386200F057F8B969294A1C4BC1F3032129
:101A1000515C01F01F01C840B969186001F00F0165
:101A2000515C01F01F01C840154908600548006875
:101A3000BDE8F843FFF732BA0120BDE8F88300BFE4
:101A4000002000520800002480B500F033F80A4955
:101A5000174B0A68096801F00F01C2F30322595CB1
:101A60009A5C01F01F0102F01F02D040034A10608F
:101A7000C8400349086080BD184402580C00002487
:101A80001000002480B5FFF7DFFF0849084A096805
:101A9000C1F3021100F021BE80B5FFF7D5FF034965
:101AA000034A0968C1F3022100F017BE1C44025822
:101AB0006C51000810B534490869C0F3C20003280E
:101AC0000FD0022804BF324810BD40B90868800614
:101AD000334858D50968C1F3C101C84010BD2B482F
:101AE00010BD8A6A886ACB6A4C6BC0F30510F0B1EE
:101AF00003F00103C4F3CC0402F003026343022A9F
:101B000000EE103AB8EE400A13D0AAB90A6892065D
:101B100051BF9FED221A0A68C2F3C102204B42BF97
:101B200023FA02F201EE102AB8EE411A06E0002074
:101B300010BD9FED191A01E09FED161A0A6B9FED7B
:101B4000193A6FF35F2202EE102AB8EE422A00EE35
:101B5000032AB7EE000A32EE000A02EE100A086B02
:101B6000C0F34620B8EE422A013081EE021A21EE7F
:101B7000000A01EE100AB8EE411A80EE010ABCEE2E
:101B8000C00A10EE100A10BD0044025800093D00C2
:101B900040787D010024744A20BCBE4B0024744C64
:101BA0000090D00300000039F8B5002800F0E18073
:101BB00004460078D14EC00712D0306900F03801D9
:101BC000B06A102905D018292AD100F00300022894
:101BD00026D13068800303D56068002800F0C980F2
:101BE000207880074AD5306910F03801B06A26D0D5
:101BF000182901D1800722D03068E168002900F05F
:101C0000018120F01900084300F004FC054630680B
:101C100040071BD4FFF7F6F8401B0228F7D94FE125
:101C20006068002800F02581B0F5A02F00F0338116
:101C3000B0F5803F00F0338100F033FC32E13068D2
:101C4000400703D5E068002800F09380FFF7D4F840
:101C500041F2030188420AD82069716821F47C317D
:101C6000402814BF41EA003041F4003005E020690B
:101C7000716821F0FE4141EA006070602078C00682
:101C80003DD5306900F03801B06A082905D018291F
:101C90001BD100F00300012817D13068C00502D520
:101CA000E069802865D1FFF7A7F841F20301884277
:101CB0001ED8206A716821F0F841202814BF41EA3B
:101CC000806041F08040706019E03068E16900296F
:101CD00000F0C08040F0800000F09CFB05463068BA
:101CE000C005E0D4FFF78EF8401B0228F7D9E7E0E3
:101CF000206AF16821F07C5141EA0060F0602078B0
:101D0000000738D42078800647D42078400756D47E
:101D1000676A67B3306900F03800182840F0D28055
:101D2000B16A306B012F24D0A26A01F00303934201
:101D30001FD1E26AC1F3051191421AD10146226B0B
:101D40006FF35F21013A914213D1626BC0F34621D8
:101D5000013A91420DD1A26BC0F30641013A914282
:101D600007D1E16BC0F306600139884201D1002040
:101D70004EE10120F8BD706F616999B340F0010038
:101D80007067FFF73FF80546706F8007BAD4FFF71A
:101D900039F8401B0228F7D992E03068A169002980
:101DA00049D040F4805000F035FB0546306880048F
:101DB000ABD4FFF727F8401B0228F7D980E0D6F80C
:101DC000000440F48070C6F80004FFF71BF80546D5
:101DD000D6F80004C00524D4FFF714F8401B64288B
:101DE000F6D96DE020F001007067FFF70BF80546AB
:101DF000706F80077FF586AFFFF704F8401B02285D
:101E0000F6D95DE020F0010000F004FB05463068E3
:101E100040077FF533AFFEF7F5FF00F004FCF6D97D
:101E2000F6E0A06800286BD005287CD001287ED081
:101E300000F0B4FB7EE020F4805000F0EBFA0546A1
:101E4000306880047FF561AFFEF7DCFF00F0EBFB4C
:101E5000F6D9DDE020F0800000F0DCFA05463068BD
:101E6000C0057FF54CAFFEF7CDFF00F0DCFBF6D9E7
:101E7000CEE000F016FB00F0CDFA054641F28837BF
:101E8000306880037FF5ACAEFEF7BCFF411B03203A
:101E9000B942F5D9BCE0306840F480203060306849
:101EA00040F4803000F0B6FA054641F288373068D9
:101EB00080033FF595AEFEF7A5FF401BB842F6D96B
:101EC0000320F8BD306820F0807000F0A3FA0546CA
:101ED000022F08D1306880013DD5FEF793FF00F056
:101EE000A2FBF7D994E0306880017FF540AFFEF7A0
:101EF00089FF00F098FBF6D98AE000BF0044025841
:101F000000F04CFB3067FEF77DFF054641F2883755
:101F1000306F80077FF5FCAEFEF774FF411B032096
:101F2000B942F5D974E0306F40F004003067306F8B
:101F300040F001003067FEF765FF054641F2883743
:101F4000306F80073FF5E4AEFEF75CFF411B0320D6
:101F5000B942F5D95CE004F12805B06A40F2F331EA
:101F600088432ECD0843591E40EA0210B0626FF339
:101F70005F214FF4FE024FF47E4000EB452080B21B
:101F80000844A16B02EB01414FF0FE4201F4FE0157
:101F90000844E16B02EB016101F0FE41084430634B
:101FA0004FF6F871F06A20F00100F062706B884320
:101FB000A16C40EAC1007063206CF16A21F00C0151
:101FC0000843F062F06A616C20F002000843F0629E
:101FD000F06A40F48030F062F06A40F40030F06261
:101FE000F06A40F48020F062F06A40F00100F06294
:101FF000306840F0807000F00DFA044630688001CF
:102000003FF5B5AEFEF7FEFE011B03200229F5D910
:10201000F8BD0000EE4800F0BCBA00BF70B370B568
:10202000044690F8450015460E4628B9002084F86D
:102030004400204600F026F8206804F10801FEF76D
:102040009BFD2068A2683146FEF7DCFDD4E9010261
:10205000E36A2946FEF774FD2068A16850F8212044
:1020600042F0010240F821200548016841F000419A
:102070000160012084F84500002070BD01207047F8
:102080000040005270470000D14800F021BB00BF63
:1020900058B110B500F02BFB03D100F0B0FA00F0FE
:1020A00006F800F06DFB00F00CBA01207047704795
:1020B00090F83D1001290ED1022180F83D10084A08
:1020C00001688868734600F0FFFA9E4618BFB2F5B3
:1020D000803F02D170470120704700F00DBB00BF68
:1020E0000700010010B548B10446D0F8800008B9D7
:1020F00000F0ACFA00F0A8F9012801D1012010BDD0
:10210000A06A08B100F08CFA00F083FA21F02A01ED
:10211000816000F004FBBDE8104000F017BF70477D
:1021200009490968084018BF01207047002906497D
:10213000096814BF084321EA0000034908600868E1
:1021400002490860704700BFC4010024001000600D
:10215000B0B5234A9168B1F1FF3F38DD21491368DA
:1021600022A44B62137981F828305379CB625369EA
:102170000B63D3888B8693688B63D368CB63926938
:102180000A64194B0022292A06D0A55CDD601D686F
:102190006D06FCD50132F6E700220A600A68002AC3
:1021A000FCD002684A6042688A608268CA60C2687D
:1021B0000A6102694A6142698A618269CA61C069C9
:1021C00008620020086008680028FCD0B0BD916853
:1021D00041F000419160816902318161B0BD00BF71
:1021E00024ED00E0740100241C1001400D0A456E2E
:1021F00074657220486172644661756C745F4861F1
:102200006E646C65722C2053797374656D2048611F
:102210006C742E0D0A000000F8B5044607280ED88D
:10222000FF2500260027072E17D8F0B200F02CF863
:1022300000281CBF3546012007440136F3E7092C6E
:1022400015D0082C1DD1002000F01EF8C8B10120C7
:10225000012400F019F8A8B913E0F9B285EA0400E6
:1022600081F001010843B0FA80F044090AE001203E
:1022700000F00AF828B1022000F006F808B10124A5
:1022800000E000242046F8BD074901EBC00251F8E8
:102290003000938800699179184018BF0120081A0E
:1022A000B0FA80F040097047B0520008FEE710B560
:1022B00000F1280151E8002F12B9BFF32F8F04E07D
:1022C000531E41E8003404B1F4E772B12C3001210F
:1022D000006850B1821CD2E84F3FC2E8441F04B1ED
:1022E000F9E71A0602D00830F2E7002010BD70B5F9
:1022F000024652F8305F4DB1CC7800235DB12E46D6
:10230000ED78A5420DD275683346F7E70023C1E9A1
:102310000133C1620DE00024C1E9014300F12C0446
:1023200003E0C1E9016306F108042160002B18BF36
:102330001A1D1160283050E8001F4A1C40E8002395
:1023400003B1F8E770BDD1E9012312B193608B6846
:1023500000E0C362191D002B08BF00F130010A60C4
:10236000704770471A480068704700BF19480178E5
:10237000012905D105494FF080620A6000210170F2
:102380001348016841F001010160704704ED00E06D
:102390004FF0FF307047000040B10B490968B1FBB6
:1023A000F0F0411E0020B0EB116F02D04FF0FF3073
:1023B0007047064AFF231370054A062313605160D5
:1023C00004490870906070470C00002423ED00E081
:1023D00010E000E0E8960024BFF34F8FBFF36F8F4B
:1023E000704706EB460084F80A800130C0B201F065
:1023F0002FBB60602168084020607047608AD4E984
:102400000012105C8862608A01306082A18980B20B
:10241000884270473060FEF7F5BCC2F34622B8EE42
:10242000433A32EE002A81EE031A21EE021A02EE3E
:10243000102AB8EE422A32EE002A81EE022ABCEEC1
:10244000C22A80ED002A70472420C4F8800020684A
:10245000016821F001010160204600F0A3BD0022C7
:10246000FEF70CB92168D4E90223204601F0B8BD7B
:1024700020466FF003016FF00305FEF781BAC4F840
:10248000DC00D4F8DC007047C0B201F0E1BA386873
:1024900040F001003860386800F00100309030985A
:1024A0007047306820F480303060306820F480203D
:1024B0007047DAF81C00514640F40030CAF81C009E
:1024C0007047012084F8480084F83E0084F83F00FB
:1024D00084F8400084F8410084F8420084F8430006
:1024E00084F8440084F8450084F8460084F84700E6
:1024F00084F83D00002010BD13460A460146002026
:10250000009070474FF0FF304FF0FF34FEF7C2B934
:102510000021002206464FF0000802F0EDB804F159
:102520002400002100F094B9201D012100F030B9F1
:10253000DAF84810002552467047DAF840100025B6
:10254000524670470968C1F30211515C01F01F0146
:10255000C84080BD201D022100F01AB90843CAF806
:1025600048007047DAF8441000255246704738603A
:10257000FEF748BCF86940F40030F86170473868ED
:1025800040F002003860386800F0020000900098C7
:102590007047016841F0020101607047306F20F020
:1025A00001003067306F20F004007047C1F306610E
:1025B00002EE101AB8EE422A32EE000A81EE000A4C
:1025C000BCEEC00A10EE101A704714460A460146C7
:1025D000009370476FF00500FEF75CB92046414656
:1025E000FEF7F6B90843CAF8400070470843CAF836
:1025F0004400704700222B46204600F01FBE0020FA
:1026000084F83C00204670471968C1F3C101C840F6
:1026100070472068416821F49041416081687047AB
:10262000204600F03FBC411B032002297047C2F343
:10263000064202EE102AB8EE422A32EE002A81EE5D
:10264000022ABCEEC22A80ED012A7047002084F8DD
:102650007C002046FFF763BD2346FEF72DB86FF0E0
:10266000050080BD6FF003016FF00306FEF788B927
:102670000021C16002F016B8016841F0010101605B
:10268000704702F0700291427047B8626FF35F21A9
:102690004FF47E4000EB42204FF0FE4280B20844EF
:1026A0004FF4FE0101EB034101F4FE0108442969E6
:1026B00002EB016101F0FE4108447047204601F041
:1026C0005BBF204601F081BF02400020062A704710
:1026D000016821F0020101607047515C01F01F01A7
:1026E000C84080BD04F12400022100F0B1B80446C6
:1026F00090F83D0000287047086840F0010008602D
:10270000002070476FF35F2302EE103AB8EE422AC2
:1027100000EE032A03EE102AB7EE000A70470168A4
:1027200041F0010101602046704794F82320616A5E
:10273000204600F061BB201D002100F029B821F4E3
:10274000D0710160816821F0010181602020C4F80E
:102750008000704704F12400012100F079B8A869D5
:1027600068612146012001F05FBBC5F3CC0503F091
:1027700003036C43022B00EE104AB8EE400A704788
:10278000022084F83D00211D206800F0CFBA00002F
:10279000F8B5B74F0546B86A00F00300032804BF38
:1027A0000120F8BD38680C4620F08060FFF7DFFE9E
:1027B00006463868000105D5FEF724FB801B022879
:1027C000F7D941E095E80F00BE6A26F47C3601395E
:1027D00046EA0030FFF759FFB8636869F96A21F0EB
:1027E000C0010843F862A869F96A21F02001084392
:1027F000F8624FF6F871F86A20F01000F862F86B92
:102800008843E969012C40EAC100F863F86A40F0A6
:102810001000F8624FF4001008BF4FF48010002C35
:1028200008BF4FF40020F96A0843F862386840F0A6
:102830008060FFF79CFE04463868000106D4FEF76E
:10284000E1FA001B0328F7D30320F8BD0020F8BDF0
:10285000F8B5874F0546B86A00F00300032804BFA7
:102860000120F8BD38680C4620F08050FFF77FFE4D
:1028700006463868800005D5FEF7C4FA801B02289A
:10288000F7D941E095E80F00BE6A26F07C76013961
:1028900046EA0050FFF7F9FE38646869F96A21F4E6
:1028A00040610843F862A869F96A21F4007108439D
:1028B000F8624FF6F871F86A20F48070F862786C6C
:1028C0008843E969012C40EAC1007864F86A40F461
:1028D0008070F8624FF0807008BF4FF40000002C49
:1028E00008BF4FF48000F96A0843F862386840F086
:1028F0008050FFF73CFE04463868800006D4FEF79F
:1029000081FA001B0328F7D30320F8BD0020F8BD8F
:10291000FEB50C48016841F002010160006800F05A
:1029200002000090032004900020039001200290F8
:1029300004200190009801A90348FEF79FF906B012
:1029400080BD00BFE04402580004025870470000F8
:10295000044804210160704702484FF4802101605F
:10296000704700BF1804025810B5EF4CA06828B19A
:10297000A0680138A06001D10120A07000200121D1
:1029800030280ED02218136A4BB1136A013B136230
:1029900005D15177137F012B01D1536A13620C309B
:1029A000EEE760686FF00041013060606068884267
:1029B00001D10020606001F05BF860780130607048
:1029C000C0B20A2838BF10BD00206070BDE81040BA
:1029D00001F04CB8B0B52448244BD0F8801041F435
:1029E0007001C0F88010196801F00F01062904D8A1
:1029F0001968072262F303011960AA491D4D0A688C
:102A000042F001020A6000220A610C682C400C604E
:102A10001C68240704D51C68072565F303041C60A3
:102A2000154B8A61CA610A628B62144BCB62144BEC
:102A30000B634A638B63CA630B644A640B6823F4B9
:102A400080230B600A660F490968B2EB517F02D1FF
:102A50000D4901220A600D4943F2D2020A604FF08B
:102A600000610160B0BD00BF08ED00E00020005231
:102A7000004402587FEDF6EA000202020000FF0166
:102A8000800201010010005C0881005100400052EA
:102A90002DE9F0419CB0FEF729FA12208DF80C00C8
:102AA0000DF1040803248DF80F404FF010500290F0
:102AB0000120ADF80400774804904FF48070ADF821
:102AC0000D004046FEF7ECF90F208DF80C000025B4
:102AD0008DF80F40ADF80D504FF0C040029040F21D
:102AE0000110ADF804004FF0807004904046FEF7EE
:102AF000D7F90420FEF704FA6748016889030BD46C
:102B0000FFF76AFCC0F83C52FFF766FC016841F42D
:102B100000310160FFF760FC0168C90324D4002183
:102B2000016743F6E07CBFF34F8FC26EC2F3C90367
:102B3000C2F34E319A075C1C0CEA41161746234635
:102B400047EA060507F14047013BC0F84C52F7D170
:102B50004B1E00291946EFD1BFF34F8F016841F496
:102B600080310160FFF738FCFEF76EF914A82021D0
:102B7000FDF77AFC08F108004421FDF775FC474891
:102B8000016821F0040101600021009144490A68B4
:102B900022F001020A60096801F001010091C16898
:102BA00041F44041C160C16801F440410091009985
:102BB000C1688904FCD5022010900E90CDE90A006E
:102BC000A02100240D9108250894049412941195D5
:102BD0004FF48030029005210C91012001900420D7
:102BE0000F9001A8FEF7E0FF00B1FEE740201B9028
:102BF000CDE918004FF480611A91CDE91645032004
:102C0000159004213F20149014A8FEF715FE00B182
:102C1000FEE7244C206840F080002060D4F8F400E7
:102C200040F00200C4F8F400D4F8F40000F0020010
:102C300000900098FEF71CF8D4F8DC0040F000503B
:102C4000FFF71DFC00F0005000900098D4F8DC0065
:102C500040F08040FFF713FC00F0804000900098A7
:102C6000D4F8DC0040F00040FFF709FC00F0004021
:102C700000900098D4F8A80040F08050C4F8A80054
:102C8000D4F8A80040F00050C4F8A8001CB0BDE87B
:102C9000F08100BF0000010114ED00E00C48025873
:102CA0002C0400580044025810B51E4C616820687E
:102CB000890709D510F0020006D04FF6FD70FFF726
:102CC00098FB1948C068804761682068490709D5A2
:102CD00010F0040006D04FF6FB70FFF78AFB124895
:102CE0000069804761682068090709D510F008006D
:102CF00006D04FF6F770FFF77CFB0B484069804722
:102D000061682068C9060BD510F0100008D04FF696
:102D1000EF70FFF76EFB04488069BDE81040004784
:102D200010BD00BF0C000040D000002470B52A4A3E
:102D30000368904222D0B0F1804F1CBF274CA042C4
:102D400040D123F070034C682343B0F1804F19D079
:102D5000224CA0421CBF224CA04213D0224CA042C5
:102D60001CBF204CA0420DD0204CA0420AD0204CC9
:102D7000A04207D01F4CA04204D007E023F070030C
:102D80004C682343CC6823F4407323434E6923F0FB
:102D900080030C688D6833430360C562846290428F
:102DA0000BD0104A904208D0104A904205D0104AE9
:102DB000904202D00F4A904201D10969016301217A
:102DC000416170BD064CA042BBD0064CA042B8D0B9
:102DD000054CA042B5D0B8E7000001400004004017
:102DE0000008004000040140000C00400040014089
:102DF000004801400044014010B5930712D400F18F
:102E00002803D00715D153E8000F084203D1BFF3C0
:102E10002F8F002005E020EA010243E8002404B1DE
:102E2000F1E710BD806AD20700EA010312D1A3B90D
:102E300012E053E8000F00EA01028A4203D0BFF318
:102E40002F8F002005E020EA010243E8002404B1AE
:102E5000EFE710BD8B4200D0002010BDB0B5104A86
:102E60000023443215462C683CB12569A94209D398
:102E7000491B04F10C052346F5E70024C0E90234A0
:102E8000016106E00161C0E90234A0602569691AA8
:102E90002161002B18BF03F10C021060B0BD00BF10
:102EA0001400002410B5816ACA0706D00268C36AFC
:102EB000546824F40034234353608A0706D502681B
:102EC000036B546824F48034234353604A0706D5C7
:102ED0000268436B546824F48024234353600A0738
:102EE00006D50268836B546824F40044234353607E
:102EF000CA0606D50268C36B946824F48054234341
:102F000093608A0606D50268036C946824F4005422
:102F1000234393604A060FD50268436C546824F437
:102F200080141C435460B3F5801F05D1836C546832
:102F300024F4C00423435360090606D50168C06C1D
:102F40004A6822F400221043486010BDBCB5044614
:102F50000020C4F88800FDF755FF05462068016889
:102F6000090708D56FF07E4000904FF40011FFF77D
:102F700041FB58B920680068400709D56FF07E40D2
:102F800000904FF48001FFF735FB08B10320BCBD72
:102F900000202021C4F8801084F87C00C4F884103C
:102FA000BCBD0000FEB50446016880688F4ED4E9C0
:102FB00003230D682E4018436569636E2843E56955
:102FC000284318438B4B30430860894E486820F4EF
:102FD000405010434860A069B1421CBF226A1043B0
:102FE0008A681A40844B10438860626AC86A20F07D
:102FF0000F001043C862814881421CBF8048814253
:103000000BD0804881421CBF7F48814205D07F4859
:1030100081421CBF7E48814208D1586D00F00700F4
:10302000062819D27F4F3844077816E0B1420CD0F9
:103030007848814202D0784881420DD1586DC0F362
:10304000C200062808D2784FEDE7986D00F007001F
:10305000062801D271A7E6E780277448B1420FD055
:103060000121B5F5004F1BD1082F25D8DFE807F067
:103070000569A8A86CA8A8A87000FEF703FD6BE07E
:10308000402F2DD0042F2ED0082F30D0102F36D027
:10309000202F3AD0022F40F09280FDF795FF2AE0D2
:1030A000082F13D8DFE807F0056D8C8C708C8C8CA2
:1030B0007400FEF7E7FC6FE0102F00F08980202FEE
:1030C0004CD0402F7CD14FF4004047E0102F00F04F
:1030D0008680202F62D0402F72D14FF400405DE0F7
:1030E0004FF4004011E06846FDF77AFF02E06846C1
:1030F000FDF7BCFF019800285FD0626A05E0186800
:1031000080064B4801D5FFF77FFA4A4931F8121083
:103110006268B0FBF1F002EB420188424FD3B0EBA2
:10312000023F4CD8010E000210EB520041F10001A9
:103130000023FDF74FF9A0F540713F4A91423AD381
:103140003DE0FEF7A9FC07E06846FDF749FF02E015
:103150006846FDF78BFF019878B3626A354931F80C
:103160001210B0FBF1F061684A0802EB4000B0FBBE
:10317000F1F04FF6F071014021D0C0F34200084356
:1031800019E0FEF789FC07E06846FDF729FF02E039
:103190006846FDF76BFF019878B1626A254931F8FE
:1031A0001210B0FBF1F0616800EB5100B0FBF1F0E0
:1031B00080B2102803D32168C860002100E00121FB
:1031C00000204FF00112C4E91A2020670846FEBD16
:1031D000186880061648C1D5FFF716FABEE71868CA
:1031E00080061348DAD5FFF70FFAD7E7F369FFCF68
:1031F000000C0058FFF4FF11004402580044004046
:1032000000480040004C0040005000400078004062
:10321000007C00400014014000100140020408102E
:1032200020400000665100086051000800093D0080
:103230000090D0032452000800FD0F002DE9F84350
:10324000DDF820900446984616460F46006809F1BE
:103250000105C1693940C91BB1FA81F14909B1427F
:103260001CD1002DF5D0FDF7CDFDA0EB08022068A4
:1032700001684A4515D8B9F1000F12D04907E8D5C1
:10328000C1690905E5D54FF4006101620168FFF7E6
:1032900056FAC4F8840004F1880006E00020BDE876
:1032A000F883FFF74CFA04F18400002184F87C10C5
:1032B000202101600320BDE8F8830000034800F0EE
:1032C00007B800BF01482C3000F002B81C010024F0
:1032D00070B504460068C66905688168B10616D5F0
:1032E000406AA168E28A8854E18A4A1CE282E18944
:1032F00092B28A4201D30022E282628B8A4202D2D7
:10330000618B01316183616A09B1C0B288473006BF
:1033100018D5280616D5A08A58B1012084F82800AF
:10332000FFF76CF801D300206082A08A0138A082E8
:1033300008E02068016821F080010160016841F027
:1033400040010160700617D5680615D5A08A40B106
:10335000FFF754F801D300206082A08A0138A082D0
:103360000AE02168206A0A6822F040020A6000B17F
:103370008047002084F828002068016A41F001019C
:103380000162016A41F002010162016A41F0040137
:103390000162016A41F008010162016A41F0100115
:1033A0000162016A41F040010162016A41F48071E9
:1033B0000162016A41F400710162016A41F4003165
:1033C0000162016A41F480110162016A41F0200149
:1033D000016270BDFEE70000CD498A7AC87A824258
:1033E00001D100207047885C0132D3B2092B88BF1D
:1033F00000228A72704700BF80B500F00DF800F01F
:103400001FF900F0C7F900F019F800F085F9BDE8E0
:10341000804000F091B900000648016841F08071D9
:103420000160054800214160016841F0010101602F
:10343000704700BFFCED00E0001000E02DE9F04314
:103440009BB050484FF003094FF0010802274E4D42
:103450004E4E016841F008010160016801F0080169
:1034600008910899016841F010010160016801F0BC
:10347000100108910899016841F04001016001685C
:1034800001F0400108910899016841F08001016054
:10349000016801F0800108910899016841F4807188
:1034A0000160016801F480710891089950F80C1CC2
:1034B00041F4805140F80C1C50F80C0C00F4805082
:1034C00008900898CDF82C90CDF8288009970C200A
:1034D0000C904CF2B370089008AC28462146B047D7
:1034E0004FF680700890214605F58060B04705F5DD
:1034F00040602146CDF82090B0474FF47F400890BF
:10350000214605F58050B04740F2CF600890214633
:1035100005F5A050B0474FF480510020CDE91001CF
:103520001A90CDE91800CDE90E00CDE90A00CDE9E9
:103530000670CDE90487CDE902772021CDE90C01A1
:10354000052001901249089104F1280001F58271CB
:1035500009911821FCF788FF01A920460A46FEF7C9
:103560005DFD20B10BA04FF49271FDF748F81148B2
:1035700040F6147101601049006808601BB0BDE896
:10358000F08300BFE0440258000C02587D0C000894
:10359000004000522E2E2F2E2E2F557365722F6253
:1035A00073702F7372632F6273705F666D635F69F0
:1035B0006F2E6300C40100240010006010B594B0A9
:1035C00001AC302104F11C00FCF74EFF19480168E2
:1035D00041F00101016000684FF0FF3100F001008F
:1035E000009004914FF08041019100208021CDE9AD
:1035F00006010590039064480F490068B0FBF1F0A4
:10360000013880B2029000982046FEF741FD20B1BB
:103610000A484FF40C71FCF7F2FF1C200021022233
:10362000FDF79CFC1C20FDF78BFC01A8FEF740FD7C
:1036300014B010BDE844025880841E0034530008C2
:1036400070B586B032480021022264230024017341
:103650004181EC48A02C05D00519103429732A713A
:10366000AB60F7E706216422A0F86B10A0F8682091
:10367000A0F85B10A0F85820A0F84B10A0F8482044
:10368000A0F83B100287AE480025224E016841F0A9
:1036900002010160016801F00201019101990168D4
:1036A00041F004010160016801F0040101910199F8
:1036B000016841F040010160016801F040010191A1
:1036C0000199016841F080010160016801F0800109
:1036D00001910199016841F480710160006800F472
:1036E000807001900198CDE902550320049001AC4F
:1036F000082D0AD006EBC50021468088019056F8B7
:103700003500FDF7BBFA0135F2E706B070BD00BF2A
:1037100098A20024B052000810B5064C0120A04722
:103720000220A0470320A04704202146BDE8104006
:10373000084700BF093A000810B5002111480022CF
:10374000302A06D083180C321962596259771977DA
:10375000F6E70D494FF47A720968B1FBF2F14A1E9F
:103760000021B1EB126F07D1084BF0245A60084AD0
:10377000147099600721196001210170BDE81040A3
:10378000FFF71CBFD00000240C00002410E000E074
:1037900023ED00E02DE9F04FB5B05F485F4B00210D
:1037A0004FF004225E4C614E5E4D01824182C18227
:1037B0000183418381828187C187A0F84210A0F8EC
:1037C0004410A0F84610C0E90232574BC0E90D3250
:1037D000C0E90054564CC0E90B46C0E907114162EC
:1037E00080F82810A0F84010524A80F85410534E28
:1037F00002651F91504BC0E9126301200190012620
:1038000001A8FDF779FC4E4F4FF00709DFF838A10A
:10381000FEF73DFEFEF73BFE386940F010003861D0
:10382000386900F0100030903098CDF8D090032027
:10383000CDE93260022031904FF40070309030AE0C
:10384000404831468346D047584631464FF4806859
:10385000CDF8D090CDF8C080D0472520042100229B
:10386000FDF77CFB2520FDF76BFB28464FF4E1318B
:1038700000220C2300F0FEF8286A314640F0400098
:103880002862A86940F00800A861286840F020007C
:1038900028600BF58065FEF772FEFEF770FEB868D3
:1038A00040F48020B860B86800F480200090009850
:1038B000CDF8D09003203390012032900220CDE942
:1038C00030802846D0474FF4006030903146CDF824
:1038D000D0902846D047272004210322FDF73EFB45
:1038E0002720FDF72DFB20464FF4165100220C2314
:1038F00000F0C0F8206A40F040002062A06940F06B
:103900000800A061206840F020002060FFF700F868
:1039100035B0BDE8F08F00BF1C010024C8010024B1
:10392000C809002400100140C8050024C80D002467
:10393000004800404D290008592900085129000875
:10394000E0440258000002587D0C00082DE9F047C1
:103950004FF0000A2B4D4FF005094FF001080027EA
:103960000026A02F4BD0F0B2EC19FEF755FC2179C0
:1039700020B1042907D884F804902CE0062907D345
:1039800084F8049023E0092906D8481C207122E01D
:1039900099B1481E20711AE0A07A08B9FEF721FDFE
:1039A0002089C0B1E188814218D20131E180814291
:1039B00011D106EB460003301EE0A07A012806D1A3
:1039C00006EB460084F80AA00230FEF75DFD84F89D
:1039D0000CA0A4F806A010370136C2E7E07A002850
:1039E000F9D0217B01312173C9B28142F3D306EBB7
:1039F000460084F80CA00130FEF746FDEBE7BDE879
:103A0000F08700BFF8A100240138C1B2032988BFA4
:103A1000704740B20D4951F820000121FEF786BBE6
:103A20000138C1B2032988BF704710B540B20749B9
:103A300051F820402046FEF773FBB0FA80F04109B0
:103A40002046BDE81040FEF771BB00BF3C520008A5
:103A50000549CA7A8854C87A0130C2B2092A88BF97
:103A60000020C872704700BF98A20024FFF76EBF05
:103A7000704700002DE9F041A4B00DF104080E4696
:103A8000074668211C46154608F12400FCF7ECFCAB
:103A90000020CDE903000990CDE90700CDE90176CA
:103AA000CDE905544046FEF71DFB20B1034840F226
:103AB0002631FCF7A4FD24B0BDE8F0815353000883
:103AC00010B50C46FCF778FDF8B1012181F31088A0
:103AD000428B002181F31088C2B1018B8268515C56
:103AE0002170012181F31088018B01310183C2898A
:103AF00089B2914201D300210183418B0139418375
:103B0000002080F31088012100E00021084610BD4C
:103B10002DE9FC4114468846FCF74EFD00283CD0B8
:103B20000646C06900B18047002001210022A24260
:103B30002ED081F31088B38AADF8063080F3108858
:103B4000B389BDF806709F420CD3BDF806709F4242
:103B5000EFD133681F683F06EBD41F6847F080073A
:103B60001F60E6E718F802307768358A7B5581F3E5
:103B70001088338A01333382B5899BB2AB4228BFA8
:103B80003082B38A01320133B38280F31088CEE7EA
:103B90003068016841F080010160BDE8FC81E0B55A
:103BA0008DF807100DF107010122FFF7B1FF8CBD61
:103BB00010B50446C1B20020FFF7F1FF204610BD4A
:103BC000FEF766FFFEF760FA00F070F80448054A59
:103BD000002100F053FE0449086000F07FF8FEE782
:103BE00001050008DC510008C001002410B504469E
:103BF000FCF726FEEFF3058028B9EFF3108010B92B
:103C0000EFF3118030B16FF00500FCF725FE6FF087
:103C1000050010BD2046DFF808C000DF10BD00BF62
:103C2000C148000810B50446FCF722FEEFF30580FA
:103C300028B9EFF3108010B9EFF3118030B16FF0B5
:103C40000500FCF709FE6FF0050010BD2046DFF807
:103C500008C000DF10BD00BFF5480008EFF3058085
:103C600048B9EFF3108030B9EFF3118018B9EFF3D2
:103C70001480C00701D100F05DBEDFF808C000DF8E
:103C8000704700BF35490008EFF3058028B9EFF30E
:103C9000108010B9EFF3118008B100F053BEDFF8C7
:103CA00008C000DF704700BF4549000880B500F03C
:103CB000C6F8FCF707FEEFF3058028B9EFF3108094
:103CC00010B9EFF3118018B1FEF784FCFEF7C7BC02
:103CD000DFF804C000DF80BD5949000880B5FCF75B
:103CE000FDFDEFF3058028B9EFF3108010B9EFF375
:103CF000118018B1FEF76EFCFEF7B1BCDFF804C00E
:103D000000DF80BD5D4A0008F8B51F4616460C4628
:103D10000546FCF73BFEEFF3058028B9EFF3108072
:103D200010B9EFF3118030B3E5B12878FA2819D132
:103D3000C4B1BFB92846FEF7BAFA20B3074600F16E
:103D40000C016A6A2046FCF776FB0EB1F8783070F9
:103D50003846FD6000F07EFA28462146FCF76AFEF0
:103D6000002406E028466FF003016FF00304FCF71F
:103D700007FE2046F8BD2846DFF818C02146324627
:103D80003B4600DFF8BD28462146FCF731FE6FF0C8
:103D90000204EEE7F94A0008F8B51F4616460C463D
:103DA0000546FCF72DFEEFF3058028B9EFF31080F0
:103DB00010B9EFF3118020B3F5B12878FA281BD1A0
:103DC000D4B1CFB905F10C0000F0BDF808B3074637
:103DD0006A6A0C302146FCF72EFBF9203870FE7021
:103DE0000026C7E90145BE70384600F033FA284680
:103DF0002146FCF7E5FD02E02846FEF733FC30469D
:103E0000F8BD2846DFF818C0214632463B4600DFA1
:103E1000F8BD28462146FCF7E3FD6FF00206EEE709
:103E2000294D0008FEE7FEE7B0B50C460546FCF755
:103E300036FD28462146BDE8B040FFF7F3BF704786
:103E4000F8B5A8B1A1B1042A12D2034601F10F04BA
:103E500024F0070453F8086F35465E6826F0030720
:103E60001F44EF1BA74209D22E682B46002EF3D128
:103E700000240023FCF73EFD2046F8BDD0E900C732
:103E8000844407EB040EC0F804E05CF8047C77453A
:103E900004D2ACF10806C6F804E05E6846B126F02C
:103EA00003061443F550F5181D602B466C6001E0C5
:103EB00014435C6003F108042346DBE7B0B560B14E
:103EC00059B100F10804A1F10802002394420AD07C
:103ED00025462468002C2B46F8D100240022FCF74C
:103EE0002FFD2046B0BD51F8045C446825F0030561
:103EF000641B446013B112681A6002E0002241F8AA
:103F0000042C01240122EAE710B530B140EA010295
:103F100012F0070201D1172902D8002400220EE076
:103F20000A181024C0E90014A2F1080383600023DA
:103F300042F8083C8268546001240122C360FCF707
:103F400009FD204610BDB0B5002817D000F11401BE
:103F500051E8004F14B9BFF32F8F04E0226841E805
:103F6000002303B1F4E73CB1011D51E8002F531CBD
:103F700041E8003505B1F8E7214602E000240020C1
:103F80000021FCF7C1FC2046B0BDB0B500281FD011
:103F9000C2688A421CD802698A4219D900F1140207
:103FA00013680B60BFF35F8F52E8003F0C689C42C0
:103FB000F6D142E8001505B1F2E7021D52E8003FD4
:103FC0005C1E42E8004505B1F8E70024002203E04A
:103FD0006FF003046FF00302FCF79EFC2046B0BDB7
:103FE00070B5E0B10E46D1B11446C2B10146002011
:103FF0001D46CBB104FB0652C1E90060C1E9024590
:1040000008462B46C1E9042531462246FCF78EFCC2
:10401000701E30B12919296001380D46F9E70020DA
:1040200070BD00202860012070BD2DE9F0410446DC
:104030008078A8B3E56821462846FEF784F9002079
:1040400005F10C06207021463046FFF79EFFA86858
:1040500020B33046FFF777FF00B30446284600F050
:104060008BFAFEF755FA304600F0EAFA4768064642
:104070006A6A04F10C003946FCF7DDF9F92020707A
:10408000214684F80280B068E0702846FEF72FF9D8
:1040900028463946BDE8F041FCF79ABCBDE8F081FE
:1040A000D4E90115A86830B34078832823D1284685
:1040B000FCF78EFC284600F05FFAFEF729FA30463E
:1040C00000F0BEFA466807466A6A04F10C01304601
:1040D000FCF7B1F9B86808B1E178017028463146BB
:1040E000FCF7A8FC84F8008005F10C002146BDE82F
:1040F000F041FFF74ABF2846FCF76AFC28462146F4
:10410000BDE8F041FEF7F3B880B507480821D0E9D3
:104110001A2000F06BFDE349C8640021002808BFA5
:104120004FF0FF31084680BDB85000082DE9F0413E
:10413000044600274FF0010814B325466469E87867
:104140000007F9D5284600212F76FCF789FCA868DE
:104150000028F1D0284600F00FFA00210022064680
:1041600000F0CAFAF06AC5E90367686100B1056149
:104170002846012185F81880F562FCF769FCDBE729
:10418000BDE8F081B0B5C278920718D5C06890F844
:104190002120C36ADC78A4070AD59C688C4208BF3A
:1041A0008C682CB194F9204055B2AC42C8BFE2B241
:1041B0005B69002BEED190F82010914200D1B0BD88
:1041C00080F82020BDE8B04000F005BA70B5E04CA2
:1041D00004F1560504F15A06B4F85400D5E85F1FFF
:1041E00011B9BFF32F8F04E04A1EC5E8532F03B166
:1041F000F4E7090429D0D6E85F1F4A1C904200D892
:104200000022C6E8532F03B1F5E788B2E16D51F8FB
:104210002000D0B10178F1390829DDD8DFE801F0BC
:1042200006050905050C0F051200D5E7216E884724
:10423000D2E7616E8847CFE7A16E8847CCE7E16E91
:104240008847C9E7216F8847C6E70020BDE870406E
:1042500000F02AB970B50146F84800F15603B0F8ED
:104260005420D3E85F4FA24202D8BFF32F8F04E05F
:10427000651CC3E8565F06B1F3E7A3B2934214D2BC
:1042800000F15803D3E85F4F651CAA4200D800250F
:10429000C3E8565F06B1F5E7A2B2C36D43F822103A
:1042A000417A39B10121817270BD0220BDE87040B0
:1042B000FFF7BABD02484FF08051016070BD00BFEA
:1042C00004ED00E010B50121417090F92030F8496B
:1042D0001C310A46896841B191F920409C42F8DCC2
:1042E000C0E9021290600C3104E00021C0E9021222
:1042F00002F108010860BDE81040FCF705BC00BFF2
:10430000B0B54A1C0DD0EA4A00232C3215462C6861
:10431000E4B1E569A94221D3491B04F11005234604
:10432000F5E7F449002301F13002144619462368E9
:1043300003F11004002BF9D14FF0FF33C3610023C8
:10434000C0E90431C1B101F1100215E0C161C0E959
:104350000443002B18BF03F110020DE0002BC0E94D
:104360000443C16118BF03F1100210602CB1E2696F
:10437000511AE16104F114021060B0BDC269016913
:10438000531C0AD021B143694B61CB691A44CA61FD
:1043900042693AB9D74AD16207E009B142694A6134
:1043A00042692AB10023436111610021C161704754
:1043B000D04A1163F9E700BF70B5FB4EF46A1CB137
:1043C000E0690138E06103D070BDE06900284CD19C
:1043D000607813384FEA3010082830D8DFE800F052
:1043E000052F090D121C21262B002046FCF72EFA62
:1043F00025E02046FCF772FB21E0FEF762F9FCF7AE
:1044000043FA1CE0FEF75DF921460546FFF7BAFEC8
:104410002846FCF717FB12E0FEF753F9FCF728FBE0
:104420000DE0FEF74EF9FCF79DFA08E0FEF749F9BA
:10443000FCF7C0FA03E0FEF744F9FCF7F5FA94F84C
:104440002200C0064FF0200058BF6020A16B4158E9
:104450002046FCF765FB204600F0ADF8204600F052
:10446000E5F82469002CB0D101E000206061F4621D
:1044700070BD00BF10B50446C078C00703D1204608
:1044800000F03CF809E00020E06004206070F34890
:10449000416BA16001B1CC6044632046BDE810408F
:1044A000FCF700BB14000024B0B50546EB48017AC8
:1044B000446965B1022905D194F9200095F92010CD
:1044C000814211DC2846BDE8B04000F0AFB80229B7
:1044D00012D1456A85B194F9200095F920108142E6
:1044E0000ADD284600F067F82046FFF7EBFE284675
:1044F000BDE8B04000F0D6B8B0BD00BF10B504466E
:1045000000202080A07881070DD5C00605D4D348AF
:10451000216B406FFFF7D2FC05E0D048216BD0F84B
:104520008400FFF732FDA078C00708BF10BDCB495B
:10453000D1F8880020B12146BDE81040FFF725BD25
:10454000D1F880002146BDE81040FFF7B7BC00BF9E
:104550001400002410B50446806930B10021002207
:1045600000F0CAF8A069FCF7BFFA6078232802D1EE
:10457000A0680021816110BD0146806882688A6060
:1045800002B1D1600021C160704710B591F92030AF
:104590000246806840B190F920409C42F8DAC1E9B7
:1045A000020291600C3004E00020C1E9020202F135
:1045B0000800016010BDC16831B182688A608268FC
:1045C00002B1D1600021C16070470178F12901D1A9
:1045D000C068FAE77047B0B50446054625B12878AB
:1045E000F12802D1ED68F9E7B0BD2046FFF7E3FFFF
:1045F00028462146BDE8B040FFF7C7BFB0B5044626
:104600004078332811D1FEF790F870B10546204666
:104610000022294600F070F894F82310606A2A46B8
:104620002346BDE8B040FCF74FBAB0BD01460120BB
:104630004870C8481C30FFF7A8BF00BF1400002412
:1046400090F82210C9064FF0200158BF6021806BFE
:1046500008447047016B806B884205D9086803499C
:10466000884201D10120704700207047A52E5AE2F0
:1046700070B5F84C0A480021A26D666E00F0EAFBA6
:10468000F34DA86246B1B04740B9E96CD4E91720B0
:1046900000F0E0FBA86408B1012070BD002070BDEF
:1046A000273E0008EA49886102214170FCF732BACE
:1046B00014000024F8B5E64F0546387A022816D1D2
:1046C000786AA0B17E690C463046FCF7D7F93046CF
:1046D00021467570FFF714FE786A8168796211B11E
:1046E00007F11C02CA60FDF7C3FF0120F8BD0020DE
:1046F000F8BD00BF1400002470B515460E460446F0
:10470000FCF70EFA94F82200C0064FF0200058BFC4
:104710006020A16B46502046FFF730FE2046002D5A
:10472000BDE8704008BFFFF781BFFFF7BDBE0000C6
:10473000B0B5FDF717FEEC4DE8680130E860FFF713
:104740003BFE0020FFF7B0FE286D00B18047296CCA
:1047500041B3A869EA6B904205D0C269E86322B907
:10476000C1610A4601E0C26912B1511EC16119D18D
:10477000297A022916D16C6AA4B190F8200094F825
:10478000201081420ED12046FFF715FFE86BFFF79E
:104790004DFFE86BFCF7B8F92046FFF783FF286C64
:1047A000EC63E061B0BD00BF1400002480B5FFF7EA
:1047B000ABFC10B14FF0FF3080BDCB480149016523
:1047C000002080BDF147000882B004466D462046B7
:1047D000294600224FF0FF33FFF796FA0028F6D162
:1047E000DDE90001FCF7A4F9DDE900108847EEE7F8
:1047F0002DE9F041FC4D6C6C74B320696E694FF08B
:1048000001080138206134B3206920BBE06808B199
:10481000A16881606864E86C04F11801002200233B
:10482000FFF7BAFA60B1D5E9057068612146032047
:10483000FFF7FAFA86EA07006969084308BF0646E7
:10484000E078012811BF84F8018061692046FEF7F5
:1048500005FB6C6CD7E76E61BDE8F08114000024A5
:10486000FCF72CF9DFF810C000DF4FF0FF3100201B
:10487000FCF71EF9FEE700BFF94D000870B51446BD
:104880000D460646FCF736F9EFF3058028B9EFF33D
:10489000108010B9EFF3118038B100206FF00501DE
:1048A0000024FCF705F9204670BD3046DFF80CC047
:1048B0002946224600DF0446F5E700BF554E0008B2
:1048C00010B550B1044613202146FFF7F3FE48B15E
:1048D0002046FBF7C7FF00240AE06FF003046FF0E7
:1048E000030003E04FF0FF344FF0FF30FBF7B4FF5D
:1048F000204610BD10B5BC49C968441A0CD0B4F1AB
:10490000FF3F09DD13202146FFF7D4FE48B12046C2
:10491000FBF7B4FF00240AE06FF003046FF003001C
:1049200003E04FF0FF344FF0FF30FBF795FF2046D8
:1049300010BD00BF10B5FA48047A2046FBF7B6FF59
:10494000204610BD10B5F64CE068FBF7B5FFE068F7
:1049500010BD00BF140000242DE9F843DFF8F086F5
:1049600098F8080020B101286BD0FDF7CBFD6BE073
:104970005F4F388AD7E90B41A8F85400D7E9020203
:10498000C8F84000C8F85C202046FFF7BDFA08B11F
:10499000C8F88040D7E90541DFF8BC90D7E9075651
:1049A0002046C847D8F880100028284618BF21465E
:1049B000C8F874103146C847D8F88010002818BFCE
:1049C0002946C8F87810D7E909412046C847D8F8E1
:1049D0008010002818BF21467C6BC8F87C101CB1E1
:1049E000FDF740FDC8F88440BC6B1CB1FDF73AFDF3
:1049F000C8F88840FC6B1CB1FDF734FDC8F88C404A
:104A00003C6C1CB1FDF72EFDC8F890407C6C1CB1CD
:104A1000FDF728FDC8F89440BC6C1CB1FDF722FDE1
:104A2000C8F89840FC6C1CB1FDF71CFDC8F89C4010
:104A30003C6D1CB1FDF716FDC8F8A040012088F8B8
:104A40000800FBF745FF00242046BDE8F88300BFBF
:104A500014000024B8500008093F0008B0B5FC4C11
:104A6000207A01281FD1FFF703FEC8B11F48FF219C
:104A70001F4D8175817D0268C943C2F30222C9B20C
:104A8000B1FA81F1C1F120018A4228BF511CFE22F6
:104A900002FA01F1C17468681649FDF77DFC50B156
:104AA000FDF730FD05E06FF00600FBF7F3FE4FF079
:104AB000FF342046B0BDFDF76BFC2061FDF756FCCE
:104AC00004F11C00FFF758FDFFF7ECFD2878C00744
:104AD0000CBF0320022080F3148802202072FBF711
:104AE00003FF0024E5E700BF140000240CED00E004
:104AF000B8500008B30300082DE9F041044600282F
:104B00004FD02078FA284CD10D46002949D02046B4
:104B10001F461646FDF7CBFB002847D080462046AF
:104B20004146FDF710FC626A08F10C012846FBF7CC
:104B300082FC16B198F80300307020462946FBF736
:104B400079FF04F10C064146002588F800503046F4
:104B5000FFF71BFAA06830B33046FFF7F4F90025E1
:104B600008B30646FDF7AAFD002101220746FFF71C
:104B7000C3FD3846FFF764FDD0F804800746626A3B
:104B800006F10C004146FBF756FCF9203070314627
:104B9000B570B868F0702046FDF7A9FBFDF71EFD63
:104BA00001E0FDF765FC2846BDE8F0817FB12046B5
:104BB00029463A46FBF7F4FE83203946FFF77AFD93
:104BC00060B1A34841692046FFF7DFFC09E02046B9
:104BD0002946FBF70DFF6FF00205E4E72046FBF7DF
:104BE000E9FE6FF00105DEE7140000242DE9F84F1F
:104BF00048B10E4639B10546B0FA80F0B6FA86F1F2
:104C000008441F2808D8002400206FF00301FBF798
:104C1000B7FE2046BDE8F88F06F10F0020F003082C
:104C200008FB05F9A2B19468D2F800A0D2E904709B
:104C3000C4B1A10719D1D168332916D9002F3FD0AB
:104C4000B9073FD148453DD32CB14FF0000B1AE0D6
:104C50004FF0000A00277E49D1F8A00050B1FFF7BD
:104C600072F90DE0D1680029E8D0002400206FF02F
:104C70000801CCE7D1F8800034210122FFF7E0F8E9
:104C800004464FF0010B64B35FBBCDF800A0DFF822
:104C9000C0A349460022DAF87C00FFF7D1F80746A6
:104CA00020B138464946FBF7DFFB16E0BBF1000FA9
:104CB00012D0DAF8A00050B12146FFF766F90BE0F8
:104CC0000028C1D0002400206FF009019FE7DAF826
:104CD00080002146FFF7F2F80024DDF800A00BF178
:104CE000020B0020C4B1C4E90960C4E90B00C4E9A7
:104CF00001A0FA202070294642463B4684F802B0C3
:104D000004F10C00FFF76CF9D148064901676168AE
:104D10002046FBF72DFE7CE76FF0040177E700BF2C
:104D2000140000242B4000082DE9F041044638B35C
:104D30002078FA2824D1884611B3A0681F46164669
:104D400020B34078832821D1FDF748FCFDF7B6FC5D
:104D5000002101220546FFF7CFFC2846FFF770FC33
:104D600045680746626A41462846FBF764FBB86817
:104D700000B1067020462946FBF75CFE002602E0E3
:104D80002046FDF76FFC3046BDE8F08104F10C00D1
:104D9000FFF7D9F888B10546626A0C304146FBF747
:104DA0004AFBF92028702946EE700026AE70204696
:104DB000FDF79DFAFDF712FCE5E77FB1204641467D
:104DC0003A46FBF727FE93203946FFF773FC60B1A4
:104DD0009F4841692046FFF7D8FB09E0204641463D
:104DE000FBF7FEFD6FF00206CDE72046FBF71CFE49
:104DF0006FF00106C7E700BFB0B5954D287A0228CD
:104E000024D1686A10B36C69E06AFFF78FF9204615
:104E1000FFF7A0FB686A8168696211B105F11C02A5
:104E2000CA60FDF725FCEFF30981206BA163814285
:104E300003D900688849884201D0FDF790FC002022
:104E400068612046BDE8B040FFF714BBB0BD00BFAD
:104E5000140000242DE9FE4F10B3054622B39668D6
:104E6000D2E9044BD2F818A0D2E9009376B3B00788
:104E70002FD1D06843282CD92CB1600740F0808016
:104E8000BBF1000F7CD0BAF1000F60D0BAF1010F76
:104E900002DBBAF1390F5CD300206FF00B011BE08D
:104EA00000206FF0030117E001274FF0180A0023DC
:104EB00000244FF0000B4FF00009654ACDE90131A5
:104EC000D2F8880070B1FFF73EF811E0D0680028F2
:104ED000D2D000206FF008010026FBF7E9FD304634
:104EE000BDE8FE8FD2F8800044210122FEF7A8FF22
:104EF00006464FF001080020002E50D0002C4ED165
:104F000000906FB152485349D0F88400D1F854B0A2
:104F100030B1FFF718F860B1044608F110083CE022
:104F20004B4859460022406FFEF78AFF08B10446FD
:104F300033E0009818B14FF0000800242CE04449F9
:104F4000D1F8880000B33146FFF71FF821E04FF099
:104F5000180ABBF1000F08D05FEA4B7010D1BBF10B
:104F6000480F0DD3BBF1FF3F0ADDBBFA8BF04709B9
:104F7000002EA2D0CDE901314FF000080120BBE79F
:104F800000206FF00A01A7E7D1F880003146FEF754
:104F900095FF00244FF00108002648F00208002E7B
:104FA00046D00198F0701821C6F8049086F8028067
:104FB00040F2F110308006F10800FBF755FA04EBDF
:104FC0000B010020C6F82300C6F82700C6F82B0006
:104FD00086F82F00C6E90C4BFD22029F86F822209E
:104FE00086F821A086F820A04039C6E90E151A4996
:104FF00021601849097849071ED4B16B00220D2A97
:1050000003D041F822000132F9E74FF08070C86305
:10501000124AC1E90D250F6211490D484A46016641
:10502000F16B3046FBF732FD3046FFF73DFA56E7AD
:1050300000206FF0040150E76FF01001221D4FF0C7
:10504000CC3301EB9B010029D7D008C20139FAE724
:1050500014000024B8500008A52E5AE26148000848
:10506000FD4500081EF0040F0CBFEFF30880EFF3BE
:105070000980FDF76DB802E008C8121F08C1002AB8
:10508000FAD170477047002001E001C1121F002AC9
:10509000FBD1704710B5044601E0FEF789FD14F816
:1050A000010B04490028F8D1BDE810400A20FEF7A2
:1050B0007FBD00000000002403000000E8030000A2
:1050C00005000000A81600241000000000000000E9
:1050D00000000000000000000000000000000000D0
:1050E00000000000E816002400800000000000001E
:1050F00000000000000000000000000000000000B0
:10510000000000000000000000000000000400009B
:10511000505200088C520008C9470008AD470008EB
:10512000745200080400000070970024F8970024CF
:10513000000000000000000000000000000000006F
:10514000000000000000000000000000000000005F
:105150000000000000000000EC96002420970024CE
:105160000104081020400004081020400000000046
:1051700001020304010203040607080901000101FA
:1051800040000000001200240016002480160024B5
:1051900000000000025300080000000000000000B2
:1051A0000000000000000000000200002A000000D3
:1051B0000000000000000000115300080000000083
:1051C00000000000000000000000000000040000DB
:1051D0002B00000000000000000000002353000826
:1051E00000000000000000000000000000000000BF
:1051F000000800002C00000000000000000000007B
:10520000F052000800000000000000000000000054
:105210000000000000040000290000000000000061
:1052200000000000010002000400060008000A005F
:105230000C00100020004000800000010001000070
:105240000002000000040000000800000000000050
:1052500000000000000000007097002444000000DF
:10526000F897002400020000010000000000000088
:10527000000000000000000000000000EC96002488
:1052800034000000209700245000000000000000BF
:1052900000000000B497002444000000F8990024A6
:1052A00000080000300000000000000000000000C6
:1052B00000200258000100000008025800200000F1
:1052C000001C0258100000000018025804000000E2
:1052D00000040258010000000018025808000000F5
:1052E000001802588000000000200258000800004A
:1052F0006F7352747854687265616455736572494E
:1053000046006F735274784C45445468726561640A
:10531000006F735274784D736750726F5468726582
:105320006164006F7352747853746172745468725C
:10533000656164002E2E2F2E2E2F557365722F62FD
:1053400073702F7372632F6273705F74696D65720F
:105350002E63002E2E2F2E2E2F557365722F627303
:10536000702F7372632F6273705F756172745F6602
:1053700069666F2E630000005254582056352E3552
:105380002E340000C053000800000024C0000000BC
:105390007650000880540008C0000024E8B10000E6
:1053A000865000080000000000000000000000001F
:1053B00000000000000000000000000000000000ED
:1053C0000000000001000000100000000090D00369
:1053D0000090D00378530008D4B3FB020000000013
:1053E00000000000000000000000000000000000BD
:1053F00000000000000000000000000000000000AD
:10540000000000000000000000000000000000009C
:10541000000000000000000000000000000000008C
:10542000000000000000000000000000000000007C
:10543000000000000000000000000000000000006C
:10544000000000000000000000000000000000005C
:10545000000000000000000000000000000000004C
:10546000000000000000000000000000000000003C
:10547000000000000000000000000000000000002C
:040000050800029954
:00000001FF
