:020000040800F2
:1000000060320124AD02000817250008855D000854
:10001000612400081D0700081936000800000000D0
:10002000000000000000000000000000D1020008F5
:100030006507000800000000A3030008B3030008E0
:10004000C7020008C7020008C7020008C70200086C
:10005000C7020008C7020008C7020008C70200085C
:10006000C7020008C7020008C7020008C70200084C
:10007000C7020008C7020008C7020008C70200083C
:10008000C7020008C7020008C7020008C70200082C
:10009000C7020008C7020008C7020008C70200081C
:1000A000C7020008C7020008C7020008C70200080C
:1000B000ED2E0008C7020008C7020008C7020008AA
:1000C000C7020008C7020008C7020008C7020008EC
:1000D000C702000801350008C702000809350008FA
:1000E000C7020008C702000800000000C70200089D
:1000F000C7020008C7020008C7020008C7020008BC
:10010000C7020008C7020008C7020008C7020008AB
:10011000C7020008C7020008C7020008C70200089B
:10012000C7020008C7020008C7020008C70200088B
:10013000C7020008C7020008C7020008C70200087B
:1001400000000000000000000000000000000000AF
:10015000C7020008C7020008C7020008C70200085B
:10016000C7020008C7020008C7020008C70200084B
:10017000C7020008C7020008C7020008000000000C
:10018000C7020008C7020008C7020008C70200082B
:10019000C7020008C7020008C7020008C70200081B
:1001A000C7020008C7020008C7020008C70200080B
:1001B000C7020008C7020008C7020008C7020008FB
:1001C000C7020008C7020008C7020008C7020008EB
:1001D000C7020008C7020008C7020008C7020008DB
:1001E000C7020008C7020008C7020008C7020008CB
:1001F000C7020008C7020008C7020008C7020008BB
:10020000C7020008C7020008C7020008C7020008AA
:10021000C7020008C7020008C7020008C70200089A
:10022000C7020008C7020008C7020008000000005B
:10023000C7020008C702000800000000C70200084B
:10024000C7020008C7020008C7020008C70200086A
:10025000C7020008C7020008C7020008C70200085A
:10026000C7020008C7020008C7020008C70200084A
:10027000C7020008C7020008C7020008000000000B
:10028000C7020008C7020008C702000800000000FB
:1002900000000000C7020008DFF80CD000F038F9B9
:1002A00000480047BD4400086032012406488047EA
:1002B00006480047FEE7FEE7FEE7FEE7FEE7FEE74B
:1002C000FEE7FEE7FEE7FEE7192C000899020008AA
:1002D0001EF0040F0CBFEFF30880EFF30980816973
:1002E00011F8021C00294ED101B590E80F10E0472B
:1002F000BDE80050CCF80000324B93E80600914274
:1003000008BF70471A6041B91EF0100F2CD12E4B58
:10031000186820F00100186026E0ACF1200C1EF0F7
:10032000100F08BFACF1400C81F822E0C1F838C0D2
:1003300006B4084604F00AFE06BC50B90C464FF05D
:10034000010004F0ECF9214B5A681A6094F822E09D
:10035000DAE7D1F838C091F822E01EF0100F08BF9C
:10036000ACEC108A8CE8F00F906B92F8221061F0E0
:10037000FF0E1EF0100F08BFB0EC108AB0E8F00FAF
:1003800080F309887047124A13689942FAD801B578
:1003900052F821C00FC8E047BDE80050CCF800007B
:1003A000704701B504F08EFBBDE80140EFF3098C06
:1003B000A2E701B504F03AFEBDE80140EFF3098C75
:1003C0009AE700003000002434EF00E03000002401
:1003D000886900082DE9F05F0546002092469B469B
:1003E00088460646814640241BE02846414647464B
:1003F000224600F07BF853465A46C01A914110D36A
:1004000011461846224600F016F82D1A67EB01082F
:100410004F4622460120002100F00DF817EB00099D
:100420004E41201EA4F10104DFDC484631462A4635
:100430004346BDE8F09F202A04DB203A00FA02F18F
:10044000002070479140C2F1200320FA03F31943C2
:10045000904070470649074A0868504343F2390202
:100460001044086040087047014908607047000068
:10047000040000246D4EC64140EA01039B0703D0EF
:1004800009E008C9121F08C0042AFAD203E011F8D3
:10049000013B00F8013B521EF9D27047D2B201E095
:1004A00000F8012B491EFBD270470022F6E710B579
:1004B00013460A4604461946FFF7F0FF204610BDD2
:1004C00030B50B46014600202022012409E021FA24
:1004D00002F59D4205D303FA02F5491B04FA02F521
:1004E0002844151EA2F10102F1DC30BD202A04DBF4
:1004F000203A21FA02F00021704721FA02F3D0409D
:10050000C2F120029140084319467047002070470D
:10051000064C074D06E0E06840F0010394E8070050
:1005200098471034AC42F6D3FFF7BAFE00740008C7
:1005300020740008000000002DE9F84F2DED068B17
:10054000ADF6780D9FED4A8B9FED4B9B00259FEDFF
:100550004CAA0A2603F0C6F98346B5F5FA6F29D0EE
:100560005846FFF781FFFFF775FF00EE100AB8EE5F
:10057000C00B80EE080B20EE090BB7EEC00B20EE8F
:100580000A1ABCEEC11A11EE100AB1EE401AB0FB05
:10059000F6F101EB8101A0EB4100052838BFB0EE78
:1005A000410A0AA8284480ED000A052003F086F9D4
:1005B0000435CFE70DF5066000240025071D002057
:1005C00081B2632943D8B1F1630918BF81461FFA8C
:1005D00089F00AA9800010FA89F001EB800000215F
:1005E000142903D042587A500431F9E70DF2FC780F
:1005F0000DF2FB7A0DF506604146524604F0DEFD31
:1006000004A8414603F02CFE04AEA4462C46099DE6
:10061000CDF808804FCECDE900652546644603F04D
:100620008BFE404651460DF5066204F07DFE611CCE
:1006300042F210738AB29A424A4608BF64220028E6
:1006400008BF4A4618BF0C46501C0135B8E703F0F6
:1006500049F9A0EB0B03A9B2A2B20AA005F09CFBDA
:100660000DF6780DBDEC068B01B0BDE8F08F00BF34
:100670000000C0FFFFFFDF4144174154FB21094048
:100680000000C8420D0ACDEAB3C92564B4CEBCC689
:10069000CBE3B2A2D1E9D6A4A3ACD5FDC8B7BDE2E5
:1006A000B8F6CAFDCEAAA3BA25640ABAC4CAB13A3A
:1006B0002564206D730A000003F048FF00F1C804B0
:1006C000022003F02DFC204603F00EFFC834F7E7AC
:1006D00001F048FD03F011F90B480C4A002104F029
:1006E0004BFD0B4C0C4A002120600A4804F044FDED
:1006F000606003F02BFF441C02F058FA204603F020
:10070000F3FE0134F8E700BFB9060008F0680008FE
:10071000C000002439050008CC680008FEE700008E
:1007200080B5082804D240B206A151F8200080BD4F
:1007300003484FF48E7100F016F8002080BD00BF12
:10074000CE730008140100240000000040010024C2
:100750000000000000000000000000000000000099
:1007600000000000704701B1FEE770478949097831
:1007700051B1C0F3C621054AC0F30220515C21FAF1
:1007800000F000F00100704700207047C015002401
:10079000F8B5804C124D04F11807A66900F0FEF878
:1007A000B04212D20123D5E84F1FC5E8423F02B143
:1007B000F9E7090609D12169002301312161D5E852
:1007C0004F1FC5E8423F02B1F9E757E8001F47E86D
:1007D000000202B1F9E78E4208BFF8BDDDE700BFB5
:1007E000B4010024F8B514460D460646FFF7BEFFD7
:1007F00098B13746C0F20807FFF7CAFF0146EFF38A
:100800000580002808BFB7B22A46234607F140708A
:1008100001B0BDE8F04000F041B80120F8BD000093
:100820002DE9F047994692460F460646FFF79EFF90
:1008300058B33446DDF82080C0F20804FFF7A8FF63
:100840000546EFF30580002808BFB4B251480130D7
:10085000D0E84F1F4A1CC0E8432F03B1F8E74FF41C
:10086000E0203A46534600EA01462946A01900F125
:10087000807000F013F858B1074829464A464346AD
:100880003043BDE8F04700F009B80120BDE8F0872B
:100890000020BDE8F08700BF010000022DE9F04F05
:1008A0004FF0805491464FF000529A468B466FF0BD
:1008B0000706DFF8E4E004EAD10402EA99022043E3
:1008C00010434FF0804202EA530240EA02083148E6
:1008D00000F1040C013680F05180614651E8004F70
:1008E000601C41E8000505B1F8E704F03F0504F499
:1008F00070740EEB051048EA843400F10C0744F0E4
:10090000406257E8004FA10103D3BFF32F8F0024AB
:1009100006E004F00044144347E8004303B1F0E765
:100920006101D7D584F004422BF000412C0102F084
:10093000004319444EF8041029F000442AF0004105
:1009400019442344C0E9013157E8001F890103D24B
:10095000BFF32F8F002004E047E8002303B1F3E743
:10096000012058B10B48083050E8001F4A1C40E8ED
:10097000002303B1F8E70120BDE8F08F05480C30F3
:1009800050E8001F4A1C40E8002303B1F8E70020AC
:10099000BDE8F08F40160024C01100240148006813
:1009A000704700BF041000E00146014801F051BE4D
:1009B00005F3020001464FF4734001F04ABE000007
:1009C0000146014801F045BE02F30100014601481D
:1009D00001F03FBE04F302000146014801F039BEB8
:1009E0000DF5020001464FF4714001F032BE0A4697
:1009F00001464FF21910FFF7F5BE0000014601480D
:100A000001F027BE06F101000146014801F021BEB8
:100A100013F101000148002101F01BBE01F10100AA
:100A20000148002101F015BE02F102000148002139
:100A300001F00FBE07F101000148002101F009BEDD
:100A400008F102001CB501F0C6FE024801F00AFFE1
:100A50001CBD00BF01F002000A4601460148FFF735
:100A6000C1BE00BF04F00200E0B501F046FE02483E
:100A7000FFF7D6FE8CBD00BF05F002001CB501F0EB
:100A8000AAFE024801F0EEFE1CBD00BF03F002000A
:100A9000E0B501F032FE0248FFF7C2FE8CBD00BF98
:100AA00002F00200E0B501F028FE4FF43C30FFF701
:100AB000B7FE8CBD0146014801F0CBBD08F902002C
:100AC0000A4601460148FFF78DBE00BF03FA020047
:100AD0000A4601464FF47A40FFF784BE1CB501F088
:100AE0007AFE024801F0BEFE1CBD00BF0CFA0100F8
:100AF000E0B501F002FE0248FFF792FE8CBD00BF98
:100B00000DFA02000146014801F0A3BD0EFA0200F1
:100B10000A4601460148FFF765BE00BF09FA020018
:100B20000A4601460148FFF75DBE00BF0AFA02000F
:100B30000A4601460148FFF755BE00BF0BFA020006
:100B40000A4601460148FFF74DBE00BF10FA0200F9
:100B50001CB501F040FE024801F084FE1CBD00BF40
:100B600006FA0100E0B501F0C8FD0248FFF758FEA3
:100B70008CBD00BF07FA02000146014801F069BDC3
:100B800008FA02000A4601460148FFF72BBE00BFE3
:100B90000FFA02000146014801F05BBD08F70200B0
:100BA0000A4601460148FFF71DBE00BF09F70200D3
:100BB0000A4601460148FFF715BE00BF0CF70200C8
:100BC0000146014801F045BD08F802000A46014609
:100BD0000148FFF707BE00BF16F203000B460146AF
:100BE0000348002A0CBF1A462930FFF7FBBD00BF9F
:100BF00003F202000146014801F02BBD1CF2020085
:100C00000A4601464FF47240FFF7ECBD014800214F
:100C100001F01FBD1AF201001CB501F0DCFD024815
:100C200001F020FE1CBD00BF09F40200014601488E
:100C300001F00FBD08F402000146014801F009BDB2
:100C400015F20200E0B501F058FD0248FFF7E8FD9B
:100C50008CBD00BF01F201000146014801F0F9BC62
:100C600018F203000146014801F0F3BC19F202003A
:100C70000A4601460148FFF7B5BD00BF17F2030061
:100C80000A4601460148FFF7ADBD00BF01F602006C
:100C9000F0B5B3F5804F0FD150F82230094C234006
:100CA00091E8F0008969234343EA051343EA0623E8
:100CB000194341EA074101E06FF0704140F822100A
:100CC0000020F0BD0000F0CF2DE9F0410A6801F1ED
:100CD000080750F8223023F0010340F82230D1E910
:100CE00000C3F0CFD1E9062E2343082C08BF43F000
:100CF00040032B4333433B4301F120071A434EEAA1
:100D0000020EF8CFD1E90D2843EA0E032343104C1D
:100D10002B4333433B431A4350F82C3042EA08023A
:100D200023401A4340F82C200A6BB2F5801F05D1EE
:100D30000A684AB1026842F4801202600A681AB175
:100D4000496B0268114301600020BDE8F08100BFDB
:100D50008004C0FF2DE9F04700EB8203174DAA463F
:100D6000D3F80480D1E9042ED1E90096D1E9027CC0
:100D70008C6905EB025208F0404545EA090545EA51
:100D8000061545EA072545EA0C452A4322430EF19C
:100D9000FE0442EA04625A600268D2020BD542683D
:100DA000096922F470020AEB01511143426822F4EE
:100DB0007002114341600020BDE8F0870000F0FFA1
:100DC000014801F05FBD00BF200400582DE9F84F35
:100DD000594A4FF00A0A4FF000084FF0010B4FF04C
:100DE000000C9042554A08BF4FF0090A02444FEAEE
:100DF000B223092B38BF4FEAB22A00220D6835FA18
:100E000002F600F097800BFA02F715EA070900F0E6
:100E100084804E68122E00F286800BFA06F414F0DD
:100E2000061F00F08080032303FA0CF48368CD686A
:100E3000A34305FA0CF56FEA040E2B4383603309D4
:100E40004568BD43934057002B434360C3688C689B
:100E500003EA0E03BC402343C36046F01003122B89
:100E600011D16FF0030508F01C030F2405EA5205A9
:100E70009C4005442E6A26EA04040E6906FA03F330
:100E800023432B624E68036806F0030403EA0E0353
:100E9000BC4023430360F3003FD57C4C294F4FF007
:100EA000B04E236843F00203236023680F2403F04D
:100EB00002030093009D08F00C0322F003059C4000
:100EC0000AFA03F3EE5926EA04042343EB511C4FBC
:100ED000FB6F4D6843EA0904EE0358BF23EA090497
:100EE000FC67AE03D7F8803043EA090458BF23EA11
:100EF0000904C7F88040EE02DEF8003043EA090436
:100F000058BF23EA0904CEF80040AD023B6843EA2B
:100F1000090458BF23EA09043C6008F104080CF1F5
:100F2000020C01326AE70323674603FA0CF46FEA06
:100F3000040E8BE7BDE8F88F002402580000FEA7DE
:100F4000040000580804005801480068000C70476D
:100F50000010005C80B503F0E3FA022803D1BDE87D
:100F6000804003F0F3BA1F480068800B68B100BFEF
:100F7000013800BF00BF00BF00BF00BF00BF00BFFF
:100F800000BF00BF00BF00BFF0E7024908680130A2
:100F9000086080BDB001002480B5032000F0ACF8EB
:100FA00000F030FE0E49614B0A68096801F00F013C
:100FB000C2F30322595C9A5C01F01F0102F01F0288
:100FC000D040084A1060C840074908600F2000F070
:100FD0000DF808B1012080BD00F04AF8002080BD66
:100FE0001844025814000024180000240020704700
:100FF0000278114943780B60D2B143684B60037BA0
:1010000042EA0372C37A42EA0362837A42EAC34243
:10101000437B42EA8342837B42EA4342C37B42EA08
:101020000342437A007A42EA032242EA400001E0A6
:10103000002048608860704798ED00E00B48BFF3DF
:101040005F8F016821F480310160002101677047E2
:10105000064940F001000867086840F480300860E5
:10106000BFF34F8FBFF36F8F704700BF24ED00E0D9
:1010700081B00648016841F002010160006800F09B
:1010800002000090009801B0704700BFF44402587D
:10109000002808D400F01F010122400902FA01F1E2
:1010A000014A42F82010704700E100E0F0B5184B0B
:1010B0004FF0FF361C68C4F30224E51E84F00704D9
:1010C00038BF002506FA05F7BA43042C28BF0424CC
:1010D00006FA04F4A14300F00F04A940043C1143B4
:1010E0002344044A09010C33B0F1FF3FC8BF831801
:1010F0001970F0BD00E400E005494FF6FF030A68EF
:101100001A4060F30A22034810430860704700BF8A
:101110000CED00E00000FA0580B500F03DFD02494D
:10112000024A01F010BB00BF20440258A468000826
:10113000B0B51C498B6A8A6ACC6ACD6BC2F30532A2
:10114000B2B1C4F3001401F02AFC15D0BBB90B688E
:101150009B0651BF9FED161A0B68C3F3C103154CD4
:1011600042BF24FA03F301EE103AB8EE411A08E048
:101170000021C0E9001112E09FED0C1A01E09FED83
:101180000A1A8B6B9FED0C3A01F0CDFB8A6B01F0D4
:101190002BFA8A6B01F051FB896B01F00DFB81602A
:1011A000B0BD00BF004402580024744A20BCBE4BAE
:1011B0000024744C0090D00300000039B0B51C49E5
:1011C0008B6A8A6ACC6A4D6CC2F30552B2B1C4F321
:1011D000002401F0E4FB15D0BBB90B689B0651BF9E
:1011E0009FED161A0B68C3F3C103154C42BF24FAD6
:1011F00003F301EE103AB8EE411A08E00021C0E90D
:10120000001112E09FED0C1A01E09FED0A1A0B6C21
:101210009FED0C3A01F087FB0A6C01F0E5F90A6CCE
:1012200001F00BFB096C01F0C7FA8160B0BD00BF93
:10123000004402580024744A20BCBE4B0024744C65
:101240000090D003000000392DE9F0470446C07833
:10125000A74F00071CD5606E4FEA3051032908D80C
:10126000DFE801F002090C11F96941F40031F9617C
:1012700009E001260DE001F06EFA01E001F043FB08
:10128000064630B9606E396C21F440110843386469
:1012900000266078BA46C00701D1354620E0606D6F
:1012A00004280BD83546DFE800F0030C0F121200BB
:1012B000F869354640F40030F86108E0012501275F
:1012C0000FE001F049FB01E001F02AFA05462F4644
:1012D0003DB9606D01F032FA21F0070101F088FAA2
:1012E0003746607880071ED5A06D4FEAB0100428FD
:1012F00007D8DFE800F003090C0F0F0001F0DAF95E
:1013000008E0012501260FE001F026FB01E001F0D5
:1013100007FA05462E463DB9A06D01F00FFA21F4FB
:10132000E07101F065FA3E466078400702D4B046AD
:10133000574623E0D4F8A40057464FEA70500428DB
:1013400007D8DFE800F0030A0D10100001F013FACF
:1013500009E001254FF0010810E001F0FDFA01E07D
:1013600001F0DEF90546A84645B9D4F8A400B96CE9
:101370000025B04621F460010843B8646078000796
:1013800020D5D4F8A8004FEA3060042807D8DFE859
:1013900000F003090C0F0F0001F0EDF908E0012542
:1013A000012710E001F0D8FA01E001F0B9F9054693
:1013B0002F4645B9D4F8A80001F0BBF921F0E0614F
:1013C00001F0CDF94746E07880071DD5A06C4FEAC3
:1013D0003010032806D8DFE800F00B02080B01F0FC
:1013E00069F905E0012501260FE001F0B4F9054691
:1013F0002E4655B9A06CDAF83C100025524621F073
:1014000030010843CAF83C003E466078C0061ED54D
:10141000E06D4FEA3030042807D8DFE800F0030918
:101420000C0F0F0001F046F908E0012501270FE03D
:1014300001F092FA01E001F073F905462F463DB93B
:10144000E06D01F07BF921F4E04101F0D1F937467C
:10145000607880061BD5206E4FEA3040052807D8FB
:10146000DFE800F00C03090C0C0C01F05EF904E05D
:10147000012501260CE001F07EFA05462E463DB915
:10148000206E01F05BF921F4E02101F0B1F93E4654
:10149000607840061DD5D4F8AC004FEA30700528BE
:1014A00007D8DFE800F00C03090C0C0C01F03DF943
:1014B00004E0012501270DE001F05DFA05462F4605
:1014C00045B9D4F8AC0001F034F921F0E04101F065
:1014D00046F937466078000618D5E06E68B1B0F17D
:1014E000005F07D0B0F1805F22D101F0E3F804E0A3
:1014F0001044025801F019F905462E463DB9E06E38
:1015000001F01CF921F0405101F072F93E46E078FB
:10151000C00702D1B04657461EE0606C574603280C
:1015200009D8DFE800F00F020C0F01F024F909E000
:1015300001250126EBE701254FF001080CE001F041
:101540000AF90546A8463DB9606CF96B0025B0461E
:1015500021F003010843F863A078400601D4474610
:1015600016E0D7F8F00340F48070C7F8F003FFF7F7
:10157000F1FC0646D7F8F003C00507D4FFF7EAFCF4
:10158000801B6428F6D90325032701E02F467DB18F
:101590002078C00746D0A06F4FEAF000052832D867
:1015A000DFE800F037033437373701F0BEF82FE0BB
:1015B000DAF86010D4F8B0005546414011F4407F8D
:1015C0000BD0296E2A6E42F480322A6621F44071D3
:1015D0002A6E22F480322A662966B0F5807F40F0B8
:1015E000BD81FFF7B7FC064641F288390327DAF8D8
:1015F0006000800700F1AF81FFF7ACFC801B032582
:101600004845F4D9C4E7012501260CE001F0B3F9FF
:1016100005462E463DB9A06F01F0A5F821F038012E
:1016200001F0EAF83E462078800719D5606F05285A
:1016300007D8DFE800F00C03090C0C0C01F075F87A
:1016400004E0012501270CE001F095F905462F463D
:101650003DB9606F01F087F821F0070101F0CCF887
:101660003746207840071BD5D4F89000052807D8C6
:10167000DFE800F00C03090C0C0C01F056F804E054
:10168000012501260DE001F076F905462E4645B903
:10169000D4F8900001F04DF821F0070101F05FF857
:1016A0003E46207880061DD5D4F88C004FEA307075
:1016B000052807D8DFE800F00C03090C0C0C01F03A
:1016C0004BF904E0012501270DE001F01CF9054666
:1016D0002F4645B9D4F88C0001F045F821F0E041DF
:1016E00001F08AF83746207840061DD5D4F89800D6
:1016F0004FEAB020052807D8DFE800F00C03090CFA
:101700000C0C01F029F904E0012501260DE001F09F
:10171000FAF805462E4645B9D4F8980001F009F8C4
:1017200021F4E05101F01BF83E46207800061DD55B
:10173000D4F89C004FEA7030052807D8DFE800F0A5
:101740000C03090C0C0C01F007F904E0012501273A
:101750000DE001F0D8F805462F4645B9D4F89C00B5
:1017600000F0E7FF21F4604100F0F9FF3746206800
:10177000010713D5D4F88000B0F5805F06D101F0E1
:10178000C2F8002818BF0127D4F88000DAF8441006
:10179000524621F4405101F02FF82068C10613D5BC
:1017A000D4F89400B0F5807F06D101F0ACF80028A1
:1017B00018BF0127D4F89400DAF84810524621F4F3
:1017C000407100F0CCFF2068000318D5D4F8A000C9
:1017D000B0F5003F09D0B0F5803F03D010BB01F059
:1017E000BBF801E001F08FF805462E4645B9D4F864
:1017F000A00000F09EFF21F4403100F0B0FF3E4613
:10180000A07840071ED5D4F88400B0F5401F0FD053
:10181000B0F5001F09D0B0F5801F40F0998000F0AE
:1018200049FF05E001250126EAE701F0A4F8054695
:101830002F4645B9D4F8840000F095FF21F44011FB
:1018400000F0DAFF3746A078C00701D13E4619E024
:10185000E06CB0F5803F03D090B900F02BFF02E0C0
:1018600000F079FF05462E4665B9E06CDAF83C10C9
:101870000025524621F480310843CAF83C00E5E7D0
:10188000012501262068810005D501F03CF80028DB
:1018900018BF0126206881031BD5E16F6FF001029C
:1018A00002EB3122022A0AD34FEA31223AB1012A4D
:1018B00006D1DAF81C2042F40032CAF81C200DB11F
:1018C000012606E0DAF8442022F440721143CAF8F7
:1018D0004410C10207D5216FDAF8402022F00042FF
:1018E0001143CAF84010C10008D5D4F8B410DAF892
:1018F000002022F480421143CAF80010810207D56B
:10190000A16EDAF8402022F080721143CAF840102C
:1019100041000CD5DAF8001021F40041CAF800109B
:10192000D4F8B810DAF800201143CAF80010B0F16A
:10193000FF3F07DC206DDAF83C1021F040510843EE
:10194000CAF83C00002E18BF01263046BDE8F087DB
:101950000125012777E75546D4F8B0002A680949E0
:1019600000F4407322F47C5201EA1011B3F5407F79
:101970006FF31F3008BF0A432A60296E08432866A8
:101980000025ECE5CFFFFF002DE9F843002800F02B
:10199000FB807F4D04468846286800F00F0088428F
:1019A0000BD2286820F00F0040EA08002860286861
:1019B00000F00F00404540F0E7802068C64F410727
:1019C00009D52169BA6900F062FF04D9BA6922F029
:1019D00070021143B961010709D56169FA6900F024
:1019E00056FF04D9FA6922F070021143F961C10669
:1019F0000AD5A169FA6902F4E062914204D9FA6950
:101A000022F4E0621143F961810609D5E1693A6A7D
:101A100000F03DFF04D93A6A22F0700211433962A6
:101A200010F002010AD0E268BB6903F00F039A428A
:101A300004D9BB6923F00F031A43BA61C2073AD035
:101A4000D4E90101BA6922F470621143B961012835
:101A500007D0032809D002280BD1396889030CD498
:101A600092E03968C90508D48EE03968890104D448
:101A70008AE03968490740F187803969A94621F031
:101A8000070108433861FFF765FA064641F28835D9
:101A90006068396901F03801B1EBC00F07D0FFF77A
:101AA00059FA801BA842F3D90320BDE8F8832068C7
:101AB0004D4600F0020151B1E168BA6902F00F022F
:101AC000914204D2BA6922F00F021143B961296828
:101AD00001F00F0141450AD9296821F00F0141EABF
:101AE00008012960296801F00F0141454CD14107E7
:101AF00009D52169BA6900F0CAFE04D2BA6922F098
:101B000070021143B961010709D56169FA6900F0F2
:101B1000BEFE04D2FA6922F070021143F961C106D7
:101B20000AD5A169FA6902F4E062914204D2FA6925
:101B300022F4E0621143F96180060AD5E069396A4E
:101B400001F07001884204D2396A21F07001084323
:101B5000386200F057F8B969294A1C4BC1F30321D8
:101B6000515C01F01F01C840B969186001F00F0114
:101B7000515C01F01F01C840154908600548006824
:101B8000BDE8F843FFF732BA0120BDE8F88300BF93
:101B9000002000521000002480B500F033F80A49FC
:101BA000174B0A68096801F00F01C2F30322595C60
:101BB0009A5C01F01F0102F01F02D040034A10603E
:101BC000C8400349086080BD18440258140000242E
:101BD0001800002480B5FFF7DFFF0849084A0968AC
:101BE000C1F3021100F08ABE80B5FFF7D5FF0349AB
:101BF000034A0968C1F3022100F080BE1C44025868
:101C0000A468000810B534490869C0F3C20003286D
:101C10000FD0022804BF324810BD40B908688006C2
:101C2000334858D50968C1F3C101C84010BD2B48DD
:101C300010BD8A6A886ACB6A4C6BC0F30510F0B19C
:101C400003F00103C4F3CC0402F003026343022A4D
:101C500000EE103AB8EE400A13D0AAB90A6892060C
:101C600051BF9FED221A0A68C2F3C102204B42BF46
:101C700023FA02F201EE102AB8EE411A06E0002023
:101C800010BD9FED191A01E09FED161A0A6B9FED2A
:101C9000193A6FF35F2202EE102AB8EE422A00EEE4
:101CA000032AB7EE000A32EE000A02EE100A086BB1
:101CB000C0F34620B8EE422A013081EE021A21EE2E
:101CC000000A01EE100AB8EE411A80EE010ABCEEDD
:101CD000C00A10EE100A10BD0044025800093D0071
:101CE00040787D010024744A20BCBE4B0024744C13
:101CF0000090D00300000039F8B5002800F0E18022
:101D000004460078D14EC00712D0306900F0380187
:101D1000B06A102905D018292AD100F00300022842
:101D200026D13068800303D56068002800F0C980A0
:101D3000207880074AD5306910F03801B06A26D083
:101D4000182901D1800722D03068E168002900F00D
:101D5000018120F01900084300F043FC054630687B
:101D600040071BD4FFF7F6F8401B0228F7D94FE1D4
:101D70006068002800F02581B0F5A02F00F03381C5
:101D8000B0F5803F00F0338100F08CFC32E1306828
:101D9000400703D5E068002800F09380FFF7D4F8EF
:101DA00041F2030188420AD82069716821F47C312C
:101DB000402814BF41EA003041F4003005E02069BA
:101DC000716821F0FE4141EA006070602078C00631
:101DD0003DD5306900F03801B06A082905D01829CE
:101DE0001BD100F00300012817D13068C00502D5CF
:101DF000E069802865D1FFF7A7F841F20301884226
:101E00001ED8206A716821F0F841202814BF41EAE9
:101E1000806041F08040706019E03068E16900291D
:101E200000F0C08040F0800000F0DBFB0546306829
:101E3000C005E0D4FFF78EF8401B0228F7D9E7E091
:101E4000206AF16821F07C5141EA0060F06020785E
:101E5000000738D42078800647D42078400756D42D
:101E6000676A67B3306900F03800182840F0D28004
:101E7000B16A306B012F24D0A26A01F003039342B0
:101E80001FD1E26AC1F3051191421AD10146226BBA
:101E90006FF35F21013A914213D1626BC0F3462187
:101EA000013A91420DD1A26BC0F30641013A914231
:101EB00007D1E16BC0F306600139884201D10020EF
:101EC0004EE10120F8BD706F616999B340F00100E7
:101ED0007067FFF73FF80546706F8007BAD4FFF7C9
:101EE00039F8401B0228F7D992E03068A16900292F
:101EF00049D040F4805000F074FB054630688004FF
:101F0000ABD4FFF727F8401B0228F7D980E0D6F8BA
:101F1000000440F48070C6F80004FFF71BF8054683
:101F2000D6F80004C00524D4FFF714F8401B642839
:101F3000F6D96DE020F001007067FFF70BF8054659
:101F4000706F80077FF586AFFFF704F8401B02280B
:101F5000F6D95DE020F0010000F043FB0546306853
:101F600040077FF533AFFEF7F5FF00F062FCF6D9CE
:101F7000F6E0A06800286BD005287CD001287ED030
:101F800000F012FC7EE020F4805000F02AFB0546B1
:101F9000306880047FF561AFFEF7DCFF00F049FC9C
:101FA000F6D9DDE020F0800000F01BFB054630682C
:101FB000C0057FF54CAFFEF7CDFF00F03AFCF6D937
:101FC000CEE000F06FFB00F00CFB054641F28837D5
:101FD000306880037FF5ACAEFEF7BCFF411B0320E9
:101FE000B942F5D9BCE0306840F4802030603068F8
:101FF00040F4803000F0F5FA054641F28837306849
:1020000080033FF595AEFEF7A5FF401BB842F6D919
:102010000320F8BD306820F0807000F0E2FA054639
:10202000022F08D1306880013DD5FEF793FF00F004
:1020300000FCF7D994E0306880017FF540AFFEF7EF
:1020400089FF00F0F6FBF6D98AE000BF0044025891
:1020500000F0AAFB3067FEF77DFF054641F28837A6
:10206000306F80077FF5FCAEFEF774FF411B032045
:10207000B942F5D974E0306F40F004003067306F3A
:1020800040F001003067FEF765FF054641F28837F2
:10209000306F80073FF5E4AEFEF75CFF411B032085
:1020A000B942F5D95CE004F12805B06A40F2F33199
:1020B00088432ECD0843591E40EA0210B0626FF3E8
:1020C0005F214FF4FE024FF47E4000EB452080B2CA
:1020D0000844A16B02EB01414FF0FE4201F4FE0106
:1020E0000844E16B02EB016101F0FE4108443063FA
:1020F0004FF6F871F06A20F00100F062706B8843CF
:10210000A16C40EAC1007063206CF16A21F00C01FF
:102110000843F062F06A616C20F002000843F0624C
:10212000F06A40F48030F062F06A40F40030F0620F
:10213000F06A40F48020F062F06A40F00100F06242
:10214000306840F0807000F04CFA0446306880013E
:102150003FF5B5AEFEF7FEFE011B03200229F5D9BF
:10216000F8BD0000F74800F01ABB00BF70B370B5AF
:10217000044690F8450015460E4628B9002084F81C
:102180004400204600F026F8206804F10801FEF71C
:102190009BFD2068A2683146FEF7DCFDD4E9010210
:1021A000E36A2946FEF774FD2068A16850F82120F3
:1021B00042F0010240F821200548016841F0004149
:1021C0000160012084F84500002070BD01207047A7
:1021D0000040005270470000EB4800F08ABB00BF8F
:1021E00058B110B500F094FB03D100F00EFB00F0E5
:1021F00006F800F0DFFB00F065BA01207047704779
:1022000090F83D1001290ED1022180F83D10084AB6
:1022100001688868734600F068FB9E4618BFB2F5F7
:10222000803F02D170470120704700F076BB00BFAD
:102230000700010010B548B10446D0F8800008B985
:1022400000F00AFB00F0E7F9012801D1012010BDE0
:10225000A06A08B100F0EAFA00F0E1FA21F02A01E0
:10226000816000F06DFBBDE8104000F091BF704749
:1022700009490968084018BF01207047002906492C
:10228000096814BF084321EA000003490860086890
:1022900002490860704700BFBC01002400100060C4
:1022A000B0B5234A9168B1F1FF3F38DD2149136889
:1022B00022A44B62137981F828305379CB62536999
:1022C0000B63D3888B8693688B63D368CB639269E7
:1022D0000A64194B0022292A06D0A55CDD601D681E
:1022E0006D06FCD50132F6E700220A600A68002A72
:1022F000FCD002684A6042688A608268CA60C2682C
:102300000A6102694A6142698A618269CA61C06977
:1023100008620020086008680028FCD0B0BD916801
:1023200041F000419160816902318161B0BD00BF1F
:1023300024ED00E06C0100241C1001400D0A456EE4
:1023400074657220486172644661756C745F48619F
:102350006E646C65722C2053797374656D204861CE
:102360006C742E0D0A000000F8B5044607280ED83C
:10237000FF2500260027072E17D8F0B200F02CF812
:1023800000281CBF3546012007440136F3E7092C1D
:1023900015D0082C1DD1002000F01EF8C8B1012076
:1023A000012400F019F8A8B913E0F9B285EA040095
:1023B00081F001010843B0FA80F044090AE00120ED
:1023C00000F00AF828B1022000F006F808B1012454
:1023D00000E000242046F8BD074901EBC00251F897
:1023E0003000938800699179184018BF0120081ABD
:1023F000B0FA80F040097047EC690008F0B501F1CF
:10240000140C14304FF0010E9FED140ABEF1040FAE
:1024100008BFF0BD01246146042C1AD002EB0E1552
:10242000B0EE401A002605EB840745F824600D46FF
:102430000C2E0BD0831995ED003A1035043693ED30
:10244000002AA2EE031A87ED001AF1E704310134E5
:10245000E2E710300EF1010ED8E700BF00000000E7
:10246000FEE710B500F1280151E8002F12B9BFF3C3
:102470002F8F04E0531E41E8003404B1F4E772B139
:102480002C300121006850B1821CD2E84F3FC2E8D5
:10249000441F04B1F9E71A0602D00830F2E7002021
:1024A00010BD70B5024652F8305F4DB1CC780023B4
:1024B0005DB12E46ED78A5420DD275683346F7E73B
:1024C0000023C1E90133C1620DE00024C1E90143E9
:1024D00000F12C0403E0C1E9016306F10804216066
:1024E000002B18BF1A1D1160283050E8001F4A1C2D
:1024F00040E8002303B1F8E770BDD1E9012312B130
:1025000093608B6800E0C362191D002B08BF00F1C7
:1025100030010A60704770471B480068704700BF71
:102520001A480178012905D105494FF080620A60F7
:10253000002101701448016841F0010101607047F9
:1025400004ED00E010E000E04FF0FF3070470000C5
:1025500040B10B490968B1FBF0F0411E0020B0EB1F
:10256000116F02D04FF0FF307047064AFF231370FF
:10257000054A062313605160044908709060704753
:102580001400002423ED00E010E000E0A016012478
:10259000B7EEC00A80EE090B20EE0A0BB7EEC08B37
:1025A000B0EE480A3847BFF34F8FBFF36F8F7047C5
:1025B00006EB460084F80A800130C0B201F0C8BCC6
:1025C00060602168084020607047608AD4E900128A
:1025D000105C8862608A01306082A18980B2884282
:1025E00070473060FEF7B6BCC2F34622B8EE433AFD
:1025F00032EE002A81EE031A21EE021A02EE102AB0
:10260000B8EE422A32EE002A81EE022ABCEEC22A3D
:1026100080ED002A70472420C4F8800020680168FB
:1026200021F001010160204600F0DEBD01EB8000D9
:10263000B8EE411A90ED013A90ED002A30EE410AD1
:10264000B7EE001A31EE401A20EE030AA1EE020A9C
:1026500070470022FEF7C6B82168D4E9022320465D
:1026600002F039B920466FF003016FF00305FEF761
:102670002FBA96ED020A96ED031A30EE010A38479A
:10268000C4F8DC00D4F8DC007047C0B201F060BCD4
:10269000386840F001003860386800F00100309080
:1026A00030987047306820F480303060306820F413
:1026B00080207047DAF81C00514640F40030CAF818
:1026C0001C007047012084F8480084F83E0084F81C
:1026D0003F0084F8400084F8410084F8420084F808
:1026E000430084F8440084F8450084F8460084F8E8
:1026F000470084F83D00002010BD13460A460146FD
:102700000020009070474FF0FF304FF0FF34FEF78D
:1027100069B90021002206464FF0000802F06ABCA9
:1027200004F12400002100F0B5B9201D012100F0C2
:1027300051B9DAF84810002552467047DAF84010CF
:102740000025524670470968C1F30211515C01F03F
:102750001F01C84080BD201D022100F03BB9084385
:10276000CAF848007047DAF844100025524670470E
:102770003860FEF7EFBBF86940F40030F86170474D
:1027800080EE0D0AC2EE0D0A5047386840F0020094
:102790003860386800F002000090009870470168C7
:1027A00041F0020101607047306F20F00100306796
:1027B000306F20F004007047C1F3066102EE101A7A
:1027C000B8EE422A32EE000A81EE000ABCEEC00AE0
:1027D00010EE101A704714460A46014600937047DF
:1027E0006FF00500FEF7FEB820464146FEF798B9A7
:1027F0000843CAF8400070470843CAF844007047CD
:1028000000222B46204600F03BBE002084F83C000E
:10281000204670471968C1F3C101C840704720685D
:10282000416821F49041416081687047204600F082
:102830005BBC411B032002297047C2F3064202EE33
:10284000102AB8EE422A32EE002A81EE022ABCEEAD
:10285000C22A80ED012A7047002084F87C002046BF
:10286000FFF705BD2346FDF7DBBF6FF0050080BD18
:102870006FF003016FF00306FEF72AB90021C16073
:1028800002F08EBB016841F001010160704702F067
:10289000700291427047B8626FF35F214FF47E403F
:1028A00000EB42204FF0FE4280B208444FF4FE019C
:1028B00001EB034101F4FE010844296902EB0161C7
:1028C00001F0FE410844704780EE200AB5EE400A50
:1028D000B1EE401AB0EE402AF1EE10FA70472046F1
:1028E00002F0C6BA204602F0ECBA02400020062AE6
:1028F0007047016821F0020101607047515C01F0EE
:102900001F01C84080BD04F12400022100F0C2B8BC
:10291000044690F83D0000287047086840F0010028
:102920000860002070476FF35F2302EE103AB8EEA4
:10293000422A00EE032A03EE102AB7EE000A70477F
:10294000016841F0010101602046704794F823209E
:10295000616A204600F072BB201D002100F03AB8E9
:1029600021F4D0710160816821F001018160202093
:10297000C4F88000704704F12400012100F08AB8F7
:102980005318043993ED003AA2EE013AB0EE431A1F
:102990007047A86968612146012001F0C0BEC5F3F7
:1029A000CC0503F003036C43022B00EE104AB8EE93
:1029B000400A7047022084F83D00211D206800F085
:1029C000D7BA5318043993ED003AA1EE023AB0EEAB
:1029D000432A7047F8B5B74F0546B86A00F00300C0
:1029E000032804BF0120F8BD38680C4620F0806041
:1029F000FFF7BEFE06463868000105D5FEF7AAFAC5
:102A0000801B0228F7D941E095E80F00BE6A26F442
:102A10007C36013946EA0030FFF73DFFB86368694C
:102A2000F96A21F0C0010843F862A869F96A21F047
:102A300020010843F8624FF6F871F86A20F01000A0
:102A4000F862F86B8843E969012C40EAC100F86339
:102A5000F86A40F01000F8624FF4001008BF4FF41D
:102A60008010002C08BF4FF40020F96A0843F86278
:102A7000386840F08060FFF77BFE0446386800014C
:102A800006D4FEF767FA001B0328F7D30320F8BD2E
:102A90000020F8BDF8B5874F0546B86A00F003007E
:102AA000032804BF0120F8BD38680C4620F0805090
:102AB000FFF75EFE06463868800005D5FEF74AFA45
:102AC000801B0228F7D941E095E80F00BE6A26F086
:102AD0007C76013946EA0050FFF7DDFE386468690C
:102AE000F96A21F440610843F862A869F96A21F49F
:102AF00000710843F8624FF6F871F86A20F48070AC
:102B0000F862786C8843E969012C40EAC100786476
:102B1000F86A40F48070F8624FF0807008BF4FF49C
:102B20000000002C08BF4FF48000F96A0843F862E7
:102B3000386840F08050FFF71BFE0446386880007C
:102B400006D4FEF707FA001B0328F7D30320F8BDCD
:102B50000020F8BDFEB50C48016841F0020101609B
:102B6000006800F002000090032004900020039011
:102B70000120029004200190009801A90348FEF76B
:102B800025F906B080BD00BFE04402580004025899
:102B900070470000044804210160704702484FF468
:102BA00080210160704700BF1804025810B5EF4C37
:102BB000A06828B1A0680138A06001D10120A070F0
:102BC0000020012130280ED02218136A4BB1136A5D
:102BD000013B136205D15177137F012B01D1536A59
:102BE00013620C30EEE760686FF000410130606006
:102BF0006068884201D10020606001F0B9F9607816
:102C000001306070C0B20A2838BF10BD002060706B
:102C1000BDE8104001F0AAB9B0B52448244BD0F863
:102C2000801041F47001C0F88010196801F00F01A4
:102C3000062904D81968072262F303011960AA491A
:102C40001D4D0A6842F001020A6000220A610C6808
:102C50002C400C601C68240704D51C68072565F30C
:102C600003041C60154B8A61CA610A628B62144BB3
:102C7000CB62144B0B634A638B63CA630B644A6475
:102C80000B6823F480230B600A660F490968B2EBD6
:102C9000517F02D10D4901220A600D4943F2D2024F
:102CA0000A604FF000610160B0BD00BF08ED00E0B8
:102CB00000200052004402587FEDF6EA00020202B2
:102CC0000000FF01800201010010005C088100513A
:102CD000004000522DE9F0419CB0FEF7AFF9122000
:102CE0008DF80C000DF1040803248DF80F404FF00F
:102CF000105002900120ADF80400774804904FF482
:102D00008070ADF80D004046FEF772F90F208DF887
:102D10000C0000258DF80F40ADF80D504FF0C0406D
:102D2000029040F20110ADF804004FF08070049062
:102D30004046FEF75DF90420FEF78AF9674801680E
:102D400089030BD4FFF72FFCC0F83C52FFF72BFC94
:102D5000016841F400310160FFF725FC0168C903F7
:102D600024D40021016743F6E07CBFF34F8FC26E8D
:102D7000C2F3C903C2F34E319A075C1C0CEA411638
:102D80001746234647EA060507F14047013BC0F8CE
:102D90004C52F7D14B1E00291946EFD1BFF34F8F8C
:102DA000016841F480310160FFF7FDFBFEF7F4F8A4
:102DB00014A82021FDF779FB08F108004421FDF754
:102DC00074FB4748016821F0040101600021009173
:102DD00044490A6822F001020A60096801F0010111
:102DE0000091C16841F44041C160C16801F44041B3
:102DF00000910099C1688904FCD5022010900E90C2
:102E0000CDE90A00A02100240D910825089404941E
:102E1000129411954FF48030029005210C910120FD
:102E2000019004200F9001A8FEF766FF00B1FEE7B5
:102E300040201B90CDE918004FF480611A91CDE934
:102E400016450320159004213F20149014A8FEF786
:102E50009BFD00B1FEE7244C206840F0800020601C
:102E6000D4F8F40040F00200C4F8F400D4F8F40000
:102E700000F0020000900098FDF7A2FFD4F8DC00FB
:102E800040F00050FFF7FCFB00F00050009000986D
:102E9000D4F8DC0040F08040FFF7F2FB00F0804007
:102EA00000900098D4F8DC0040F00040FFF7E8FB09
:102EB00000F0004000900098D4F8A80040F0805046
:102EC000C4F8A800D4F8A80040F00050C4F8A80046
:102ED0001CB0BDE8F08100BF0000010114ED00E06E
:102EE0000C4802582C0400580044025810B51E4CDF
:102EF00061682068890709D510F0020006D04FF6F6
:102F0000FD70FFF75DFB1948C06880476168206865
:102F1000490709D510F0040006D04FF6FB70FFF703
:102F20004FFB12480069804761682068090709D58E
:102F300010F0080006D04FF6F770FFF741FB0B4882
:102F40004069804761682068C9060BD510F0100001
:102F500008D04FF6EF70FFF733FB04488069BDE8F7
:102F60001040004710BD00BF0C000040C800002406
:102F700070B52A4A0368904222D0B0F1804F1CBF3E
:102F8000274CA04240D123F070034C682343B0F19A
:102F9000804F19D0224CA0421CBF224CA04213D01B
:102FA000224CA0421CBF204CA0420DD0204CA0427D
:102FB0000AD0204CA04207D01F4CA04204D007E00A
:102FC00023F070034C682343CC6823F440732343FD
:102FD0004E6923F080030C688D6833430360C5623B
:102FE000846290420BD0104A904208D0104A90421E
:102FF00005D0104A904202D00F4A904201D109698F
:1030000001630121416170BD064CA042BBD0064C5A
:10301000A042B8D0054CA042B5D0B8E700000140AE
:10302000000400400008004000040140000C004083
:1030300000400140004801400044014010B59307A2
:1030400012D400F12803D00715D153E8000F08422D
:1030500003D1BFF32F8F002005E020EA010243E8EF
:10306000002404B1F1E710BD806AD20700EA010331
:1030700012D1A3B912E053E8000F00EA01028A421C
:1030800003D0BFF32F8F002005E020EA010243E8C0
:10309000002404B1EFE710BD8B4200D0002010BD2A
:1030A000B0B5104A0023443215462C683CB125695E
:1030B000A94209D3491B04F10C052346F5E7002476
:1030C000C0E90234016106E00161C0E90234A06098
:1030D0002569691A2161002B18BF03F10C021060E9
:1030E000B0BD00BF1C00002410B5816ACA0706D01D
:1030F0000268C36A546824F40034234353608A0787
:1031000006D50268036B546824F48034234353606B
:103110004A0706D50268436B546824F4802423438D
:1031200053600A0706D50268836B546824F4004490
:1031300023435360CA0606D50268C36B946824F41F
:103140008054234393608A0606D50268036C946812
:1031500024F40054234393604A060FD50268436C5D
:10316000546824F480141C435460B3F5801F05D1C7
:10317000836C546824F4C00423435360090606D5C5
:103180000168C06C4A6822F400221043486010BDF8
:10319000BCB504460020C4F88800FDF7DBFE0546F8
:1031A00020680168090708D56FF07E4000904FF451
:1031B0000011FFF725FB58B920680068400709D5C2
:1031C0006FF07E4000904FF48001FFF719FB08B1CB
:1031D0000320BCBD00202021C4F8801084F87C00AE
:1031E000C4F88410BCBD0000FEB5044601688068C8
:1031F0008F4ED4E903230D682E4018436569636E32
:103200002843E569284318438B4B30430860894EB7
:10321000486820F4405010434860A069B1421CBF88
:10322000226A10438A681A40844B10438860626A9D
:10323000C86A20F00F001043C862814881421CBF59
:10324000804881420BD0804881421CBF7F48814228
:1032500005D07F4881421CBF7E48814208D1586D0D
:1032600000F00700062819D27F4F3844077816E08F
:10327000B1420CD07848814202D0784881420DD1C9
:10328000586DC0F3C200062808D2784FEDE7986D5C
:1032900000F00700062801D271A7E6E780277448EE
:1032A000B1420FD00121B5F5004F1BD1082F25D811
:1032B000DFE807F00569A8A86CA8A8A87000FEF7C9
:1032C00089FC6BE0402F2DD0042F2ED0082F30D05A
:1032D000102F36D0202F3AD0022F40F09280FDF7E9
:1032E0001BFF2AE0082F13D8DFE807F0056D8C8C50
:1032F000708C8C8C7400FEF76DFC6FE0102F00F06A
:103300008980202F4CD0402F7CD14FF4004047E0E3
:10331000102F00F08680202F62D0402F72D14FF402
:1033200000405DE04FF4004011E06846FDF700FF0B
:1033300002E06846FDF742FF019800285FD0626A0C
:1033400005E0186880064B4801D5FFF763FA4A4943
:1033500031F812106268B0FBF1F002EB42018842D2
:103360004FD3B0EB023F4CD8010E000210EB5200DD
:1033700041F100010023FDF72DF8A0F540713F4A0F
:1033800091423AD33DE0FEF72FFC07E06846FDF797
:10339000CFFE02E06846FDF711FF019878B3626A3C
:1033A000354931F81210B0FBF1F061684A0802EBC0
:1033B0004000B0FBF1F04FF6F071014021D0C0F3B6
:1033C0004200084319E0FEF70FFC07E06846FDF7EE
:1033D000AFFE02E06846FDF7F1FE019878B1626A3F
:1033E000254931F81210B0FBF1F0616800EB510093
:1033F000B0FBF1F080B2102803D32168C86000212F
:1034000000E0012100204FF00112C4E91A202067DA
:103410000846FEBD186880061648C1D5FFF7FAF9C0
:10342000BEE7186880061348DAD5FFF7F3F9D7E747
:10343000F369FFCF000C0058FFF4FF11004402585D
:103440000044004000480040004C00400050004054
:1034500000780040007C0040001401400010014052
:1034600002040810204000009E68000898680008C8
:1034700000093D000090D0033869000800FD0F00EE
:103480002DE9F843DDF820900446984616460F468D
:10349000006809F10105C1693940C91BB1FA81F120
:1034A0004909B1421CD1002DF5D0FDF753FDA0EB29
:1034B0000802206801684A4515D8B9F1000F12D0FA
:1034C0004907E8D5C1690905E5D54FF400610162F6
:1034D0000168FFF745FAC4F8840004F1880006E0AB
:1034E0000020BDE8F883FFF73BFA04F184000021D7
:1034F00084F87C10202101600320BDE8F8830000DF
:10350000034800F007B800BF01482C3000F002B8B3
:103510001401002470B504460068C6690568816816
:10352000B10616D5406AA168E28A8854E18A4A1C2D
:10353000E282E18992B28A4201D30022E282628B66
:103540008A4202D2618B01316183616A09B1C0B2E2
:103550008847300618D5280616D5A08A58B101200C
:1035600084F82800FFF731F801D300206082A08A98
:103570000138A08208E02068016821F08001016024
:10358000016841F040010160700617D5680615D545
:10359000A08A40B1FFF719F801D300206082A08A09
:1035A0000138A0820AE02168206A0A6822F04002FD
:1035B0000A6000B18047002084F828002068016A72
:1035C00041F001010162016A41F002010162016AF8
:1035D00041F004010162016A41F008010162016ADF
:1035E00041F010010162016A41F040010162016A8B
:1035F00041F480710162016A41F400710162016A63
:1036000041F400310162016A41F480110162016AF2
:1036100041F02001016270BDFEE70000F5EE400AB6
:10362000F1EE10FA1CDD7146FFF74EF98E46B8BF79
:10363000B0EE412AB7EE001AB4EE412AF1EE10FACC
:1036400035DD81EE021A9FED682A2021674A0B1DA5
:103650003AD04DF808EDFFF7B4F95DF808EBF6E75E
:10366000F5EE400AF1EE10FA3CDAB5EE400AF1EE62
:1036700010FA44DD7146FFF727F98E46B8BFB0EE69
:10368000412AB7EE001AB4EE412AF1EE10FA62DDDB
:1036900081EE021A9FED542A2021544A0B1D67D057
:1036A0004DF808EDFFF78DF95DF808EBF6E79FEDB3
:1036B0004E1A20214D4A0B1D0AD04DF808EDFFF798
:1036C0005FF95DF808EBF6E79FED441A31EE421A18
:1036D000B5EE400AB1EE412AF1EE10FAB8BFB0EEF5
:1036E000421A76E0F5EE400AF1EE10FA31D1B5EE6D
:1036F000400AF1EE10FA24DD9FED381A69E0B5EECC
:10370000400AF1EE10FA3EDA7146FFF7DDF88E4618
:10371000B8BFB0EE412AB7EE001AB4EE412AF1EE7E
:1037200010FA38DD81EE021A9FED2F2A20212F4A50
:103730000B1D3DD04DF808EDFFF743F95DF808EBA0
:10374000F6E7B5EE400AF1EE10FA02DA9FED241A20
:103750003FE0FC2040E09FED241A2021234A0B1D6E
:103760000AD04DF808EDFFF70BF95DF808EBF6E726
:103770009FED1A1A31EE421AB5EE400AB1EE412A17
:103780009FED180A1EE010EE101A164A62F31E0191
:1037900001EE101A1DE09FED141A2021134A0B1D93
:1037A0000AD04DF808EDFFF7EBF85DF808EBF6E707
:1037B0009FED0A1A31EE421AB5EE400AB1EE412AE7
:1037C0009FED0B0AF1EE10FAB8BFB0EE421A31EEDF
:1037D000001A80ED001A002040B27047DB0FC93F8D
:1037E000DB0FC9BFDB0F4940A59204BD506900083B
:1037F000DB0F49C0B5EE002A9FED141AA0EE012A96
:103800009FED131ABDEEC20AB5EE402AF1EE10FA92
:1038100010EE100AB8BF013800EE100AB8EEC00A68
:1038200032EE400A20EE010A9FED0A1ABCEEC02AD1
:1038300030EE011A12EE100A410A18BF002000FEF5
:10384000010A01EE100A1C49FEF7F0BE83F9223E80
:1038500000000044000000C49FED141A20EE010A8D
:10386000BDEEC01AB5EE400AF1EE10FA11EE100AE4
:10387000B8BF013801EE100AB8EEC11A30EE410AA5
:103880009FED0B1A20EE010A9FED0A1ABCEEC02A2A
:1038900030EE011A12EE100A410A18BF002000FE95
:1038A000010A01EE100A0449FEF7C0BE83F9223E68
:1038B00000000044000000C42C6A000810B580B16C
:1038C0000121F04C81F31088012808BF0220A0607C
:1038D0000020A07080F3108800F00EF8A078012876
:1038E000FAD110BD012080F310880021E54840681E
:1038F00081F31088704700BF704780B500F00CF866
:1039000000F01EF900F0C6F900F018F800F084F994
:10391000BDE8804000F090B90648016841F0807130
:103920000160054800214160016841F0010101602A
:10393000704700BFFCED00E0001000E02DE9F0430F
:103940009BB050484FF003094FF0010802274E4D3D
:103950004E4E016841F008010160016801F0080164
:1039600008910899016841F010010160016801F0B7
:10397000100108910899016841F040010160016857
:1039800001F0400108910899016841F0800101604F
:10399000016801F0800108910899016841F4807183
:1039A0000160016801F480710891089950F80C1CBD
:1039B00041F4805140F80C1C50F80C0C00F480507D
:1039C00008900898CDF82C90CDF8288009970C2005
:1039D0000C904CF2B370089008AC28462146B047D2
:1039E0004FF680700890214605F58060B04705F5D8
:1039F00040602146CDF82090B0474FF47F400890BA
:103A0000214605F58050B04740F2CF60089021462E
:103A100005F5A050B0474FF480510020CDE91001CA
:103A20001A90CDE91800CDE90E00CDE90A00CDE9E4
:103A30000670CDE90487CDE902772021CDE90C019C
:103A4000052001901249089104F1280001F58271C6
:103A500009911821FCF729FD01A920460A46FEF725
:103A600085FB20B10BA04FF49271FCF77CFE11484E
:103A700040F6147101601049006808601BB0BDE891
:103A8000F08300BFE0440258000C0258CD0D00083E
:103A9000004000522E2E2F2E2E2F557365722F624E
:103AA00073702F7372632F6273705F666D635F69EB
:103AB0006F2E6300BC0100240010006010B594B0AC
:103AC00001AC302104F11C00FCF7EFFC194801683F
:103AD00041F00101016000684FF0FF3100F001008A
:103AE000009004914FF08041019100208021CDE9A8
:103AF00006010590039064480F490068B0FBF1F09F
:103B0000013880B2029000982046FEF769FB20B190
:103B10000A484FF40C71FCF726FE1C2000210222FB
:103B2000FDF7C4FA1C20FDF7B3FA01A8FEF768FB05
:103B300014B010BDE844025880841E00AF73000822
:103B400070B586B03248002102226423002401733C
:103B50004181EC48A02C05D00519103429732A7135
:103B6000AB60F7E706216422A0F86B10A0F868208C
:103B7000A0F85B10A0F85820A0F84B10A0F848203F
:103B8000A0F83B100287AE480025224E016841F0A4
:103B900002010160016801F00201019101990168CF
:103BA00041F004010160016801F0040101910199F3
:103BB000016841F040010160016801F0400101919C
:103BC0000199016841F080010160016801F0800104
:103BD00001910199016841F480710160006800F46D
:103BE000807001900198CDE902550320049001AC4A
:103BF000082D0AD006EBC50021468088019056F8B2
:103C00003500FDF7E3F80135F2E706B070BD00BFFF
:103C100050220124EC69000810B5064C0120A04791
:103C20000220A0470320A04704202146BDE8104001
:103C3000084700BF093F000810B5002111480022C5
:103C4000302A06D083180C321962596259771977D5
:103C5000F6E70D494FF47A720968B1FBF2F14A1E9A
:103C60000021B1EB126F07D1084BF0245A60084ACB
:103C7000147099600721196001210170BDE810409E
:103C8000FFF71CBFC80000241400002410E000E06F
:103C900023ED00E02DE9F04FB5B05F485F4B002108
:103CA0004FF004225E4C614E5E4D01824182C18222
:103CB0000183418381828187C187A0F84210A0F8E7
:103CC0004410A0F84610C0E90232574BC0E90D324B
:103CD000C0E90054564CC0E90B46C0E907114162E7
:103CE00080F82810A0F84010524A80F85410534E23
:103CF00002651F91504BC0E912630120019001261B
:103D000001A8FDF7A1FA4E4F4FF00709DFF838A1DF
:103D1000FEF7BEFCFEF7BCFC386940F010003861CD
:103D2000386900F0100030903098CDF8D090032022
:103D3000CDE93260022031904FF40070309030AE07
:103D4000404831468346D047584631464FF4806854
:103D5000CDF8D090CDF8C080D04725200421002296
:103D6000FDF7A4F92520FDF793F928464FF4E1313A
:103D700000220C2300F0FEF8286A314640F0400093
:103D80002862A86940F00800A861286840F0200077
:103D900028600BF58065FEF7F8FCFEF7F6FCB868C6
:103DA00040F48020B860B86800F48020009000984B
:103DB000CDF8D09003203390012032900220CDE93D
:103DC00030802846D0474FF4006030903146CDF81F
:103DD000D0902846D047272004210322FDF766F91A
:103DE0002720FDF755F920464FF4165100220C23E9
:103DF00000F0C0F8206A40F040002062A06940F066
:103E00000800A061206840F020002060FEF7A2FEBC
:103E100035B0BDE8F08F00BF14010024C0010024BC
:103E2000C009002400100140C0050024C00D00247A
:103E300000480040912B00089D2B0008952B00089E
:103E4000E044025800000258CD0D00082DE9F0476B
:103E50004FF0000A2B4D4FF005094FF001080027E5
:103E60000026A02F4BD0F0B2EC19FEF77DFA217995
:103E700020B1042907D884F804902CE0062907D340
:103E800084F8049023E0092906D8481C207122E018
:103E900099B1481E20711AE0A07A08B9FEF788FB94
:103EA0002089C0B1E188814218D20131E18081428C
:103EB00011D106EB460003301EE0A07A012806D19E
:103EC00006EB460084F80AA00230FEF7DEFB84F819
:103ED0000CA0A4F806A010370136C2E7E07A00284B
:103EE000F9D0217B01312173C9B28142F3D306EBB2
:103EF000460084F80CA00130FEF7C7FBEBE7BDE8F5
:103F0000F08700BFB02101240138C1B2032988BF66
:103F1000704740B20D4951F820000121FEF7AEB9BB
:103F20000138C1B2032988BF704710B540B20749B4
:103F300051F820402046FEF79BF9B0FA80F0410985
:103F40002046BDE81040FEF799B900BF7869000827
:103F50000549CA7A8854C87A0130C2B2092A88BF92
:103F60000020C872704700BF50220124FFF76EBFC7
:103F7000704700002DE9F041A4B00DF104080E4691
:103F8000074668211C46154608F12400FCF78DFA07
:103F90000020CDE903000990CDE90700CDE90176C5
:103FA000CDE905544046FEF745F920B1034840F2FB
:103FB0002631FCF7D8FB24B0BDE8F081CE730008B1
:103FC0002DE9FC4114468846FCF7AAFB00283CD0AA
:103FD0000646C06900B18047002001210022A242AC
:103FE0002ED081F31088B38AADF8063080F31088A4
:103FF000B389BDF806709F420CD3BDF806709F428E
:10400000EFD133681F683F06EBD41F6847F0800785
:104010001F60E6E718F802307768358A7B5581F330
:104020001088338A01333382B5899BB2AB4228BFF3
:104030003082B38A01320133B38280F31088CEE735
:104040003068016841F080010160BDE8FC81E0B5A5
:104050008DF807100DF107010122FFF7B1FF8CBDAC
:10406000B0B52DED048B9FED1F9A04460025B0EEF0
:10407000498A092D31D0B0EE490A05EB8500411D72
:10408000C2B2CBB2934211D904EB8202B7EEC00A9E
:10409000013092ED001A92ED052A32EE411AB7EE88
:1040A000C11A01EE010BB7EEC00BE9E7B0EE491AF9
:1040B000B5EE400AF1EE10FA06DBB1EEC01AB4EE2E
:1040C000411AF1EE10FA03D638EE018A0135D0E735
:1040D00002F0B8F9B0EE401AF6E7B0EE480ABDECCF
:1040E000048BB0BD000000002DE9F04FA7B0B8EE82
:1040F000080AB1EE081AB1EE0C2AB2EE003ABAEE96
:104100000E4AB1EE005ABAEE046A019013AE0EAF39
:1041100022AC8B464FF00008DDE930EC0DF174095C
:1041200018A8B8F1140F3AD00EEB080106EB0805F9
:1041300091ED007A85ED007A02EB080507EB0801A6
:10414000D5ED000AC1ED000A03EB0801D1ED001A1C
:104150000CEB080171EEE00AD1ED001A04EB080146
:1041600071EE872A62EE802AE0EE812AC1ED002AF4
:1041700061EE822A61EE851A09EB0801E7EE032A57
:10418000E7EE011AE0EE842AD0EEC61AC1ED002A4D
:1041900000EB080108F10408C1ED001AC1E74FF077
:1041A000000C0DF10C0808ADBCF10A0F55D00198B8
:1041B0004FF0050ACDF808C000EB8C09BAF1000FEA
:1041C0000CD001EE10AA99ED000AF8EEC10A01F038
:1041D00007FEA8EC010AAAF1010AEFE71DAA18AB35
:1041E0000020DDF808C00DF10C08182804D058F89C
:1041F000001029500430F8E700209DED0D0A9DEDD8
:10420000081A9DED092A9DED0A3A9DED0C4A1428E5
:104210001ED0111891ED005A211822EE055A91ED89
:10422000006A1918A1EE065A91ED006A3118A3EE42
:10423000065A91ED006A3918A4EE065A91ED006A0B
:104240000BEB00010430A0EE065A81ED005ADEE7C8
:104250000BF1140B0CF1010CA6E727B0BDE8F08FB1
:1042600070B591ED121A91ED110A0D460446B7EEA4
:10427000C11AB7EEC00A21EE011B00EE001BB7EE1B
:10428000C10BF1EEC00AF4EE600AF1EE10FA42D66C
:1042900095ED100A201D264EB1EE400AB047D5ED2F
:1042A000060A95ED0B0A04F10800B04795ED110AD6
:1042B000D5ED120A2046B04794ED000A94ED011A9C
:1042C00094ED022A9FED163B9FED174B04F10C0372
:1042D000686AA96BEA6CB7EEC00AB7EEC11AB7EE0E
:1042E000C22A07C380EE030B81EE031B82EE032B71
:1042F00020EE040B21EE041B22EE042BB7EEC00BC4
:10430000B7EEC11BB7EEC22B84ED000A84ED011A93
:1043100084ED022A70BD02F095F8F0EE400AB7E78E
:1043200044174154FB210940000000000080664012
:104330001D360008000000002DE9F0472DED068B2A
:10434000D0B000EE100A9FED469B9FED47AB484F63
:1043500000244FF07E59984692460E464994CDE986
:104360004644CDF81491FEF713F98DED4A0AB0EEEC
:10437000480A404DA847B1EE400A4D948DED4B0AD6
:10438000B0EE480AA8478DED4E0AB0EE480AB8478D
:104390008DED4F0A00EE106AFEF7FAF88DED350A42
:1043A000B0EE480A3694A8478DED370AB0EE480AB9
:1043B0003B94CDE93949A847B1EE400A3E948DEDD2
:1043C0003D0AB0EE480AB8478DED3F0A00EE10AA4C
:1043D000FEF7DEF88DED250AB0EE480AA847B1EEEB
:1043E000400A27948DED260AB0EE480AA8478DEDC5
:1043F000290AB0EE480AB847CDF8BC90CDE92D4463
:104400002B948DED2A0A20A830A910AD2A46FDF77D
:10441000F5FF40A96A462846FDF7F0FF6098C0E91D
:10442000154405AB099DC562C465C0F86090C0F82D
:1044300024800ECB8161C26103620D9901640A99E7
:1044400001630E9941640B9941630F9981645F99EF
:10445000C1645E99816350B0BDEC068BBDE8F08706
:10446000000000000080664044174154FB210940D1
:10447000F53700085938000810B50446C1B20020CD
:10448000FFF7E5FD204610BD4A1E30EEC01A02EED1
:10449000102A0022B8EEC22A81EE021A91420CD0F4
:1044A000D3B2B0EE403A013202EE103AB8EE422AF0
:1044B000A2EE013AA0EC013AF0E77047FEF70AFCE1
:1044C000FDF78AFE00F054F80448054A002100F088
:1044D00053FE0449086000F063F8FEE7D1060008C7
:1044E00014690008B801002410B50446FCF768FA06
:1044F000EFF3058028B9EFF3108010B9EFF31180C6
:1045000030B16FF00500FCF755FA6FF0050010BDF3
:104510002046DFF808C000DF10BD00BF15560008B8
:10452000EFF3058048B9EFF3108030B9EFF3118055
:1045300018B9EFF31480C00701D101F08BB8DFF890
:1045400008C000DF704700BF55560008EFF3058034
:1045500028B9EFF3108010B9EFF3118008B101F022
:1045600081B8DFF808C000DF704700BF655600085B
:1045700080B500F0DFF8FCF74DFAEFF3058028B9BD
:10458000EFF3108010B9EFF3118018B1FEF728F99E
:10459000FEF76BB9DFF804C000DF80BD7556000878
:1045A00080B5FCF743FAEFF3058028B9EFF31080EC
:1045B00010B9EFF3118018B1FEF712F9FEF755B9F3
:1045C000DFF804C000DF80BD71570008F8B51F4652
:1045D00016460C460546FCF781FAEFF3058028B92C
:1045E000EFF3108010B9EFF3118030B3E5B1287804
:1045F000FA2819D1C4B1BFB92846FDF732FF20B35C
:10460000074600F10C016A6A2046FBF735FF0EB140
:10461000F87830703846FD6000F098FA2846214658
:10462000FCF7B0FA002406E028466FF003016FF0B3
:104630000304FCF74DFA2046F8BD2846DFF818C001
:10464000214632463B4600DFF8BD28462146FCF7AE
:1046500077FA6FF00204EEE70D580008F8B51F4630
:1046600016460C460546FCF773FAEFF3058028B9A9
:10467000EFF3108010B9EFF3118020B3F5B1287873
:10468000FA281BD1D4B1CFB905F10C0000F0D6F84F
:1046900008B307466A6A0C302146FBF7EDFEF920A5
:1046A0003870FE700026C7E90145BE70384600F03C
:1046B0004DFA28462146FCF72BFA02E02846FEF781
:1046C000D7F83046F8BD2846DFF818C021463246F4
:1046D0003B4600DFF8BD28462146FCF729FA6FF07B
:1046E0000206EEE73D5A0008013804289ABF06A1E9
:1046F00051F8200001A001F04FFBFEE72052657346
:1047000065727665640000006F7200083072000800
:10471000A9720008F572000865730008FEE7B0B5DD
:104720000C460546FCF763F928462146BDE8B04033
:10473000FFF7DABF7047F8B5A8B1A1B1042A12D2C9
:10474000034601F10F0424F0070453F8086F3546BF
:104750005E6826F003071F44EF1BA74209D22E68AC
:104760002B46002EF3D100240023FCF76BF92046E2
:10477000F8BDD0E900C7844407EB040EC0F804E09C
:104780005CF8047C774504D2ACF10806C6F804E076
:104790005E6846B126F003061443F550F5181D6017
:1047A0002B466C6001E014435C6003F1080423466F
:1047B000DBE7B0B560B159B100F10804A1F108021E
:1047C000002394420AD025462468002C2B46F8D1B9
:1047D00000240022FCF75CF92046B0BD51F8045CCF
:1047E000446825F00305641B446013B112681A6025
:1047F00002E0002241F8042C01240122EAE710B56E
:1048000030B140EA010212F0070201D1172902D8A3
:10481000002400220EE00A181024C0E90014A2F1BE
:1048200008038360002342F8083C82685460012436
:104830000122C360FCF736F9204610BDB0B5002850
:1048400017D000F1140151E8004F14B9BFF32F8FB6
:1048500004E0226841E8002303B1F4E73CB1011D04
:1048600051E8002F531C41E8003505B1F8E7214617
:1048700002E0002400200021FCF7EEF82046B0BD45
:10488000B0B500281FD0C2688A421CD802698A428B
:1048900019D900F1140213680B60BFF35F8F52E85F
:1048A000003F0C689C42F6D142E8001505B1F2E7E2
:1048B000021D52E8003F5C1E42E8004505B1F8E7E2
:1048C0000024002203E06FF003046FF00302FCF702
:1048D000CBF82046B0BD70B5E0B10E46D1B114465C
:1048E000C2B1014600201D46CBB104FB0652C1E90E
:1048F0000060C1E9024508462B46C1E9042531465E
:104900002246FCF7BBF8701E30B129192960013826
:104910000D46F9E7002070BD00202860012070BD21
:104920002DE9F04104468078A8B3E5682146284681
:10493000FDF7E3FD002005F10C062070214630460E
:10494000FFF79EFFA86820B33046FFF777FF00B35C
:104950000446284600F08CFAFDF7DBFE304600F0F6
:10496000EBFA476806466A6A04F10C003946FBF721
:1049700083FDF9202070214684F80280B068E07041
:104980002846FDF78EFD28463946BDE8F041FCF784
:10499000C7B8BDE8F081D4E90115A86830B3407804
:1049A000832823D12846FCF7BBF8284600F060FA9C
:1049B000FDF7AFFE304600F0BFFA466807466A6A68
:1049C00004F10C013046FBF757FDB86808B1E178F7
:1049D000017028463146FCF7D5F884F8008005F1CF
:1049E0000C002146BDE8F041FFF74ABF2846FCF71E
:1049F00097F828462146BDE8F041FDF752BD00007A
:104A000080B507480821D0E91A2000F079FFE34972
:104A1000C8640021002808BF4FF0FF31084680BD60
:104A2000F06700082DE9F041044600274FF0010827
:104A300014B325466469E8780007F9D528460021B3
:104A40002F76FCF7B5F8A8680028F1D0284600F0CA
:104A50000FFA00210022064600F0CCFAF06AC5E900
:104A60000367686100B105612846012185F8188057
:104A7000F562FCF795F8DBE7BDE8F081B0B5C278E8
:104A8000920718D5C06890F82120C36ADC78A40783
:104A90000AD59C688C4208BF8C682CB194F92040E0
:104AA00055B2AC42C8BFE2B25B69002BEED190F8C0
:104AB0002010914200D1B0BD80F82020BDE8B04068
:104AC00000F005BA70B5E04C04F1560504F15A0641
:104AD000B4F85400D5E85F1F11B9BFF32F8F04E07D
:104AE0004A1EC5E8532F03B1F4E7090429D0D6E8DC
:104AF0005F1F4A1C904200D80022C6E8532F03B122
:104B0000F5E788B2E16D51F82000D0B10178F139B4
:104B10000829DDD8DFE801F006050905050C0F05B9
:104B20001200D5E7216E8847D2E7616E8847CFE74C
:104B3000A16E8847CCE7E16E8847C9E7216F8847B7
:104B4000C6E70020BDE8704000F02AB970B5014604
:104B5000F84800F15603B0F85420D3E85F4FA24262
:104B600002D8BFF32F8F04E0651CC3E8565F06B17F
:104B7000F3E7A3B2934214D200F15803D3E85F4F96
:104B8000651CAA4200D80025C3E8565F06B1F5E7C8
:104B9000A2B2C36D43F82210417A39B1012181726A
:104BA00070BD0220BDE87040FFF7B9BD02484FF06C
:104BB0008051016070BD00BF04ED00E010B501211F
:104BC000417090F92030F9491C310A46896841B199
:104BD00091F920409C42F8DCC0E9021290600C314F
:104BE00004E00021C0E9021202F108010860BDE8FA
:104BF0001040FCF731B800BFB0B54A1C0DD0EB4AED
:104C000000232C3215462C68E4B1E569A94221D372
:104C1000491B04F110052346F5E7F549002301F18E
:104C2000300214461946236803F11004002BF9D111
:104C30004FF0FF33C3610023C0E90431C1B101F17A
:104C4000100215E0C161C0E90443002B18BF03F155
:104C500010020DE0002BC0E90443C16118BF03F14D
:104C6000100210602CB1E269511AE16104F11402E2
:104C70001060B0BDC2690169531C0AD021B14369FB
:104C80004B61CB691A44CA6142693AB9D84AD162C8
:104C900007E009B142694A6142692AB100234361D0
:104CA00011610021C1617047D14A1163F9E700BF6A
:104CB00070B5FC4EF46A1CB1E0690138E06103D0C4
:104CC00070BDE06900284CD1607813384FEA30108D
:104CD000082830D8DFE800F0052F090D121C212626
:104CE0002B002046FBF760FE25E02046FBF79EFFE9
:104CF00021E0FDF7F7FDFBF76FFE1CE0FDF7F2FD8D
:104D000021460546FFF7BAFE2846FBF743FF12E0AF
:104D1000FDF7E8FDFBF754FF0DE0FDF7E3FDFBF7C2
:104D2000C9FE08E0FDF7DEFDFBF7ECFE03E0FDF752
:104D3000D9FDFBF721FF94F82200C0064FF02000B8
:104D400058BF6020A16B41582046FBF791FF2046D9
:104D500000F0ADF8204600F0E5F82469002CB0D151
:104D600001E000206061F46270BD00BF10B5044630
:104D7000C078C00703D1204600F03CF809E00020CD
:104D8000E06004206070F448416BA16001B1CC6028
:104D900044632046BDE81040FBF72CBF1C000024F4
:104DA000B0B50546EC48017A446965B1022905D1E0
:104DB00094F9200095F92010814211DC2846BDE8C5
:104DC000B04000F0AFB8022912D1456A85B194F91C
:104DD000200095F9201081420ADD284600F067F88E
:104DE0002046FFF7EBFE2846BDE8B04000F0D8B8FB
:104DF000B0BD00BF10B5044600202080A078810718
:104E00000DD5C00605D4D448216B406FFFF7D1FC07
:104E100005E0D148216BD0F88400FFF731FDA07880
:104E2000C00708BF10BDCC49D1F8880020B1214689
:104E3000BDE81040FFF724BDD1F880002146BDE851
:104E40001040FFF7B6BC00BF1C00002410B504469C
:104E5000806930B10021002200F0CCF8A069FBF796
:104E6000EBFE6078232802D1A0680021816110BD8B
:104E70000146806882688A6002B1D1600021C16009
:104E8000704710B591F920300246806840B190F922
:104E900020409C42F8DAC1E9020291600C3004E043
:104EA0000020C1E9020202F10800016010BDC168E2
:104EB00031B182688A60826802B1D1600021C1602C
:104EC00070470178F12901D1C068FAE77047B0B5A1
:104ED0000446054625B12878F12802D1ED68F9E7A6
:104EE000B0BD2046FFF7E3FF28462146BDE8B040AD
:104EF000FFF7C7BFB0B504464078332811D1FDF79E
:104F000025FD70B1054620460022294600F072F8C2
:104F100094F82310606A2A462346BDE8B040FBF7A8
:104F20007BBEB0BD0146012048708B481C30FFF7A6
:104F3000A8BF00BF1C00002490F82210C9064FF043
:104F4000200158BF6021806B08447047016B806B63
:104F5000884205D908680349884201D10120704779
:104F600000207047A52E5AE270B50B4C0B4800216B
:104F7000A26D666E00F0F8FD774DA86246B1B047AD
:104F800040B9E96CD4E9172000F0EEFDA86408B13F
:104F9000012070BD002070BDF06700081D470008AB
:104FA0006D49886102214170FBF75CBE1C00002442
:104FB000F8B5694F0546387A022816D1786AA0B14B
:104FC0007E690C463046FBF701FE3046214675707F
:104FD000FFF712FE786A8168796211B107F11C024D
:104FE000CA60FDF74BFC0120F8BD0020F8BD00BFF2
:104FF0001C00002470B515460E460446FBF738FE2B
:1050000094F82200C0064FF0200058BF6020A16B2A
:1050100046502046FFF72EFE2046002DBDE870408A
:1050200008BFFFF77FBFFFF7BBBE0000B0B5FDF7BD
:1050300073FA494DE8680130E860FFF739FE002057
:10504000FFF7AEFE286D00B18047296C41B3A86917
:10505000EA6B904205D0C269E86322B9C1610A4691
:1050600001E0C26912B1511EC16119D1297A022928
:1050700016D16C6AA4B190F8200094F820108142F7
:105080000ED12046FFF713FFE86BFFF74BFFE86BED
:10509000FBF7E2FD2046FFF783FF286CEC63E0613D
:1050A000B0BD00BF1C00002480B5FFF7A9FC10B103
:1050B0004FF0FF3080BD284801490165002080BDC8
:1050C000ED50000882B004466D4620462946002275
:1050D0004FF0FF33FFF77AFA0028F6D1DDE900013F
:1050E000FBF7CEFDDDE900108847EEE72DE9F04142
:1050F000194D6C6C74B320696E694FF0010801386A
:10510000206134B3206920BBE06808B1A1688160E8
:105110006864E86C04F1180100220023FFF79EFA8E
:1051200060B1D5E90570686121460320FFF7F7FA01
:1051300086EA07006969084308BF0646E078012847
:1051400011BF84F8018061692046FDF7A9FF6C6CEE
:10515000D7E76E61BDE8F0811C000024FBF756FD27
:10516000DFF810C000DF4FF0FF310020FBF748FDF3
:10517000FEE700BF0D5B000870B514460D460646FD
:10518000FBF760FDEFF3058028B9EFF3108010B94D
:10519000EFF3118038B100206FF005010024FBF718
:1051A0002FFD204670BD3046DFF80CC02946224650
:1051B00000DF0446F5E700BF695B0008F8B52DED98
:1051C000108B90ED010A544F14460D460646B84721
:1051D000B0EE408A96ED020AB847B0EE40CA96EDAE
:1051E000040AB847B0EE40AA96ED050AB847B0EEFB
:1051F000409AFDF73EFAB0EE40DA96ED010A474FCD
:10520000B847B0EE40BA96ED020AB847F0EE408AD1
:1052100096ED040AB847B0EE40FA96ED050AB84795
:10522000B0EE40EAFDF725FA2DEE0B1A2AEE4B2AD6
:105230009FED3C3AB2EE064A00204FF07E51C5E9A0
:105240001500C5E91701012021EE0F1AA8EE0A1A70
:1052500085ED0D1A28EE0D1AA1EE0F2A2AEE011A7D
:1052600085ED082A9FED2E2AABEE0F1A28EE822A32
:10527000ADEE032A2AEE003A85ED132A20EE4F2ADE
:1052800085ED122A2DEE492AA3EE0E2A85ED112A6C
:10529000B2EE042A2CEE022AA0EE042AB3EE094A4A
:1052A0002BEE045A28EE044A25EE025A24EE022A76
:1052B00085ED092A29EE032A2BEE003A85ED0E5AD8
:1052C0009DEE4E2A2EEE033A85ED102A2DEE4A2A47
:1052D00022EE0B2AA8EE0F2A99EE423A85ED0B3A00
:1052E00020EE483A20EE490A2BEE000A2EEE034A41
:1052F000AEEE020AA9EE014A85ED0C0A29EE030A78
:1053000085ED064AAEEE410A85ED070A2070BDEC38
:10531000108B01B0F0BD00BFF53700085938000808
:1053200000007AC3008089432DE9F84F2DED108BE2
:10533000D8B00C7805460EA814211646FBF7B5F830
:10534000B7EE008A45A89FEDAE0A0A21F0EE480AA2
:10535000FFF79AF809A8052100F00EFD04A8052121
:1053600000F00AFD012C40F03781029652A8BFEEF2
:1053700000AA9FEDA4EA9FEDA29ADFF88CA29FED10
:10538000A3FADFEDA38A00F1080400F1140900F18B
:10539000100B043003904FAE51AF0120804601281E
:1053A00002D0B8F1030F04D1B0EE490AF0EE4A0A78
:1053B00003E0B0EE490AF0EE480A50A8FEF72EF9D5
:1053C00095ED091A95ED0E0A3046F1EE410AFEF709
:1053D00025F99DED4F0A9DED501A31EE400A8DEDF5
:1053E000530AFEF707FAB0EE40BA9DED530AFEF7F6
:1053F00033FAB0EE40CA95ED071A95ED060A95ED21
:105400000C3A95ED0B2A21EE4C1A20EE4C0AA3EE35
:105410000B1AA2EE0B0A21EE011AA0EE001AB1EE51
:10542000C10AB4EE400AF1EE10FA80F1A280B1EEAA
:10543000401AB8F1040F95ED0D2A584600FE011AE6
:10544000B8F1010F00FE010A95ED081A61EE4C0A51
:10545000E2EE0B0AD0479DED560AFEF7FDF995EDF9
:105460000B2AB0EE40DA95ED070A95ED061A95ED98
:105470000C3A484620EE4C0A22EE4B2AA3EE0B0AC9
:10548000A1EE0C2AFDF77CF995ED0D2A95ED081A91
:1054900095ED120A38462CEE022AB1EE400AA1EE32
:1054A0000B2AFDF76DF99DED510AFEF7A3F9B0EE59
:1054B00040DA9DED510AFEF7CFF995ED0E3A95EDE4
:1054C000131A95ED092A20462CEE033A9DEE4F1A49
:1054D000A2EE0B3A81EE281AA0EE0F3A8DED501A8B
:1054E000B0EE410AC3EE280ACDED4F0AD0479DED3C
:1054F000540A9DED511A31EE400A8DED550A9DED8D
:10550000500AB4EE480AF1EE10FA2BDCB4EE4A0A67
:10551000F1EE10FA26DB9DED4F0AB4EE480AF1EEEB
:1055200010FA1FDCB4EE4A0AF1EE10FA1ADB09A8F1
:1055300000905E46CB460DF14C0904A80190494607
:1055400045A80EAA039BFEF7CFFD4846D946B346B1
:105550004FAEFEF785FDB4EE4E0AF1EE10FA01DA19
:10556000B0EE40EA08F10100B8F1040FFFF416AF05
:1055700004E0B0EE410A00F065FF58E79FED210A14
:10558000B4EE40EAF1EE10FA26DA9FED190B9FED2A
:105590001A1B029A042052AB18281FD01918B0EE1B
:1055A000404B91ED002AB7EEC23AB4EE413BF1EE2A
:1055B00010FA06DCB0EE414BB4EE403BF1EE10FACF
:1055C00005DA34EE032BB7EEC22B81ED002A111859
:1055D000043081ED002ADFE7002003E0BCEECE0AB4
:1055E00010EE100A58B0BDEC108B01B0BDE8F08F82
:1055F00044174154FB2109C044174154FB21094081
:10560000000000000000C8421D360008008089C369
:1056100000007A4310B5B949C968441A0CD0B4F1F6
:10562000FF3F09DD13202146FFF7C2FC48B12046A9
:10563000FBF7CCF900240AE06FF003046FF00300DD
:1056400003E04FF0FF344FF0FF30FBF7B3F9204693
:1056500010BD00BF10B5F748047A2046FBF7CEF91D
:10566000204610BD10B5F34CE068FBF7CDF9E068BB
:1056700010BD00BF2DE9F843DFF8E88698F8080070
:1056800020B101286BD0FDF73EF86BE05D4F388A02
:10569000D7E90B41A8F85400D7E90202C8F8400046
:1056A000C8F85C202046FFF7AAF808B1C8F8804087
:1056B000D7E90541DFF8B490D7E907562046C84737
:1056C000D8F880100028284618BF2146C8F8741062
:1056D0003146C847D8F88010002818BF2946C8F8B6
:1056E0007810D7E909412046C847D8F8801000282B
:1056F00018BF21467C6BC8F87C101CB1FCF7ACFFCE
:10570000C8F88440BC6B1CB1FCF7A6FFC8F8884001
:10571000FC6B1CB1FCF7A0FFC8F88C403C6C1CB1C2
:10572000FCF79AFFC8F890407C6C1CB1FCF794FF22
:10573000C8F89440BC6C1CB1FCF78EFFC8F89840C8
:10574000FC6C1CB1FCF788FFC8F89C403C6D1CB198
:10575000FCF782FFC8F8A040012088F80800FBF79A
:105760005FF900242046BDE8F88300BFFF4700082A
:10577000B0B5FC4C207A01281FD1FFF7F5FBC8B16A
:105780001F48FF211F4D8175817D0268C943C2F307
:105790000222C9B2B1FA81F1C1F120018A4228BFC7
:1057A000511CFE2202FA01F1C17468681649FCF727
:1057B000CFFE50B1FCF7A7FF05E06FF00600FBF746
:1057C00011F94FF0FF342046B0BDFCF7BDFE20615B
:1057D000FCF7A6FE04F11C00FFF74AFBFFF7E0FB15
:1057E0002878C0070CBF0320022080F31488BFF381
:1057F0006F8F02202072FBF71FF90024E3E700BF40
:105800000CED00E0F0670008B30300082DE9F0415B
:10581000044600284FD02078FA284CD10D460029A4
:1058200049D020461F461646FCF71BFE002847D0ED
:10583000804620464146FCF760FE626A08F10C0192
:105840002846FAF719FE16B198F803003070204682
:105850002946FBF797F904F10C064146002588F824
:1058600000503046FFF70CF8A06830B33046FEF722
:10587000E5FF002508B30646FDF731F800210122B7
:105880000746FFF7B7FB3846FFF756FBD0F8048012
:105890000746626A06F10C004146FAF7EDFDF92071
:1058A00030703146B570B868F0702046FCF7F9FDED
:1058B000FCF79AFF01E0FCF7D5FE2846BDE8F08131
:1058C0007FB1204629463A46FBF712F98320394634
:1058D000FFF76EFB60B1A34841692046FFF7D1FA9C
:1058E00009E020462946FBF72BF96FF00205E4E7B3
:1058F0002046FBF707F96FF00105DEE71C000024E6
:105900002DE9F84F48B10E4639B10546B0FA80F09E
:10591000B6FA86F108441F2808D8002400206FF04A
:105920000301FBF7D5F82046BDE8F88F06F10F001C
:1059300020F0030808FB05F9A2B19468D2F800A092
:10594000D2E90470C4B1A10719D1D168332916D99D
:10595000002F3FD0B9073FD148453DD32CB14FF080
:10596000000B1AE04FF0000A00277E49D1F8A00092
:1059700050B1FEF763FF0DE0D1680029E8D00024A4
:1059800000206FF00801CCE7D1F88000342101221B
:10599000FEF7D1FE04464FF0010B64B35FBBCDF8B8
:1059A00000A0DFF8C0A349460022DAF87C00FEF729
:1059B000C2FE074620B138464946FAF776FD16E0A2
:1059C000BBF1000F12D0DAF8A00050B12146FEF76B
:1059D00057FF0BE00028C1D0002400206FF0090120
:1059E0009FE7DAF880002146FEF7E3FE0024DDF8A9
:1059F00000A00BF1020B0020C4B1C4E90960C4E9A6
:105A00000B00C4E901A0FA202070294642463B461B
:105A100084F802B004F10C00FEF75DFFD14806499E
:105A2000016761682046FBF74BF87CE76FF00401E3
:105A300077E700BF1C000024214900082DE9F04150
:105A4000044638B32078FA2824D1884611B3A068D8
:105A50001F46164620B34078832821D1FCF7C4FEA8
:105A6000FCF73DFF002101220546FFF7C3FA284657
:105A7000FFF762FA45680746626A41462846FAF728
:105A8000FBFCB86800B1067020462946FBF77AF89F
:105A9000002602E02046FCF7EBFE3046BDE8F08130
:105AA00004F10C00FEF7CAFE88B10546626A0C30AC
:105AB0004146FAF7E1FCF92028702946EE700026ED
:105AC000AE702046FCF7EDFCFCF78EFEE5E77FB1FB
:105AD000204641463A46FBF745F893203946FFF702
