:020000040800F2
:10000000100800243903000869520008D94F00087D
:100010006152000831050008B971000800000000B5
:10002000000000000000000000000000C9540008AB
:10003000910900080000000071520008D154000826
:100040005303000853030008530300085303000838
:100050005303000853030008530300085303000828
:100060005303000853030008530300083905000830
:100070004905000853030008530300085303000810
:1000800053030008530300085303000853030008F8
:1000900053030008530300085303000853030008E8
:1000A00053030008530300085303000853030008D8
:1000B00053030008530300085303000853030008C8
:1000C00053030008530300085303000853030008B8
:1000D000530300086171000853030008530300082C
:1000E00053030008530300080000000053030008F6
:1000F0005303000853030008530300085303000888
:100100005303000853030008530300085303000877
:100110005303000853030008530300085303000867
:100120005303000853030008530300085303000857
:100130005303000853030008530300085303000847
:1001400000000000000000000000000000000000AF
:100150005303000853030008530300085303000827
:100160005303000853030008530300085303000817
:100170005303000853030008530300080000000065
:1001800053030008530300085303000853030008F7
:1001900053030008530300085303000853030008E7
:1001A00053030008530300085303000853030008D7
:1001B00053030008530300085303000853030008C7
:1001C00053030008530300085303000853030008B7
:1001D00053030008530300085303000853030008A7
:1001E0005303000853030008530300085303000897
:1001F0005303000853030008530300085303000887
:100200005303000853030008530300085303000876
:100210005303000853030008530300085303000866
:1002200053030008530300085303000800000000B4
:1002300053030008530300080000000053030008A4
:100240005303000853030008530300085303000836
:100250005303000853030008530300085303000826
:100260005303000853030008530300085303000816
:100270005303000853030008530300080000000064
:100280005303000853030008530300080000000054
:10029000000000005303000800F002F800F03CF8F2
:1002A0000AA090E8000C82448344AAF10107DA45D1
:1002B00001D100F031F8AFF2090EBAE80F0013F0E7
:1002C000010F18BFFB1A43F001031847906F00009D
:1002D000B06F0000103A24BF78C878C1FAD852072E
:1002E00024BF30C830C144BF04680C6070470000B0
:1002F0000023002400250026103A28BF78C1FBD82F
:10030000520728BF30C148BF0B6070471FB506F0C9
:1003100076FF1FBD10B510BD00F0D0F81146FFF7F5
:10032000F5FF06F04DFF00F0EEF803B4FFF7F2FF23
:1003300003BC00F0F5F80000094880470948004771
:10034000FEE7FEE7FEE7FEE7FEE7FEE7FEE7FEE785
:10035000FEE7FEE704480549054A064B70470000E2
:10036000B955000899020008100200241008002462
:10037000100400241004002453EA020C00F06980E9
:100380002DE9F04B4FF00006002B1FBFB3FA83F5A9
:1003900003FA05F424FA05F65E4012BF1643B2FADA
:1003A00082F502FA05F4C5F120051EBF22FA05FC0C
:1003B00044EA0C04203556EA044C4FEA144418BFB2
:1003C000641C4FF000084FF00009904271EB030CE1
:1003D00039D3002919BFB1FA81F701FA07F6B0FA4B
:1003E00080F700FA07F6C7F120071EBF20FA07FCC6
:1003F00046EA0C062037B6FBF4FCA7EB0507103FD6
:1004000007F01F0BCBF120062CFA06F60CFA0BFBBB
:1004100044BFB3460026202FA4BF5E464FF0000B1A
:100420005BEA060C08BF4FF0010B19EB0B0948EB18
:100430000608ABFB027C06FB02CC0BFB03CCC01B0B
:1004400071EB0C01C1E70B46024641464846BDE848
:10045000F08B13B5084318BF4FF0FF300146AFF3E0
:100460000080BDE81C4070474FF0000200B5134605
:1004700094469646203922BFA0E80C50A0E80C50C4
:10048000B1F12001BFF4F7AF090728BFA0E80C5075
:1004900048BF0CC05DF804EB890028BF40F8042B6E
:1004A00008BF704748BF20F8022B11F0804F18BFDB
:1004B00000F8012B7047704770477047754600F091
:1004C0002BF8AE4605006946534620F007008546E6
:1004D00018B020B5FFF73EFFBDE820404FF0000602
:1004E0004FF000074FF000084FF0000BAC46ACE8AF
:1004F000C009ACE8C009ACE8C009ACE8C00921F00B
:1005000007018D46704710B50446AFF300802046C2
:10051000BDE81040FFF709BF0048704710000024F5
:1005200001491820ABBEFEE726000200704700001C
:10053000FEE700000000000040F28400C2F200402C
:1005400000F02EBE0000000040F2FC00C2F20040AD
:1005500000F026BE0000000040F20F42D0F800C0BC
:10056000C4F20202944511DC6F22C4F202029445E7
:1005700022DC3F22C4F20202944539DC1022C4F28C
:10058000020294455AD0282254E000BF40F26F4244
:10059000C4F2020294451BDC40F23F42C4F2020264
:1005A00094452DDC40F21042C4F20202944545D03D
:1005B00040F228423EE000BF9F22C4F2020294456E
:1005C00028DC7022C4F20202944537D0882231E040
:1005D00040F29F42C4F20202944523DC40F2704292
:1005E000C4F20202944529D040F2884222E000BFC2
:1005F0004022C4F20202944520D058221AE000BFE3
:1006000040F24042C4F20202944517D040F25842F0
:1006100010E000BFA022C4F2020294450ED0B8221E
:1006200008E000BF40F2B842C4F20202944505D08F
:1006300040F2A042C4F20202944519D16FF00F02B9
:100640004AF6AB2352FA8CF2CAF6AA23A2FB033174
:100650000AA35F2AC1F302115B5C40F2FF312CEA6E
:100660000101C36588BF043181650846704700BF3A
:100670002CF0FF0181650846704700BF0006101688
:10068000000610160000000070B540F26F44D0F86C
:1006900000C0C4F20204D0F858E0A4451ADC9F253B
:1006A000C4F20205AC4533DC5725C4F20205AC4563
:1006B0005ADC1025C4F20205AC4500F098802825CC
:1006C000C4F20205AC4500F092804025C4F2020558
:1006D0008AE000BF45F22F45C5F60205AC452DDC8A
:1006E00040F2B745C4F20205AC454BDC40F2704520
:1006F000C4F20205AC457AD040F28845C4F2020546
:10070000AC4574D040F2A045C4F202056CE000BFD5
:1007100040F22745C4F20205AC4543DCA025C4F2F3
:100720000205AC4563D0B825C4F20205AC455ED0E5
:1007300040F21045C4F2020556E000BF45F26B4599
:10074000C5F60205AC453FDC45F23045C5F602056D
:10075000AC454CD045F24445C5F60205AC4546D003
:1007600045F258453EE000BF5825C4F20205AC45AD
:100770003DD07025C4F20205AC4538D08825C4F2BE
:10078000020531E040F2B845C4F20205AC452ED076
:1007900045F20845C5F60205AC4528D045F21C4592
:1007A00020E000BF40F22845C4F20205AC451ED04F
:1007B00040F24045C4F20205AC4518D040F258451D
:1007C000C4F2020510E000BF45F26C45C5F6020513
:1007D000AC450CD045F29445C5F60205AC4506D0B3
:1007E00045F28045C5F60205AC4540F0CF80456E28
:1007F000C66E002E866E6E601CBFD0E91C566E6001
:10080000A44515DC9F24C4F20204A4452CDC572423
:10081000C4F20204A44551DC1024C4F20204A4452D
:100820007AD02824C4F20204A44575D040246FE095
:1008300045F22F44C5F60204A44529DC40F2B74432
:10084000C4F20204A44545DC40F27044C4F2020440
:10085000A44561D040F28844C4F20204A4455BD0B0
:1008600040F2A04454E000BF40F22744C4F2020426
:10087000A4453FDCA024C4F20204A4454CD0B82413
:10088000C4F20204A44547D040F2104440E000BF47
:1008900045F26B44C5F60204A44553DC45F23044EE
:1008A000C5F60204A4455FD045F24444C5F60204EF
:1008B000A44559D045F2584452E000BF5824C4F230
:1008C0000204A44528D07024C4F20204A44523D015
:1008D00088241DE040F2B844C4F20204A4451BD0B1
:1008E00045F20844C5F60204A4453DD045F21C4437
:1008F00036E000BF40F22844C4F20204A4450BD005
:1009000040F24044C4F20204A44505D040F25844E9
:10091000C4F20204A44539D18468C06D00F01F0000
:100920003F2505FA00F0CEF80800DCF80000402C66
:1009300020F48020CCF80000CCF8043021D1CCF891
:10094000082021E045F26C44C5F60204A4450BD012
:1009500045F28044C5F60204A44505D045F294440E
:10096000C5F60204A44511D1C46D806804F01F04CB
:100970000125402805FA04F4CEF80440CCF80430F0
:10098000DDD0CCF808101146CCF80C1070BD00007A
:100990007047000000000000EFF3108072B600BF47
:1009A000FEE70000000000002DE9F041044601F0E0
:1009B00027FE1CB3054694F83500022822D140F2E8
:1009C0000F462768C4F2020640F26F48B7426FF044
:1009D0000E00C4F202081DDC6F21C4F202018F4236
:1009E0002ADC3F21C4F202018F4241DC1021C4F213
:1009F00002018F4263D028215CE000BF0120BDE8E6
:100A0000F08100BF802060650120002184F834104F
:100A1000BDE8F08147451BDC40F23F41C4F20201D2
:100A20008F422DDC40F21041C4F202018F4246D0C9
:100A300040F228413EE000BF9F21C4F202018F42F4
:100A400028DC7021C4F202018F4238D0882131E0C5
:100A500040F29F41C4F202018F4223DC40F2704118
:100A6000C4F202018F422AD040F2884122E000BF46
:100A70004021C4F202018F4221D058211AE000BF68
:100A800040F24041C4F202018F4218D040F2584176
:100A900010E000BFA021C4F202018F420FD0B821A4
:100AA00008E000BF40F2B841C4F202018F4206D014
:100AB00040F2A041C4F202018F42394607D13946C3
:100AC000386820F01E0041F8140B6FF080000A68AF
:100AD000474500EA020008601ADC9F20C4F20200C9
:100AE000874233DC5720C4F2020087425ADC1020D0
:100AF000C4F20200874200F097802820C4F202006E
:100B0000874200F091804020C4F202008AE000BFDA
:100B100045F22F40C5F6020087422DDC40F2B74077
:100B2000C4F2020087424BDC40F27040C4F2020083
:100B3000874279D040F28840C4F20200874273D0E5
:100B400040F2A040C4F202006CE000BF40F2274037
:100B5000C4F20200874243DCA020C4F202008742B4
:100B600062D0B820C4F2020087425DD040F210404B
:100B7000C4F2020056E000BF45F26B40C5F6020029
:100B800087423FDC45F23040C5F6020087424BD039
:100B900045F24440C5F60200874245D045F2584030
:100BA0003EE000BF5820C4F2020087423CD07020D3
:100BB000C4F20200874237D08820C4F2020031E03C
:100BC00040F2B840C4F2020087422DD045F20840FE
:100BD000C5F60200874227D045F21C4020E000BF46
:100BE00040F22840C4F2020087421DD040F240404B
:100BF000C4F20200874217D040F25840C4F202000B
:100C000010E000BF45F26C40C5F6020087420BD0F1
:100C100045F29440C5F60200874205D045F2804077
:100C2000C5F60200874204D1206E016821F480716C
:100C30000160386820F00100386000BF3868C007E4
:100C400010D001F0DDFC401B0628F7D320206065A2
:100C5000032084F835000120002184F83410BDE819
:100C6000F08100BF2068B04210DC6F21C4F20201A5
:100C700088421DDC3F21C4F20201884234DC10218D
:100C8000C4F20201884255D028214FE040451BDCC8
:100C900040F23F41C4F2020188422DDC40F2104193
:100CA000C4F20201884245D040F228413EE000BF34
:100CB0009F21C4F20201884228DC7021C4F20201A3
:100CC000884237D0882131E040F29F41C4F20201CE
:100CD000884223DC40F27041C4F20201884229D0EC
:100CE00040F2884122E000BF4021C4F20201884264
:100CF00020D058211AE000BF40F24041C4F2020166
:100D0000884217D040F2584110E000BFA021C4F241
:100D1000020188420ED0B82108E000BF40F2B8417D
:100D2000C4F20201884205D040F2A041C4F202019F
:100D300088425BD1D4E9161202F01F023F2303FA66
:100D400002F28A6040455BDC9F21C4F202018842C6
:100D500014DC5721C4F20201884227DC1021C4F2BE
:100D60000201884200F0A2802821C4F202018842D8
:100D700000F09C804021C4F2020195E040F227413E
:100D8000C4F2020188421FDCA021C4F202018842A1
:100D900000F08C80B821C4F20201884200F0868005
:100DA00040F21041C4F202017EE000BF5821C4F2BB
:100DB000020188427AD07021C4F20201884275D0C3
:100DC0008821C4F202016FE040F22841C4F202011E
:100DD00088426BD040F24041C4F20201884265D0A3
:100DE00040F25841C4F202015EE000BFD4E916129D
:100DF00002F01F02012303FA02F24A604045A3DD1C
:100E000045F22F41C5F60201884217DC40F2B74196
:100E1000C4F20201884227DC40F27041C4F20201B0
:100E2000884243D040F28841C4F2020188423DD05A
:100E300040F2A041C4F2020136E000BF45F26B412E
:100E4000C5F6020188421FDC45F23041C5F60201B9
:100E500088422BD045F24441C5F60201884225D094
:100E600045F258411EE000BF40F2B841C4F2020111
:100E700088421BD045F20841C5F60201884215D0D0
:100E800045F21C410EE000BF45F26C41C5F602017F
:100E900088420BD045F29441C5F60201884205D044
:100EA00045F28041C5F6020188420BD1616EA26E07
:100EB000E06E4A6030B1016821F480710160D4E9CC
:100EC0001C014160012084F835000020002184F8D5
:100ED0003410BDE8F081000080B5D8B190F835102D
:100EE000022919D140F20F420168C4F20202914274
:100EF00016DC6F23C4F20203994227DC3F23C4F2BD
:100F0000020399423EDC1023C4F2020399425FD0EF
:100F1000282359E0012080BD80214165012080BD4A
:100F200040F26F43C4F2020399421BDC40F23F439C
:100F3000C4F2020399422DDC40F21043C4F20203D2
:100F4000994245D040F228433EE000BF9F23C4F2BF
:100F50000203994228DC7023C4F20203994237D07D
:100F6000882331E040F29F43C4F20203994223DC1C
:100F700040F27043C4F20203994229D040F2884300
:100F800022E000BF4023C4F20203994220D058233C
:100F90001AE000BF40F24043C4F20203994217D066
:100FA00040F2584310E000BFA023C4F2020399426C
:100FB0000ED0B82308E000BF40F2B843C4F20203E9
:100FC000994205D040F2A043C4F20203994275D180
:100FD00091424FF0040280F8352011DC6F20C4F2FA
:100FE0000200814222DC3F20C4F20200814239DC4F
:100FF0001020C4F20200814259D0282054E000BFE2
:1010000040F26F40C4F2020081421BDC40F23F40DC
:10101000C4F2020081422DDC40F21040C4F2020012
:10102000814244D040F228403EE000BF9F20C4F2FD
:101030000200814228DC7020C4F20200814236D0D6
:10104000882031E040F29F40C4F20200814223DC5C
:1010500040F27040C4F20200814228D040F2884041
:1010600022E000BF4020C4F2020081421FD058207D
:101070001AE000BF40F24040C4F20200814216D0A4
:1010800040F2584010E000BFA020C4F202008142AC
:101090000DD0B82008E000BF40F2B840C4F2020012
:1010A000814204D040F2A040C4F2020081420868AC
:1010B00020F001000860002080BD00BF0A6822F017
:1010C0000E020A6045F25742C5F6020291420A68D2
:1010D00022F001020A600FDC45F22F42C5F602023F
:1010E000914219DC45F20842C5F60202914229D02C
:1010F00045F21C4222E000BF45F27F42C5F60202E3
:10110000914213DC45F25842C5F60202914219D0D1
:1011100045F26C4212E000BF45F23042C5F60202D1
:1011200091420FD045F2444208E000BF45F294429C
:10113000C5F60202914205D045F28042C5F6020290
:1011400091421AD1D0E9181CD0E916E30A6822F4BA
:1011500080720A6003F01F01012202FA01F1CEF849
:101160000410816ECCF80410C16E31B10A6822F40B
:1011700080720A60D0E91C124A60012180F83510A3
:10118000026D002180F834100AB190470021084612
:1011900080BD000000000000406D704700000000AE
:1011A0002DE9F04782B00021019140F20801044688
:1011B000C2F2004148F2B512C1F64E32A56D09687F
:1011C00040F26F490068C4F20209A1FB02184845C9
:1011D0002E68296816DC9F21C4F2020188422DDCAA
:1011E0005721C4F20201884252DC1021C4F20201EC
:1011F00088427CD02821C4F20201884277D0402165
:1012000070E000BF45F22F42C5F60202904229DC91
:1012100040F2B742C4F20202904245DC40F2704113
:10122000C4F20201884262D040F28841C4F2020155
:1012300088425CD040F2A04154E000BF40F2274118
:10124000C4F2020188423FDCA021C4F202018842BC
:101250004DD0B821C4F20201884248D040F210417A
:1012600040E000BF45F26B42C5F60202904275DCD9
:1012700045F23042C5F60202904200F0828045F20B
:101280004442C5F6020290427BD045F2584273E0D8
:101290005821C4F20201884229D07021C4F202010F
:1012A000884224D088211DE040F2B842C4F20202F4
:1012B00090421CD045F20842C5F60202904260D02E
:1012C00045F21C4258E000BF40F22841C4F202013E
:1012D00088420CD040F24041C4F20201884206D05C
:1012E00040F25841C4F20201884240F05A83E16D55
:1012F000082201F01F0140F20F4A8A40C4F2020A9C
:10130000324200F0E68050454FF0040312DC6F27B4
:10131000C4F20207B8426FDC3F27C4F20207B842AA
:1013200000F3A4801027C4F20207B84200F0C58081
:101330002827BDE048456BDC40F23F47C4F2020776
:10134000B84200F39B8040F21047C4F20207B84253
:1013500000F0B38040F22847AAE000BF45F26C429B
:10136000C5F6020290420CD045F28042C5F6020258
:10137000904206D045F29442C5F60202904240F0F7
:1013800010830268E36D03F01F0304279F400F42A0
:1013900018BF12F0040621D102279F400F4218BF48
:1013A00012F002064CD1D940090740F1FA8212F03E
:1013B000080100F0F682016821F00E0101600120B1
:1013C00000FA03F16960606584F835000020E16C83
:1013D00084F83400002940F0DC82E2E211046F60FE
:1013E00026D4910603D4016821F004010160216C28
:1013F000002940F0CE82D4E29F27C4F20207B8420F
:1014000046DC7027C4F20207B84256D088274FE066
:1014100040F29F47C4F20207B84241DC40F27047F5
:10142000C4F20207B84248D040F2884740E000BF0B
:10143000D00300F1B382A16C002940F0AA82B0E28F
:1014400011046F6000F1B082910609D4016821F0A7
:101450000A010160012084F83500002084F834007E
:10146000E16B002940F095829BE200BF4027C4F267
:101470000207B84221D058271AE000BF40F2404787
:10148000C4F20207B84218D040F2584710E000BF3B
:10149000A027C4F20207B8420FD0B82708E000BF67
:1014A00040F2A047C4F20207B84206D040F2B84763
:1014B000C4F20207B84218BF082307681F4208D0C9
:1014C000036823F004030360AA60626D42F0010226
:1014D000626501228A4032426FD0504510DC6F2392
:1014E000C4F2020398421DDC3F23C4F20203984277
:1014F00034DC1023C4F20203984256D028234FE074
:1015000048451BDC40F23F43C4F2020398422DDC05
:1015100040F21043C4F20203984246D040F22843FE
:101520003EE000BF9F23C4F20203984228DC7023F0
:10153000C4F20203984238D0882331E040F29F433E
:10154000C4F20203984223DC40F27043C4F2020367
:1015500098422AD040F2884322E000BF4023C4F2E0
:101560000203984221D058231AE000BF40F24043C2
:10157000C4F20203984218D040F2584310E000BF72
:10158000A023C4F2020398420FD0B82308E000BFA2
:1015900040F2A043C4F20203984206D040F2B8439E
:1015A000C4F20203984240F0058243691B0604D549
:1015B000AA60626D42F00202626504228A403242F1
:1015C0006FD0504510DC6F23C4F2020398421DDC3B
:1015D0003F23C4F20203984234DC1023C4F2020316
:1015E000984256D028234FE048451BDC40F23F4349
:1015F000C4F2020398422DDC40F21043C4F202030D
:10160000984246D040F228433EE000BF9F23C4F2F8
:101610000203984228DC7023C4F20203984238D0B7
:10162000882331E040F29F43C4F20203984223DC56
:1016300040F27043C4F2020398422AD040F2884339
:1016400022E000BF4023C4F20203984221D0582375
:101650001AE000BF40F24043C4F20203984218D09F
:1016600040F2584310E000BFA023C4F202039842A6
:101670000FD0B82308E000BF40F2A043C4F2020339
:10168000984206D040F2B843C4F20203984240F0B8
:10169000998103689B0704D5AA60626D42F0040239
:1016A0006265102202FA01F1314200F0818050455A
:1016B0004FF0080210DC6F23C4F2020398421DDCD5
:1016C0003F23C4F20203984234DC1023C4F2020325
:1016D000984256D028234FE048451BDC40F23F4358
:1016E000C4F2020398422DDC40F21043C4F202031C
:1016F000984246D040F228433EE000BF9F23C4F208
:101700000203984228DC7023C4F20203984238D0C6
:10171000882331E040F29F43C4F20203984223DC65
:1017200040F27043C4F2020398422AD040F2884348
:1017300022E000BF4023C4F20203984221D0582384
:101740001AE000BF40F24043C4F20203984218D0AE
:1017500040F2584310E000BFA023C4F202039842B5
:101760000FD0B82308E000BF40F2A043C4F2020348
:10177000984206D040F2B843C4F20203984218BF20
:1017800004220368134213D0A96001684903016869
:1017900008D4C90508D4016821F008010160216C52
:1017A00021B905E008034FD4216C09B120468847D0
:1017B000E06D00F01F01202000FA01F2324200F03B
:1017C000AB8020681023504510DC6F27C4F202075D
:1017D000B8421DDC3F27C4F20207B84238DC1027AC
:1017E000C4F20207B8425AD0282753E048451BDC10
:1017F00040F23F47C4F20207B84231DC40F21047E2
:10180000C4F20207B8424AD040F2284742E000BF83
:101810009F27C4F20207B8422CDC7027C4F20207EB
:10182000B8423CD0882735E040F29F47C4F2020717
:10183000B84227DC40F27047C4F20207B8422ED00B
:1018400040F2884726E000BFA16C0029AED1AFE787
:101850004027C4F20207B84221D058271AE000BF3F
:1018600040F24047C4F20207B84218D040F258474D
:1018700010E000BFA027C4F20207B8420FD0B8277B
:1018800008E000BF40F2A047C4F20207B84206D009
:1018900040F2B847C4F20207B84218BF02230768F3
:1018A0001F4239D0AA6094F83520042A02681BD15F
:1018B00022F016020260426922F080024261226C2C
:1018C0000AB9A26C1AB1026822F0080202603F2035
:1018D0008840A860012084F83500216D002000298F
:1018E00084F8340055D15CE0510301680CD4C9057B
:1018F0000ED4016821F010010160012084F8350048
:10190000002084F8340003E0080301D4616C00E097
:10191000E16B09B120468847606D002841D0606DB9
:10192000C00734D0042084F8350020684FEA98219D
:10193000026822F001020260019A013201928A4299
:101940001AD80268D20717D0019A013201928A424E
:1019500012D80268D2070FD0019A013201928A424E
:101960000AD80268D20707D0019A013201928A424E
:1019700002D80268D207DFD10068C0074FF0030029
:1019800008BF012084F83500002084F83400E16CA1
:1019900039B1204602B0BDE8F0470847216C002964
:1019A000F7D102B0BDE8F087D0030DD4616C0029F7
:1019B000EFD1F6E7026804228A4032427FF401AE9A
:1019C0006FE600BF02686CE6E16B0029E1D1E8E751
:1019D000F0B581B0044600F013FE002C00F0178132
:1019E00040F26F4705462068C4F20207B84217DC90
:1019F0009F21C4F2020188422EDC5721C4F2020169
:101A0000884255DC1021C4F20201884200F07F8038
:101A10002821C4F20201884279D0402172E000BF3F
:101A200045F22F41C5F60201884229DC40F2B74158
:101A3000C4F20201884247DC40F27041C4F2020164
:101A4000884264D040F28841C4F2020188425ED0EC
:101A500040F2A04156E000BF40F22741C4F202012B
:101A6000884241DCA021C4F2020188424FD0B82153
:101A7000C4F2020188424AD040F2104142E000BF65
:101A800045F26B41C5F60201884200F3C38045F27E
:101A90003041C5F60201884200F0CF8045F2444152
:101AA000C5F60201884200F0C88045F25841BFE007
:101AB0005821C4F20201884229D07021C4F20201E7
:101AC000884224D088211DE040F2B841C4F20201CE
:101AD00088421CD045F20841C5F60201884200F058
:101AE000AC8045F21C41A3E040F22841C4F202015F
:101AF00088420CD040F24041C4F20201884206D034
:101B000040F25841C4F20201884240F07182022141
:101B100084F83510002184F83410016821F00101A7
:101B200001600168C90709D000F06AFD401B052863
:101B300000F2688020680168C907F5D148F23F02C9
:101B400004F108060168CFF6106211406CCE114313
:101B5000A2691943E3692943256A0E43616A164362
:101B6000042943EA060343EA050303D1D4E90B65DC
:101B700033432B4341F20006C5F600463668B6F102
:101B8000005F1DD36668A6F12905292D18D8DFE866
:101B900005F015151515151517171717171717171A
:101BA00017171717171717171515151517171717CD
:101BB00015151717171717171515151543F4801353
:101BC00003600429436923F0070341EA030140F05D
:101BD000F180D4E90A53002B41EA050100F0EA80C4
:101BE000B2F5005F00F0CC80002A40F0D580022DD5
:101BF00000F0D580012D00F0C980002D00F0CF80CD
:101C0000D8E000BF20206065032084F83500012063
:101C100001B0F0BD45F26C41C5F6020188420CD01E
:101C200045F28041C5F60201884206D045F2944152
:101C3000C5F60201884240F0DB81022184F83510AC
:101C4000002184F834100168A268A2F18003E668DC
:101C5000B3FA83F3402A4FEA53134FEA83336FF307
:101C6000101108BF1023226941EAD60166691943A1
:101C7000A36941EAD201E26941EAD60141EAD3010E
:101C80004CF6CD4341EAD2014AF6F832CAF2FD726F
:101C9000266A0244CCF6CC43A2FB032341EA161188
:101CA00001606FF0030000EA9300E0652046FEF754
:101CB00053FCE16D012201F01F0102FA01F14160C4
:101CC0002068B84240F3858045F22F41C5F60201F5
:101CD000884217DC40F2B741C4F20201884229DC95
:101CE00040F27041C4F20201884200F0BC8040F230
:101CF0008841C4F20201884200F0B58040F2A04160
:101D0000ACE000BF45F26B41C5F60201884223DC1E
:101D100045F23041C5F60201884200F0A48045F248
:101D20004441C5F60201884200F09D8045F25841C9
:101D300022E000BF40F2B841C4F20201884200F044
:101D4000928045F20841C5F60201884200F08B807E
:101D500045F21C4110E000BF45F26C41C5F602019E
:101D6000884200F0808045F29441C5F60201884225
:101D700000F0798045F28041C5F6020170E000BFB5
:101D8000032D17D8DFE805F00E0B0E02A3F1C07289
:101D9000B2FA82F2520904E0032D03D30AD1C3F34D
:101DA00000623AB140206065012084F8350001B03E
:101DB000F0BD00BF41612046FEF7CEFBE16D3F2242
:101DC00001F01F0102FA01F181602068B8423FF77B
:101DD0007BAF9F21C4F20201884211DC5721C4F27B
:101DE0000201884220DC1021C4F2020188423AD06C
:101DF0002821C4F20201884235D040212EE000BFE4
:101E000040F22741C4F20201884219DCA021C4F249
:101E10000201884227D0B821C4F20201884222D0B0
:101E200040F210411AE000BF5821C4F2020188427A
:101E300019D07021C4F20201884214D088210DE02B
:101E400040F22841C4F2020188420CD040F24041E5
:101E5000C4F20201884206D040F25841C4F20201A5
:101E6000884240F0E98045F2574C45F6FC01C5F642
:101E7000020CC5F60201604512DC45F22F42C5F6A0
:101E80000202904220DC45F20842C5F6020290426E
:101E900034D045F21C42C5F6020290422ED075E0C5
:101EA00045F27F42C5F6020290421BDC45F25842E1
:101EB000C5F60202904221D045F26C42C5F60202FC
:101EC00090421BD062E000BF45F23042C5F60202EC
:101ED000904213D045F24442C5F6020290420DD022
:101EE00054E000BF45F29442C5F60202904205D08C
:101EF00045F28042C5F60202904247D16FF00702D8
:101F00004CF6CD4352FA80F2CCF6CC43A2FB03232D
:101F1000A1F1FC05A1F17C061B0905EB830503F08B
:101F20001F02A3682566802B4FF0010303FA02F21B
:101F30006666A26604D100206060286072601DE0C1
:101F40006768FBB2013F072F2B60726016D85E1ED8
:101F5000082E19D2604501F1440239DC45F22F47C1
:101F6000C5F60207B84245DC45F20847C5F6020748
:101F7000B84255D045F21C474EE000BF00206067D4
:101F8000C4E91B0058E000BFE06E50E06FF00F02A4
:101F90004AF6AB2352FA80F2CAF6AA23A2FB032721
:101FA00040F20F43C4F2020308253A09984203F1B4
:101FB000AA06134688BF05EB171340F60005B0428A
:101FC000C4F2020505F1800628BF1346A5E700BF4D
:101FD00045F27F47C5F60207B84215DC45F258477F
:101FE000C5F60207B8421BD045F26C4714E000BFAB
:101FF000402008E645F23047C5F60207B8420FD048
:1020000045F2444708E000BF45F28047C5F60207A5
:10201000B84205D045F29447C5F60207B84213D13D
:1020200001EB83000121E066B14022676167002176
:102030000160D4E91C01416000206065012184F841
:10204000351001B0F0BD00BF40F60000C4F2020040
:1020500000F1FC0100F5A072E2E7000000000000C2
:10206000B0B500283CD0054690F83400012801D1D5
:102070000220B0BD012085F8340095F83500012814
:1020800028D1022085F8350000206865286804689A
:1020900024F0010404602846FEF7F6FA40F20F42ED
:1020A0002868C4F2020240F26F419042C4F2020179
:1020B00018DC6F23C4F20203984225DC3F23C4F2EC
:1020C000020398423CDC1023C4F2020398425ED023
:1020D000282357E04FF400606865002085F834003D
:1020E0000120B0BD88421BDC40F23F43C4F2020332
:1020F00098422DDC40F21043C4F20203984246D0CD
:1021000040F228433EE000BF9F23C4F202039842FE
:1021100028DC7023C4F20203984238D0882331E0CF
:1021200040F29F43C4F20203984223DC40F2704322
:10213000C4F2020398422AD040F2884322E000BF52
:102140004023C4F20203984221D058231AE000BF72
:1021500040F24043C4F20203984218D040F2584380
:1021600010E000BFA023C4F2020398420FD0B823AE
:1021700008E000BF40F2B843C4F20203984206D020
:1021800040F2A043C4F20203984240F02F8103685A
:102190000B2464F3440303602B6C1BB10823046815
:1021A00023430360884219DC9F23C4F20203984250
:1021B00032DC5723C4F20203984259DC1023C4F2E4
:1021C0000203984200F096802823C4F2020398424A
:1021D00000F090804023C4F2020389E045F22F43CF
:1021E000C5F6020398422DDC40F2B743C4F2020365
:1021F00098424BDC40F27043C4F20203984279D01B
:1022000040F28843C4F20203984273D040F2A043E4
:10221000C4F202036CE000BF40F22743C4F20203A1
:10222000984243DCA023C4F20203984262D0B82350
:10223000C4F2020398425DD040F21043C4F202039C
:1022400056E000BF45F26B43C5F6020398423FDCFF
:1022500045F23043C5F6020398424BD045F2444361
:10226000C5F60203984245D045F258433EE000BF10
:102270005823C4F2020398423CD07023C4F20203F4
:10228000984237D08823C4F2020331E040F2B843C9
:10229000C4F2020398422DD045F20843C5F602036A
:1022A000984227D045F21C4320E000BF40F228436B
:1022B000C4F2020398421DD040F24043C4F202032C
:1022C000984217D040F25843C4F2020310E000BF16
:1022D00045F26C43C5F6020398420BD045F2944395
:1022E000C5F60203984205D045F28043C5F60203C5
:1022F000984274D12B6E1C68E40303D51C6844F427
:1023000080741C60EB6E1BB11D6845F480751D6008
:10231000904211DC6F21C4F2020188421EDC3F2191
:10232000C4F20201884235DC1021C4F20201884265
:1023300055D0282150E000BF88421BDC40F23F41CD
:10234000C4F2020188422DDC40F21041C4F20201C5
:10235000884244D040F228413EE000BF9F21C4F2B1
:102360000201884228DC7021C4F20201884236D082
:10237000882131E040F29F41C4F20201884223DC0F
:1023800040F27041C4F20201884228D040F28841F4
:1023900022E000BF4021C4F2020188421FD0582130
:1023A0001AE000BF40F24041C4F20201884216D058
:1023B00040F2584110E000BFA021C4F2020188425F
:1023C0000DD0B82108E000BF40F2B841C4F20201CC
:1023D000884204D040F2A041C4F202018842016860
:1023E00041F0010101600020B0BD00BF0368052479
:1023F00064F3430303602B6C002B3FF4D3AE042340
:10240000CDE60000000000002DE9F04F85B08E46BB
:1024100042F20042C5F602020A2102909042DEF822
:10242000005008BF0921002D009100F0DD800298C6
:10243000002400F12642009802F1FF7201274FEAC2
:10244000B2230026092B4FF0000838BF1846CDF8FC
:102450000CE000900EE000BFDEF8005008F101082B
:1024600035FA07F006F1020607F1010704F104044A
:1024700000F0BA80A7F1010A012000FA0AF315EA78
:102480000309E9D0DEF804B00BF003056A1E012A47
:1024900022D802984FEA4801D0F808C001910321E0
:1024A00001FA06F203992CEA020CD1F80CE00EFABC
:1024B00006F1DDF80CE041EA0C01816041686FEA49
:1024C000020CCBF3001299430346019802FA0AF278
:1024D000114359600CE000BF0320032D00FA06F001
:1024E000029B6FEA000C304602D13046032526E0FD
:1024F000D968DEF8082001EA0C018240022D41EA89
:102500000201D9601BD102466FF0030000EA5A01B4
:102510000F20194404F01C0300FA03F51046D1F80B
:1025200020E0039A2EEA0505DDF80CE012699A40D6
:10253000029B2A430A62DEF804B00BF00305196817
:1025400005FA00F001EA0C011BF4403F40EA0100EB
:1025500018603FF481AF44F2F44140F20845C5F6FB
:102560000201C5F600050F23086840F0020008606C
:10257000086800F0020004902AF00300049904F0B7
:102580000C0142598B409A43009B03FA01F111431D
:1025900041514FF0B0452868DEF8041040EA0902C6
:1025A000CB0258BF20EA09028B022A6040F20405E0
:1025B000C5F60005286840EA090258BF20EA09026A
:1025C0008B032A60D5F8800040EA090258BF20EA50
:1025D0000902C903C5F88020E86F40EA090258BF24
:1025E00020EA0902EA6737E705B0BDE8F08F00008E
:1025F00041F20000C5F600400068000C7047000082
:1026000040F20820C2F2004000687047000000005D
:1026100040F2000040F20821C2F20040C2F2004144
:1026200000780A681044086070470000000000004D
:1026300080B5032000F0A8F801F07EF944F21841BB
:1026400047F22423C5F60201C0F600030A680968B0
:1026500001F00F01C2F30322595C9A5C01F01F01E3
:1026600002F01F02D04040F20C02C2F2004220FAF7
:1026700001F1116040F20801C2F2004108600F2030
:1026800000F00AF800281CBF012080BD00F02CF8E3
:10269000002080BD0000000070B540F20006C2F2CC
:1026A00000463178E1B1044640F20800C2F2004031
:1026B0004FF47A72B2FBF1F10068B0FBF1F001F077
:1026C00077FC0F2C4FF0010508D838B94FF0FF30D8
:1026D00000222146002500F027F87460284670BDCE
:1026E000012070BD0000000081B044F2F440C5F646
:1026F0000200016841F002010160006800F0020080
:102700000090009801B07047002848BF704700F063
:102710001F01012202FA01F14EF200124009CEF22D
:10272000000242F820107047B0B54EF60C5C00F085
:102730000F05CEF2000C043D6544DCF800304FF08C
:10274000FF3CC3F3022E8EF00703042B28BF0423A3
:10275000BEF1030438BF00240CFA03F3B0F1FF3FCD
:1027600021EA030105F10C0300F160450CFA04F0C5
:10277000C8BF05F56443A14022EA000008430001F8
:102780001870B0BD000000004EF60C514FF6FF036C
:10279000CEF200010A681A4060F30A2242F080601B
:1027A00040F0FD7008607047B0B544F60C05C5F602
:1027B000020529684907296806D401F00701081AAB
:1027C00018BF0120B0BD00BF21F0070108432860F9
:1027D000FFF716FF044600BF55F8080C800407D425
:1027E000FFF70EFF001BB0F57A7FF5D90120B0BDD1
:1027F0000020B0BD0000000080B501F015F844F2E3
:10280000204147F22422C5F60201C0F60002096801
:10281000C1F30211515C01F01F01C84080BD0000EE
:1028200080B544F2384EC5F6020E5EF8103C5EF8F4
:10283000101CC1F3053C5EF80C1CBCF1000FDEF867
:10284000042015D0C1F30011C2F3CC02514300EEB5
:10285000101A03F003010229B8EE400A0ED089B91C
:102860005EF8381C890611D49FED361A1CE000BFB3
:1028700000218160C0E9001180BD00BF9FED301ACA
:1028800012E000BF9FED2D1A0EE000BF5EF8381C6D
:1028900049F20002C0F2D032C1F3C10122FA01F1C3
:1028A00001EE101AB8EE411ADEF800109FED263A3C
:1028B0006FF35F2102EE101ADEF80010C1F346211B
:1028C000B8EE422A00EE032A00EE10CAB7EE003A34
:1028D000B8EE400A81EE000A32EE031A02EE101A38
:1028E000B8EE422A20EE010A32EE031A80EE011AF7
:1028F000BCEEC11A80ED001ADEF80010C1F30641EB
:1029000001EE101AB8EE411A31EE031A80EE011AE8
:10291000BCEEC11A80ED011ADEF80010C1F30661A9
:1029200001EE101AB8EE411A31EE031A80EE010AD8
:10293000BCEEC00A10EE101A816080BD0024744AFB
:1029400020BCBE4B0024744C000000390000000085
:1029500080B544F2404EC5F6020E5EF8183C5EF8B3
:10296000181CC1F3055C5EF8141CBCF1000FDEF806
:10297000042015D0C1F30021C2F3CC02514300EE74
:10298000101A03F003010229B8EE400A0ED089B9EB
:102990005EF8401C890611D49FED361A1CE000BF7A
:1029A00000218160C0E9001180BD00BF9FED301A99
:1029B00012E000BF9FED2D1A0EE000BF5EF8401C34
:1029C00049F20002C0F2D032C1F3C10122FA01F192
:1029D00001EE101AB8EE411ADEF800109FED263A0B
:1029E0006FF35F2102EE101ADEF80010C1F34621EA
:1029F000B8EE422A00EE032A00EE10CAB7EE003A03
:102A0000B8EE400A81EE000A32EE031A02EE101A06
:102A1000B8EE422A20EE010A32EE031A80EE011AC5
:102A2000BCEEC11A80ED001ADEF80010C1F30641B9
:102A300001EE101AB8EE411A31EE031A80EE011AB7
:102A4000BCEEC11A80ED011ADEF80010C1F3066178
:102A500001EE101AB8EE411A31EE031A80EE010AA7
:102A6000BCEEC00A10EE101A816080BD0024744ACA
:102A700020BCBE4B0024744C000000390000000054
:102A80002DE9F0470446C07844F22C480007C5F60B
:102A9000020833D5A06E4FEA305103290CD8DFE885
:102AA00001F003111D2600BFD8F8001041F40031D9
:102AB000C8F800101BE000BF01266078C0070BD0EB
:102AC00020E000BF04F10800022102F0D5FB064619
:102AD00060B16078C00715D1354646E004F12800A2
:102AE000022102F05DFC06460028F2D1A06ED8F863
:102AF000241021F440110843C8F82400002660780F
:102B0000C007E9D0A06D04280ED83546DFE800F0F4
:102B10000412181E1E0000BFD8F80000354640F40D
:102B20000030C8F8000011E0012501276078800717
:102B30001FD452E004F10800002102F09DFB04E0E4
:102B400004F12800002102F02BFC05462F461DB1A0
:102B5000607880070DD440E0D8F82400A16D20F003
:102B6000070000250843C8F824003746607880072E
:102B700033D5E06D4FEAB01004280DD8DFE800F03F
:102B80000412181E1E0000BFD8F8000040F40030E8
:102B9000C8F8000012E000BF012501266078400758
:102BA0001FD455E004F10800002102F065FB04E0A9
:102BB00004F12800002102F0F3FB05462E461DB16A
:102BC000607840070DD443E0D8F82400E16D20F48C
:102BD000E07000250843C8F824003E4660784007AE
:102BE00036D5D4F8A8004FEA705004280CD8DFE896
:102BF00000F00313191F1F00D8F8000040F4003044
:102C0000C8F8000014E000BF01254FF0010960780A
:102C1000000721D456E000BF04F10800002102F0B3
:102C20002BFB04E004F12800002102F0B9FB05466B
:102C3000A9461DB1607800070ED443E0D8F82C00F7
:102C4000D4F8A81020F4600000250843C8F82C0030
:102C5000B1466078000735D5D4F8AC004FEA306053
:102C600004280DD8DFE800F00412181E1E0000BF73
:102C7000D8F8000040F40030C8F8000012E000BFAF
:102C800001250127E078800720D44EE004F10800F8
:102C9000002102F0F1FA04E004F12800002102F022
:102CA0007FFB05462F461DB1E07880070ED43CE03F
:102CB000D8F82C00D4F8AC1020F0E06000250843D0
:102CC000C8F82C004F46E07880072ED5E06C4FEA1C
:102CD000301003280ED8DFE800F00903130900BF05
:102CE000D8F8000040F40030C8F800002E467DB946
:102CF00012E000BF012501266078C00619D44CE01F
:102D000004F10800022102F0B7FA05462E461DB173
:102D10006078C0060DD440E0D8F82000E16C20F0C7
:102D2000300000250843C8F820003E466078C00601
:102D300033D5206E4FEA303004280DD8DFE800F09C
:102D40000412181E1E0000BFD8F8000040F4003026
:102D5000C8F8000012E000BF012501276078800656
:102D60001FD44EE004F10800002102F085FA04E0CF
:102D700004F12800002102F013FB05462F461DB187
:102D8000607880060DD43CE0D8F82400216E20F451
:102D9000E04000250843C8F82400374660788006E4
:102DA0002FD5606E4FEA3040052809D8DFE800F0E3
:102DB000040E1404040400BF2E46ADB918E000BF91
:102DC00001250126607840061FD44FE004F1080079
:102DD000012102F051FA04E004F12800012102F07F
:102DE000DFFA05462E461DB1607840060DD43DE061
:102DF000D8F82400616E20F4E02000250843C8F8CC
:102E000024003E466078400630D5D4F8B0004FEA42
:102E10003070052808D8DFE800F0030D1303030322
:102E20002F46ADB918E000BF0125012760780006E4
:102E300020D442E004F10800012102F01DFA04E070
:102E400004F12800012102F0ABFA05462F461DB11E
:102E5000607800060ED430E0D8F82C00D4F8B0101A
:102E600020F0E04000250843C8F82C003746607881
:102E7000000622D5206F58B1B0F1005F0CD0B0F140
:102E8000805F2FD1D8F8000040F40030C8F800006F
:102E90002E469DB908E000BF04F10800012102F0B0
:102EA000EBF905462E464DB9D8F82400216F20F0E5
:102EB000405000250843C8F824003E46E078C0078B
:102EC00033D0A06C032813D8DFE800F008021A08FA
:102ED000D8F8000040F40030C8F80000A946BDB999
:102EE0001AE000BF01250126E078C007E9D11CE007
:102EF00001254FF00109A07840061AD51CE000BF5B
:102F000004F10800022102F0B7F90546A9461DB1F7
:102F1000A07840060DD50FE0D8F82000A16C20F075
:102F2000030000250843C8F82000B146A0784006F9
:102F300002D44F4618E000BFD8F8D40340F48070A4
:102F4000C8F8D403FFF75CFB064600BFD8F8D403EB
:102F5000C00507D4FFF754FB801B6428F6D903256E
:102F6000032701E02F468DB12078C00761D0E06FC4
:102F70004FEAF00005283BD8DFE800F004404604A3
:102F8000040400BF002D2E4646D149E0D8F8441075
:102F9000D4F8B400414011F4407F11D0D8F8441067
:102FA000D8F8442042F48032C8F84420D8F84420AD
:102FB00021F4407122F48032C8F84420C8F844104B
:102FC000B0F5807F40F0DE82FFF71AFB064641F243
:102FD000883A0325032700BFD8F84400800700F192
:102FE000CF82FFF70DFB801B5045F5D9BCE700BF32
:102FF00001260125207880071FD44CE004F1080049
:10300000012102F039F904E004F12800012102F065
:10301000C7F905462E461DB1207880070DD43AE049
:10302000D8F82800E16F20F0380000250843C8F8E0
:1030300028003E46207880072DD5A06F052809D8A6
:10304000DFE800F0040E1404040400BF2F46ADB9FD
:1030500018E000BF01270125207840071FD44DE06C
:1030600004F10800012102F007F904E004F128004E
:10307000012102F095F905462F461DB12078400741
:103080000DD43BE0D8F82800A16F20F00700002500
:103090000843C8F828003746207840072ED5D4F8D2
:1030A0009400052808D8DFE800F0030D130303039C
:1030B0002E46ADB918E000BF012601252078800614
:1030C00020D451E004F10800012102F0D5F804E019
:1030D00004F12800012102F063F905462E461DB1D6
:1030E000207880060ED43FE0D8F82C00D4F8941055
:1030F00020F0070000250843C8F82C003E46207841
:10310000800631D5D4F890004FEA3070052809D8F0
:10311000DFE800F0040E1404040400BF2F46ADB92C
:1031200018E000BF012701252078400620D451E097
:1031300004F10800002102F09FF804E004F12800E7
:10314000022102F02DF905462F461DB120784006D8
:103150000ED43FE0D8F82800D4F8901020F0E040DA
:1031600000250843C8F8280037462078400631D5A6
:10317000D4F89C004FEAB020052809D8DFE800F019
:10318000040E1404040400BF2E46ADB918E000BFBD
:10319000012601252078000620D454E004F108001F
:1031A000002102F069F804E004F12800022102F095
:1031B000F7F805462E461DB1207800060ED442E0F1
:1031C000D8F82C00D4F89C1020F4E05000250843D7
:1031D000C8F82C003E462078000634D5D4F8A0006C
:1031E0004FEA703005280FD8DFE800F004141A0405
:1031F000040400BF2F46E5B12068010727D4C106AB
:103200003ED4000355D475E001270125206801074D
:10321000F5D51CE004F10800002102F02DF804E0CF
:1032200004F12800022102F0BBF80546002D2F46CC
:10323000E2D1D8F82C00D4F8A01020F4604000258A
:103240000843C8F82C00374620680107D7D5D4F8C2
:103250008400B0F5805F09D104F12800022102F05A
:103260009FF8002818BF0127D4F88400D8F8281048
:1032700021F440510843C8F828002068C106C0D591
:10328000D4F89800B0F5807F09D104F1280002211C
:1032900002F086F8002818BF0127D4F89800D8F863
:1032A0002C1021F440710843C8F82C00206800035A
:1032B00020D5D4F8A400B0F5003F0FD0B0F5803F82
:1032C00006D078BB04F10800002101F0D5FF04E02E
:1032D00004F12800022102F063F805462E4655B994
:1032E000D8F82C00D4F8A41020F44030002508436E
:1032F000C8F82C003E46A07840072BD5D4F88800AB
:10330000B0F5401F0BD0B0F5001F11D0B0F5801FF5
:103310002AD1D8F8000040F40030C8F800002F4649
:10332000CDB90DE001260125A0784007E6D411E0D3
:1033300004F12800012102F033F805462F4655B963
:10334000D8F82800D4F8881020F44010002508434D
:10335000C8F828003746A078C0070AD13E46216841
:10336000880016D533E000BF01270125A078C007EB
:10337000F4D0206DB0F5803F10D018BBD8F8000015
:1033800040F40030C8F800002E4685B1216888005E
:103390001DD460688A0326D469E000BF04F10800E8
:1033A000022101F069FF0546002D2E46EED1D8F826
:1033B0002000216D20F4803000250843C8F820004B
:1033C000CCE700BF0126012521688800E1D504F182
:1033D0002800022101F0E4FF002818BF0126D4E9EB
:1033E00000108A0343D5D4F880206FF0010303EB6B
:1033F0003223022B0BD34FEA322343B1012B40F08F
:10340000B980D8F8003043F40033C8F800303DB339
:10341000CA022FD4CA0037D48A0240D44A0048D402
:10342000CA0F55D109025DD4C10766D181076FD497
:10343000410779D4010700F18380C10600F18C8037
:10344000800607D504F12800022101F0A9FF002819
:1034500018BF0125002D18BF01252846BDE8F087BB
:10346000D8F8283023F440731A43C8F8282035468A
:10347000CA02CFD5D8F82420636F22F000421A4345
:10348000C8F82420CA00C7D558F81C2CD4F8B83086
:1034900022F480421A4348F81C2C8A02BED5D8F880
:1034A0002420E36E22F080721A43C8F824204A00D8
:1034B000B6D558F81C2C22F4004248F81C2CD4F83D
:1034C000BC2058F81C3C1A4348F81C2CCA0FA9D041
:1034D000D8F82020636D22F040521A43C8F820200B
:1034E0000902A1D5D8F82810D4F88C2021F4400185
:1034F0001143C8F82810C10798D004F10800002132
:1035000001F0BAFE002818BF0546606881078FD514
:1035100004F10800012101F0AFFE002818BF0546A4
:10352000606841077FF586AF04F10800022101F0D1
:10353000A3FE002818BF0546606801077FF57DAF30
:1035400004F12800002101F02BFF002818BF0546D8
:103550006068C1067FF574AF04F12800012101F015
:103560001FFF002818BF0546606880067FF572AF10
:1035700068E700BF0125CA027FF54CAF7AE700BFBC
:10358000D4F8B4004FF6CF7358F81C2CC0F2FF03E8
:1035900000F4407122F47C5203EA10136FF31F30E1
:1035A000B1F5407F08BF1A43002548F81C2CD8F815
:1035B00044100843C8F84400FFF7BBBC00000000FB
:1035C0002DE9F04381B0002800F02A8142F2000882
:1035D0000446C5F200288946D8F8000000F00F0024
:1035E00088420ED2D8F8000020F00F0040EA09000F
:1035F000C8F80000D8F8000000F00F00484540F07F
:103600000F81206844F218474107C5F602070AD522
:1036100021693A6802F07002914204D93A6822F0B6
:1036200070021143396001070AD561697A6802F0B6
:103630007002914204D97A6822F0700211437960D5
:10364000C1060AD5A1697A6802F4E062914204D900
:103650007A6822F4E0621143796081060AD5E16953
:10366000BA6802F07002914204D9BA6822F070027E
:103670001143B96010F002010AD0E2683B6803F020
:103680000F039A4204D93B6823F00F031A433A60B0
:10369000C20746D0386820F47061D4E901020128DD
:1036A00041EA0201396009D003280DD0022811D166
:1036B00057F8181C890340F1B38010E057F8181C24
:1036C000C90540F1AD800AE057F8181C890140F1A6
:1036D000A78004E057F8181C490740F1A18057F86B
:1036E000081C21F00701084347F8080CFEF788FF83
:1036F000064641F2883500BF57F8080C616800F0B3
:103700003800B0EBC10F09D0FEF77AFF801BA8424A
:10371000F2D9032001B0BDE8F08300BF206800F0BB
:10372000020151B1E1683A6802F00F02914204D2FD
:103730003A6822F00F0211433960D8F8001001F006
:103740000F0149450DD9D8F8001021F00F0141EAC9
:103750000901C8F80010D8F8001001F00F01494520
:103760005ED141070AD521693A6802F070029142A0
:1037700004D23A6822F070021143396001070AD579
:1037800061697A6802F07002914204D27A6822F08C
:10379000700211437960C1060AD5A1697A6802F402
:1037A000E062914204D27A6822F4E06211437960C7
:1037B00080060AD5E069B96801F07001884204D238
:1037C000B96821F070010843B86000F0B5F83968B5
:1037D00047F224233A68C0F60003C1F3032102F044
:1037E0000F02595C9A5C01F01F0120FA01F102F00E
:1037F0001F0040F20C0221FA00F0C2F200421060F9
:1038000040F2040040F20802C2F20040C2F200425C
:103810000068116001B0BDE8F043FEF73DBF00BF96
:10382000012001B0BDE8F08380B500F085F844F2D6
:10383000184147F22423C5F60201C0F600030A68C6
:10384000096801F00F01C2F30322595C9A5C02F08F
:103850001F0220FA02F201F01F0040F20C0122FACE
:1038600000F0C2F20041086040F20801C2F20041DB
:103870000A6080BD0000000080B500F05DF844F2F1
:10388000184C47F22421C5F6020CC0F60001DCF802
:103890000020DCF8003003F00F03C2F30322CB5CFE
:1038A0008A5C02F01F02D04003F01F0240F20C03BA
:1038B00020FA02F2C2F200431A6040F20803C2F298
:1038C00000431860DCF80400C0F30210085C00F04C
:1038D0001F0022FA00F080BD80B500F02DF844F200
:1038E000184C47F22421C5F6020CC0F60001DCF8A2
:1038F0000020DCF8003003F00F03C2F30322CB5C9E
:103900008A5C02F01F02D04003F01F0240F20C0359
:1039100020FA02F2C2F200431A6040F20803C2F237
:1039200000431860DCF80400C0F30220085C00F0DB
:103930001F0022FA00F080BD44F20041C5F60201EA
:103940000869C0F3C200032810D002282CD088BB1D
:103950000868800649F20000C0F2D03058BF7047B6
:103960000968C1F3C101C840704700BF8A6A886A0C
:10397000C0F3051CC86ABCF1000F4B6B20D0C3F329
:10398000CC0300F00100584302F00302022A00EECB
:10399000100AB8EE400A15D0C2B90868800619D4DA
:1039A0009FED281A23E000BF47F64000C0F27D10CB
:1039B000704700BF40F60010C0F23D00704700BFE6
:1039C000002070479FED1E1A11E000BF9FED1B1AEB
:1039D0000DE000BF086849F20002C0F2D032C0F327
:1039E000C10022FA00F001EE100AB8EE411A086B8D
:1039F0009FED153A6FF35F2002EE100A086BC0F3DB
:103A00004620B8EE422A013000EE032A00EE10CA2A
:103A1000B7EE003AB8EE400A81EE000A32EE031A21
:103A200020EE010A01EE100AB8EE411A80EE010AFA
:103A3000BCEEC00A10EE100A704700BF0024744AA2
:103A400020BCBE4B0024744C000000390000000074
:103A5000F0B581B0002800F063810446007844F29C
:103A60000046C007C5F6020622D12078800740F143
:103A7000BC80306910F03801B06A3FD0182908BF07
:103A80005FEA80703AD0E0683168002862D021F0A7
:103A9000190108433060FEF7B3FD05463068400762
:103AA00048D4FEF7ADFD401B0228F7D977E100BFEF
:103AB000306900F03801B06A102905D018290BD1FF
:103AC00000F00300022807D130688003CDD560687C
:103AD0000028CAD124E100BF606800284CD0B0F5AE
:103AE000A02F61D0B0F5803F62D0306820F48030E4
:103AF0003060306820F480205DE000BF306840070F
:103B0000E06802D5002800F00B81316821F019012E
:103B100008433060FEF774FD054600BF306840077B
:103B200008D4FEF76DFD401B02284FF00300F5D9C5
:103B300021E200BFFEF75CFD41F20301884249D853
:103B400020697168402821F47C314BD141F4003068
:103B50004AE000BF21F001003060FEF751FD05464C
:103B60003068400741D5FEF74BFD401B02284FF05F
:103B70000300F5D9FFE100BF306820F480303060E9
:103B8000306820F480203060FEF73AFD054600BF23
:103B9000306880037FF569AFFEF732FD401B642873
:103BA0004FF00300F4D9E6E1306840F48020306043
:103BB000306840F480303060FEF722FD054600BFDB
:103BC000306880033FF551AFFEF71AFD401B6428B3
:103BD000F6D9E4E07068216920F0FE4040EA016017
:103BE00002E000BF41EA003070602078C00654D582
:103BF000306900F03801B06A082905D0182919D1B8
:103C000000F00300012815D13068C00503D5E06934
:103C1000802840F08580FEF7EBFC41F203018842EA
:103C20001ED8206A7168202821F0F84132D141F075
:103C3000804031E0E0690028306819D040F0800011
:103C40003060FEF7DDFC05463068C005E3D4FEF7C2
:103C5000D7FC401B02284FF00300F5D98BE100BFD1
:103C6000F068216A20F07C5040EA0160F06014E0C6
:103C700020F080003060FEF7C3FC05463068C005C8
:103C80000BD5FEF7BDFC401B02284FF00300F5D911
:103C900071E100BF41EA806070602078000743D482
:103CA0002078800654D42078400765D4656A9DB397
:103CB000306900F03800182840F0A880012DB16A62
:103CC000306B2DD001F00302A36A9A4228D1C1F3D0
:103CD0000511E26A914223D10146226B6FF35F2105
:103CE000013A91421CD1C0F34622616B01398A42EC
:103CF00016D1C0F30642A16B01398A4210D1C0F33C
:103D00000660E16B013988420AD1706BA16CC0F387
:103D1000CC00814240F03281002001B0F0BD00BFF4
:103D2000012001B0F0BD00BF60690028706F39D07C
:103D300040F001007067FEF763FC0546706F800776
:103D4000AED4FEF75DFC401B0228F7D927E000BF88
:103D5000A0690028306847D040F480503060FEF7FA
:103D60004FFC0546306880049DD4FEF749FC401B9B
:103D70000228F7D913E000BFD6F8000440F48070A1
:103D8000C6F80004FEF73CFC054600BFD6F8000468
:103D9000C00519D4FEF734FC401B6428F6D9032073
:103DA00001B0F0BD20F001007067FEF729FC054668
:103DB000706F80077FF574AFFEF722FC401B02286E
:103DC0004FF00300F4D9D6E0A068002840D00528C1
:103DD00058D001285AD0306F20F001003067306F82
:103DE00020F0040055E000BF20F480503060FEF762
:103DF00007FC0546306880047FF555AFFEF700FCF0
:103E0000401B02284FF00300F4D9B4E0306820F0E2
:103E100080703060FEF7F4FB022D05460CD100BF28
:103E20003068800148D5FEF7EBFB401B02284FF0BD
:103E30000300F5D99FE000BF306880017FF56CAFCB
:103E4000FEF7DEFB401B02284FF00300F4D992E09E
:103E5000306F20F001003067306F20F004003067D1
:103E6000FEF7CEFB054641F28837306F80077FF5BD
:103E70001DAFFEF7C5FB401BB8424FF00300F4D95D
:103E800079E000BF306F40F004003067306F40F0E1
:103E900001003067FEF7B4FB054641F2883700BFEA
:103EA000306F80073FF502AFFEF7AAFB401BB84218
:103EB0004FF00300F4D95EE004F12807B06A40F245
:103EC000F33188438ECF0843591E40EA02104FF465
:103ED0007E426FF35F21B06202EB47204FF4FE0297
:103EE00080B2E36B0844A16B02EB01414FF0FE424C
:103EF00001F4FE0102EB0362084402F0FE410844B3
:103F00003063F06A4FF6F87120F00100F062706BD8
:103F1000A26C884340EAC2007063F06A216C20F012
:103F20000C000843F062F06A616C20F00200084364
:103F3000F062F06A40F48030F062F06A40F40030E1
:103F4000F062F06A40F48020F062F06A40F0010014
:103F5000F062306840F080703060FEF751FB04463C
:103F6000306880013FF5D8AEFEF74AFB001B0228FF
:103F70004FF00300F4D901B0F0BD00BFF06A20F0AB
:103F80000100F062FEF73CFB0546FEF739FBA84254
:103F9000FBD0706B4FF6F871A26C884340EAC20008
:103FA0007063F06A40F00100F062002001B0F0BDE3
:103FB000411E0020B0EB116F02D00120704700BFFE
:103FC0004EF21002F023CEF2000251604EF6235161
:103FD000CEF200010B700721906011607047000065
:103FE00090F88410012901D1022070472421C0F8E3
:103FF000881002681368116823F0005321F0010152
:1040000011600021416613602022C0F8882080F8EA
:104010008410084670470000704700000000000050
:10402000704700000000000070B590F88420012A5D
:1040300002D1022070BD00BF2422C0F8882002688F
:10404000D0F864E0BEF1000FD2F800C0136823F08E
:1040500001031360936823F0606341EA03019160F8
:104060001AD0916847F24C2E9368C0F6000E5B0F91
:1040700047F25425C1F34266C0F600051EF803401E
:10408000E95C2301B3FBF1F11EF80630AE5D1B01C4
:10409000B3FBF6F302E000BF01210123A0F86A1090
:1040A0002021A0F86830C2F800C0C0F888100021B4
:1040B00080F88410084670BD70B590F88420012AFD
:1040C00002D1022070BD00BF2422C0F888200268FF
:1040D000D0F864E0BEF1000FD2F800C0136823F0FE
:1040E00001031360936823F0604341EA0301916088
:1040F0001AD0916847F24C2E9368C0F6000E5B0F01
:1041000047F25425C1F34266C0F600051EF803408D
:10411000E95C2301B3FBF1F11EF80630AE5D1B0133
:10412000B3FBF6F302E000BF01210123A0F86A10FF
:104130002021A0F86830C2F800C0C0F88810002123
:1041400080F88410084670BD704700000000000031
:104150007047000000000000B0B504460168D0F8C8
:104160008800D4F88C508A68120640F18D8021288E
:1041700040F08A8051E8020F03E000BF206850E859
:10418000020F216820F0800041E80202EAB12068B5
:1041900050E8020F216820F0800041E80202A2B13D
:1041A000206850E8020F216820F0800041E80202F8
:1041B000002A1FBF206850E8020F216820F080000D
:1041C0001CBF41E80202002AD8D1E06F40B1FCF7E1
:1041D000EBFB28B1E06FFCF7DFFF202800F09380B5
:1041E000206850E8000F216820F0C00041E800027C
:1041F000F2B1206850E8000F216820F0C00041E8CB
:104200000002002A1FBF206850E8000F216820F03C
:10421000C0001CBF41E80002002A09D0206850E815
:10422000000F216820F0C00041E80002002AD7D129
:10423000206850E8020F216820F4000041E80202E3
:10424000F2B1206850E8020F216820F4000041E834
:104250000202002A1FBF206850E8020F216820F4E4
:1042600000001CBF41E80202002A09D0206850E883
:10427000020F216820F4000041E80202002AD7D191
:104280002020C4F888002168886840064FF00000AC
:1042900040F1BF80222D18BFB0BD51E8020F02E0EF
:1042A000206850E8020F216820F0400041E8020237
:1042B000EAB1206850E8020F216820F0400041E890
:1042C0000202A2B1206850E8020F216820F04000ED
:1042D00041E80202002A1FBF206850E8020F21684F
:1042E00020F040001CBF41E80202002AD8D1D4F8D7
:1042F000800068B1FCF758FB50B1D4F88000FCF79F
:104300004BFF202804D11020C4F890000320B0BD3A
:10431000206850E8000F216820F4907041E8000206
:10432000F2B1206850E8000F216820F4907041E855
:104330000002002A1FBF206850E8000F216820F407
:1043400090701CBF41E80002002A09D0206850E8A4
:10435000000F216820F4907041E80002002AD7D1B4
:104360004FF6FE70CEF6FF70216851E8021F2268FA
:10437000014042E80213DBB1216851E8021F2268C4
:10438000014042E80213002B1FBF216851E8021FC1
:10439000226801401CBF42E80213002B08D02168AC
:1043A00051E8021F2268014042E80213002BDBD1D2
:1043B000E06E012827D1206850E8000F216820F026
:1043C000100041E80002F2B1206850E8000F2168B7
:1043D00020F0100041E80002002A1FBF206850E8CA
:1043E000000F216820F010001CBF41E80002002AE5
:1043F00009D0206850E8000F216820F0100041E843
:104400000002002AD7D12020C4F88C000020E066EA
:104410006067B0BD000000007047000000000000B1
:1044200070B50446006840F62F01C269114020298A
:10443000016886680CD101F0200306F080555B19F5
:1044400018D0616F002957D02046BDE8704008475A
:1044500040F60F031A420DD0012340F22015C1F29D
:104460000003C0F2004506EA030C01EA050313EB62
:104470000C0343D1E36E012B05D112F0100318BFDA
:1044800011F0100326D1D3020AD516F4800307D009
:104490004FF4801101622046BDE87040FFF758BE1E
:1044A000130606D501F0800306F400069B1940F0C0
:1044B000D980530602D511F040033ED1100240F1DD
:1044C000D78011F0804000F0D3802046BDE87040D6
:1044D000FFF73ABE102101628168490618D4B4F88A
:1044E0005C10B4F85E20B4F85E30002B1CBF891A53
:1044F0005FEA014240F04F8170BD00BFD30718BF93
:1045000011F480734AD1930706F0010E52D45CE097
:10451000D4F880100A68526893B2002BECD0B4F83B
:104520005C60B342E8D2A4F85E20C969B1F5807F2F
:1045300000F09E82F5E100BF206850E8000F21687E
:1045400020F0400041E80002EAB1206850E8000F86
:10455000216820F0400041E80002A2B1206850E844
:10456000000F216820F0400041E80002002A1FBF30
:10457000206850E8000F216820F040001CBF41E88F
:104580000002002AD8D12020C4F888000020A067AB
:104590002046BDE8704000F017BD00BF0123036254
:1045A000D4F8903043F00103C4F89030930706F03C
:1045B000010E0AD5BEF1000F07D002230362D4F822
:1045C000903043F00403C4F8903053070AD5BEF18D
:1045D000000F07D004230362D4F8903043F00203A5
:1045E000C4F8903013070CD501F0200353EA0C03F4
:1045F00007D008230362D4F8903043F00803C4F8CE
:10460000903013050BD511F0806308D04FF4006390
:104610000362D4F8903043F02003C4F89030D4F80B
:104620009030002B3FF468AF12F020020AD001F066
:10463000200106F08052891804D0616F11B1204624
:1046400088472068D4F89010826802F0400201F098
:104650002801891819D12046FFF7DEFE0020C4F892
:10466000900070BDA16F00297FF4EEAE44E700BF5B
:10467000D0017FF541AFB1F1FF3FC8BF70BD20460B
:10468000BDE87040FFF7CCBC206850E8000F2168FF
:1046900020F4907041E80002EAB1206850E8000F71
:1046A000216820F4907041E80002A2B1206850E82F
:1046B000000F216820F4907041E80002002A1FBF1B
:1046C000206850E8000F216820F490701CBF41E87A
:1046D0000002002AD8D14FF6FE70CEF6FF70216896
:1046E00051E8021F2268014042E80213DBB1216851
:1046F00051E8021F2268014042E80213002B1FBF4D
:10470000216851E8021F226801401CBF42E80213E1
:10471000002B08D0216851E8021F2268014042E8BE
:104720000213002BDBD1E06E012827D1206850E86E
:10473000000F216820F0100041E80002F2B120686B
:1047400050E8000F216820F0100041E80002002A24
:104750001FBF206850E8000F216820F010001CBF28
:1047600041E80002002A09D0206850E8000F2168C3
:1047700020F0100041E80002002AD7D12020C4F820
:104780008C000021E166206861678168490640F17C
:10479000C18086E0206850E8000F226820F4907005
:1047A00042E80003EBB1206850E8000F226820F4D3
:1047B000907042E80003A3B1206850E8000F22681F
:1047C00020F4907042E80003002B1FBF206850E8DF
:1047D000000F226820F490701CBF42E80003002BF9
:1047E000D8D14FF6FE70CEF6FF70226852E8022F45
:1047F0002368024043E80226DEB1226852E8022F15
:104800002368024043E80226002E1FBF226852E8B8
:10481000022F236802401CBF43E80226002E08D066
:10482000226852E8022F2368024043E80226002E45
:10483000DBD12020C4F88C000020E066606720688F
:1048400050E8000F226820F0100042E80003F3B1A6
:10485000206850E8000F226820F0100042E80003B2
:10486000002B1FBF206850E8000F226820F01000C6
:104870001CBF42E80003002B09D0206850E8000F5D
:10488000226820F0100042E80003002BD7D189B243
:10489000022020672046BDE87040FFF7BDBB00BF87
:1048A000206850E8020F216820F0400041E8020231
:1048B000EAB1206850E8020F216820F0400041E88A
:1048C0000202A2B1206850E8020F216820F04000E7
:1048D00041E80202002A1FBF206850E8020F216849
:1048E00020F040001CBF41E80202002AD8D1D4F8D1
:1048F000800078B145F6E101C0F600010165FCF7E2
:10490000EBFA00283FF4F8ADD4F88000016DBDE863
:10491000704008472046BDE87040FFF77DBD00BFEE
:10492000206850E8000F216820F4807041E8000200
:10493000EAB1206850E8000F216820F4807041E857
:104940000002A2B1206850E8000F216820F48070B6
:1049500041E80002002A1FBF206850E8000F2168CC
:1049600020F480701CBF41E80002002AD8D12068E2
:1049700050E8020F216820F0010041E80202F2B184
:10498000206850E8020F216820F0010041E802028F
:10499000002A1FBF206850E8020F216820F00100A4
:1049A0001CBF41E80202002A09D0206850E8020F2B
:1049B000216820F0010041E80202002AD7D12068D6
:1049C00050E8020F216820F0400041E80202F2B1F5
:1049D000206850E8020F216820F0400041E8020200
:1049E000002A1FBF206850E8020F216820F0400015
:1049F0001CBF41E80202002A09D0206850E8020FDB
:104A0000216820F0400041E80202002AD7D120208E
:104A1000C4F88C000020E066206850E8000F216890
:104A200020F0100041E80002F2B1206850E8000FC9
:104A3000216820F0100041E80002002A1FBF206812
:104A400050E8000F216820F010001CBF41E8000270
:104A5000002A09D0206850E8000F216820F01000DB
:104A600041E80002002AD7D1D4F88000FBF79CFF70
:104A700002202067B4F85C00B4F85E10401A81B2DE
:104A80002046BDE87040FFF7C7BA000000000000F4
:104A900010B5B0B10446D0F8880028B9002084F8D9
:104AA0008400204600F028F82420C4F888002068FC
:104AB000016821F001010160204601F041FE01285A
:104AC00002D1012010BD00BFA06A10B1204600F045
:104AD000DBFD2068416821F490414160816821F04C
:104AE0002A018160016841F0010101602046BDE8B2
:104AF000104000F039BE00002DE9F041B6B0694623
:104B0000044601F10800B821FBF7AEFC41F20001B8
:104B10002068C4F20101884202D036B0BDE8F081BD
:104B200001200090684600260196FDF7A9FF08B114
:104B3000FBF732FF44F2E04040F21008C5F60200F5
:104B4000C4F20208016941F010010161016901F03C
:104B5000100131913199016841F001010160006853
:104B600031A900F00100319031984FF4C0603190CC
:104B70000220CDE932060720359000203496C5F694
:104B80000200FDF741FC40F284052920C2F20045F5
:104B90004FF48067C5E901062846C5F80080EE603D
:104BA000C5E90476C5E90666C5E90866FCF710FFA5
:104BB00008B1FBF7F1FEC4F8805008F11800AC63AF
:104BC00040F2FC05C2F2004528602A2068604020BF
:104BD000A8600020C5E90307C5E90500C5E907008D
:104BE00068622846FCF7F4FE08B1FBF7D5FE2520E5
:104BF00001210022E567AC63FDF796FD2520FDF756
:104C000083FD36B0BDE8F081B0B50446D0F88C0025
:104C1000202807D115460A460120002918BF002D7B
:104C200002D1B0BD0220B0BD4FF0000CC4F86CC082
:104C300040F600402168C5F60000814233D0486844
:104C4000000230D551E8000FD4F800E040F0806059
:104C50004EE8000139B3206850E8000F216840F0A9
:104C6000806041E80003F3B1206850E8000F21683C
:104C700040F0806041E80003002B1FBF206850E82F
:104C8000000F216840F080601CBF41E80003002B4A
:104C900009D0206850E8000F216840F0806041E8AA
:104CA0000003002BD7D1A2652220A4F85C50C4F8E1
:104CB00090C0C4F88C00D4F88000F8B145F6F1211A
:104CC00045F66943C0F60001C0F60003C0E90F13C2
:104CD00045F6F1010023C0F60001C16421680365B7
:104CE00024312B46FDF7BCF940B11020C4F89000E8
:104CF0002020C4F88C000120B0BD00BF206938B36B
:104D0000206850E8000F216840F4807041E80002FC
:104D1000F2B1206850E8000F216840F4807041E84B
:104D20000002002A1FBF206850E8000F216840F4ED
:104D300080701CBF41E80002002A09D0206850E8BA
:104D4000000F216840F4807041E80002002AD7D1AA
:104D5000206850E8020F216840F0010041E802029B
:104D6000F2B1206850E8020F216840F0010041E8EC
:104D70000202002A1FBF206850E8020F216840F09D
:104D800001001CBF41E80202002A09D0206850E857
:104D9000020F216840F0010041E80202002AD7D149
:104DA000206850E8020F216840F0400041E802020C
:104DB000F2B1206850E8020F216840F0400041E85D
:104DC0000202002A1FBF206850E8020F216840F04D
:104DD00040001CBF41E80202002A09D0206850E8C8
:104DE000020F216840F0400041E80202002AD7D1BA
:104DF0000020B0BD0000000080B5D0F88C30202B22
:104E000006D10123002918BF002A03D1184680BD0E
:104E1000022080BD0023C36640F60043D0F800C0E6
:104E2000C5F600039C4538D0DCF804301B0234D5AD
:104E30005CE800CF03E000BF036853E800CFD0F880
:104E400000E04CF080634EE8003CBCF1000F24D041
:104E5000036853E800CFD0F800E04CF080634EE8E0
:104E6000003CBCF1000F18D0036853E800CFD0F825
:104E700000E04CF080634EE8003CBCF1000F1FBF27
:104E8000036853E800CFD0F800E04CF080631CBF0B
:104E90004EE8003CBCF1000FCED101F0ADFE002386
:104EA000184680BD00000000B0B540F2741440F216
:104EB0007005C2F20044C2F2004514222046294681
:104EC00000F00EF8142220462946BDE8B040FFF756
:104ED00093BF0000000000007047000000000000C9
:104EE000B0B50446D0F88800202831D100294FF011
:104EF000010063D0002A134608BFB0BD216500251C
:104F0000A4F854302120A4F85630C4F89050C4F8C6
:104F10008800E06FF0B145F6F10245F6894CC0F625
:104F20000002C264226845F6495E2832C0F6000CD1
:104F3000C0F6000E0565C0E90FCEFDF791F848B147
:104F40001020C4F890002020C4F888000120B0BDD3
:104F50000220B0BD20684021016250E8020F2168A4
:104F600040F0800041E8020252B3206850E8020F8E
:104F7000216840F0800041E802020AB3206850E84E
:104F8000020F216840F0800041E80202002A1FBFA2
:104F9000206850E8020F216840F080001CBF41E803
:104FA0000202002A0CD0206850E8020F216840F06D
:104FB000800041E802020020002AD6D1B0BD00BF27
:104FC0000020B0BD0000000070470000000000009D
:104FD0007047000000000000FEE700000000000035
:104FE00080B582B044F2D8400022C5F602000168C4
:104FF00041F0010101600068002100F00100019012
:1050000001980B20FDF790FB0B20FDF77DFB0C209A
:1050100000210022FDF788FB0C2002B0BDE8804093
:10502000FDF772BB000000002DE9F04186B044F2AC
:10503000E0404FF00008C5F602000024CDE90488E6
:105040000168C5F6020441F480710160016801AD98
:1050500001F4807100910099016841F00201016042
:1050600001684FF6FF7701F0020100910099016895
:1050700041F4806101600168032601F480610091C0
:105080000099016841F040010160016801F04001B0
:1050900000910099016841F008010160016801F088
:1050A000080100910099016841F004010160016864
:1050B00001F0040100910099016841F001010160D3
:1050C000016801F0010100910099016841F01001AF
:1050D0000160016801F0100100910099016841F43C
:1050E00000710160016801F400710091009901688C
:1050F00041F080010160016801F080010091009998
:10510000016841F0200101600068294600F020009C
:105110000090009804F5005001970296CDF80C809D
:10512000FDF772F904F580602946CDE90176CDF8E6
:105130000C80FDF769F901A9FF2081E8410104F520
:1051400020502946FDF760F904F5C0502946CDE905
:105150000176CDF80C80FDF757F904F5406029463B
:10516000CDE90176CDF80C80FDF74EF904F500602D
:105170002946CDE90176CDF80C80FDF745F901A966
:105180004FF6FF1081E8410120462946FDF73CF922
:1051900004F580502946CDE90176CDF80C80FDF765
:1051A00033F904F510502946CDE90176CDF80C808D
:1051B000FDF72AF901A94FF6FC7081E8410104F5D9
:1051C000E0502946FDF720F904F5A0502946CDE925
:1051D0000176CDF80C80FDF717F906B0BDE8F08137
:1051E00080B540F2741041F20001C2F20040C4F2F6
:1051F00001010C2201604FF4E13141600021C0E95E
:1052000002110161C0E90521C0E90711C0E90911D6
:10521000FFF73EFC08B1FBF7BFFB40F27410002122
:10522000C2F20040FEF748FF08B1FBF7B5FB40F2C1
:1052300074100021C2F20040FEF7F6FE08B1FBF741
:10524000ABFB40F27410C2F20040FEF7C9FE00282A
:1052500008BF80BDBDE88040FBF79EBB000000009A
:10526000FEE7000000000000FEE700000000000074
:105270007047000000000000F0B581B044F22C47F8
:10528000C5F6020757F8042C02F00302032A03D1E3
:10529000012001B0F0BD00BF054657F82C0C0C46AC
:1052A00020F0806047F82C0CFDF7AAF9064600BFF5
:1052B00057F82C0C000105D5FDF7A2F9801B022838
:1052C000F6D964E057F8040CEE6895E80E0020F477
:1052D0007C30012C40EA0130A2F101016FF35F2123
:1052E0004FF47E4202EB432247F8040C92B24FF097
:1052F000FE4302EB01004FF4FE012A6901EB064177
:1053000001F4FE0103EB0262084402F0FE4108448E
:10531000F8603868696920F0C00040EA0100386030
:105320003868A96920F0200040EA01003860386838
:105330004FF6F87120F0100038603869EA6920EA09
:1053400001004FF4001140EAC2003861386808BF1C
:105350004FF4801140F01000002C386008BF4FF46B
:10536000002138680843386057F82C0C40F0806002
:1053700047F82C0CFDF744F9044600BF57F82C0CF5
:10538000000107D4FDF73CF9001B0328F6D30320E6
:1053900001B0F0BD002001B0F0BD00000000000031
:1053A000F0B581B044F22C47C5F6020757F8042C3B
:1053B00002F00302032A03D1012001B0F0BD00BFB7
:1053C000054657F82C0C0C4620F0805047F82C0C62
:1053D000FDF716F9064600BF57F82C0C800005D5DE
:1053E000FDF70EF9801B0228F6D964E057F8040C8B
:1053F000EE6895E80E0020F07C70012C40EA015028
:10540000A2F101016FF35F214FF47E4202EB4322D0
:1054100047F8040C92B24FF0FE4302EB01004FF448
:10542000FE012A6901EB064101F4FE0103EB026271
:10543000084402F0FE41084478613868696920F444
:10544000406040EA010038603868A96920F40070C3
:1054500040EA0100386038684FF6F87120F4807037
:105460003860B869EA6920EA01004FF0807140EACB
:10547000C200B861386808BF4FF4000140F4807082
:10548000002C386008BF4FF480013868084338604A
:1054900057F82C0C40F0805047F82C0CFDF7B0F872
:1054A000044600BF57F82C0C800007D4FDF7A8F87D
:1054B000001B0328F6D3032001B0F0BD002001B08B
:1054C000F0BD000000000000704700000000000078
:1054D000FDF79EB800000000B0B59CB044F618047B
:1054E00009A84C21C5F60204FAF7BEFF02200025E8
:1054F000CDE90755CDE90555CDE90355CDE9015570
:10550000FDF752F940F22C400095C5F60000016805
:1055100021F001010160006800F0010000902068A6
:1055200040F440402060206800F440400090009823
:105530002068800409D4206880045CBF20685FEA8A
:10554000804002D420688004F2D5012009904FF4F5
:1055500080300A9002200521CDE912001491A0218B
:10556000CDE91510CDE9170009A8082419940025E4
:10557000CDE91A55FEF76CFA20B1EFF3108072B640
:10558000FEE700BF3F20019003204FF48061CDE98A
:10559000020540200494CDE90500CDE9071001A8DB
:1055A0000221FEF70DF828B1EFF3108072B600BFAC
:1055B000FEE700BF1CB0B0BD4EF6885042F2000CB2
:1055C000CEF20000C5F2002C016841F470010160C8
:1055D000DCF8000000F00F00062806D8DCF8000018
:1055E000072161F30300CCF8000044F200404EF6BE
:1055F0007F52C5F60200CEF6F622016841F00101A5
:1056000001600021016103681A400260DCF800209B
:10561000120706D5DCF80020072363F30302CCF859
:10562000002040F200228161C161C0F202220162C9
:1056300082620022C0F2FF12C26240F28022C0F2F7
:105640000112026341638263C163026441640268C0
:1056500022F480220260016641F20000C5F600409B
:105660000068B1EB507F05D148F208100121C5F266
:105670000010016044F2000043F2D201C5F20020A4
:105680000160704700000000816ACA070CD18A07D8
:1056900015D44A071ED40A0727D4CA0630D48A066E
:1056A00039D44A0655D541E00268D0F82CC0536879
:1056B00023F4003343EA0C0353608A07E9D50268F8
:1056C000D0F830C0536823F4803343EA0C035360AE
:1056D0004A07E0D50268D0F834C0536823F4802329
:1056E00043EA0C0353600A07D7D50268D0F838C0E4
:1056F000536823F4004343EA0C035360CA06CED533
:105700000268D0F83CC0936823F4805343EA0C034A
:1057100093608A06C5D50268D0F840C0936823F428
:10572000005343EA0C0393604A0612D50268D0F88E
:1057300044C0BCF5801F536823F4801343EA0C0374
:10574000536006D1536823F4C00C836C43EA0C0306
:105750005360090658BF70470168C06C4A6822F45C
:105760000022104348607047B0B582B00446002064
:10577000C4F89000FCF744FF216805460A68120748
:1057800037D54FF4001100226FF07E400090204684
:105790002B4601F06DFB58B3206850E8000F2168DC
:1057A00020F0800041E80002F2B1206850E8000FCC
:1057B000216820F0800041E80002002A1FBF206815
:1057C00050E8000F216820F080001CBF41E8000273
:1057D000002A09D0206850E8000F216820F08000DE
:1057E00041E80002002AD7D12020C4F8880062E0F6
:1057F00021680868400765D54FF4800100226FF0EA
:105800007E40009020462B4601F032FB002859D004
:10581000206850E8000F216820F4907041E80002F1
:10582000F2B1206850E8000F216820F4907041E840
:105830000002002A1FBF206850E8000F216820F4F2
:1058400090701CBF41E80002002A09D0206850E88F
:10585000000F216820F4907041E80002002AD7D19F
:10586000206850E8020F216820F0010041E80202A0
:10587000F2B1206850E8020F216820F0010041E8F1
:105880000202002A1FBF206850E8020F216820F0A2
:1058900001001CBF41E80202002A09D0206850E83C
:1058A000020F216820F0010041E80202002AD7D14E
:1058B0002020C4F88C000320002184F8841002B05A
:1058C000B0BD00BF2020C4F88800C4F88C000020C0
:1058D000E0662067002184F8841002B0B0BD0000AB
:1058E000806B0021A0F85E10A0F85610FEF794BD62
:1058F000806B0268D0F88830D0F88CC091680906B7
:105900005BD5212B59D10021A0F8561052E8001F79
:1059100003E000BF016851E8001F026821F0C001E8
:1059200042E80013EBB1016851E8001F026821F062
:10593000C00142E80013A3B1016851E8001F0268EA
:1059400021F0C00142E80013002B1FBF016851E89D
:10595000001F026821F0C0011CBF42E80013002BA9
:10596000D8D1016851E8021F026821F4000142E821
:105970000213F3B1016851E8021F026821F400012B
:1059800042E80213002B1FBF016851E8021F0268A2
:1059900021F400011CBF42E80213002B09D001686A
:1059A00051E8021F026821F4000142E80213002BB3
:1059B000D7D12021C0F8881002689168490640F1CB
:1059C0008F80BCF1220F40F08B800021A0F85E1088
:1059D00052E8001F03E000BF016851E8001F0268A1
:1059E00021F4907142E80013EBB1016851E8001F07
:1059F000026821F4907142E80013A3B1016851E8F4
:105A0000001F026821F4907142E80013002B1FBFB1
:105A1000016851E8001F026821F490711CBF42E840
:105A20000013002BD8D14FF6FE7CCEF6FF7C026827
:105A300052E8022F036802EA0C0243E80221F1B1A6
:105A4000016851E8021F026801EA0C0142E80213F2
:105A5000002B1FBF016851E8021F026801EA0C0118
:105A60001CBF42E80213002B09D0016851E8021F55
:105A7000026801EA0C0142E80213002BD7D1C16E83
:105A8000012927D1016851E8001F026821F01001A7
:105A900042E80013F3B1016851E8001F026821F0E9
:105AA000100142E80013002B1FBF016851E8001FDE
:105AB000026821F010011CBF42E80013002B09D03E
:105AC000016851E8001F026821F0100142E800134C
:105AD000002BD7D12021C0F88C100021C16641676E
