:020000040800F2
:10000000C0A90024AD02000853210008B94C000823
:100010009D20000849050008D12F000800000000BD
:10002000000000000000000000000000D1020008F5
:10003000910500080000000069030008790300082A
:10004000C7020008C7020008C7020008C70200086C
:10005000C7020008C7020008C7020008C70200085C
:10006000C7020008C7020008C7020008C70200084C
:10007000C7020008C7020008C7020008C70200083C
:10008000C7020008C7020008C7020008C70200082C
:10009000C7020008C7020008C7020008C70200081C
:1000A000C7020008C7020008C7020008C70200080C
:1000B00061270008C7020008C7020008C70200083D
:1000C000C7020008C7020008C7020008C7020008EC
:1000D000C7020008992E0008C7020008A12E0008D8
:1000E000C7020008C702000800000000C70200089D
:1000F000C7020008C7020008C7020008C7020008BC
:10010000C7020008C7020008C7020008C7020008AB
:10011000C7020008C7020008C7020008C70200089B
:10012000C7020008C7020008C7020008C70200088B
:10013000C7020008C7020008C7020008C70200087B
:1001400000000000000000000000000000000000AF
:10015000C7020008C7020008C7020008C70200085B
:10016000C7020008C7020008C7020008C70200084B
:10017000C7020008C7020008C7020008000000000C
:10018000C7020008C7020008C7020008C70200082B
:10019000C7020008C7020008C7020008C70200081B
:1001A000C7020008C7020008C7020008C70200080B
:1001B000C7020008C7020008C7020008C7020008FB
:1001C000C7020008C7020008C7020008C7020008EB
:1001D000C7020008C7020008C7020008C7020008DB
:1001E000C7020008C7020008C7020008C7020008CB
:1001F000C7020008C7020008C7020008C7020008BB
:10020000C7020008C7020008C7020008C7020008AA
:10021000C7020008C7020008C7020008C70200089A
:10022000C7020008C7020008C7020008000000005B
:10023000C7020008C702000800000000C70200084B
:10024000C7020008C7020008C7020008C70200086A
:10025000C7020008C7020008C7020008C70200085A
:10026000C7020008C7020008C7020008C70200084A
:10027000C7020008C7020008C7020008000000000B
:10028000C7020008C7020008C702000800000000FB
:1002900000000000C7020008DFF80CD000F0EEF804
:1002A00000480047A9370008C0A900240648804735
:1002B00006480047FEE7FEE7FEE7FEE7FEE7FEE74B
:1002C000FEE7FEE7FEE7FEE781240008990200084A
:1002D0001EF0040F0CBFEFF30880EFF30980816973
:1002E00011F8021C91BB01B590E80F10E047BDE882
:1002F00000508CE80300244B93E80600914208BFAD
:10030000704741B91EF0100F10D12049086820F045
:10031000010008600AE02CE9F00F1EF0100F08BF82
:100320002CED108AC1F838C081F822E01A6092F8EA
:100330002210906B61F0FF0E1EF0100F08BFB0ECA2
:10034000108AB0E8F00F80F309887047104A1368EC
:100350009942FAD801B552F821C00FC8E047BDE86C
:100360000050CCF80000704701B503F03BFDBDE83C
:100370000140EFF3098CBEE701B503F0CDFFBDE806
:100380000140EFF3098CB6E72800002434EF00E0C9
:10039000744E00082DE9F05F0546002092469B460A
:1003A00088460646814640241BE02846414647468B
:1003B000224600F053F853465A46C01A914110D3D2
:1003C00011461846224600F03AF82D1A67EB01084C
:1003D0004F4622460120002100F031F817EB0009BA
:1003E0004E41201EA4F10104DFDC484631462A4676
:1003F0004346BDE8F09F40EA01039B0703D009E0B4
:1004000008C9121F08C0042AFAD203E011F8013B00
:1004100000F8013B521EF9D27047D2B201E000F859
:10042000012B491EFBD270470022F6E710B5134698
:100430000A4604461946FFF7F0FF204610BD202A61
:1004400004DB203A00FA02F1002070479140C2F12B
:10045000200320FA03F3194390407047202A04DB5D
:10046000203A21FA02F00021704721FA02F3D0402D
:10047000C2F120029140084319467047064C074DCF
:1004800006E0E06840F0010394E807009847103464
:10049000AC42F6D3FFF704FFAC4F0008CC4F000886
:1004A00003F0E6F900F1C804022003F0D3F8204677
:1004B00003F0ACF9C834F7E70A2003F08BF9FBE747
:1004C00001F062FC02F0A8FD0D480E4A0E4C00211E
:1004D000A0470E4D0F4A002168600D48A047A86054
:1004E0000D480E4A0021A047286003F0C1F9441CC2
:1004F00001F090FF204603F089F90134F8E700BFCE
:10050000B9040008E04D000845440008B800002484
:10051000A1040008BC4D000821050008284E000871
:1005200005A402F069FD012802D1204604F0DCFB9D
:10053000142003F04FF9F4E74B45595F444F574EF1
:100540005F4B310D00000000FEE7000080B5082879
:1005500004D240B206A151F8200080BD03484FF4F8
:100560008E7100F016F8002080BD00BF7B4F0008A0
:1005700010010024000000003C01002400000000E5
:10058000000000000000000000000000000000006B
:10059000704701B1FEE7704770477047704770477A
:1005A0007047704770477047704770477047704793
:1005B0007047704770477047704770477047704783
:1005C0007047704770477047704770477047704773
:1005D0007047704770477047704770477047704763
:1005E0007047704770477047704770477047704753
:1005F0007047704770477047704770477047704743
:10060000F0B5B3F5804F0FD150F82230094C23409C
:1006100091E8F0008969234343EA051343EA06237E
:10062000194341EA074101E06FF0704140F82210A0
:100630000020F0BD0000F0CF2DE9F0410A6801F183
:10064000080750F8223023F0010340F82230F0CFA1
:10065000D1E900C3D1E9062E2343082C08BF43F09B
:1006600040032B4333433B4301F120071A434EEA37
:10067000020EF8CFD1E90D2843EA0E032343104CB4
:100680002B4333433B431A4350F82C3042EA0802D1
:1006900023401A4340F82C200A6BB2F5801F05D185
:1006A0000A684AB1026842F4801202600A681AB10C
:1006B000496B0268114301600020BDE8F08100BF72
:1006C0008004C0FF2DE9F04700EB8203174DAA46D6
:1006D000D3F80480D1E9042ED1E90096D1E9027C57
:1006E0008C6905EB025208F0404545EA090545EAE8
:1006F000061545EA072545EA0C452A4322430EF133
:10070000FE0442EA04625A600268D2020BD54268D3
:10071000096922F470020AEB01511143426822F484
:100720007002114341600020BDE8F0870000F0FF37
:100730000248016841F0010101607047200400583F
:100740002DE9F84F594A4FF00A0A4FF000084FF0D0
:10075000010B4FF0000C9042554A08BF4FF0090AB8
:1007600002444FEAB223092B38BF4FEAB22A0022D3
:100770000D6835FA02F600F097800BFA02F715EAD9
:10078000070900F084804E68122E00F286800BFA72
:1007900006F414F0061F00F08080032303FA0CF423
:1007A0008368CD68A34305FA0CF56FEA040E2B436A
:1007B000836033094568BD43934057002B43436032
:1007C000C3688C6803EA0E03BC402343C36046F051
:1007D0001003122B11D16FF0030508F01C030F2436
:1007E00005EA52059C4005442E6A26EA04040E6977
:1007F00006FA03F323432B624E68036806F00304F2
:1008000003EA0E03BC4023430360F3003FD57C4C56
:10081000294F4FF0B04E236843F002032360236852
:100820000F2403F002030093009D08F00C0322F054
:1008300003059C400AFA03F3EE5926EA0404234315
:10084000EB511C4FFB6F4D6843EA0904EE0358BFA0
:1008500023EA0904FC67AE03D7F8803043EA0904B1
:1008600058BF23EA0904C7F88040EE02DEF80030E2
:1008700043EA090458BF23EA0904CEF80040AD0258
:100880003B6843EA090458BF23EA09043C6008F1C5
:1008900004080CF1020C01326AE70323674603FAED
:1008A0000CF46FEA040E8BE7BDE8F88F00240258C1
:1008B0000000FEA704000058080400580148006822
:1008C000000C70470010005C80B502F0BBFF0228EE
:1008D00003D1BDE8804002F0CBBF1F480068800B09
:1008E00068B100BF013800BF00BF00BF00BF00BF3C
:1008F00000BF00BF00BF00BF00BF00BFF0E702495C
:1009000008680130086080BDAC01002480B5032078
:1009100000F0A2F800F066FF0E495F4B0A68C2F3D0
:100920000322096801F00F019A5C595C02F01F0272
:10093000D040094A01F01F011060C8400749086013
:100940000F2000F00DF808B1012080BD00F04AF83A
:10095000002080BD184402580C0000241000002420
:10096000002070470278114943780B60D2B1436888
:100970004B60037B42EA0372C37A42EA0362837AE2
:1009800042EAC342437B42EA8342837B42EA4342D8
:10099000C37B42EA0342437A007A42EA032242EAF4
:1009A000400001E0002048608860704798ED00E05A
:1009B0000B48BFF35F8F016821F480310160002193
:1009C00001677047064940F001000867086840F475
:1009D00080300860BFF34F8FBFF36F8F704700BF49
:1009E00024ED00E081B00648016841F00201016099
:1009F000006800F002000090009801B0704700BF4E
:100A0000F4440258002808D400F01F0101224009D4
:100A100002FA01F1014A42F82010704700E100E0BB
:100A200070B5134B4FF0FF351B68C3F30223DC1E78
:100A300083F0070338BF0024042B28BF042305FAE2
:100A400004F605FA03F3B2439943A1401143BDE80C
:100A5000704002F0BFBA00BF05494FF6FF030A68B5
:100A60001A4060F30A22034810430860704700BF31
:100A70000CED00E00000FA0580B500F075FE0549B8
:100A8000054A0968C1F30211515C01F01F01C84019
:100A900080BD00BF20440258AC4D0008B0B53B49B2
:100AA0008B6A8A6ACC6AC4F30014CD6BC5F3CC059B
:100AB0006C4300EE104AB8EE400AC2F30532AAB108
:100AC00003F00303022B15D0BBB90B689B0651BF83
:100AD0009FED311A0B68C3F3C103304C42BF24FAB7
:100AE00003F301EE103AB8EE411A08E00021C0E924
:100AF000001148E09FED271A01E09FED251A8B6B4E
:100B00009FED273A6FF35F2302EE103AB8EE422AC8
:100B100000EE032A03EE102AB7EE000AB8EE433ABD
:100B20008A6BC2F3462232EE002A81EE031A21EECE
:100B3000021A02EE102AB8EE422A32EE002A81EEA4
:100B4000022ABCEEC22A80ED002A8A6BC2F306425A
:100B500002EE102AB8EE422A32EE002A81EE022A74
:100B6000BCEEC22A80ED012A896BC1F3066102EE58
:100B7000101AB8EE422A32EE000A81EE000ABCEEEC
:100B8000C00A10EE101A8160B0BD00BF00440258C8
:100B90000024744A20BCBE4B0024744C0090D00347
:100BA00000000039B0B53B498B6A8A6ACC6AC4F34D
:100BB00000244D6CC5F3CC056C4300EE104AB8EE32
:100BC000400AC2F30552AAB103F00303022B15D069
:100BD000BBB90B689B0651BF9FED311A0B68C3F37D
:100BE000C103304C42BF24FA03F301EE103AB8EED1
:100BF000411A08E00021C0E9001148E09FED271AE2
:100C000001E09FED251A0B6C9FED273A6FF35F23F0
:100C100002EE103AB8EE422A00EE032A03EE102A42
:100C2000B7EE000AB8EE433A0A6CC2F3462232EE3F
:100C3000002A81EE031A21EE021A02EE102AB8EE03
:100C4000422A32EE002A81EE022ABCEEC22A80ED50
:100C5000002A0A6CC2F3064202EE102AB8EE422ABB
:100C600032EE002A81EE022ABCEEC22A80ED012A71
:100C7000096CC1F3066102EE101AB8EE422A32EE98
:100C8000000A81EE000ABCEEC00A10EE101A816064
:100C9000B0BD00BF004402580024744A20BCBE4BC3
:100CA0000024744C0090D003000000392DE9F04777
:100CB0000446C078A94F000721D5606E4FEA305135
:100CC000032908D8DFE801F002090E16F96941F49A
:100CD0000031F9610EE0012612E0201D022101F031
:100CE00075FA04E004F12400022101F0EBFA064653
:100CF00030B9606E396C21F4401108433864002625
:100D00006078BA46C00701D1354628E0606D0428F6
:100D10000BD83546DFE800F0030C11171700F8690F
:100D2000354640F40030F8610DE00125012717E059
:100D3000201D002101F04AFA04E004F12400002102
:100D400001F0C0FA05462F4655B9606DDAF840103B
:100D50000025524621F007010843CAF840003746F3
:100D6000607880072BD5A06D4FEAB01004280CD80E
:100D7000DFE800F0030E13191900DAF81C005146E1
:100D800040F40030CAF81C000DE00125012617E0F0
:100D9000201D002101F01AFA04E004F124000021D2
:100DA00001F090FA05462E4655B9A06DDAF84010CC
:100DB0000025524621F4E0710843CAF840003E463F
:100DC0006078400702D4B04657462AE0D4F8A40021
:100DD00057464FEA7050042809D8DFE800F0030CAA
:100DE00011171700F86940F40030F8610EE0012592
:100DF0004FF0010815E0201D002101F0E7F904E0A3
:100E000004F12400002101F05DFA0546A84645B929
:100E1000D4F8A400B96C0025B04621F46001084361
:100E2000B864607800072AD5D4F8A8004FEA30608B
:100E3000042809D8DFE800F0030B10161600F86943
:100E400040F40030F8610DE00125012718E0201D75
:100E5000002101F0BBF904E004F12400002101F0BD
:100E600031FA05462F465DB9D4F8A800DAF84810E3
:100E70000025524621F0E0610843CAF84800474681
:100E8000E078800724D5A06C4FEA301003280BD8F7
:100E9000DFE800F012020D12DAF81C00514640F4AF
:100EA0000030CAF81C0007E00125012611E0201DD2
:100EB000022101F08BF905462E4655B9A06CDAF8EF
:100EC0003C100025524621F030010843CAF83C008E
:100ED0003E466078C0062BD5E06D4FEA30300428DE
:100EE0000CD8DFE800F0030E13191900DAF81C0023
:100EF000514640F40030CAF81C000DE001250127DE
:100F000017E0201D002101F061F904E004F1240044
:100F1000002101F0D7F905462F4655B9E06DDAF802
:100F200040100025524621F4E0410843CAF8400031
:100F300037466078800625D5206E4FEA3040052878
:100F400009D8DFE800F013030D131313201D01214E
:100F500001F03CF909E00125012614E01044025893
:100F600004F12400012101F0ADF905462E4655B9E2
:100F7000206EDAF840100025524621F4E0210843A3
:100F8000CAF840003E466078400625D5D4F8AC004B
:100F90004FEA3070052809D8DFE800F011030B1183
:100FA0001111201D012101F011F907E00125012790
:100FB00013E004F12400012101F084F905462F46D5
:100FC0005DB9D4F8AC00DAF848100025524621F09B
:100FD000E0410843CAF8480037466078000620D54B
:100FE000E06E90B1B0F1005F0AD0B0F1805F2CD11B
:100FF000DAF81C00514640F40030CAF81C0004E046
:10100000201D012101F0E2F805462E4655B9E06E9B
:10101000DAF840100025524621F040510843CAF842
:1010200040003E46E078C00702D1B046574622E075
:10103000606C574603280BD8DFE800F013020E134C
:10104000F86940F40030F8610BE001250126E9E77A
:1010500001254FF001080EE0201D022101F0B6F835
:101060000546A8463DB9606CF96B0025B04621F0F5
:1010700003010843F863A078400601D4474616E010
:10108000D7F8F00340F48070C7F8F003FFF71CFCBA
:101090000646D7F8F003C00507D4FFF715FC801B00
:1010A0006428F6D90325032701E02F468DB1207867
:1010B000C0074ED0A06F4FEAF000052834D8DFE813
:1010C00000F03C03363C3C3C201D012101F07EF841
:1010D00032E0DAF86010D4F8B0005546414011F41F
:1010E000407F0BD0296E2A6E42F480322A6621F4AA
:1010F00040712A6E22F480322A662966B0F5807F1C
:1011000040F01082FFF7E0FB064641F288390327E2
:10111000DAF86000800700F10282FFF7D5FB801B40
:1011200003254845F4D9C2E70125012612E004F160
:101130002400012101F0C6F805462E4655B9A06FDE
:10114000DAF844100025524621F038010843CAF865
:1011500044003E462078800721D5606F052809D8D5
:10116000DFE800F011030B111111201D012101F026
:101170002DF807E00125012712E004F124000121E8
:1011800001F0A0F805462F4655B9606FDAF8441013
:101190000025524621F007010843CAF844003746AB
:1011A0002078400723D5D4F89000052809D8DFE837
:1011B00000F011030B111111201D012101F006F89F
:1011C00007E00125012613E004F12400012101F0CC
:1011D00079F805462E465DB9D4F89000DAF8481043
:1011E0000025524621F007010843CAF848003E4650
:1011F0002078800625D5D4F88C004FEA3070052879
:1012000009D8DFE800F011030B111111201D002196
:1012100000F0DCFF07E00125012713E004F12400C2
:10122000022101F04FF805462F465DB9D4F88C0035
:10123000DAF844100025524621F0E0410843CAF88C
:10124000440037462078400625D5D4F898004FEA68
:10125000B020052809D8DFE800F011030B111111A7
:10126000201D002100F0B2FF07E00125012613E058
:1012700004F12400022101F025F805462E465DB94F
:10128000D4F89800DAF848100025524621F4E051CD
:101290000843CAF848003E462078000625D5D4F811
:1012A0009C004FEA7030052809D8DFE800F01103F0
:1012B0000B111111201D002100F088FF07E001250E
:1012C000012713E004F12400022100F0FBFF054692
:1012D0002F465DB9D4F89C00DAF848100025524634
:1012E00021F460410843CAF84800374620680107E6
:1012F00017D5D4F88010B1F5805F0AD104F124002D
:10130000022100F0DFFF002818BF01272068D4F871
:101310008010DAF84420534622F440521143CAF8B0
:101320004410C10617D5D4F89410B1F5807F0AD1C6
:1013300004F12400022100F0C5FF002818BF012796
:101340002068D4F89410DAF84820534622F440720A
:101350001143CAF84810000320D5D4F8A000B0F516
:10136000003F0ED0B0F5803F05D078BB201D002196
:1013700000F02CFF04E004F12400022100F0A2FFA1
:1013800005462E465DB9D4F8A000DAF848100025CD
:10139000524621F440310843CAF848003E46A0783E
:1013A000400729D5D4F88400B0F5401F17D0B0F518
:1013B000001F0ED0B0F5801F40F0AE80DAF81C00A0
:1013C000514640F40030CAF81C0008E0012501260F
:1013D000E5E704F12400012100F074FF05462F46E3
:1013E0005DB9D4F88400DAF844100025524621F49F
:1013F00040110843CAF844003746A078C00701D11D
:101400003E4620E0E06CB0F5803F08D0C8B9DAF87D
:101410001C00514640F40030CAF81C0004E0201DB6
:10142000022100F0D3FE05462E4665B9E06CDAF8DD
:101430003C100025524621F480310843CAF83C0094
:10144000DEE7012501262068810008D504F124008B
:10145000022100F037FF002818BF01262068810311
:101460001BD5E16F6FF0010202EB3122022A0AD391
:101470004FEA31223AB1012A06D1DAF81C2042F4AF
:101480000032CAF81C200DB1012606E0DAF844202B
:1014900022F440721143CAF84410C10207D5216FEB
:1014A000DAF8402022F000421143CAF84010C1008F
:1014B00008D5D4F8B410DAF8002022F480421143A1
:1014C000CAF80010810207D5A16EDAF8402022F098
:1014D00080721143CAF8401041000CD5DAF80010B0
:1014E00021F40041CAF80010D4F8B810DAF800204E
:1014F0001143CAF80010B0F1FF3F07DC206DDAF8A5
:101500003C1021F040510843CAF83C00002E18BF9F
:1015100001263046BDE8F087012501276DE75546D5
:10152000D4F8B0002A68094900F4407322F47C52D0
:1015300001EA1011B3F5407F6FF31F3008BF0A4373
:101540002A60296E08432866002597E5CFFFFF0033
:101550002DE9F843002800F00081814D04468846BB
:10156000286800F00F0088420BD2286820F00F0096
:1015700040EA08002860286800F00F00404540F06D
:10158000EC802068CC4F41070AD52169BA6902F086
:101590007002914204D9BA6922F070021143B96114
:1015A00001070AD56169FA6902F07002914204D913
:1015B000FA6922F070021143F961C1060AD5A169E6
:1015C000FA6902F4E062914204D9FA6922F4E06215
:1015D0001143F96181060AD5E1693A6A02F07002A5
:1015E000914204D93A6A22F070021143396210F034
:1015F00002010AD0E268BB6903F00F039A4204D9E2
:10160000BB6923F00F031A43BA61C2073AD0D4E989
:101610000101BA6922F47062032841EA0201B9614A
:1016200005D0022807D1396889030DD495E03968BF
:10163000890109D491E03968012802D1C90503D490
:101640008BE0490740F189803969A94621F00701FB
:1016500008433861FFF738F9064641F2883560687B
:10166000396901F03801B1EBC00F07D0FFF72CF951
:10167000801BA842F3D90320BDE8F88320684D46BB
:1016800000F0020151B1E168BA6902F00F02914223
:1016900004D2BA6922F00F021143B961296801F03E
:1016A0000F0141450AD9296821F00F0141EA0801DB
:1016B0002960296801F00F0141454ED141070AD543
:1016C0002169BA6902F07002914204D2BA6922F02B
:1016D00070021143B96101070AD56169FA6902F024
:1016E0007002914204D2FA6922F070021143F9614A
:1016F000C1060AD5A169FA6902F4E062914204D2F6
:10170000FA6922F4E0621143F96180060AD5E069C2
:10171000396A01F07001884204D2396A21F07001FF
:101720000843386200F05EF8B9692D4A1B4BC1F3DB
:101730000321515C01F01F01C840B969186001F034
:101740000F01515C01F01F01C840154908600548B0
:101750000068BDE8F843FFF703B90120BDE8F8834E
:10176000002000520800002480B500F03BF80A4930
:101770001B4B0A68C2F30322096801F00F019A5C4F
:10178000595C02F01F02D040044A01F01F011060B2
:10179000C8400349086080BD184402580C0000246A
:1017A0001000002480B5FFF7DFFF0C490C4A0968E0
:1017B000C1F30211515C01F01F01C84080BD00BFA0
:1017C00080B5FFF7D1FF0549054A0968C1F3022139
:1017D000515C01F01F01C84080BD00BF1C4402588D
:1017E000AC4D000810B534490869C0F3C2000328A5
:1017F0000BD002282FD080BB0868800634485AD509
:101800000968C1F3C101C84010BD8A6A886ACB6A01
:101810004C6B03F00103C4F3CC04634300EE103AB5
:10182000B8EE400AC0F30510C8B102F00302022A64
:1018300017D0CAB90A68920651BF9FED241A0A68E8
:10184000C2F3C102224B42BF23FA02F201EE102A78
:10185000B8EE411A0AE01A4810BD184810BD002021
:1018600010BD9FED191A01E09FED161A0A6B9FED4E
:10187000193A6FF35F2202EE102AB8EE422A00EE08
:10188000032AB7EE000A32EE000A02EE100AB8EEA2
:10189000422A086BC0F3462081EE021A013021EE85
:1018A000000A01EE100AB8EE411A80EE010ABCEE01
:1018B000C00A10EE100A10BD0044025800093D0095
:1018C00040787D010024744A20BCBE4B0024744C37
:1018D0000090D00300000039F8B5002800F0E8803F
:1018E00004460078D44EC00712D0306900F03801A9
:1018F000B06A102905D018292CD100F00300022865
:1019000028D13068800303D56068002800F0D080BB
:101910002078800750D5306910F03801B06A2CD09B
:10192000182908BF5FEA807027D03068E168002975
:1019300000F0088120F0190008433060FEF7C4FF72
:101940000546306840071FD4FEF7BEFF401B022843
:10195000F7D988E16068002800F00581B0F5803F84
:1019600007D03168B0F5A02F40F0688141F48020A5
:101970003060306840F4803066E13068400703D55D
:10198000E068002800F09480FEF798FF41F2030120
:1019900088420AD82069716821F47C31402814BF3C
:1019A00041EA003041F4003005E02069716821F01F
:1019B000FE4141EA006070602078C0063ED5306983
:1019C00000F03801B06A082905D018291BD100F0B1
:1019D0000300012817D13068C00502D5E0698028CE
:1019E00066D1FEF76BFF41F2030188421FD8206ADF
:1019F000716821F0F841202814BF41EA806041F06D
:101A0000804070601AE03068E169002900F0E480ED
:101A100040F080003060FEF757FF05463068C00593
:101A2000DFD4FEF751FF401B0228F7D91BE1206AE3
:101A3000F16821F07C5141EA0060F06020780007F5
:101A400038D42078800647D42078400757D4676A76
:101A500067B3306900F03800182840F0CE80B16AD2
:101A6000306B012F24D0A26A01F0030393421FD1EF
:101A7000E26AC1F3051191421AD10146226B6FF35C
:101A80005F21013A914213D1C0F34621626B013AC2
:101A900091420DD1C0F30641A26B013A914207D1A8
:101AA000C0F30660E16B0139884201D1002069E191
:101AB0000120F8BD706F6169A1B340F0010070674B
:101AC000FEF702FF0546706F8007BAD4FEF7FCFEF2
:101AD000401B0228F7D9C6E03068A16900296AD006
:101AE00040F480503060FEF7EFFE05463068800419
:101AF000AAD4FEF7E9FE401B0228F7D9B3E0D6F8D6
:101B0000000440F48070C6F80004FEF7DDFE0546D0
:101B1000D6F80004C0053ED4FEF7D6FE401B64286C
:101B2000F6D9A0E020F001007067FEF7CDFE054673
:101B3000706F80077FF585AFFEF7C6FE401B022859
:101B4000F6D990E020F001003060FEF7BDFE0546BA
:101B5000306840077FF530AFFEF7B6FE411B03202B
:101B60000229F5D90EE1306820F480303060306809
:101B700020F480203060FEF7A7FE054641F288374A
:101B8000306880037FF5C4AEFEF79EFE411B032044
:101B9000B942F5D9F6E0A068002866D0012806D041
:101BA000316F052840F0D88041F004003067306F75
:101BB00040F00100D6E020F480503060FEF784FE53
:101BC0000546306880047FF53FAFFEF77DFE411B80
:101BD00003200229F5D9D5E020F080003060FEF71F
:101BE00073FE05463068C0057FF528AFFEF76CFE32
:101BF000411B03200229F5D9C4E0306820F0807031
:101C00003060FEF761FE0546022F09D13068800181
:101C100043D5FEF759FE411B03200229F6D9B1E056
:101C2000306880017FF542AFFEF74EFE411B032076
:101C30000229F5D9A6E000BF0044025821F4803003
:101C40003060306820F480203060FEF73DFE0546AD
:101C500041F28837306880033FF55AAEFEF734FE14
:101C6000401BB842F6D90320F8BD306F20F00100C8
:101C70003067306F20F004003067FEF725FE054620
:101C800041F28837306F80077FF5E1AEFEF71CFE2A
:101C9000411B0320B942F5D974E004F12805B06A6C
:101CA00040F2F33188432ECD0843591E40EA02101A
:101CB000B0626FF35F214FF4FE024FF47E4000EB01
:101CC000452080B20844A16B02EB01414FF0FE4277
:101CD00001F4FE010844E16B02EB016101F0FE41F9
:101CE000084430634FF6F871F06A20F00100F062AA
:101CF000706B8843A16C40EAC1007063206CF16A8C
:101D000021F00C010843F062F06A616C20F00200DF
:101D10000843F062F06A40F48030F062F06A40F408
:101D20000030F062F06A40F48020F062F06A40F027
:101D30000100F062306840F080703060FEF7C4FD52
:101D40000446306880013FF5B1AEFEF7BDFD011BD2
:101D500003200229F5D915E021F001003067306F2A
:101D600020F004003067FEF7AFFD054641F28837EA
:101D7000306F80073FF56BAEFEF7A6FD411B0320D9
:101D8000B942F5D9F8BD0000F448016841F00201FC
:101D90000160704770B370B5044690F84500154671
:101DA0000E4628B9002084F84400204600F026F8AA
:101DB000206804F10801FEF73FFC2068A268314664
:101DC000FEF780FCD4E90102E36A2946FEF718FC1D
:101DD0002068A16850F8212042F0010240F821203B
:101DE0000548016841F000410160012084F8450088
:101DF000002070BD01207047004000527047000075
:101E0000F048016821F002010160704760B310B52D
:101E1000044690F83D0028B9002084F83C00204694
:101E200000F024F8022084F83D00211D206800F015
:101E3000D9FC012084F8480084F83E0084F83F0073
:101E400084F8400084F8410084F8420084F843009C
:101E500084F8440084F8450084F8460084F847007C
:101E600084F83D00002010BD01207047704700003D
:101E700090F83D1001290DD1022180F83D10094A4A
:101E80000168886802400020062A18BFB2F5803F2A
:101E900002D1704701207047086840F001000860D7
:101EA000002070470700010010B5B0B10446D0F81B
:101EB000800028B9002084F87C00204600F026F835
:101EC0002420C4F880002068016821F0010101602D
:101ED000204600F0D1FD012801D1012010BDA06AEB
:101EE00010B1204600F042FD2068416821F4904185
:101EF0004160816821F02A018160016841F001019F
:101F000001602046BDE8104000F085BD704700002C
:101F100009490968084018BF01207047002906498F
:101F2000096814BF084321EA0000034908600868F3
:101F300002490860704700BFB8010024001000602B
:101F4000B0B5234A9168B1F1FF3F38DD21491368EC
:101F500022A44B62137981F828305379CB625369FC
:101F60000B63D3888B8693688B63D368CB6392694A
:101F70000A64194B0022292A06D0A55CDD601D6881
:101F80006D06FCD50132F6E700220A600A68002AD5
:101F9000FCD002684A6042688A608268CA60C2688F
:101FA0000A6102694A6142698A618269CA61C069DB
:101FB00008620020086008680028FCD0B0BD916865
:101FC00041F000419160816902318161B0BD00BF83
:101FD00024ED00E0680100241C1001400D0A456E4C
:101FE00074657220486172644661756C745F486103
:101FF0006E646C65722C2053797374656D20486132
:102000006C742E0D0A000000F8B5044607280ED89F
:10201000FF2500260027072E17D8F0B200F02CF875
:1020200000281CBF3546012007440136F3E7092C80
:1020300015D0082C1DD1002000F01EF8C8B10120D9
:10204000012400F019F8A8B913E0F9B285EA0400F8
:1020500081F001010843B0FA80F044090AE0012050
:1020600000F00AF828B1022000F006F808B10124B7
:1020700000E000242046F8BD074901EBC00251F8FA
:102080003000938800699179184018BF0120081A20
:10209000B0FA80F040097047D84E0008FEE710B54E
:1020A00000F1280151E8002F12B9BFF32F8F04E08F
:1020B000531E41E8003404B1F4E772B12C30012121
:1020C000006850B1821CD2E84F3FC2E8441F04B1FF
:1020D000F9E71A0602D00830F2E7002010BD70B50B
:1020E000024652F8305F4DB1CC7800235DB12E46E8
:1020F000ED78A5420DD275683346F7E70023C1E9B4
:102100000133C1620DE00024C1E9014300F12C0458
:1021100003E0C1E9016306F108042160002B18BF48
:102120001A1D1160283050E8001F4A1C40E80023A7
:1021300003B1F8E770BDD1E9012312B193608B6858
:1021400000E0C362191D002B08BF00F130010A60D6
:10215000704770471B480068704700BF10E000E000
:1021600019480178012905D105494FF080620A60BC
:10217000002101701348016841F0010101607047BE
:1021800004ED00E04FF0FF307047000040B10B4914
:102190000968B1FBF0F0411E0020B0EB116F02D0D6
:1021A0004FF0FF307047064AFF231370054A06239D
:1021B0001360516004490870906070470C0000245F
:1021C00023ED00E010E000E0B0010024F8B5D34FAB
:1021D0000546B86A00F00300032801D10120F8BDCC
:1021E00038680C4620F080603860FEF76DFB0646CC
:1021F0003868000105D5FEF767FB801B0228F7D978
:102200005CE095E80F00BE6A26F47C36A1F101017E
:1022100046EA0030B8626FF35F214FF47E4000EB76
:1022200042204FF0FE4280B208444FF4FE0101EB21
:10223000034101F4FE010844296902EB016101F048
:10224000FE410844B8636869F96A21F0C00140EAB8
:102250000100F862A869F96A21F0200140EA010052
:10226000F8624FF6F871F86A20F01000F862F86B27
:1022700020EA0100E96940EAC100F863F86A40F029
:102280001000F8623CB1F86A012C14BF40F4001051
:1022900040F4801002E0F86A40F40020F8623868E8
:1022A00040F080603860FEF70FFB0446386800019C
:1022B00006D4FEF709FB001B0328F7D30320F8BD63
:1022C0000020F8BDF8B5954F0546B86A00F0030048
:1022D000032801D10120F8BD38680C4620F0805059
:1022E0003860FEF7F1FA06463868800005D5FEF73B
:1022F000EBFA801B0228F7D95CE095E80F00BE6A74
:1023000026F07C76A1F1010146EA0050B8626FF335
:102310005F214FF47E4000EB42204FF0FE4280B23E
:1023200008444FF4FE0101EB034101F4FE010844AF
:10233000296902EB016101F0FE41084438646869D3
:10234000F96A21F4406140EA0100F862A869F96A7B
:1023500021F4007140EA0100F8624FF6F871F86A62
:1023600020F48070F862786C20EA0100E96940EAA4
:10237000C1007864F86A40F48070F8623CB1F86A91
:10238000012C14BF40F0807040F4000002E0F86AB5
:1023900040F48000F862386840F080503860FEF702
:1023A00093FA04463868800006D4FEF78DFA001BC5
:1023B0000328F7D30320F8BD0020F8BDFEB50C4874
:1023C000016841F002010160006801A900F002000B
:1023D000009003200490002003900120029004202C
:1023E000019000980348FEF7ABF906B080BD00BF2E
:1023F000E0440258000402587047000004480421D9
:102400000160704702484FF480210160704700BFAF
:102410001804025810B5F24CA06828B1A068013821
:10242000A06001D10120A0700020012130280ED031
:102430002218136A4BB1136A013B136205D151771D
:10244000137F012B01D1536A13620C30EEE76068F1
:102450006FF00041013060606068884201D1002067
:10246000606001F01FF9607801306070C0B20A2826
:1024700038BF10BD00206070BDE8104001F010B9F9
:10248000B0B52448244BD0F8801041F47001C0F856
:102490008010196801F00F01062904D81968072275
:1024A00062F303011960AD491D4D0A6842F0010253
:1024B0000A6000220A610C682C400C601C6824072A
:1024C00004D51C68072565F303041C60154B8A615D
:1024D000CA610A628B62144BCB62144B0B634A6372
:1024E0008B63CA630B644A640B6823F480230B601C
:1024F0000A660F490968B2EB517F02D10D490122EA
:102500000A600D4943F2D2020A604FF00061016097
:10251000B0BD00BF08ED00E00020005200440258AA
:102520007FEDF6EA000202020000FF0180020101D5
:102530000010005C0881005100400052F0B59DB0D1
:10254000FEF736FA12208DF8100002AC03258DF844
:1025500013504FF0105003900120ADF808007B4855
:1025600005904FF48070ADF811002046FEF7FAF99F
:102570000F208DF810008DF813500025ADF8115084
:102580004FF0C040039040F20110ADF808004FF04A
:10259000807005902046FEF7E5F90420FEF712FA58
:1025A0006B480168890311D4BFF34F8FBFF36F8F5E
:1025B000C0F83C52BFF34F8FBFF36F8F016841F4F7
:1025C00000310160BFF34F8FBFF36F8F0168C90304
:1025D00026D40021016743F6E07CBFF34F8FC26E23
:1025E000C2F34E31C2F3C9039A0701330CEA411515
:1025F00016461F4646EA050406F14046013FC0F86C
:102600004C42F7D14C1E00292146EFD1BFF34F8F2A
:10261000016841F480310160BFF34F8FBFF36F8FCA
:10262000FEF774F915A82021FDF7FEFE02A84C2143
:10263000FDF7FAFE4748016821F00401016000211E
:10264000019145490A6822F001020A60096801F017
:1026500001010191C16841F44041C160C16801F4C8
:10266000404101910199C1688904FCD50220A02153
:102670000E9111900F900024082505210D91CDE9B0
:102680000B004FF480300390099405941394129535
:10269000012002900420109002A8FFF71DF94020AD
:1026A0004FF480611B911C90CDE91900CDE91745CD
:1026B0000320169004213F20159015A8FEF748FF2F
:1026C000264C206840F080002060D4F8F40040F0F0
:1026D0000200C4F8F400D4F8F40000F00200019005
:1026E0000198FEF725F8D4F8DC0040F00050C4F85B
:1026F000DC00D4F8DC0000F0005001900198D4F820
:10270000DC0040F08040C4F8DC00D4F8DC0000F0CD
:10271000804001900198D4F8DC0040F00040C4F8FB
:10272000DC00D4F8DC0000F0004001900198D4F8FF
:10273000A80040F08050C4F8A800D4F8A80040F0E9
:102740000050C4F8A8001DB0F0BD00BF000001019A
:1027500014ED00E00C4802582C04005800440258C4
:1027600010B51E4C606821680840800708D54FF6F8
:10277000FD7060602168084020601948C06880478B
:10278000606821680840400708D54FF6FB7060601C
:10279000216808402060124800698047606821680D
:1027A0000840000708D54FF6F770606021680840C0
:1027B00020600B4840698047606821680840C00677
:1027C00058BF10BD4FF6EF70606021680840206070
:1027D00003488069BDE81040004700BF0C0000407E
:1027E000C4000024B0B50268B0F1804F05D0294B79
:1027F00098421CBF284B984237D122F070024B6898
:102800001A43B0F1804F1CBF224B98420BD0224B91
:1028100098421CBF214B984205D0224B98421CBFC6
:102820001F4B98422BD122F44072CB681A434D695A
:1028300022F080020B688C682A430260C4628362C3
:10284000184A90421CBF164A904204D1096901639C
:1028500001214161B0BD144A9042F7D0134A904221
:10286000F4D0134A9042F1D0F2E70C4B9842C4D016
:102870000B4B9842C1D00B4B9842BED0C1E70A4BDC
:102880009842D0D0094B9842CDD0094B9842CAD03B
:10289000CDE700BF0004004000080040000C0040ED
:1028A0000004014000000140004001400048014098
:1028B0000044014010B5930712D400F12803D0075B
:1028C0001ED153E8000F084203D1BFF32F8F002021
:1028D00005E020EA010243E8002404B1F1E710BD5D
:1028E000806A00EA01038B42014618BF002112F002
:1028F000010208BF014653EA020018BF084610BD96
:1029000053E8000F00EA01028A4203D0BFF32F8F81
:10291000002005E020EA010243E8002404B1EFE7CB
:1029200010BD0000B0B5104A0023443215462C6893
:102930003CB12569A94209D3491B04F10C05234682
:10294000F5E70024C0E90234016106E0C0E9023481
:102950000161A0602569691A2161002B18BF03F18C
:102960000C021060B0BD00BF1400002410B5816AD5
:10297000CA0706D00268C36A546824F400342343AB
:1029800053608A0706D50268036B546824F48034C8
:10299000234353604A0706D50268436B546824F406
:1029A0008024234353600A0706D50268836B54686A
:1029B00024F4004423435360CA0606D50268C36B5F
:1029C000946824F48054234393608A0606D50268F1
:1029D000036C946824F40054234393604A0610D592
:1029E0000268436CB3F5801F546824F4801444EAF1
:1029F0000304546005D1836C546824F4C004234359
:102A00005360090606D50168C06C4A6822F40022AA
:102A10001043486010BDBCB504460020C4F88800CF
:102A2000FDF752FF05462068016809070BD56FF0D6
:102A30007E4000904FF4001100222B46204600F00B
:102A4000DBF970B92068006840070CD56FF07E4054
:102A500000904FF4800100222B46204600F0CCF974
:102A600008B10320BCBD00202021C4F8801084F8E8
:102A70007C00C4F88410BCBDFEB5044601688068C3
:102A80009E4ED4E903230D682E4018436569636E9A
:102A90002843E56928431843994B30430860994E11
:102AA0004868B14220F4405040EA02004860A06902
:102AB0001CBF226A10438A681A40934B10438860F7
:102AC000626AC86A20F00F001043C8628F488142D2
:102AD00028D08F48814232D08E4881423CD08E48E7
:102AE000814246D08D48814200F050808C4881421E
:102AF00000F05880B14200F061808A48814200F0C5
:102B000069808948814240F07B80586D9C46C0F3C3
:102B1000C200052800F275800127DFE800F0736726
:102B2000696B6D6F586D9C4600F00700052800F238
:102B300068800027DFE800F0665A5C5E6062586DCE
:102B40009C4600F00700052800F25B800027DFE8C4
:102B500000F0594D4F515355586D9C4600F00700F9
:102B6000052800F24E800027DFE800F04C40424488
:102B70004648586D9C4600F00700052800F2418049
:102B80000027DFE800F03F333537393B586D9C466E
:102B900000F00700052834D80027DFE800F03327CD
:102BA000292B2D2F586D9C4600F00700052828D8AA
:102BB0000027DFE800F0271B1D1F2123986D9C468E
:102BC00000F0070005281CD80227DFE800F01B0FE3
:102BD00011131517586D9C46C0F3C200052810D874
:102BE0000127DFE800F00F030507090B042709E0C0
:102BF000082707E0102705E0202703E0402701E031
:102C00009C4680277848B1420FD00121B5F5004F8E
:102C10001BD1082F25D8DFE807F00589C8C88CC864
:102C2000C8C89000FEF7BEFD8BE0402F30D0042FC7
:102C300031D0082F33D0102F39D0202F41D0022F80
:102C400040F0B280FDF718FF2DE0082F14D8DFE820
:102C500007F0058DACAC90ACACAC9400FEF7A2FDD7
:102C60008FE0102F00F0A980202F6CD0402F40F073
:102C70009C804FF4004066E0102F00F0A980202FC8
:102C800000F08180402F40F090804FF400407AE0C7
:102C90004FF4004015E06846FDF700FF02E068468B
:102CA000FDF780FF019800287CD0626A09E0DCF81B
:102CB000000080064D4804D5DCF80010C1F3C101C6
:102CC000C8404B4931F812106268B0FBF1F002EBDA
:102CD00042030121984268D31303984265D8010E3C
:102CE0000002002310EB520041F10001FDF752FBFE
:102CF000A0F540713F4A914252D955E0F369FFCFA8
:102D0000FFF4FF11000C005800440258004400403A
:102D100000480040004C0040005000400078004057
:102D2000007C00400014014000100140FEF748FD07
:102D300007E06846FDF7B2FE02E06846FDF732FFA5
:102D4000019878B3626A2A4931F81210B0FBF1F0A9
:102D500061684A0802EB4000B0FBF1F04FF6F071F9
:102D6000014021D0C0F34200084319E0FEF728FDDE
:102D700007E06846FDF792FE02E06846FDF712FFA5
:102D8000019878B1626A1A4931F81210B0FBF1F07B
:102D9000616800EB5100B0FBF1F080B2102803D362
:102DA0002168C860002100E0012100204FF00112DD
:102DB000C4E91A2020670846FEBDDCF80000800642
:102DC0000A48C0D5DCF80010C1F3C101C840BAE719
:102DD000DCF8000080060548D5D5DCF80010C1F30A
:102DE000C101C840CFE700BF00093D000090D003FB
:102DF0004C4E0008FFFC0F002DE9F843DDF8209051
:102E00000F46984616460446016809F10105C8694F
:102E10003840C01BB0FA80F04009B04225D1002DE7
:102E2000F5D0FDF751FD2168B9F1000F0A681FD0F8
:102E3000A0EB080048451BD8500744BFC8695FEAAB
:102E40000050E4D54FF400600862086820F4D070A8
:102E50000860886820F0010088602020C4F88000A5
:102E6000C4F8840004F188000EE00020BDE8F88377
:102E700022F4D0700860886820F00100886020206B
:102E8000C4F8800004F18400002184F87C10202123
:102E900001600320BDE8F883034800F007B800BFD5
:102EA00001482C3000F002B81001002470B504462F
:102EB0000068C56906688168A90616D5406AA168D8
:102EC000E28A8854E18A4A1CE282E18992B28A420B
:102ED00001D30022E282628B8A4202D2618B0131ED
:102EE0006183616A09B1C0B2884706EA050001063C
:102EF0001FD5A18AA1B1012184F82810618AD4E9E3
:102F00000023595C9162618A01316182A28989B290
:102F1000914201D300216182A18A0139A18208E096
:102F200021680A6822F080020A600A6842F04002C2
:102F30000A6040061ED5A08A88B1608AD4E90012D2
:102F4000105C8862608A01306082A18980B2884208
:102F500001D300206082A08A0138A0820AE02168A3
:102F6000206A0A6822F040020A6000B1804700200F
:102F700084F828002068016A41F001010162016AB9
:102F800041F002010162016A41F004010162016A3B
:102F900041F008010162016A41F010010162016A19
:102FA00041F040010162016A41F480710162016AED
:102FB00041F400710162016A41F400310162016A69
:102FC00041F480110162016A41F02001016270BD8B
:102FD000FEE7000010B500F00F03064C044AB0F104
:102FE000FF3F2344C8BF83180801187010BD00BFFD
:102FF00000E400E014ED00E0CE498A7AC87A82420B
:1030000001D100207047885C0132D3B2092B88BF00
:1030100000228A72704700BF80B500F00DF800F002
:1030200021F900F0ADF900F019F800F087F9BDE8DA
:10303000804000F093B900000648016841F08071BB
:103040000160054800214160016841F00101016013
:10305000704700BFFCED00E0001000E02DE9F043F8
:103060009BB05048504D08AC504E4FF003094FF004
:1030700001080227016841F008010160016801F0C0
:10308000080108910899016841F010010160016888
:1030900001F0100108910899016841F040010160B8
:1030A000016801F0400108910899016841F0800130
:1030B0000160016801F0800108910899016841F4FC
:1030C00080710160016801F480710891089950F8DD
:1030D0000C1C41F4805140F80C1C50F80C0C21469B
:1030E00000F4805008900898CDF82C90CDF82880F6
:1030F00009970C200C904CF2B37008902846B0470A
:103100004FF680700890214605F58060B04705F5C0
:1031100040602146CDF82090B0474FF47F400890A2
:10312000214605F58050B04740F2CF600890214617
:1031300005F5A050B0474FF4805100201A90CDE91A
:103140001800CDE91001CDE90E00CDE90670CDE9FA
:103150000487CDE902772021CDE90C01CDE90A00F1
:10316000052001901249089104F1280001F58271AF
:1031700009911821FDF758F901A920460A46FEF7E2
:1031800009FE20B10BA04FF49271FDF702FA11482D
:1031900040F6147101601049006808601BB0BDE87A
:1031A000F08300BFE0440258000C025841070008B9
:1031B000004000522E2E2F2E2E2F557365722F6237
:1031C00073702F7372632F6273705F666D635F69D4
:1031D0006F2E6300B80100240010006010B594B099
:1031E00001AC302104F11C00FDF71EF919480168FB
:1031F00041F00101016000684FF0FF3100F0010073
:10320000009004914FF080410191002005908021B1
:10321000CDE906010390104810490068B0FBF1F0B9
:10322000013880B2029000982046FEF7EFFD20B1F1
:103230000B4840F23621FDF7ACF91C200021022298
:10324000FDF7EEFB1C20FDF7DDFB01A8FEF710FEED
:1032500014B010BDE84402580C00002480841E0005
:103260005C4F000870B586B032480021022264230A
:10327000002401734181F048A02C05D005191034B9
:1032800029732A71AB60F7E706216422A0F86B105E
:10329000A0F86820A0F85B10A0F85820A0F84B1008
:1032A000A0F84820A0F83B100287AE480025224E27
:1032B00001AC016841F002010160016801F0020106
:1032C00001910199016841F004010160016801F078
:1032D000040101910199016841F040010160016818
:1032E00001F0400101910199016841F08001016004
:1032F000016801F0800101910199016841F4807138
:103300000160006800F4807001900198032004902F
:10331000CDE90255082D0AD006EBC500214680886C
:10332000019056F83500FDF70BFA0135F2E706B0CB
:1033300070BD00BFB0990024D84E000810B5064CEF
:103340000120A0470220A0470320A04704202146D7
:10335000BDE81040084700BF3D360008002107487F
:103360000022302A06D083180C321962596259772C
:103370001977F6E701210170FFF730BFC400002480
:103380002DE9F04FB5B06D486D4B00214FF0042290
:103390006C4C6D4D6E4E01824182C182018341832E
:1033A00081828187C187A0F84210A0F84410A0F85C
:1033B0004610C0E90054C0E90232644BC0E907116D
:1033C000416280F82810634CC0E90B46C0E90D3219
:1033D000A0F8401080F854105F4A614E1F915F4B77
:1033E000C0E91263026501200190012601A8FDF7E2
:1033F0005DFC5C4F4FF00709DFF870A1386840F0C2
:1034000001003860386800F001003090309838686A
:1034100040F001003860386800F0010030903098CA
:10342000386940F010003861386900F010003090C1
:103430003098CDF8D0900320CDE9326030AE022034
:10344000319031464FF40070309047488346D04762
:10345000584631464FF48068CDF8D090CDF8C08002
:10346000D047252004210022FDF7DAFA2520FDF7B8
:10347000C9FA28464FF4E13100220C2300F014F978
:10348000286A314640F040002862A86940F00800F0
:10349000A861286840F0200028600BF58065386836
:1034A00040F002003860386800F002000090009898
:1034B000386840F002003860386800F00200009080
:1034C0000098B86840F48020B860B86800F48020A4
:1034D00000900098CDF8D0900320339001203290D6
:1034E0000220CDE930802846D0474FF4006030906C
:1034F0003146CDF8D0902846D0472720042103221A
:10350000FDF78EFA2720FDF77DFA20464FF416517D
:1035100000220C2300F0C8F8206A40F0400020622E
:10352000A06940F00800A061206840F02000206001
:10353000FEF744FF35B0BDE8F08F00BF1001002456
:10354000BC010024BC09002400100140BC0500247B
:10355000BC0D002400480040F923000805240008A1
:10356000FD230008E044025800000258410700080B
:103570002DE9F0474FF0000A2F4D4FF005094FF0AD
:10358000010800270026A02F53D0F0B2EC19FEF757
:103590003BFD217920B1042907D884F8049033E059
:1035A000062907D384F804902AE0092906D8481C84
:1035B000207129E0C9B1481E207121E0A07A38B9F4
:1035C00006EB460084F80A800130C0B200F05AF8D9
:1035D0002089C8B1E188814219D20131E18081425C
:1035E00012D106EB460003301FE0A07A012807D174
:1035F00006EB460084F80AA00230C0B200F042F8A0
:1036000084F80CA0A4F806A010370136BBE7E07AD6
:103610000028F9D0217B01312173C9B28142F3D353
:1036200006EB460084F80CA00130C0B200F02AF886
:10363000EAE7BDE8F08700BF109900240138C1B265
:10364000032988BF704740B20D4951F8200001217D
:10365000FEF764BC0138C1B2032988BF704710B5BA
:1036600040B2074951F820402046FEF751FCB0FA1D
:1036700080F041092046BDE81040FEF74FBC00BF76
:10368000644E00080549CA7A8854C87A0130C2B22B
:10369000092A88BF0020C872704700BFB099002473
:1036A000FFF766BF704700002DE9F041A4B00DF1AF
:1036B00004080E46074668211C46154608F12400FA
:1036C000FCF7B2FE0020CDE90300CDE901760B90B6
:1036D0000990CDE90700CDE905544046FEF7E4FB2B
:1036E00020B1044840F22631FCF753FF24B0BDE876
:1036F000F08100BF7B4F00082DE9FC41144688464D
:10370000FCF724FF00283CD00646C06900B1804782
:10371000002001210022A2422ED081F31088B38A1A
:10372000ADF8063080F31088B389BDF806709F426B
:103730000CD3BDF806709F42EFD133681F683F0677
:10374000EBD41F6847F080071F60E6E718F80230E7
:103750007768358A01327B5581F31088338A0133CB
:103760003382B5899BB2AB4228BF3082B38A013322
:10377000B38280F31088CEE73068016841F08001A1
:103780000160BDE8FC81E0B58DF807100DF107017F
:103790000122FFF7B1FF8CBD10B50446C1B2002075
:1037A000FFF7F1FF204610BDFEF7C8FEFEF728FB2D
:1037B00000F070F80448054A002100F043FE044977
:1037C000086000F083F8FEE7C1040008044E00081A
:1037D000B401002410B50446FCF7DEFEEFF30580CB
:1037E00028B9EFF3108010B9EFF3118030B16FF00A
:1037F0000500FCF7D3FE6FF0050010BD2046DFF892
:1038000008C000DF10BD00BF8944000810B50446A1
:10381000FCF7C6FEEFF3058028B9EFF3108010B96E
:10382000EFF3118030B16FF00500FCF7B7FE6FF0D9
:10383000050010BD2046DFF808C000DF10BD00BF46
:10384000B1440008EFF3058048B9EFF3108030B9B8
:10385000EFF3118018B9EFF31480C00701D100F025
:1038600045BEDFF808C000DF704700BFED44000828
:10387000EFF3058028B9EFF3108010B9EFF3118052
:1038800008B100F03DBEDFF808C000DF704700BFA0
:103890000145000880B500F0E9F8FCF787FEEFF37A
:1038A000058028B9EFF3108010B9EFF3118030B123
:1038B0006FF00500FCF777FE6FF0050080BDDFF8C4
:1038C00008C000DF80BD00BF1545000880B5FCF7CB
:1038D0006FFEEFF3058028B9EFF3108010B9EFF316
:1038E000118030B16FF00500FCF75DFE6FF0050050
:1038F00080BDDFF808C000DF80BD00BF6D46000856
:10390000F8B51F4616460C460546FCF75CFEEFF37D
:10391000058028B9EFF3108010B9EFF3118068B378
:10392000E5B1DFB9D4B12878FA2817D12846FEF7D7
:10393000B6FBE0B1074600F10C016A6A2046FCF7CD
:103940005AFD0EB1F87830703846FD6000F08EFAFE
:1039500028462146FCF742FE002406E028466FF088
:1039600003016FF00304FCF72DFE2046F8BD284646
:103970002146FCF72FFE6FF00204F6E72846DFF839
:103980000CC0214632463B4600DFF8BD1147000817
:1039900070B514460D460646FCF71AFEEFF3058097
:1039A00028B9EFF3108010B9EFF3118038B100207F
:1039B0006FF005010024FCF705FE204670BD30467F
:1039C000DFF80CC02946224600DF0446F5E700BFB9
:1039D00021480008F8B51F4616460C460546FCF778
:1039E000FAFDEFF3058028B9EFF3108010B9EFF37B
:1039F000118078B3F5B1EFB9E4B12878FA2819D17C
:103A000005F10C0000F0B7F8E8B107466A6A0C301F
:103A10002146FCF7F0FCF920C7E901453870FE703B
:103A20000026BE70384600F021FA28462146FCF7F1
:103A3000CDFD06E028466FF003016FF00306FCF7AA
:103A4000C1FD3046F8BD28462146FCF7C2FD6FF0A7
:103A50000206F6E72846DFF80CC0214632463B4610
:103A600000DFF8BD61490008FEE7FEE77047F8B5E2
:103A7000A8B1A1B1042A12D2034601F10F0424F027
:103A8000070C53F8085F2E46EF1A5D6825F0030413
:103A90003C1B644506D235683346002DF3D1002423
:103AA00000231EE0D0E9004607196644466057F837
:103AB000044CB44203D2A7F1080466605D6855B1B6
:103AC00025F003051C68EC501D441D604CEA0204FF
:103AD0002B466C6002E04CEA02045C6003F10804CF
:103AE0002346FCF767FD2046F8BDB0B560B159B17B
:103AF00000F10804A1F108020023944207D02546F2
:103B00002468002C2B46F8D10024002210E051F844
:103B1000045C446825F00305A4EB0504446013B17C
:103B200012681A6002E0002241F8042C01240122EC
:103B3000FCF744FD2046B0BD10B508B1420705D0E2
:103B400000240022FCF73BFD204610BD1829F7D3C6
:103B500011F00702F4D10A181024A2F108038360BF
:103B6000002342F8083C82685460C0E90014012434
:103B70000122C360E6E7B0B5002817D000F11401B8
:103B800051E8004F14B9BFF32F8F04E0226841E8D9
:103B9000002303B1F4E73CB1011D51E8002F531C91
:103BA00041E8003505B1F8E7214602E00024002095
:103BB0000021FCF700FD2046B0BDB0B500281FD0A5
:103BC000C2688A421CD802698A4219D900F11402DB
:103BD00013680B60BFF35F8F52E8003F0C689C4294
:103BE000F6D142E8001505B1F2E7021D52E8003FA8
:103BF0005C1E42E8004505B1F8E70024002203E01E
:103C00006FF003046FF00302FCF7D6FC2046B0BD52
:103C100070B50E4601460020E9B1E6B11446D2B1B6
:103C20001D46C3B1002004FB0652C1E90060C1E992
:103C300002452B46C1E90425084631462246FCF7D9
:103C4000BCFC701E20B12919296001380D46F9E726
:103C500000202860012070BD2DE9F04104468078E5
:103C6000D0B3E56821462846FEF765FA002005F145
:103C70000C06207021463046FFF79FFFA86848B326
:103C80003046FFF778FF28B30446284600F054FA80
:103C90000021002206464FF0000800F021FB3046CC
:103CA00000F0B0FA876806466A6A04F10C003946EB
:103CB000FCF7A1FBF9202070214684F80280F0680F
:103CC000E0702846FEF70BFA28463946BDE8F04179
:103CD000FCF77DBCBDE8F081D4E90115A86858B3B4
:103CE0004078832828D12846FCF771FC284600F04C
:103CF00023FA0021002206464FF0000800F0F0FAF7
:103D0000304600F07FFA866807466A6A04F10C01C3
:103D10003046FCF770FBF86808B1E178017028467E
:103D20003146FCF75BFC84F8008005F10C0021466D
:103D3000BDE8F041FFF741BF2846FCF748FC2846A4
:103D40002146BDE8F041FEF7CAB92DE9F04104462D
:103D500000274FF0010814B325466469E87800078E
:103D6000F9D5284600212F76FCF73BFCA8680028EF
:103D7000F1D0284600F0E0F900210022064600F0CC
:103D8000AFFAC5E90367F06A686100B105612846CA
:103D9000012185F81880F562FCF722FCDBE7BDE81D
:103DA000F081B0B5C278920715D5C06890F821208F
:103DB000C36A9C688C4208BF8C682CB194F920407F
:103DC00055B2AC42C8BFE2B25B69002BF1D190F8AA
:103DD0002010914200D1B0BD80F82020BDE8B04055
:103DE00000F0D9B970B5D34C04F1560504F15A0668
:103DF000B4F85400D5E85F1F11B9BFF32F8F04E06A
:103E00004A1EC5E8532F03B1F4E7090429D0D6E8C8
:103E10005F1F4A1C904200D80022C6E8532F03B10E
:103E2000F5E788B2E16D51F82000D0B10178F139A1
:103E30000829DDD8DFE801F006050905050C0F05A6
:103E40001200D5E7216E8847D2E7616E8847CFE739
:103E5000A16E8847CCE7E16E8847C9E7216F8847A4
:103E6000C6E70020BDE8704000F010B970B501460B
:103E7000F14800F15603B0F85420D3E85F4FA24256
:103E800002D8BFF32F8F04E0651CC3E8565F06B16C
:103E9000F3E7A3B2934214D200F15803D3E85F4F83
:103EA000651CAA4200D80025C3E8565F06B1F5E7B5
:103EB000A2B2C36D43F82210417A39B10121817257
:103EC00070BD0220BDE87040FFF7CEBD02484FF044
:103ED0008051016070BD00BF04ED00E010B501210C
:103EE000417090F92030EB491C310A46896841B194
:103EF00091F920409C42F8DCC0E9021290600C313C
:103F000004E00021C0E9021202F108010860BDE8E6
:103F10001040FCF771BB00BFB0B54A1C0DD0EF4A92
:103F200000242C3215462B68E3B1DD69A9421BD36E
:103F3000491B03F110051C46F5E7E8490023303121
:103F40000C461A46236803F11004002BF9D14FF0F8
:103F5000FF33C3614FF00003C0E904329AB102F1AC
:103F6000100110E0002500E00125002CC0E9043418
:103F7000C16118BF04F1100210602DB1DA69511A45
:103F8000D96103F114010860B0BD00BFC2690169C5
:103F9000531C0AD021B143694B61CB691A44CA61F1
:103FA00042693AB9CD48C162704709B142694A6174
:103FB00042691AB10023436111617047F4480163FB
:103FC000704700BF70B5F24EF46A1CB1E069013869
:103FD000E06103D070BDE069002852D160781338E9
:103FE0004FEA3010082836D8DFE800F00535090D13
:103FF000131E242A30002046FCF7CFFA2BE020467F
:10400000FCF7F7FA27E0204600F0BFF8FCF7CAFA01
:1040100021E0204600F0B9F821460546FFF7C1FE31
:104020002846FCF7DCFA16E0204600F0AEF8FCF774
:10403000D9FA10E0204600F0A8F8FCF7C1FA0AE02F
:10404000204600F0A2F8FCF7C0FA04E0204600F099
:104050009CF8FCF7C2FA94F82200C0064FF020004A
:1040600058BF6020A16B41582046FCF7C7FA204694
:1040700000F081F8204600F0BDF82469002CAAD198
:1040800001E000206061F46270BD00BFB0B505467C
:10409000E448017A446965B1022905D194F9200008
:1040A00095F92010814211DC2846BDE8B04000F0AF
:1040B000A1B8022912D1456A85B194F9200095F979
:1040C000201081420ADD284600F055F82046FFF70F
:1040D00005FF2846BDE8B04000F0CEB8B0BD00BF37
:1040E00010B5044600202080A07881070DD5C006B9
:1040F00005D4EE48216B406FFFF7F7FC05E0FA4866
:10410000216BD0F88400FFF758FDA078C00708BFE6
:1041100010BDFA49D1F8880020B12146BDE8104011
:10412000FFF74BBDD1F880002146BDE81040FFF7F6
:10413000DCBC00BF140000240146806882688A60ED
:1041400002B1D1600021C160704710B591F92030F3
:104150000246806840B190F920409C42F8DAC1E9FB
:10416000020291600C3004E00020C1E9020202F179
:104170000800016010BDC16831B182688A60826840
:1041800002B1D1600021C16070470178F12901D1ED
:10419000C068FAE77047B0B50446054625B12878EF
:1041A000F12802D1ED68F9E7B0BD2046FFF7E3FF43
:1041B00028462146BDE8B040FFF7C7BFB0B504466A
:1041C0004078332815D194F82320616A2046FEF701
:1041D00071FB70B1054620460022294600F080F8A8
:1041E00094F82310606A2A462346BDE8B040FCF7E5
:1041F000FFB9B0BD014601204870C5481C30FFF72B
:10420000A4BF00BF90F82210C9064FF0200158BF8C
:104210006021806B08447047BD48416939B1086B23
:104220008A6B824204D90068044A904200D17047E8
:104230000120FFF719BC00BF14000024A52E5AE28C
:1042400070B5624C0A480021A26D666E00F038FC21
:10425000AF4DA8624EB1E26D0648002100F030FC7F
:10426000A864002818BF012070BD012070BD00BFE8
:104270006B3A00089543000810B50446F94884617C
:1042800002206070FFF7C8FF2046BDE81040FCF731
:10429000B4B900BF14000024F8B5F24F0C4605462F
:1042A0000020397A022917D1796AA9B17E6921469D
:1042B0003046FCF798F9304621467570FFF72CFE22
:1042C000786A8168796211B107F11C02CA60002125
:1042D000C160FFF7D1FF0120F8BD00BF140000242A
:1042E00070B515460E460446FCF788F994F822008E
:1042F000C0064FF0200058BF6020A16B46502046FA
:10430000FFF744FE2046002DBDE8704008BFFFF7D0
:1043100071BFFFF7BBBE0000B0B5FDF71BFFF84D46
:10432000286DE96801F10101E96000B18047FFF7FC
:1043300049FE0020FFF7AAFE296C59B1AA69A86BB3
:10434000904202D0C5E90E21B0BDE96B19B1013927
:10435000E96300D0B0BD297A0229FBD16C6A002C38
:10436000F8D090F8200094F820108142F2D1204635
:10437000FFF701FFA86BFFF73DFFA86BFCF73CF9C7
:104380002046FFF779FF286CC5E90E40B0BD00BF9D
:104390001400002482B0DC480821D0E91820FFF77F
:1043A000F7FAD74D6C460A49C5E9130121460022A8
:1043B0004FF0FF33FFF7A4FA30B9DDE90001FCF755
:1043C0001EF9DDE900108847E86CEFE70C4D0008A6
:1043D000D543000870B5CA4D6C6C0CB3206901263A
:1043E00001382061E4B12069D0B9E06808B1A16862
:1043F00081606864E86C04F1180100220023FFF773
:10440000E9FA18B103202146FFF72EFBE0780128D6
:1044100011BF667061692046FEF784FA6C6CE1E7B3
:1044200070BD00BF14000024FCF7E1F8DFF810C0F5
:1044300000DF00204FF0FF31FCF7D8F8FEE700BFA7
:104440004D4A000870B514460D460646FCF7D3F8F1
:10445000EFF3058028B9EFF3108010B9EFF3118066
:1044600038B100206FF005010024FCF7BFF82046AA
:1044700070BD3046DFF80CC02946224600DF0446F6
:10448000F5E700BFC14A000810B568B10446132023
:104490002146FFF701FF18B12046FCF780F803E042
:1044A000DE484069FCF779F8002010BD14000024B4
:1044B000B0B5DA4DE968441A002C08DD1320214616
:1044C000FFF7EAFE50B12046FCF76BF809E06FF009
:1044D00003006FF00304FCF761F803E06869FCF780
:1044E0005CF800242046B0BD1400002410B5CB4871
:1044F000047A2046FCF758F8204610BD140000242A
:1045000010B5C64CE068FCF750F8E06810BD00BF7D
:10451000140000242DE9F843C04F387A48B101282F
:1045200000F099804FF0FF304FF0FF34FCF73BF87C
:1045300094E007F108009C21FBF776FFDFF868871D
:10454000B8F81000D8E90B41A7F85400D8E90202E6
:104550003864FA652046FFF7EFFA08B1C7F88040E3
:10456000D8E90541DFF80091D8E907562046C84749
:10457000D7F880100028284618BF214679673146B1
:10458000C847D7F88010002818BF2946B967D8E96E
:1045900009412046C847D7F88010002818BF214697
:1045A000D8F83440F9673CB12168D4E902232046A9
:1045B000FFF72EFBC7F88440D8F838403CB121689B
:1045C000D4E902232046FFF723FBC7F88840D8F838
:1045D0003C403CB12168D4E902232046FFF718FB98
:1045E000C7F88C40D8F840403CB12168D4E9022398
:1045F0002046FFF70DFBC7F89040D8F844403CB187
:104600002168D4E902232046FFF702FBC7F8944053
:10461000D8F848403CB12168D4E902232046FFF78E
:10462000F7FAC7F89840D8F84C403CB12168D4E973
:1046300002232046FFF7ECFAC7F89C40D8F8504018
:104640003CB12168D4E902232046FFF7E1FAC7F81C
:10465000A04001203872FBF7AAFF00242046BDE8E5
:10466000F88300BF14000024393B0008B0B5F64CB5
:10467000207A012823D1FFF7E3FDC8B12148FF21AB
:10468000214D8175817D026881F0FF01C2F3022214
:10469000B1FA81F1C1F120018A4228BF511CFE22EA
:1046A00002FA01F1C17468681849FDF76FFD70B135
:1046B0004FF0FF304FF0FF34FBF775FF05E06FF070
:1046C0000600FBF770FF4FF0FF342046B0BDFDF74A
:1046D00059FD2061FDF744FD04F11C00FFF72CFD9E
:1046E000FFF7CAFD2878C0070CBF0320022080F323
:1046F000148802202072FBF75CFF0024E5E700BF6E
:10470000140000240CED00E00C4D000879030008B3
:104710002DE9F0410446002853D00D46002950D021
:104720002078FA284DD120461F469046FDF7B7FC69
:10473000002850D0064620463146FDF7FCFC626A50
:1047400006F10C012846FBF756FEB8F1000F02D027
:10475000F07888F8000020462946FBF73FFF04F177
:104760000C073146002535703846FFF726FAA06859
:1047700070B33846FFF7FFF9002548B306462046D8
:10478000FFF7DAFC002101220746FFF7A9FD3846B2
:10479000FFF738FDD0F808800746626A06F10C0082
:1047A0004146FBF728FEF92030703146B570F868B5
:1047B000F0702046FDF793FC20464146FBF707FFCB
:1047C00006E020466FF003016FF00305FBF7FAFEE9
:1047D0002846BDE8F0819FB1204629463A46FBF7BE
:1047E000F3FE83203946FFF757FD80B1B348416996
:1047F0002046FFF7AAFCEFF30980C0E9025809E060
:1048000020462946FBF7E6FE6FF00205E0E720466A
:10481000FBF7DBFE6FF00105DAE700BF14000024B0
:104820002DE9F84F68B10F4659B107F10F01054660
:10483000B0FA80F021F00306B6FA86F108441F288A
:1048400008D8002400206FF00301FBF7BBFE2046D0
:10485000BDE8F88F06FB05F9B2B19468D2F800A064
:10486000D2E90480DCB1A1071CD1D168332919D960
:10487000B8F1000F43D0484543D318F0030040D1AE
:1048800034B14FF0000B1BE04FF0000A4FF000086E
:104890008A49D1F8A00050B1FFF76DF90DE0D16859
:1048A0000029E5D0002400206FF00801CDE7D1F801
:1048B000800034210122FFF7DAF804464FF0010BA3
:1048C000B8F1000F2CD15CB3CDF800A0DFF8D4A371
:1048D00049460022DAF87C00FFF7C9F8804620B18B
:1048E00040464946FBF7A0FD16E0BBF1000F12D091
:1048F000DAF8A00050B12146FFF75FF90BE000287D
:10490000BED0002400206FF009019EE7DAF8800095
:104910002146FFF7EAF80024DDF800A00BF1020BB6
:104920000020C4B1C4E90970C4E90B00C4E901A0C6
:10493000FA20207029463246434684F802B004F13A
:104940000C00FFF765F9D748044901676168204604
:10495000FBF737FE7BE76FF0040176E7593C000870
:104960002DE9F041044650B3884641B32078FA2837
:1049700025D1A0681F46164658B34078832828D111
:1049800020464146FBF723FE2046FFF7D5FB0021DA
:1049900001220546FFF7A4FC2846FFF733FC856893
:1049A0000746626A41462846FBF725FDF86800B1D4
:1049B000067020462946FBF711FE002606E0204639
:1049C0006FF003016FF00306FBF7FCFD3046BDE816
:1049D000F08104F10C00FFF7CEF898B10546626A49
:1049E0000C304146FBF707FDF92028702946EE7090
:1049F0000026AE702046FDF772FB20464146FBF7CD
:104A0000E6FDE3E79FB1204641463A46FBF7E4FD69
:104A100093203946FFF740FC80B1A2484169204607
:104A2000FFF793FBEFF30980C0E9028609E0204617
:104A30004146FBF7CEFD6FF00206C7E72046FBF7C5
:104A4000CCFD6FF00106C1E71400002470B5954D50
:104A5000287A022824D1686A10B36C69E06AFFF7EB
:104A600074F9A06930B100210022FFF739FCA06978
:104A7000FBF7C0FDEFF30980A063686A8168696293
:104A800011B105F11C02CA600026C660FFF7F4FBF5
:104A9000E0786E61C00704D12046FFF721FB08E0F3
:104AA00070BD04206070E660686BA06000B1C460F7
:104AB0006C632046BDE87040FBF797BD14000024EE
:104AC0002DE9FE4FF8B106460AB302F1100A9468C8
:104AD000D2E900939AE8A0045CB3A0072CD1D06877
:104AE000432829D925B1002F5CD015F0070059D1F2
:104AF000BAF1000F4AD0AAF10100382848D30020AB
:104B00006FF00B011BE000206FF0030117E04FF086
:104B1000010B4FF0180A0023002500274FF0000971
:104B2000019160490293D1F8880070B1FFF723F832
:104B300011E0D0680028D5D000206FF008010024D3
:104B4000FBF754FD2046BDE8FE8FD1F880004421DC
:104B50000122FEF78CFF04464FF00108002D48D1DA
:104B6000002C46D0BBF1000F0DD04E494E4AD1F873
:104B70008400576DD0B1FEF7FEFF0028054618BF30
:104B800008F1100818E04748406F10E04FF0180A8D
:104B9000F7B1482F06D317F0070003D14FF0000BF1
:104BA000019118E000206FF00A01C8E7486F39460C
:104BB0000022FEF75CFF0546CDB95FEAC87015D04C
:104BC0003849D1F8880060B12146FEF7F6FF0DE0C4
:104BD00001914FF0010B002CA3D002934FF000087D
:104BE000BCE7D1F880002146FEF77FFF002448F0A3
:104BF0000208002C45D00298E0701821C4F80490F7
:104C000084F8028040F2F110208004F10800FBF7E4
:104C10000BFCE9190020FD22C4F82300C4F827008A
:104C2000C4F82B0084F82F0084F8222084F821A0F7
:104C300084F820A0C4E90C574039C4E90E161B497A
:104C400029601949097849071FD4A16B00220D2A50
:104C500003D041F822000132F9E7154AC1E90D26D7
:104C60004FF08070C8630198086212494A460D48A7
:104C70000166E16B2046FBF7B7FC2046FFF706FA1A
:104C800060E700206FF004015AE76FF010012A1D61
:104C90004FF0CC3301EB97010029D6D008C201397F
:104CA000FAE700BF140000240C4D0008A52E5AE2BC
:104CB00029440008BD4100081EF0040F0CBFEFF3AB
:104CC0000880EFF30980FDF73BB902E008C8121F26
:104CD00008C1002AFAD170477047002001E001C1E5
:104CE000121F002AFBD1704710B5044601E0FEF701
:104CF00053FD14F8010B04490028F8D1BDE8104019
:104D00000A20FEF749BD0000000000240700000053
:104D1000E803000005000000C0110024100000009E
:104D20000000000000000000000000000000000083
:104D300000000000000000000012002400800000BD
:104D40000000000000000000000000000000000063
:104D50000000000000000000000000000000000053
:104D600000040000784E0008B44E00089C4E000875
:104D700004000000849200240C9300240000000032
:104D80000000000000000000000000000000000023
:104D90000000000000000000000000000000000013
:104DA0000000000000920024349200240000000063
:104DB0000102030401020304060708092A4F000840
:104DC00000000000000000000000000000000000E3
:104DD000000200002A0000000000000000000000A7
:104DE000394F000800000000000000000000000033
:104DF00000000000000400002B0000000000000084
:104E0000000000004B4F0008000000000000000000
:104E10000000000000000000000800002C0000005E
:104E20000000000000000000184F00080000000013
:104E3000000000000000000000000000000400006E
:104E40002900000000000000000000000100020036
:104E50000400060008000A000C00100020004000BA
:104E600080000001000100000002000000040000BA
:104E7000000800000000000000000000000000002A
:104E800084920024440000001093002400020000DB
:104E90000100000000000000000000000000000011
:104EA000000000000092002434000000349200242E
:104EB000500000000000000000000000C892002424
:104EC00044000000109500240004000030000000A1
:104ED0000000000000000000002002580001000057
:104EE0000008025800200000001C025810000000BA
:104EF00000180258040000000004025801000000DD
:104F00000018025808000000001802588000000035
:104F100000200258000800006F73527478546872C1
:104F2000656164557365724946006F735274784CBD
:104F30004544546872656164006F735274784D73B0
:104F40006750726F546872656164006F7352747851
:104F50005374617274546872656164002E2E2F2E32
:104F60002E2F557365722F6273702F7372632F62C9
:104F700073705F74696D65722E63002E2E2F2E2E56
:104F80002F557365722F6273702F7372632F627364
:104F9000705F756172745F6669666F2E63000000F2
:104FA0005254582056352E352E320000D04F00086E
:104FB00000000024B8000000CA4C00088850000817
:104FC000B800002408A90000DA4C00080000000026
:104FD0000000000001000000100000000090D0035D
:104FE0000090D003A04F0008D2B3FB0200000000E5
:104FF00000000000000000000000000000000000B1
:1050000000000000000000000000000000000000A0
:105010000000000000000000000000000000000090
:105020000000000000000000000000000000000080
:105030000000000000000000000000000000000070
:105040000000000000000000000000000000000060
:105050000000000000000000000000000000000050
:105060000000000000000000000000000000000040
:105070000000000000000000000000000000000030
:08508000000000000000000028
:040000050800029954
:00000001FF
