:020000040800F2
:10000000C8AD0024CD070008E7380008FD09000846
:1000100041380008E10A0008A14C00080000000077
:10002000000000000000000000000000F1070008D0
:10003000190C000800000000890800089908000851
:10004000E7070008E7070008E7070008E7070008D8
:10005000E7070008E7070008E7070008E7070008C8
:10006000E7070008E7070008E7070008E7070008B8
:10007000E7070008E7070008E7070008E7070008A8
:10008000E7070008E7070008E7070008E707000898
:10009000E7070008E7070008E7070008E707000888
:1000A000E7070008E7070008E7070008E707000878
:1000B000E93F0008E7070008E7070008E70700082E
:1000C000E7070008E7070008E7070008E707000858
:1000D000E7070008E1490008E7070008F1490008C0
:1000E000E7070008E707000800000000E70700082E
:1000F000E7070008E7070008E7070008E707000828
:10010000E7070008E7070008E7070008E707000817
:10011000E7070008E7070008E7070008E707000807
:10012000E7070008E7070008E7070008E7070008F7
:10013000E7070008E7070008E7070008E7070008E7
:1001400000000000000000000000000000000000AF
:10015000E7070008E7070008E7070008E7070008C7
:10016000E7070008E7070008E7070008E7070008B7
:10017000E7070008E7070008E7070008000000009D
:10018000E7070008E7070008E7070008E707000897
:10019000E7070008E7070008E7070008E707000887
:1001A000E7070008E7070008E7070008E707000877
:1001B000E7070008E7070008E7070008E707000867
:1001C000E7070008E7070008E7070008E707000857
:1001D000E7070008E7070008E7070008E707000847
:1001E000E7070008E7070008E7070008E707000837
:1001F000E7070008E7070008E7070008E707000827
:10020000E7070008E7070008E7070008E707000816
:10021000E7070008E7070008E7070008E707000806
:10022000E7070008E7070008E707000800000000EC
:10023000E7070008E707000800000000E7070008DC
:10024000E7070008E7070008E7070008E7070008D6
:10025000E7070008E7070008E7070008E7070008C6
:10026000E7070008E7070008E7070008E7070008B6
:10027000E7070008E7070008E7070008000000009C
:10028000E7070008E7070008E7070008000000008C
:1002900000000000E7070008DFF80CD000F07EFB4C
:1002A000004800474D550008C8AD00240246D2E87A
:1002B0004F0FC2E8431F03B1F9E77047024652E807
:1002C000000F40EA010042E8000303B1F7E770477E
:1002D00010B5024652E8000F20EA010442E800434C
:1002E00003B1F7E710BD10B5024652E8000F00EA6F
:1002F00001048C4203D0BFF32F8F002010BD20EAF1
:10030000010442E8004303B1EFE710BD10B5024617
:1003100052E8000F084203D1BFF32F8F002010BD19
:1003200020EA010442E8004303B1F1E710BD0246B0
:1003300052E8000F411C42E8001303B1F8E7704790
:1003400010B50246D2E85F0F814202D8BFF32F8F6B
:1003500010BD441CC2E8534F03B1F3E710BD10B504
:100360000246D2E85F0F441CA14200D80024C2E834
:10037000534F03B1F5E710BD024652E8000F411E8E
:1003800042E8001303B1F8E77047024652E8000F55
:1003900010B9BFF32F8F7047411E42E8001303B11D
:1003A000F4E770470246D2E85F0F10B9BFF32F8F12
:1003B0007047411EC2E8531F03B1F4E7704702467D
:1003C00052E8000F10B9BFF32F8F7047016842E861
:1003D000001303B1F4E7704702680A60BFF35F8F50
:1003E00050E8002F0B689342F6D140E8001303B1A8
:1003F000F2E770470246D2E84F0FC2E8431F03B14D
:10040000F9E77047024652E8000F40EA010042E86F
:10041000000303B1F7E7704710B5024652E8000F3A
:1004200020EA010442E8004303B1F7E710BD10B52C
:10043000024652E8000F00EA01048C4203D0BFF3E9
:100440002F8F002010BD20EA010442E8004303B1D1
:10045000EFE710BD10B5024652E8000F084203D185
:10046000BFF32F8F002010BD20EA010442E80043B3
:1004700003B1F1E710BD024652E8000F411C42E80B
:10048000001303B1F8E7704710B50246D2E85F0FDA
:10049000814202D8BFF32F8F10BD441CC2E8534FD6
:1004A00003B1F3E710BD10B50246D2E85F0F441C5C
:1004B000A14200D80024C2E8534F03B1F5E710BDB4
:1004C000024652E8000F411E42E8001303B1F8E76C
:1004D0007047024652E8000F10B9BFF32F8F7047E4
:1004E000411E42E8001303B1F4E770470246D2E828
:1004F0005F0F10B9BFF32F8F7047411EC2E8531F23
:1005000003B1F4E77047024652E8000F10B9BFF399
:100510002F8F7047016842E8001303B1F4E770477A
:1005200002680A60BFF35F8F50E8002F0B689342A8
:10053000F6D140E8001303B1F2E770470246D2E873
:100540004F0FC2E8431F03B1F9E77047024652E874
:10055000000F40EA010042E8000303B1F7E77047EB
:1005600010B5024652E8000F20EA010442E80043B9
:1005700003B1F7E710BD10B5024652E8000F00EADC
:1005800001048C4203D0BFF32F8F002010BD20EA5E
:10059000010442E8004303B1EFE710BD10B5024685
:1005A00052E8000F084203D1BFF32F8F002010BD87
:1005B00020EA010442E8004303B1F1E710BD02461E
:1005C00052E8000F411C42E8001303B1F8E77047FE
:1005D00010B50246D2E85F0F814202D8BFF32F8FD9
:1005E00010BD441CC2E8534F03B1F3E710BD10B572
:1005F0000246D2E85F0F441CA14200D80024C2E8A2
:10060000534F03B1F5E710BD024652E8000F411EFB
:1006100042E8001303B1F8E77047024652E8000FC2
:1006200010B9BFF32F8F7047411E42E8001303B18A
:10063000F4E770470246D2E85F0F10B9BFF32F8F7F
:100640007047411EC2E8531F03B1F4E770470246EA
:1006500052E8000F10B9BFF32F8F7047016842E8CE
:10066000001303B1F4E7704702680A60BFF35F8FBD
:1006700050E8002F0B689342F6D140E8001303B115
:10068000F2E770470246D2E84F0FC2E8431F03B1BA
:10069000F9E77047024652E8000F40EA010042E8DD
:1006A000000303B1F7E7704710B5024652E8000FA8
:1006B00020EA010442E8004303B1F7E710BD10B59A
:1006C000024652E8000F00EA01048C4203D0BFF357
:1006D0002F8F002010BD20EA010442E8004303B13F
:1006E000EFE710BD10B5024652E8000F084203D1F3
:1006F000BFF32F8F002010BD20EA010442E8004321
:1007000003B1F1E710BD024652E8000F411C42E878
:10071000001303B1F8E7704710B50246D2E85F0F47
:10072000814202D8BFF32F8F10BD441CC2E8534F43
:1007300003B1F3E710BD10B50246D2E85F0F441CC9
:10074000A14200D80024C2E8534F03B1F5E710BD21
:10075000024652E8000F411E42E8001303B1F8E7D9
:100760007047024652E8000F10B9BFF32F8F704751
:10077000411E42E8001303B1F4E770470246D2E895
:100780005F0F10B9BFF32F8F7047411EC2E8531F90
:1007900003B1F4E77047024652E8000F10B9BFF307
:1007A0002F8F7047016842E8001303B1F4E77047E8
:1007B00002680A60BFF35F8F50E8002F0B68934216
:1007C000F6D140E8001303B1F2E7704706488047CE
:1007D00006480047FEE7FEE7FEE7FEE7FEE7FEE726
:1007E000FEE7FEE7FEE7FEE7D13E000899020008BB
:1007F0001EF0040F0CBFEFF30880EFF3098081694E
:1008000011F8021C91BB01B590E80F10E047BDE85C
:1008100000508CE80300244B93E80600914208BF87
:10082000704741B91EF0100F10D12049086820F020
:10083000010008600AE02CE9F00F1EF0100F08BF5D
:100840002CED108AC1F838C081F822E01A6092F8C5
:100850002210906B61F0FF0E1EF0100F08BFB0EC7D
:10086000108AB0E8F00F80F309887047104A1368C7
:100870009942FAD801B552F821C00FC8E047BDE847
:100880000050CCF80000704701B505F0D9F9BDE87B
:100890000140EFF3098CBEE701B505F0CDFCBDE8E2
:1008A0000140EFF3098CB6E7BC8B002434EF00E085
:1008B000DC6F00082DE9F05F0546002092469B465C
:1008C00088460646814640241BE028464146474666
:1008D000224600F053F853465A46C01A914110D3AD
:1008E00011461846224600F03AF82D1A67EB010827
:1008F0004F4622460120002100F031F817EB000995
:100900004E41201EA4F10104DFDC484631462A4650
:100910004346BDE8F09F40EA01039B0703D009E08E
:1009200008C9121F08C0042AFAD203E011F8013BDB
:1009300000F8013B521EF9D27047D2B201E000F834
:10094000012B491EFBD270470022F6E710B5134673
:100950000A4604461946FFF7F0FF204610BD202A3C
:1009600004DB203A00FA02F1002070479140C2F106
:10097000200320FA03F3194390407047202A04DB38
:10098000203A21FA02F00021704721FA02F3D04008
:10099000C2F120029140084319467047064C074DAA
:1009A00006E0E06840F0010394E80700984710343F
:1009B000AC42F6D3FFF774FCD8700008F87000085A
:1009C00030B58C1810F8012B12F00F0301D110F87C
:1009D000013B120906D110F8012B03E010F8015B6E
:1009E00001F8015B5B1EF9D101E001F8013B521EE9
:1009F000FBD1A142E6D3002030BD00001EF0040F61
:100A00000CBFEFF30880EFF3098002F0B9BC0000DF
:100A100010B50B4A00210B4805F0C4FC0A490860D8
:100A20000A4A00210A4805F0BDFC0A4908600A4A42
:100A300000210A4805F0B6FC0949086010BD000015
:100A4000A86E00087F0A0008548B0024CC6E0008B2
:100A5000650A0008588B0024F06E0008AD0A0008F3
:100A6000508B002400BF04F0DDFD044606E00220A8
:100A700004F0FBFBC834204604F09EFDF7E702E0DB
:100A80000A2004F07BFDFBE700BF02F09BFA04F0B4
:100A900033FAFFF7BDFF04F0C5FD044605E003F09F
:100AA00001F9641C204604F087FDF8E70EE004F02D
:100AB00009FA04463CB1012C03D105A004F0F2F878
:100AC00000E000BF00BF142004F058FDEFE7000075
:100AD0004B45595F444F574E5F4B310D0A000000A4
:100AE00000BFFEE710B500BF2A48006800F40030E0
:100AF00000B115E0BFF34F8FBFF36F8F0020264981
:100B00000860BFF34F8FBFF36F8F2248006840F437
:100B1000003020490860BFF34F8FBFF36F8F00BFD5
:100B200000BF1C4B1B6803F4803303B130E000238B
:100B3000184C70342360BFF34F8F231F1868C0F325
:100B40004E3100BFC0F3C90200BF43F6E07303EAB1
:100B500041134FF0404404EA827423430E4C103496
:100B6000236000BF00BF131EA2F10102EDD10B1ED6
:100B7000A1F10101E6D1BFF34F8F064B1B6843F48F
:100B80008033044C2360BFF34F8FBFF36F8F00BFE0
:100B900010BD000014ED00E050EF00E010B5044679
:100BA0000CB9124810BD012C01D10020FAE7022C2B
:100BB00001D10F48F6E7032C01D10020F2E7042C05
:100BC00001D10020EEE7052C01D10020EAE7062C38
:100BD00001D10020E6E7072C01D10020E2E74FF425
:100BE0008E7104A000F019F80020DBE72C8D0024A2
:100BF000589500242E2E5C2E2E5C557365725C6217
:100C000073705C7372635C6273705F756172745F42
:100C10006669666F2E630000704701B9704700BFB8
:100C2000FEE77047704770477047704770477047DE
:100C300070477047704770477047704770477047FC
:100C400070477047704770477047704770477047EC
:100C500070477047704770477047704770477047DC
:100C600070477047704770477047704770477047CC
:100C700070477047704770477047704770477047BC
:100C800070477047704770477047000070B5044662
:100C9000B3F5804F13D1D1E9000540EA05108D6806
:100CA00040EA05208D6928438D8940EA054054F8C3
:100CB0002250064E3540284344F8220003E06FF0EE
:100CC000704044F82200002070BD00000000F0CF0A
:100CD00070B50246086852F8200020F001000E6846
:100CE00042F826008868082801D1402500E0002548
:100CF000486828438E683043CE6830430E693043DD
:100D00004E6930438E693043CE6930430E6A3043BA
:100D10004E6A30438E6A3043CE6A40EA0603086B5F
:100D20000343486B0343886B0343114C44F4801422
:100D300044F4001444F4E024086852F82000A0436E
:100D400018430E6842F82600086BB0F5801F07D1E3
:100D5000086828B1106820F480100E6B30431060D2
:100D6000086818B110684E6B30431060002070BDE9
:100D70007FFB080030B50346D1E9000540EA0510C5
:100D80008D6840EA05208D8940EA0545088A401EA5
:100D900045EA0055087D801E45EA00608D692843BC
:100DA000551C53F8255005F040452843551C43F881
:100DB0002500186800F48010B0F5801F0BD158682A
:100DC00020F47004088A401E44EA0054586820F455
:100DD000700020435860002030BD000003480068C8
:100DE00040F00100014908607047000020040058ED
:100DF000F8B502460023734DDEE001279F400E68E0
:100E000006EA0704002C71D04E68012E08D04E6807
:100E1000022E05D04E68112E02D04E68122E13D12C
:100E200090685F000326BE40B0435F00CE68BE40BE
:100E300030439060506801269E40B0430E79C6F35F
:100E400000169E4030435060D0685F000326BE40CD
:100E5000B0435F008E68BE403043D0604E68022EC3
:100E600002D04E68122E13D1DF0802F1200656F888
:100E700027005E07F70E0F26BE40B0435F07FF0E48
:100E80000E69BE403043DF0802F1200646F8270015
:100E900010685F000326BE40B0430E7906F00306DB
:100EA0005F00BE40304310604E6806F08056B6F1D9
:100EB000805F1BD100BF444E366846F00206424FA9
:100EC0003E603E46366806F00206009600BF00BF50
:100ED0003E4E9F0856F827009E07370F0F26BE404C
:100EE000B0433B4EB24202D100262EE063E0394EC1
:100EF000B24201D1012628E0374EB24201D102268A
:100F000023E0364EB24201D103261EE0344EB242F7
:100F100001D1042619E0334EB24201D1052614E076
:100F2000314EB24201D106260FE0304EB24201D11D
:100F300007260AE02E4EB24201D1082605E02D4ECA
:100F4000B24201D1092600E00A269F073F0FBE40AA
:100F500030431E4E9F0846F827002868A0434E687D
:100F600006F48036B6F5803F00D1204328606868DB
:100F7000A0434E6806F40036B6F5003F00D120438A
:100F800068604FF0B0463068A0434E6806F48016A3
:100F9000B6F5801F00D120434FF0B0463060706836
:100FA000A0434E6806F40016B6F5001F00D120439A
:100FB0004FF0B04670605B1C0E68DE40002E7FF480
:100FC0001CAFF8BD80000058F444025808040058D3
:100FD000000002580004025800080258000C025891
:100FE000001002580014025800180258001C025841
:100FF000002002580024025801480068000C704785
:101000000010005C10B504F0F5FA022802D104F0DB
:1010100009FB10BD0C480068840B0CE000BF00BF4A
:1010200000BF00BF00BF00BF00BF00BF00BF00BFC8
:1010300000BF00BF641E002CF0D104480068401CB3
:1010400002490860E5E70000948B0024848B0024AB
:1010500010B5032000F0E6F801F0B4FA1049096871
:10106000C1F303210F4A515C01F01F0120FA01F482
:101070000B48006800F00F001146085C00F01F00EC
:1010800024FA00F008490860084804600F2000F0C6
:101090000FF808B1012010BD00F060F80020FAE759
:1010A000184402586C6F0008988B0024948B00241D
:1010B00001460020704700004178154A1160017810
:1010C000F9B1121D41681160017B0907C27A41EA3A
:1010D0000261827A41EAC241427B41EA8241827BDB
:1010E00041EA4241C27B41EA0241427A41EA02219D
:1010F000027A41EA420102781143054A083211603E
:1011000005E00021024A121D1160121D1160704796
:1011100098ED00E0BFF35F8F0548006820F4803051
:1011200003490860002002497031086070470000E0
:1011300024ED00E040F00101074A116006497039D2
:10114000096841F48031044A703A1160BFF34F8F4F
:10115000BFF36F8F7047000094ED00E008B500BF4B
:101160000648006840F0020004490860084600682C
:1011700000F00200009000BF00BF08BDF444025818
:101180000146084600280DDB00BF00BF00F01F032A
:1011900001229A4043099B0003F1E023C3F8002198
:1011A00000BF00BF00BF70472DE9F05F80460D46CD
:1011B000164603F087FD074639462A46334601F0B6
:1011C0000700C0F1070ABAF1040F02D94FF0040A70
:1011D00001E0C0F1070AD14600F1040ABAF1070F95
:1011E00002D24FF0000A01E0A0F1030AD4464FF00A
:1011F000010A0AFA09FAAAF1010A0AEA020A0AFA33
:101200000CFA4FF0010B0BFA0CFBABF1010B0BEAE4
:10121000030B4AEA0B042146404603F05BFDBDE8A0
:10122000F09F000000BF00F00702064B19684FF660
:10123000FF031940044B0B4343EA0221014B1960A1
:1012400000BF70470CED00E00000FA0510B501F09A
:101250006FF905490968C1F30211044A515C01F0B4
:101260001F01C84010BD0000204402586C6F0008E8
:1012700070B50146844D2D6805F00303824D2D683D
:10128000C5F30530804D2D1D2D68C5F300147E4D2E
:1012900014352D68C5F3CC0515FB04F501EE105A85
:1012A000B8EE411AF0EE410A00286FD023B1012BAD
:1012B0004ED0022B6BD16BE0734D283D2D68C5F3EA
:1012C00040153DB3704D283D2D68C5F3C1066F4DE7
:1012D00025FA06F201EE102AF8EE411A01EE100A84
:1012E000B8EE411A81EE812A9FED691AC0EE811A8B
:1012F000654D10352D68C5F3080501EE105AB8EE9E
:10130000411A31EE811AF7EE001A31EE211A22EE5F
:10131000010A1CE001EE100AB8EE411ADFED5D1A79
:1013200081EE812A9FED5A1AC0EE811A564D103572
:101330002D68C5F3080501EE105AB8EE411A31EEDA
:10134000811AF7EE001A31EE211A22EE010A5BE053
:1013500001EE100AB8EE411ADFED4F1A81EE812A34
:101360009FED4B1AC0EE811A474D10352D68C5F31D
:10137000080501EE105AB8EE411A31EE811AF7EE67
:10138000001A31EE211A22EE010A3DE077E01DE05D
:1013900001EE100AB8EE411A9FED402AC2EE011A82
:1013A0009FED3B1A80EE812A374D10352D68C5F32D
:1013B000080501EE105AB8EE411A32EE011AB7EEE6
:1013C000002A31EE021A21EE810A1DE001EE100A18
:1013D000B8EE411ADFED301A81EE812A9FED2C1A0A
:1013E000C0EE811A284D10352D68C5F3080501EEB1
:1013F000105AB8EE411A31EE811AF7EE001A31EEAA
:10140000211A22EE010A00BF00BF1F4D10352D68C2
:10141000C5F3462501EE105AB8EE411AF7EE001A50
:1014200031EE211AC0EE011ABCEEE11A81ED001A6C
:10143000154D10352D68C5F3064501EE105AB8EE6E
:10144000411AF7EE001A31EE211AC0EE011ABCEE75
:10145000E11A81ED011A0C4D10352D68C5F30665B2
:1014600001EE105AB8EE411AF7EE001A31EE211AC9
:10147000C0EE011ABCEEE11A81ED021A03E000256C
:101480000D604D608D6070BD284402580090D003FF
:10149000000000460024744C0024744A20BCBE4B5B
:1014A00070B50146844D2D6805F00303824D2D680B
:1014B000C5F30550804D2D1D2D68C5F300247E4DCC
:1014C0001C352D68C5F3CC0515FB04F501EE105A4B
:1014D000B8EE411AF0EE410A00286FD023B1012B7B
:1014E0004ED0022B6BD16BE0734D283D2D68C5F3B8
:1014F00040153DB3704D283D2D68C5F3C1066F4DB5
:1015000025FA06F201EE102AF8EE411A01EE100A51
:10151000B8EE411A81EE812A9FED691AC0EE811A58
:10152000654D18352D68C5F3080501EE105AB8EE63
:10153000411A31EE811AF7EE001A31EE211A22EE2D
:10154000010A1CE001EE100AB8EE411ADFED5D1A47
:1015500081EE812A9FED5A1AC0EE811A564D183538
:101560002D68C5F3080501EE105AB8EE411A31EEA8
:10157000811AF7EE001A31EE211A22EE010A5BE021
:1015800001EE100AB8EE411ADFED4F1A81EE812A02
:101590009FED4B1AC0EE811A474D18352D68C5F3E3
:1015A000080501EE105AB8EE411A31EE811AF7EE35
:1015B000001A31EE211A22EE010A3DE077E01DE02B
:1015C00001EE100AB8EE411A9FED402AC2EE011A50
:1015D0009FED3B1A80EE812A374D18352D68C5F3F3
:1015E000080501EE105AB8EE411A32EE011AB7EEB4
:1015F000002A31EE021A21EE810A1DE001EE100AE6
:10160000B8EE411ADFED301A81EE812A9FED2C1AD7
:10161000C0EE811A284D18352D68C5F3080501EE76
:10162000105AB8EE411A31EE811AF7EE001A31EE77
:10163000211A22EE010A00BF00BF1F4D18352D6888
:10164000C5F3462501EE105AB8EE411AF7EE001A1E
:1016500031EE211AC0EE011ABCEEE11A81ED001A3A
:10166000154D18352D68C5F3064501EE105AB8EE34
:10167000411AF7EE001A31EE211AC0EE011ABCEE43
:10168000E11A81ED011A0C4D18352D68C5F3066578
:1016900001EE105AB8EE411AF7EE001A31EE211A97
:1016A000C0EE011ABCEEE11A81ED021A03E000253A
:1016B0000D604D608D6070BD284402580090D003CD
:1016C000000000460024744C0024744A20BCBE4B29
:1016D0002DE9F04104460025A846206800F000608E
:1016E000B0F1006F30D1606E48B1B0F5801F0DD001
:1016F000B0F5001F10D0B0F5401F15D113E0F94828
:10170000006840F40030F74908600FE00221201D16
:1017100002F032F9054609E0022104F1240002F04A
:10172000DDF9054602E001E0012500BF00BF55B923
:10173000EC482430006820F44010616E0843E94909
:101740002431086000E0A846208800F48070B0F5DD
:10175000807F2DD1606D05281AD2DFE800F0030AE2
:1017600010171800DF48006840F40030DD490860B9
:1017700010E00021201D02F0FFF805460AE00021DC
:1017800004F1240002F0AAF9054603E002E001E0BA
:10179000012500BF00BF55B9D2482430006820F0B1
:1017A0000700616D0843CF492431086000E0A84676
:1017B000208800F40070B0F5007F33D1A06D802840
:1017C00017D003DC40B140281CD10CE0C02817D052
:1017D000B0F5807F16D114E0C248006840F40030B4
:1017E000C049086010E00021201D02F0C5F8054640
:1017F0000AE0002104F1240002F070F9054603E03C
:1018000002E001E0012500BF00BF55B9B548243012
:10181000006820F4E070A16D0843B24924310860EB
:1018200000E0A846208800F48060B0F5806F38D1D1
:10183000D4F8A400B0F5800F19D004DC50B1B0F595
:10184000001F1DD10DE0B0F5C00F17D0B0F5000F8F
:1018500016D114E0A348006840F40030A1490860A4
:1018600010E00021201D02F087F805460AE0002163
:1018700004F1240002F032F9054603E002E001E041
:10188000012500BF00BF5DB996482C30006820F4E8
:101890006000D4F8A410084392492C31086000E09D
:1018A000A846208800F40060B0F5006F38D1D4F865
:1018B000A800B0F1007F19D004DC50B1B0F1807FF6
:1018C0001DD10DE0B0F1407F17D0B0F1806F16D17F
:1018D00014E08448006840F400308249086010E059
:1018E0000021201D02F048F805460AE0002104F11D
:1018F000240002F0F3F8054603E002E001E00125D0
:1019000000BF00BF5DB977482C30006820F0E06070
:10191000D4F8A810084373492C31086000E0A846A9
:10192000206800F00070B0F1007F27D1A06CA0B15A
:10193000102804D0202809D030280FD10CE06948A5
:10194000006840F400306749086009E00221201D6A
:1019500002F012F8054603E002E001E0012500BFB5
:1019600000BF55B95F482030006820F03000A16CFE
:1019700008435C492031086000E0A846208800F454
:101980008050B0F5805F36D1E06DB0F5005F19D0C2
:1019900004DC50B1B0F5805F1DD10DE0B0F5405FC3
:1019A00017D0B0F5804F16D114E04E48006840F4CF
:1019B00000304C49086010E00021201D01F0DCFFE0
:1019C00005460AE0002104F1240002F087F80546EC
:1019D00003E002E001E0012500BF00BF55B9414826
:1019E0002430006820F4E040E16D08433D49243193
:1019F000086000E0A846208800F40050B0F5005FC1
:101A000034D1206EB0F5403F1DD007DC68B1B0F591
:101A1000803F0BD0B0F5003F18D10DE0B0F5802F1E
:101A200012D0B0F5A02F11D10FE011E00121201D3F
:101A300001F0A2FF05460BE0012104F1240002F0B1
:101A40004DF8054604E003E002E001E0012500BF97
:101A500000BF55B923482430006820F4E020216EEF
:101A6000084320492431086000E0A846208800F49B
:101A70008040B0F5804F38D1D4F8AC00B0F1405F71
:101A80001DD007DC68B1B0F1805F0BD0B0F1005F12
:101A900018D10DE0B0F1804F12D0B0F1A04F11D1AC
:101AA0000FE011E00121201D01F066FF05460BE06B
:101AB000012104F1240002F011F8054604E003E0DE
:101AC00002E001E0012500BF00BF6DB905482C30E0
:101AD000006820F0E040D4F8AC10084301492C31F4
:101AE000086002E02C440258A846208800F4004018
:101AF000B0F5004F26D1E06E98B1B0F1805F03D011
:101B0000B0F1005F0ED106E0F948006840F4003003
:101B1000F749086008E00121201D01F02DFF05466E
:101B200002E001E0012500BF00BF55B9F0482430B4
:101B3000006820F04050E16E0843ED492431086010
:101B400000E0A846206800F08070B0F1807F27D1C7
:101B5000606CA0B1012804D0022809D003280FD15D
:101B60000CE0E348006840F40030E149086009E017
:101B70000221201D01F000FF054603E002E001E024
:101B8000012500BF00BF55B9D9482030006820F0BA
:101B90000300616C0843D6492031086000E0A84684
:101BA000206800F48000B0F5800F7DD1D148006836
:101BB00040F48070CF490860FFF724FA064606E03B
:101BC000FFF720FA801B642801D9032505E0C948E6
:101BD000006800F480700028F2D000BF85BBC448C4
:101BE0004430006800F44070B4F8B01001F4407163
:101BF000884213D0BE484430006820F44077BC4887
:101C00004430006840F48030B949443108600846E7
:101C1000006820F48030086008460760D4F8B000FF
:101C2000B0F5807F15D1FFF7EDF9064609E0FFF723
:101C3000E9F9801B41F28831884202D9032507E087
:101C400038E0AB4844300068C0F340000028EED0D4
:101C500000BF55BB00BFB4F8B00000F44070B0F551
:101C6000407F0ED1A2481C38006820F47C51A24A63
:101C7000D4F8B000104041EA10109D491C390860AA
:101C800007E09B481C38006820F47C5098491C39B8
:101C90000860974844300068B4F8B010C1F30B01F5
:101CA00008439349443101E005E001E0086002E0A7
:101CB000A84600E0A846207800F0010068B3A06FB5
:101CC000182819D005DC48B1082808D0102816D1EA
:101CD0000BE0202811D0282811D10FE011E00121BC
:101CE000201D01F049FE05460BE0012104F124000E
:101CF00001F0F4FE054604E003E002E001E0012506
:101D000000BF00BF55B97A482830006820F038007D
:101D1000A16F084376492831086000E0A846207882
:101D200000F00200022828D1606F062815D2DFE8F3
:101D300000F003040A11121311E00121201D01F02B
:101D40001BFE05460BE0012104F1240001F0C6FE54
:101D5000054604E003E002E001E0012500BF00BF0A
:101D600055B963482830006820F00700616F0843C8
:101D70005F492831086000E0A846207800F00400A0
:101D800004282AD1D4F89000062815D2DFE800F004
:101D900003040A11121311E00121201D01F0ECFDD2
:101DA00005460BE0012104F1240001F097FE0546F1
:101DB00004E003E002E001E0012500BF00BF5DB9DF
:101DC0004B482C30006820F00700D4F890100843EE
:101DD00047492C31086000E0A846207800F0200038
:101DE000202836D1D4F88C00B0F1405F1DD007DC3C
:101DF00068B1B0F1805F0BD0B0F1005F18D10DE099
:101E0000B0F1804F12D0B0F1A04F11D10FE011E02E
:101E10000021201D01F0B0FD05460BE0022104F178
:101E2000240001F05BFE054604E003E002E001E06F
:101E3000012500BF00BF5DB92D482830006820F0A3
:101E4000E040D4F88C10084329492831086000E0AC
:101E5000A846207800F04000402836D1D4F89800F9
:101E6000B0F5406F1DD007DC68B1B0F5806F0BD0C6
:101E7000B0F5006F18D10DE0B0F5805F12D0B0F56D
:101E8000A05F11D10FE011E00021201D01F074FDD1
:101E900005460BE0022104F1240001F01FFE054677
:101EA00004E003E002E001E0012500BF00BF5DB9EE
:101EB0000F482C30006820F4E050D4F89810084304
:101EC0000B492C31086000E0A846207800F0800023
:101ED00080283AD1D4F89C00B0F5C04F23D00DDC57
:101EE00098B1B0F5005F11D0B0F5804F1ED113E06E
:101EF0002C44025800480258FFFCFF0FB0F5004F79
:101F000012D0B0F5204F11D10FE011E00021201DBB
:101F100001F032FD05460BE0022104F1240001F03E
:101F2000DDFD054604E003E002E001E0012500BF1D
:101F300000BF4DB9B548006820F46040D4F89C104B
:101F40000843B249086000E0A846207800F0080085
:101F5000082817D1D4F88000B0F5805F07D102219E
:101F600004F1240001F0BAFD08B14FF00108A748C0
:101F7000001F006820F44050D4F880100843A349A3
:101F8000091F0860207800F01000102815D1D4F83F
:101F90009400B0F5807F07D1022104F1240001F004
:101FA0009DFD08B14FF001089848006820F440708A
:101FB000D4F89410084395490860206800F4002084
:101FC000B0F5002F26D1D4F8A00030B1B0F5803F95
:101FD00009D0B0F5003F0ED10CE00021201D01F02A
:101FE000CBFC054609E0022104F1240001F076FD56
:101FF000054602E001E0012500BF00BF4DB983485E
:10200000006820F44030D4F8A01008437F490860ED
:1020100000E0A846206800F48020B0F5802F2DD184
:10202000D4F88400B0F5801F06D0B0F5001F0CD0A6
:10203000B0F5401F11D10FE074482C38006840F40F
:10204000003072492C39086009E0012104F12400B4
:1020500001F044FD054602E001E0012500BF00BF9C
:102060005DB96A48001F006820F44010D4F884105D
:1020700008436649091F086000E0A846206800F48C
:102080008030B0F5803F24D1E06C18B1B0F5803FCE
:102090000FD108E05D482C38006840F400305B49FF
:1020A0002C39086007E00221201D01F065FC05467F
:1020B00001E0012500BF00BF55B954480C38006845
:1020C00020F48030E16C084350490C39086000E08E
:1020D000A846206800F00050B0F1005F07D102214F
:1020E00004F1240001F0FAFC08B14FF00108206867
:1020F00000F40030B0F5003F27D1E06FA0B1B0F59B
:10210000807F06D0B0F5007F0CD0B0F5407F0CD1B9
:1021100009E03E482C38006840F400303B492C3937
:10212000086004E003E002E001E0012500BF00BF19
:1021300055B93648001F006820F44070E16F08432D
:102140003249091F086000E0A846206800F48010AA
:10215000B0F5801F09D12D480838006820F00040F4
:10216000216F0843294908390860206800F0805031
:10217000B0F1805F0AD125484838006820F48040DB
:10218000D4F8B4100843214948390860206800F4A5
:102190000010B0F5001F09D11C480838006820F075
:1021A0008070A16E0843194908390860206800F062
:1021B0008040B0F1804F11D100BF1448483800680A
:1021C00020F4004011494839086008460068D4F8F6
:1021D000B81008430D494839086000BF206800F076
:1021E0000040B0F1004F09D108480C38006820F0D9
:1021F0004050216D084305490C390860B8F1000FC3
:1022000002D10020BDE8F0810120FBE758440258CC
:102210002DE9F04104460D4614B90120BDE8F081D6
:10222000BD48006800F00F00A8420ED2BA4800680E
:1022300020F00F002843B84908600846006800F005
:102240000F00A84201D00120E8E7207800F0040048
:1022500004280ED1B1492069096801F07001884253
:1022600007D9AE48006820F0700021690843AB49E7
:102270000860207800F00800082811D1A749091D3E
:102280006069096801F07001884209D9A348001DFE
:10229000006820F0700061690843A049091D0860CA
:1022A000207800F01000102811D19C49091DA06968
:1022B000096801F4E061884209D99848001D006866
:1022C00020F4E060A16908439449091D0860207862
:1022D00000F02000202811D190490831E0690968F8
:1022E00001F07001884209D98C480830006820F05C
:1022F0007000E1690843894908310860207800F0DE
:10230000020002280ED18549E068096801F00F013A
:10231000884207D98148006820F00F00E16808432F
:102320007E490860207800F00100002850D07B48EA
:10233000006820F47060A16808437849086060680C
:10234000022807D1754818380068C0F34040F8B932
:10235000012063E76068032807D1704818380068D7
:10236000C0F34060A0B9012058E76068012807D198
:102370006A4818380068C0F3002048B901204DE7CA
:10238000664818380068C0F3800008B9012045E7A6
:1023900062480838006820F00700616808435F4918
:1023A00008390860FEF72EFE064608E0FEF72AFE12
:1023B000801B41F28831884201D903202EE757481B
:1023C0000838006800F038006168B0EBC10FEDD14B
:1023D000207800F0020002280ED15049E068096818
:1023E00001F00F01884207D24C48006820F00F002E
:1023F000E1680843494908604748006800F00F0059
:10240000A8420ED94448006820F00F0028434249F2
:1024100008600846006800F00F00A84201D00120C3
:10242000FCE6207800F0040004280ED13B49206926
:10243000096801F07001884207D23848006820F02E
:1024400070002169084335490860207800F00800D1
:10245000082811D13149091D6069096801F070012E
:10246000884209D22D48001D006820F07000616983
:1024700008432A49091D0860207800F01000102840
:1024800011D12649091DA069096801F4E06188425B
:1024900009D22248001D006820F4E060A1690843C9
:1024A0001E49091D0860207800F02000202811D165
:1024B0001A490831E069096801F07001884209D2BF
:1024C00016480830006820F07000E169084313499D
:1024D0000831086000F076F810490968C1F303215B
:1024E0000F4A515C01F01F0120FA01F70B48006808
:1024F00000F00F001146085C00F01F0027FA00F002
:10250000084908600848076008480068FEF7D0FDE1
:102510008046404682E600000020005218440258DF
:102520006C6F0008988B0024948B00248C8B002403
:1025300010B500F047F80D490968C1F303210C4AB2
:10254000515C01F01F0120FA01F40848006800F016
:102550000F001146085C00F01F0024FA00F0054946
:102560000860054804600846006810BD1844025819
:102570006C6F0008988B0024948B002400B5FFF743
:10258000D7FF05490968C1F30211044A515C01F003
:102590001F01C84000BD00001C4402586C6F0008B9
:1025A00000B5FFF7C5FF05490968C1F30221044AD8
:1025B000515C01F01F01C84000BD00001C440258DE
:1025C0006C6F0008F0B5824E366806F0380636B1FA
:1025D000082E15D0102E15D0182E7DD114E07C4E6B
:1025E000103E3668C6F3401646B1794E103E366846
:1025F000C6F3C107774E26FA07F000E07548E5E01C
:102600007548E3E07548E1E0714E1836366806F02B
:1026100003046F4E18363668C6F305116C4E1C362F
:10262000366806F001056A4E24363668C6F3CC06D5
:1026300016FB05F601EE106AB8EE410A002971D0CA
:1026400024B1012C50D0022C6DD16DE0604E103EB3
:102650003668C6F340163EB35D4E103E3668C6F38C
:10266000C1075C4E26FA07F301EE103AF8EE411A64
:1026700001EE101AB8EE411A81EE812A9FED581A28
:10268000C0EE011A524E20363668C6F3080601EE37
:10269000106AB8EE411A31EE811AF7EE001A31EEE7
:1026A000211A62EE010A1EE001EE101AB8EE411A7C
:1026B000DFED4C1A81EE812A9FED491AC0EE011A16
:1026C000434E20363668C6F3080601EE106AB8EEAF
:1026D000411A31EE811A00E076E0F7EE001A31EE91
:1026E000211A62EE010A5BE001EE101AB8EE411AFF
:1026F0009FED3D2AC2EE011A9FED391A80EE012AA4
:10270000334E20363668C6F3080601EE106AB8EE7E
:10271000411A32EE011AB7EE002A31EE021A61EECA
:10272000810A3DE04EE01DE001EE101AB8EE411ABC
:10273000DFED2E1A81EE812A9FED291AC0EE011AD3
:10274000234E20363668C6F3080601EE106AB8EE4E
:10275000411A31EE811AF7EE001A31EE211A62EEBB
:10276000010A1DE001EE101AB8EE411A9FED1E2A73
:10277000C2EE011A9FED1A1A80EE012A144E20367D
:102780003668C6F3080601EE106AB8EE411A32EE5A
:10279000011AB7EE002A31EE021A61EE810A00BF7B
:1027A00000BF0B4E20363668C6F34626721C01EE7B
:1027B000102AB8EE411AC0EE811ABCEEE11A11EEF1
:1027C000100A00E0002001E0034800BF00BFF0BD98
:1027D000104402580090D00300093D0040787D016C
:1027E000000000460024744C0024744A20BCBE4BF8
:1027F0002DE9F047044614B90120BDE8F0872078A0
:1028000000F00100002872D0F748006800F0380896
:10281000F5481830D0F80090B8F1100F06D0B8F194
:10282000180F0FD109F0030002280BD1EE48103821
:102830000068C0F3404000286ED0606800286BD16B
:102840000120DAE700BF6068B0F5803F08D1E648B4
:102850001038006840F48030E349103908602EE0F9
:10286000606868B9E0481038006820F48030DE49BC
:10287000103908600846006820F4802008601EE0D7
:102880006068B0F5A02F0DD1D7481038006840F42B
:102890008020D549103908600846006840F480302F
:1028A00008600CE0D0481038006820F48030CE4931
:1028B000103908600846006820F48020086000BFD6
:1028C0006068A8B1FEF79EFB054608E0FEF79AFB9C
:1028D000401B41F28831884201D903208DE7C2486C
:1028E00010380068C0F340400028EFD014E014E036
:1028F000FEF788FB054608E0FEF784FB401B41F22B
:102900008831884201D9032077E7B748103800683A
:10291000C0F340400028EFD100BF207800F0020053
:1029200002287BD1B048006800F03808AE48183063
:10293000D0F80090B8F1000F05D0B8F1180F3AD1D7
:1029400009F00300B0BBA84810380068C0F380004D
:1029500018B1E06808B901204FE700BFFEF74CFB53
:1029600041F20301884219D8206940280AD19E48C3
:102970000C38006820F47C3040F400309A490C395F
:10298000086016E098480C38006820F47C30216913
:1029900040EA013094490C3908600AE092480C384A
:1029A000006820F0FE40217C40EA01608E490C392D
:1029B000086067E0FFE7E06888B38B48103800687C
:1029C00020F01900E1680843874910390860FEF7D4
:1029D00019FB054606E0FEF715FB401B022801D94E
:1029E00003200AE7804810380068C0F38000002800
:1029F000F1D000BFFEF700FB41F2030188421BD873
:102A0000206940280CD178480C38006820F47C30CC
:102A100040F4003074490C39086018E033E017E0E6
:102A200071480C38006820F47C30216940EA01309C
:102A30006D490C3908600AE06B480C38006820F0DA
:102A4000FE40217C40EA016067490C39086019E0CA
:102A500065481038006820F00100634910390860AB
:102A6000FEF7D0FA054606E0FEF7CCFA401B022836
:102A700001D90320C1E65C4810380068C0F380002B
:102A80000028F1D100BF207800F0100010287CD180
:102A90005548006800F0380853481830D0F80090C6
:102AA000B8F1080F06D0B8F1180F3DD109F00300B6
:102AB000012839D14C4810380068C0F3002020B1FB
:102AC000E069802801D0012097E600BFFEF794FA64
:102AD00041F2030188421AD8206A20280AD14248CC
:102AE0000C38006820F0F84040F080403E490C3936
:102AF000086018E03C480C38006820F0F84094F872
:102B0000201040EA816038490C3908600BE03648F3
:102B1000001F006820F07C5094F8201040EA01600B
:102B20003149091F086067E0E06978B32E48103822
:102B3000006840F080002C4910390860FEF762FA06
:102B4000054606E0FEF75EFA401B022801D9032085
:102B500053E6254810380068C0F300200028F1D063
:102B600000BFFEF749FA41F2030188421CD8206AEF
:102B700020280CD11C480C38006820F0F84040F0A8
:102B8000804019490C3908601AE036E019E016480F
:102B90000C38006820F0F84094F8201040EA81607A
:102BA00011490C3908600BE00F48001F006820F045
:102BB0007C5094F8201040EA01600B49091F08601E
:102BC0001AE009481038006820F0800006491039E2
:102BD0000860FEF717FA054608E0FEF713FA401BF7
:102BE000022803D9032008E610440258F34800687D
:102BF000C0F300200028F0D100BF207800F00800CA
:102C0000082836D16069D0B1EC487430006840F0D3
:102C10000100EA4974310860FEF7F4F9054606E060
:102C2000FEF7F0F9401B022801D90320E5E5E3484F
:102C300074300068C0F340000028F1D019E0DF488C
:102C40007430006820F00100DC4974310860FEF740
:102C5000D9F9054606E0FEF7D5F9401B022801D94F
:102C60000320CAE5D54874300068C0F3400000284E
:102C7000F1D1207800F02000202830D1A069B8B12F
:102C8000CE48006840F48050CC490860FEF7BAF99D
:102C9000054606E0FEF7B6F9401B022801D90320DD
:102CA000ABE5C6480068C0F340300028F2D016E01B
:102CB000C248006820F48050C0490860FEF7A2F9BD
:102CC000054606E0FEF79EF9401B022801D90320C5
:102CD00093E5BA480068C0F340300028F2D120786C
:102CE00000F0040004287DD1B548006840F48070ED
:102CF000B3490860FEF786F9054606E0FEF782F95B
:102D0000401B642801D9032077E5AD48006800F432
:102D100080700028F2D000BFA068012808D1A74821
:102D20007030006840F00100A449703108602DE067
:102D3000A06868B9A1487030006820F001009F4980
:102D4000703108600846006820F0040008601DE04B
:102D5000A06805280DD199487030006840F0040043
:102D60009649703108600846006840F0010008602C
:102D70000CE092487030006820F001008F497031FB
:102D800008600846006820F00400086000BFA068E2
:102D9000A0B1FEF737F9054608E0FEF733F9401B0E
:102DA00041F28831884201D9032026E583487030FA
:102DB0000068C0F340000028EFD013E0FEF722F9CE
:102DC000054608E0FEF71EF9401B41F288318842B3
:102DD00001D9032011E5794870300068C0F3400044
:102DE0000028EFD1606A00287DD074481030006858
:102DF00000F03800182877D0606A022875D16F4833
:102E0000006820F080706D490860FEF7FBF8054609
:102E100006E0FEF7F7F8401B022801D90320ECE496
:102E200066480068C0F340600028F2D100BFD4E9D2
:102E30000A1041EA001061492831096840F2F33272
:102E4000914308435D4928310860208E401EC0F33D
:102E50000800616B491E4FF47E4202EA412108439B
:102E6000218F491ED20102EA014108433C21095D3C
:102E7000491E120202EA01610843504930310860DC
:102E800000BF081F006820F00100091F08604B48C0
:102E9000343000684FF6F8718843A16C40EAC100F5
:102EA00046493431086045482C30006820F00C0059
:102EB000216C084341492C3108600846006820F025
:102EC0000200616C08433D492C31086008460068E7
:102ED00040F4803008600846006840F40030086024
:102EE0000846006802E066E038E01FE040F4802019
:102EF00008600846006840F0010008602F4800683C
:102F000040F080702D490860FEF77CF8054606E029
:102F1000FEF778F8401B022801D903206DE427480A
:102F20000068C0F340600028F2D044E02348006805
:102F300020F0807021490860FEF764F8054606E03D
:102F4000FEF760F8401B022801D9032055E41B4816
:102F50000068C0F340600028F2D12CE01748283008
:102F60000768164830300668606A012821D007F0EB
:102F70000301A06A81421CD1C7F30511E06A8842AF
:102F800017D1C6F30801206B401E814211D1606B3E
:102F9000401EC6F3462188420BD1A06B401EC6F3EB
:102FA0000641884205D1E06B401EC6F306618842A7
:102FB00001D0012021E400201FE400000044025859
:102FC000004802584FF0E020006940F002004FF046
:102FD000E02108617047000070B504460E461546B2
:102FE0000CB9012070BD94F8450028B9002084F880
:102FF0004400204600F028F804F108012068FDF79D
:1030000067FE3146A2682068FDF7B4FE2946E36AF0
:10301000D4E90102FDF73AFEA168206850F82100CA
:1030200040F00100A268216841F8220005480068CC
:1030300040F0004003490860012084F8450000206A
:10304000D0E700000040005270474FF0E0200069D8
:1030500020F002004FF0E0210861704710B50446EF
:103060000CB9012010BD94F83D0028B9002084F867
:103070003C00204600F029F8022084F83D00211D84
:10308000206801F00BF8012084F8480000BF84F8A4
:103090003E0001213F2001554020015541200155AE
:1030A000422001554320015500BF00BF012084F894
:1030B000440045200155462001554720015500BFD9
:1030C000012084F83D000020CCE77047014691F8CC
:1030D0003D00012801D001207047022081F83D0009
:1030E00008688068074B00EA0302062A08D0B2F598
:1030F000803F05D00868006840F001000B68186048
:103100000020E9E70700010010B504460CB90120D2
:1031100010BDA06900B100E000BFD4F8800028B95C
:10312000002084F87C00204600F02AF82420C4F80F
:1031300080002068006820F00100216808602046B7
:1031400001F020F9012800D1E2E7A06A10B1204681
:1031500001F062F82068406820F4904021684860DF
:103160002068806820F02A00216888602068006854
:1031700040F0010021680860204601F0C9F8C7E767
:103180007047000000B59BB04C2108A8FDF7DCFBA0
:103190001C2101A8FDF7D8FB184808901848099091
:1031A000052001900220029003900120049002204B
:1031B00005900690002007900A9000210B910C9139
:1031C00020210D9100210E910F9110914FF480510B
:1031D000119100211291139114911591169117914B
:1031E00001AA01A908A8FFF7F7FE20B14FF49271D8
:1031F00004A0FDF712FD1BB000BD0000004000520E
:10320000044100522E2E5C2E2E5C557365725C625A
:1032100073705C7372635C6273705F666D635F6929
:103220006F2E630000B587B000BF3E48006840F0D5
:1032300008003C4908600846006800F0080001905A
:1032400000BF00BF00BF0846006840F010000860E3
:103250000846006800F01000019000BF00BF00BFEA
:103260000846006840F0400008600846006800F02A
:103270004000019000BF00BF00BF0846006840F05A
:10328000800008600846006800F08000019000BFE0
:1032900000BF00BF0846006840F480700860084620
:1032A000006800F48070019000BF00BF00BF1D489F
:1032B0000C38006840F480501A490C390860084600
:1032C000006800F48050019000BF00BF022003900E
:1032D00001200490032005900C2006904CF2B3705E
:1032E000029002A91048FDF783FD4FF6807002900E
:1032F00002A90E48FDF77CFD0320029002A90C48AC
:10330000FDF776FD4FF47F40029002A90948FDF7D2
:103310006FFD40F2CF60029002A90748FDF768FDFB
:1033200007B000BDE0440258000C025800100258DB
:1033300000180258001C0258002002580146044898
:103340000068084008B1012070470020FCE7000039
:10335000808B002429B9084A12688243064B1A6000
:1033600004E0054A12680243034B1A60024A1268DD
:10337000024B1A6070470000808B00240010006030
:1033800010B53249096801F0004149B12F49096877
:1033900041F000412D4A11608169891C816110BD95
:1033A0002A49083909682A4A11622849091F0978F7
:1033B00082F824102549C91E0978916223490C31ED
:1033C0000968D1622149891E098811861F49096847
:1033D00051631E49091D096891631C491031096830
:1033E000D1631CA200210BE0535C254CA36200BFFB
:1033F000234BDB6903F04003002BF9D04B1CD9B2FF
:103400002929F1D300211F4A116000BF1D49096815
:103410000029FBD00E4A0168116041685160816843
:103420009160C168D160016911614169516181692F
:103430009161C169D1610021124A116000BF114937
:1034400009680029FBD000BFA9E700002CED00E0CF
:10345000849D00240D0A456E746572204861726473
:103460004661756C745F48616E646C65722C2053A4
:10347000797374656D2048616C742E0D0A0000002C
:10348000001001409C8B002400B5B5B001200190D4
:1034900000201F9001A8FEF71BF900BF65480068D7
:1034A00040F00100634908600846006800F0010030
:1034B000009000BF00BF00BF0846006840F0010058
:1034C00008600846006800F00100009000BF00BFDF
:1034D00000BF58481030006840F0100055491031C6
:1034E00008600846006800F01000009000BF00BFB0
:1034F0004FF4007030900220319001203290032070
:1035000033900720349030A94B48FDF771FC4FF4FD
:10351000806030900720349030A94748FDF768FC60
:10352000002204212520FDF73FFE2520FDF728FE7F
:103530000C2300224FF4E131404801F0E1FE3F4806
:10354000006A40F040003D4908620846806940F04A
:10355000080088610846006840F02000086000BF4D
:103560003448006840F002003249086008460068AC
:1035700000F00200009000BF00BF00BF08460068D6
:1035800040F0020008600846006800F00200009069
:1035900000BF00BF00BF27480830006840F480200B
:1035A0002449083108600846006800F48020009033
:1035B00000BF00BF4FF480603090022031900120A6
:1035C0003290032033900720349030A91C48FDF737
:1035D0000FFC4FF4006030900720349030A9184859
:1035E000FDF706FC032204212720FDF7DDFD27203F
:1035F000FDF7C6FD0C2300224FF41651114801F0CF
:103600007FFE10482030006840F040000D49203116
:1036100008600C481830006840F00800094918316B
:1036200008600848006840F020000649086035B08E
:1036300000BD0000E04402580000025800100140A4
:10364000000402580048004000BFEFF3108018B992
:1036500000BFEFF3118008B1012070470020FCE7A4
:1036600000BFEFF3108018B900BFEFF3118008B16D
:10367000012070470020FCE700BFEFF3108018B96D
:1036800000BFEFF3118008B1012070470020FCE774
:1036900000BFEFF3108018B900BFEFF3118008B13D
:1036A000012070470020FCE700BFEFF3058008B160
:1036B000012070470020FCE700BFEFF3058008B150
:1036C000012070470020FCE700BFEFF3058008B140
:1036D000012070470020FCE700BFEFF3058008B130
:1036E000012070470020FCE72DE9F0410446082C3A
:1036F00017DA0026FF27002508E0284600F038F8F2
:1037000010B1701CC6B22F46681CC5B2082DF4DB80
:10371000012E04D1A74202D10120BDE8F081002092
:10372000FBE7082C0BD1002000F022F828B1012083
:1037300000F01EF808B10120EFE70020EDE7092CAA
:103740000BD1012000F014F828B1022000F010F88D
:1037500008B10120E1E70020DFE70020DDE700BF3E
:10376000EFF3148000F0010080F0010070470000CA
:1037700001460B4850F831000069094B03EBC103C7
:103780009B88184008B9002200E00122044800EBA1
:10379000C1008079904201D1012070470020FCE7F0
:1037A000146F00081FB5FDF7B5FC01208DF800006F
:1037B0004FF01050019012208DF8080003208DF872
:1037C0000B0001208DF80F008DF80E0000208DF801
:1037D0000D008DF8010001208DF80A0000208DF801
:1037E00009008DF80C006846FDF766FC01208DF895
:1037F00000004FF0C04001900F208DF8080003201A
:103800008DF80B0001208DF80F0000208DF80E00C0
:103810008DF80D0001208DF8010000208DF80A00C0
:103820008DF809008DF80C006846FDF745FC042072
:10383000FDF780FC1FBD10B502465318184610BD99
:1038400000BFFEE72DE9F041054605F12800FCF731
:1038500040FE074667B1EC6A07E00121A01CFCF7B7
:10386000C9FD064606B902E0A468002CF5D100E0C7
:1038700000242046BDE8F0812DE9F04105460C46C4
:10388000286BA0B12E6B002701E0374676681EB189
:10389000F078E1788842F8DB6660A7600EB1B4602A
:1038A00000E0EC620FB17C6006E02C6304E00020D5
:1038B0006060A060EC622C6305F12800FCF7DBFD82
:1038C000BDE8F0814A681AB1D1E901329A6001E09D
:1038D0008A68C2628A681AB1D1E901235A6001E09C
:1038E0004A680263704770474FF0E02000697047F4
:1038F0000948007830B10020074908704FF0806017
:10390000064908604FF0E020006940F001004FF0E8
:10391000E021086170470000A08B002404ED00E066
:103920004FF0FF307047000010B502460B4612B949
:103930004FF0FF3010BD0D480068B0FBF2F0411EA3
:10394000B1F1807F02D34FF0FF30F3E7FF24084846
:10395000C47206204FF0E02420612046416100201F
:10396000A061044C207000BFE4E70000948B0024A9
:1039700018ED00E0A08B00242DE9F04104460E462E
:1039800000275548006800F00300032802D10120F9
:10399000BDE8F08150482838006820F080604E492A
:1039A00028390860FDF72EFB054606E0FDF72AFBE7
:1039B000401B022801D90320EAE74748283800685D
:1039C000C0F3C0600028F1D100BF4348006820F474
:1039D0007C30216840EA01303F490860A088401EE1
:1039E000C0F30800A168491E4FF47E4202EA41215B
:1039F0000843A189491ED20102EA01410843217C02
:103A0000491E120202EA016108433349103108607D
:103A100000BF3148001D006820F0C0006169084304
:103A20002D49091D08600846006820F02000A169A2
:103A300008432949091D08600846006820F0100065
:103A400008602548143000684FF6F8718843E16932
:103A500040EAC1002049143108601F48001D006879
:103A600040F010001C49091D08602EB90846006886
:103A700040F40020086012E0012E08D11648001D15
:103A8000006840F480101449091D086007E01248DE
:103A9000001D006840F400100F49091D08600E4821
:103AA0002838006840F080600B4928390860FDF72D
:103AB000A9FA054606E0FDF7A5FA401B022801D940
:103AC000032065E7044828380068C0F3C060002878
:103AD000F1D038465CE70000284402582DE9F04157
:103AE00004460E4600275548006800F003000328EE
:103AF00002D10120BDE8F08150482838006820F04C
:103B000080504E4928390860FDF77CFA054606E0EA
:103B1000FDF778FA401B022801D90320EAE747485D
:103B200028380068C0F340700028F1D100BF434836
:103B3000006820F07C70218840EA01503F4908600D
:103B4000A088401EC0F30800A168491E4FF47E42C1
:103B500002EA41210843A189491ED20102EA01413A
:103B60000843217C491E120202EA016108433349DD
:103B70001831086000BF3148001D006820F4406023
:103B8000616908432D49091D08600846006820F452
:103B90000070A16908432949091D086008460068AA
:103BA00020F48070086025481C3000684FF6F871DA
:103BB0008843E16940EAC10020491C3108601F4880
:103BC000001D006840F480701C49091D08602EB972
:103BD0000846006840F48000086012E0012E08D119
:103BE0001648001D006840F400001449091D0860D3
:103BF00007E01248001D006840F080700F49091D61
:103C000008600E482838006840F080500B49283979
:103C10000860FDF7F7F9054606E0FDF7F3F9401BEC
:103C2000022801D9032065E7044828380068C0F35A
:103C300040700028F1D038465CE700002844025864
:103C400000B587B000BF0D48006840F002000B4986
:103C500008600846006800F00200019000BF00BF45
:103C6000012003900020049003200590042002907E
:103C700002A90348FDF7BCF807B000BDE0440258B4
:103C80000004025870470000042001490860704792
:103C9000180402584FF48020014908607047000062
:103CA0001804025810B51B48006840B11948006854
:103CB000401E1849086010B90120174908700024F7
:103CC00008E004EB4401154A02EB810001F04CFBD3
:103CD000601CC4B2042CF4DB11480068401C10497D
:103CE0000860084600686FF00041884202D1002059
:103CF0000B49086001F0F0FA0A480078401CC0B295
:103D0000084908700A2803DB0020087001F0E0FA77
:103D100010BD0000708B0024748B0024FC8C0024E8
:103D2000788B00247D8B002410B59CB0202114A832
:103D3000FCF70AFE4C2101A8FCF706FE00245B48B4
:103D4000006820F004005949086000BF002000907E
:103D50005748006820F0010055490860084600688F
:103D600000F00100009051480C30006840F44040E1
:103D70004E490C3108600846006800F4404000904D
:103D800000BF00BF00BF49480C30006800F400507D
:103D9000B0F5005FF7D101200190000402900020EF
:103DA0000490089002200A9002210B9105210C91A9
:103DB000A0210D9102210E91109104210F9100215B
:103DC00012910821119101A8FEF712FD04461CB1C1
:103DD000992138A0FCF721FF3F2014900320159073
:103DE000002016900820179040201890199000018C
:103DF0001A9040201B90042114A8FEF709FA0446EB
:103E00001CB1B4212BA0FCF708FF3048006840F03B
:103E100080002E49086000BF2C48F430006840F054
:103E200002002A49F43108600846006800F00200E8
:103E3000009000BF00BFFCF7D1FF00BF2348DC307B
:103E4000006840F000502149DC31086008460068F5
:103E500000F00050009000BF00BF00BF084600689F
:103E600040F0804008600846006800F08040009004
:103E700000BF00BF00BF0846006840F00040086077
:103E80000846006800F00040009000BF00BF0F48E7
:103E9000A830006840F080500C49A83108600846FE
:103EA000006840F0005008601CB010BD0C4802587B
:103EB0002C0400582E2E5C2E2E5C557365725C62AD
:103EC00073705C6273702E6300000000004402583F
:103ED0003648006840F4700034490860344800688F
:103EE00000F00F00072806D23148006820F00F00CC
:103EF000C01D2F4908602F48006840F001002D497F
:103F0000086000202B49103108602A4800682A49BF
:103F10000840284908602648006800F00F0007287C
:103F200006D92348006820F00F00C01D2049086012
:103F30000020204918310860091D0860091D08602B
:103F40001E481C49283108601D48091D08601D488D
:103F5000091D08600020091D08601A48091D086035
:103F60000020091D08601748091D08600020091D70
:103F700008601048006820F480200E490860002086
:103F80000C4960310860104800686FF30F00B0F111
:103F9000005F02D201200D49086043F2D2000C49B3
:103FA00008604803014980390860704788ED00E0E7
:103FB00000200052004402587FEDF6EA000202029F
:103FC0000000FF01800201010010005C0881005127
:103FD0000040005210B5FFF7E5FBFCF783FDFDF74D
:103FE00037F8FFF7A1FE10BD70B5002500264FF091
:103FF0008044206900F00205E06800F002065DB12F
:1040000056B14FF6FD702061E0684FF6FD71084033
:10401000E0601E4800688047206900F00405E06801
:1040200000F004065DB156B14FF6FB702061E06808
:104030004FF6FB710840E060154800688047206932
:1040400000F00805E06800F008065DB156B14FF6D3
:10405000F7702061E0684FF6F7710840E0600D48A6
:1040600000688047206900F01005E06800F0100645
:104070005DB156B14FF6EF702061E0684FF6EF7119
:104080000840E06004480068804770BD608B0024F1
:10409000648B0024688B00246C8B002410B50268AC
:1040A000294B98420ED0B0F1804F0BD0274B98424D
:1040B00008D0274B984205D0264B984202D0264B79
:1040C000984203D122F070024B681A431E4B98426B
:1040D00017D0B0F1804F14D01C4B984211D01C4B1C
:1040E00098420ED01B4B98420BD01B4B984208D0E5
:1040F0001A4B984205D01A4B984202D0194B98425D
:1041000003D122F44072CB681A4322F080034C6939
:1041100043EA040202608B68C3620B6883620A4B45
:1041200098420BD00C4B984208D00C4B984205D0CB
:104130000B4B984202D00B4B984201D10B690363A1
:104140000123436110BD0000000001400004004055
:1041500000080040000C0040000401400040014005
:1041600000440140004801402DE9F04107460E4659
:10417000154605F0020080B905F0010030B1314666
:1041800007F12800FCF79BFA044615E0314607F1D9
:104190002800FCF7A7FA04460EE0BC6A05F001000F
:1041A00018B104EA0600B04205D105F0010018B9C3
:1041B00004EA060000B900242046BDE8F0810000B2
:1041C00030B5024600230D4C606C03E00469091B06
:1041D0000346C06810B104698C42F7D9116193603D
:1041E000D06020B104691569641B046182600BB161
:1041F000DA6001E0014C626430BD0000A88B00244D
:10420000C16811B1D0E902129160024AC1685164DB
:1042100070470000A88B002490F8281001F00101DD
:1042200039B10168496821F40031C26A114302685A
:10423000516090F8281001F00201022907D10168AD
:10424000496821F48031026B11430268516090F893
:10425000281001F00401042907D10168496821F4FC
:104260008021426B11430268516090F8281001F0E0
:104270000801082907D10168496821F40041826BCF
:1042800011430268516090F8281001F010011029C4
:1042900007D10168896821F48051C26B114302681B
:1042A000916090F8281001F02001202907D10168C1
:1042B000896821F40051026C11430268916090F802
:1042C000281001F04001402913D10168496821F408
:1042D0008011426C114302685160416CB1F5801F3E
:1042E00007D10168496821F4C001826C114302685A
:1042F000516090F8281001F08001802907D10168F1
:10430000496821F40021C26C114302685160704772
:1043100038B504460020C4F88800FCF773FE054653
:104320002068006800F0080008280CD16FF07E407B
:104330002B4600224FF400110090204600F0F0FAC6
:1043400008B1032038BD2068006800F0040004288C
:104350000CD16FF07E402B4600224FF4800100907C
:10436000204600F0DDFA08B10320EBE72020C4F876
:104370008000C4F8840000BF002084F87C0000BFE7
:1043800000BFDFE72DE9F04F8BB005460020089015
:10439000F9492868884200D100E000BF2969A8686F
:1043A000084369690843E96940EA0108686E40EA20
:1043B000080828680068F149084040EA08002968B0
:1043C00008602868406820F44050E968084329687C
:1043D0004860D5F81880E8492868884202D0286AE1
:1043E00040EA080828688068E549084040EA080073
:1043F000296888602868C06A20F00F00696A08434D
:104400002968C86200BFDF492868884220D1DE4899
:10441000006800F03800182811D005DC48B10828E1
:1044200009D0102811D108E020280AD028280CD162
:1044300009E001240BE0042409E0082407E010242B
:1044400005E0202403E0402401E0802400BFF8E0E0
:10445000CE492868884219D1CB48006800F007008F
:10446000062810D2DFE800F0030507090B0D002431
:104470000BE0042409E0082407E0102405E02024D0
:1044800003E0402401E0802400BFDAE0C04928684E
:10449000884219D1BC48006800F00700062810D2F5
:1044A000DFE800F0030507090B0D00240BE00424EE
:1044B00009E0082407E0102405E0202403E040245C
:1044C00001E0802400BFBCE0B2492868884219D1CD
:1044D000AD48006800F00700062810D2DFE800F0C1
:1044E000030507090B0D00240BE0042409E0082450
:1044F00007E0102405E0202403E0402401E08024AC
:1045000000BF9EE0A4492868884219D19E480068EF
:1045100000F00700062810D2DFE800F003050709C5
:104520000B0D00240BE0042409E0082407E010240C
:1045300005E0202403E0402401E0802400BF80E067
:1045400096492868884220D18F48006800F03800DA
:10455000182811D005DC48B1082809D0102811D13D
:1045600008E020280AD028280CD109E001240BE01B
:10457000042409E0082407E0102405E0202403E0D7
:10458000402401E0802400BF5BE085492868884220
:1045900019D17D48006800F00700062810D2DFE836
:1045A00000F0030507090B0D00240BE0042409E0CB
:1045B000082407E0102405E0202403E0402401E063
:1045C000802400BF3DE077492868884219D16E48B1
:1045D000006800F00700062810D2DFE800F00305AD
:1045E00007090B0D00240BE0042409E0082407E070
:1045F000102405E0202403E0402401E0802400BFD3
:104600001FE05D49286888421AD15F48001D006894
:1046100000F00700062810D2DFE800F003050709C4
:104620000B0D02240BE0042409E0082407E0102409
:1046300005E0202403E0402401E0802400BF00E0E6
:10464000802400BF4C49286888427DD1102C1AD0A4
:1046500006DC022C09D0042C0BD0082C29D10DE04B
:10466000202C21D0402C24D120E0FCF7EFFD064681
:1046700023E005A8FCF7FCFD069E1EE002A8FCF75F
:104680000FFF039E19E0404854380068C0F3401003
:1046900040B13D4854380068C0F3C101424820FA97
:1046A00001F600E0404E08E0404E06E04FF40046C0
:1046B00003E000260120089000BF00BF002E10D0AC
:1046C0003B49686A31F81000B6FBF0F9686800EB06
:1046D0004000484503D868680003484502D20120DD
:1046E000089009E13249686A31F810C06246002337
:1046F00030461946FCF7DEF84FF480730022A0FB29
:1047000003AC01FB03C100FB021B02220023D5F80E
:1047100004C060461946FCF7CDF81AEB00004BF1D7
:10472000000BCDE9000BD5F804C0624600235946C2
:10473000FCF7C0F80746B7F5407F06D3B7F5801FF2
:1047400003D22868C760D7E002E001200890D3E0D8
:10475000E869B0F5004F7DD1082C39D005DC4CB3A9
:10476000012C2CD0042C4CD12DE0102C35D0202C39
:1047700042D0402C45D141E0000C0058F369FFCFF6
:10478000FFF4FF110010014054440258004400405F
:1047900000480040004C0040005000400014014020
:1047A00000780040007C00400090D00300093D00EC
:1047B000546F0008FFE7FDF7E1FE064625E0FDF730
:1047C000EFFE064621E005A8FCF752FD069E1CE020
:1047D00002A8FCF765FE039E17E04D480068C0F391
:1047E000401038B14A480068C0F3C101494820FA76
:1047F00001F600E0474E08E0474E06E04FF4004661
:1048000003E000260120089000BF00BF0EB343491B
:10481000686A31F81000B6FBF0F04000696800EB00
:104820005100B0FBF1F087B2102F10D3B7F5803FE5
:104830000DD24FF6F07038400990C7F34201099845
:104840000843099009982968C86055E002E00120F2
:10485000089051E0082C1AD005DC5CB1012C0DD079
:10486000042C2DD10EE0102C16D0202C23D0402C5F
:1048700026D122E0FDF782FE064625E0FDF790FEF8
:10488000064621E005A8FCF7F3FC069E1CE002A802
:10489000FCF706FE039E17E01D480068C0F34010B9
:1048A00038B11B480068C0F3C1011A4820FA01F66C
:1048B00000E0184E08E0184E06E04FF4004603E012
:1048C00000260120089000BF00BFAEB11349686AFE
:1048D00031F81000B6FBF0F0696800EB5100B0FB56
:1048E000F1F087B2102F05D3B7F5803F02D22868C8
:1048F000C76001E0012008900120A5F86A00A5F832
:1049000068000020E866286708980BB0BDE8F08FC3
:10491000004402580090D00300093D00546F000885
:104920002DE9F04104460D4617469846069E4AE09A
:10493000701C002847D0FCF765FBA0EB0800B042D4
:1049400000D8C6B92068006820F4D07021680860DB
:104950002068806820F00100216888602020C4F869
:104960008000C4F8840000BF002084F87C0000BFF1
:104970000320BDE8F0812068006800F0040010B357
:104980002068C069C0F3C020E8B14FF4006021681E
:1049900008622068006820F4D070216808602068F0
:1049A000806820F00100216888602020C4F8800021
:1049B000C4F88400C4F8880000BF002084F87C009C
:1049C00000BF0320D5E72068C0692840A84201D174
:1049D000012000E00020B842AAD00020C9E7000072
:1049E00010B5024800F00CF810BD00002C8D00241A
:1049F00010B5024800F004F810BD000058950024DE
:104A00002DE9F04104462068C569206806682068E1
:104A1000D0F8088005F02000D8B12068406AC7B2FD
:104A2000E18AA0684754E08A401C80B2E082E189B4
:104A3000884201DB0020E082608BE189884202DA53
:104A4000608B401C6083606A10B13846616A884799
:104A500000BF05F0800028B306F0800010B3A08AE4
:104A600060B92068006820F0800021680860206834
:104A7000006840F040002168086013E0012084F8DD
:104A80002800618A6068405C21688862608A401CF6
:104A900080B26082A189884201DB00206082A08A06
:104AA000401EA08205F0400018B306F0400000B39D
:104AB000A08A68B92068006820F04000216808607A
:104AC000206A08B1206A8047002084F8280010E09E
:104AD000618A6068405C21688862608A401C80B29C
:104AE0006082A189884201DB00206082A08A401E8A
:104AF000A0822068006A40F00100216808622068F6
:104B0000006A40F00200216808622068006A40F0F4
:104B10000400216808622068006A40F008002168EB
:104B200008622068006A40F010002168086220686E
:104B3000006A40F04000216808622068006A40F482
:104B40008070216808622068006A40F40070216863
:104B500008622068006A40F400302168086220681A
:104B6000006A40F48010216808622068006A40F002
:104B7000200021680862BDE8F081F8B504460F46C0
:104B80001646002539E01EE0012000F0C6F8A08A94
:104B90000090002000F0C1F8A089BDF80010884204
:104BA00000DD11E0A089BDF8001088420AD120681C
:104BB000006800F0800028B92068006840F080009C
:104BC0002168086000BFDFE700BF785D228A616866
:104BD0008854012000F0A1F8208A401C80B2208275
:104BE000A189884201DB00202082A08A401CA0828B
:104BF000002000F092F8681C85B2B542C3DB206843
:104C0000006840F0800021680860F8BD19481A4922
:104C100008601A4848601A4888604FF480608881AC
:104C2000C881002008824882C8820883488388821D
:104C3000C8610862486281F8280012481249086079
:104C400012484860124888604FF480608881C881AB
:104C5000002008824882C8820883488388820D48E1
:104C6000C8610D4808620D484862002081F828009C
:104C700070470000001001402C8D0024588D002446
:104C80005891002400480040589500248495002441
:104C900084990024893C0008953C0008853C000864
:104CA00000BFFEE70FB4054B10B503A9044A0298F4
:104CB00000F036F810BC5DF814FB0000C353000888
:104CC000A48B002402480068C0F302207047000053
:104CD0000CED00E010B5002804DB0A07130E054AAE
:104CE000135406E00A07140E034A00F00F031B1FBB
:104CF000D45410BD00E400E018ED00E002E008C864
:104D0000121F08C1002AFAD170477047002001E045
:104D100001C1121F002AFBD1704780F31088704731
:104D20002DE9F84F9946924688460546002706E049
:104D300025280AD051464A4690476D1C7F1C28788A
:104D40000028F5D13846BDE8F88F002315F8011F7B
:104D500018462E2915D115F8011F04232A290DD034
:104D60006FF02F022978A1F13004092C09D800EB4B
:104D7000800002EB400008446D1CF3E758F8040B78
:104D80006D1C2A78002ADDD0632A07D0732A0FD041
:104D9000104651464A4690477F1C2AE018F8042BDB
:104DA0008DF8002000218DF801106E46012103E0EE
:104DB00058F8046B4FF0FF315A074FF0000401D44C
:104DC00009E0641C84420BDA8C42FADB325D002A73
:104DD000F7D105E0641C8C42FCDB305D0028F9D182
:104DE000274404E016F8010B51464A469047641EDA
:104DF000F8D26D1CA3E7000070B50546304800EB03
:104E000005142846FEF770FC00283ED020790528BE
:104E100002DA0520207152E020790A2803DA20798D
:104E2000401C20714BE0A07A38B90120A07205EB3C
:104E30004501491CC8B200F03BFA208900283EDD3C
:104E4000E088218988420DDAE088401C80B2E08049
:104E50002189884233D105EB4501C91CC8B200F055
:104E600027FA2CE0E07A002829DD207B401CC0B224
:104E70002073E17A884222DB0020207305EB450194
:104E8000491CC8B200F014FA19E02079052802DDA7
:104E90000520207110E0207918B12079401E207182
:104EA0000AE0A07A012807D10020A07205EB450195
:104EB000891CC8B200F0FCF90020E080207370BDAE
:104EC0004C8C00240B48807A0A4AD27A904201D155
:104ED000002070470748807A064A115C1046807AA5
:104EE000401CC0B290720A2801DB00209072084674
:104EF000EFE70000EC8C002410B500F00BF800F098
:104F0000ADF800F081F900F019F800F049F900F06F
:104F100055F910BD0748006840F0807005490860E9
:104F20000020054948600846006840F0010008601C
:104F300070470000FCED00E0001000E010B5FEF747
:104F400071F9FEF71FF940F614700349086008462E
:104F500000680249086010BD808B002400100060CA
:104F6000F0B595B04C2102A8FBF7EEFC4FF0804461
:104F700000BF2948006840F0010027490860084642
:104F8000006800F00100019000BF00BF2348844288
:104F90000BD02348844208D02248844205D02248BE
:104FA000844202D02148844203D121480068460847
:104FB00002E01F48006846081E48B6FBF0F0401E9D
:104FC00087B2B4F1804F02D01B48844202D14FF027
:104FD000FF3501E04FF6FF75029403970595002118
:104FE0000691049107918021089102A8FEF736F8F6
:104FF00020B140F2362111A0FBF70FFE0222002162
:105000001C20FCF7D1F81C20FCF7BAF802A8FEF728
:105010005DF815B0F0BD0000E84402580000014002
:1050200000040140004001400044014000480140AC
:10503000948B002440420F00000C00402E2E5C2E6A
:105040002E5C557365725C6273705C7372635C6234
:1050500073705F74696D65722E63000010B500F0A7
:1050600063F800F001F810BD10B586B000BF2C4801
:10507000006840F002002A4908600846006800F015
:105080000200009000BF00BF00BF0846006840F06B
:10509000040008600846006800F00400009000BFAB
:1050A00000BF00BF0846006840F0400008600846A6
:1050B000006800F04000009000BF00BF00BF08463D
:1050C000006840F0800008600846006800F080003A
:1050D000009000BF00BF00BF0846006840F4807029
:1050E00008600846006800F48070009000BF00BFB0
:1050F0000020029003900320049000240CE0094853
:1051000000EBC40080880190064951F8340001A9E1
:10511000FBF76EFE601CC4B2082CF0DB06B010BDBD
:10512000E0440258146F000810B500201A49887234
:10513000C8720873002418E06420184901EB0411B8
:1051400008810220154901EB041108710020134960
:1051500001EB04118872114901EB0411C8720F4967
:1051600001EB04110873601CC4B20A2CE4DB0622B4
:105170006421032000F0B2F806226421042000F02C
:10518000ADF806226421052000F0A8F8062264216B
:10519000104600F0A3F810BDEC8C00244C8C0024C9
:1051A00010B5012000F043F8022000F040F8032081
:1051B00000F03DF8042000F03AF810BD10B50024CE
:1051C00016E0002004EB44010D4A02EB8101486027
:1051D00004EB440102EB8101886004EB440102EB23
:1051E0008101487004EB440102F82100601CC4B244
:1051F000042CE6DB012003490870FFF7B1FE10BD67
:10520000FC8C00247C8B002410B5FFF7FFFCFEF71C
:105210003BF9FEF715FD10BD10B5002404E0204653
:10522000FFF7EAFD601CC4B20A2CF8DB10BD10B514
:105230000446012C04D101210002FEF78BF813E093
:10524000022C04D101214802FEF784F80CE0032C63
:1052500004D101218802FEF77DF805E0042C03D17A
:105260000121C802FEF776F810BD70B50446012C86
:1052700001D105020DE0022C01D1250209E0032C29
:1052800002D14FF4806504E0042C01D1650200E0F6
:1052900070BD2846FEF752F820B100212846FEF7DF
:1052A00059F803E001212846FEF754F800BFEFE764
:1052B0000649C97A054A50541146C97A491CC9B2EF
:1052C000D1720A2901DB0021D1727047EC8C0024D5
:1052D00010B5FFF7A1FF10BD7047000010B5074BD8
:1052E00003EB00131981054B03EB0013DA72002363
:1052F000024C04EB0014237310BD00004C8C0024FE
:10530000F0B5A3B004460D4617461E468C216846EC
:10531000FBF71AFB00940195002102910391049779
:10532000069105960791089100200A906846FDF7BE
:10533000EBFE20B140F2263102A0FBF76EFC23B059
:10534000F0BD00002E2E5C2E2E5C557365725C62E3
:1053500073705C7372635C6273705F756172745FAB
:105360006669666F2E630000416851B14168491E4D
:10537000416031B9012141700178012901D1816871
:10538000416070472DE9F04105460E461746284614
:10539000FBF704FC04460CB9BDE8F081E06908B1F4
:1053A000E06980473A4631462046FFF7E6FB00BFFA
:1053B000F2E713B50446012201A92046FFF7E2FFF8
:1053C0001CBD70B504460D46E1B20020FFF7F1FFA9
:1053D000204670BD2DE9F05F05460F4690469A467F
:1053E00000BF00BF2E4636B13078FA2803D117B17E
:1053F000BAF1000F08D06FF003013046FBF727FC2D
:105400006FF00300BDE8F09F3046FEF71BFA04463C
:10541000CCB104F10C013846726AFBF77CFAB8F1A2
:10542000000F02D0E07888F80000E66000BF00BFFF
:10543000A346584600F048FC39463046FBF713FCBB
:105440004FF0000905E039463046FBF708FC6FF0E5
:1054500002094846D6E72DE9F05F06460F46914619
:105460009A4600BF00BF354635B12878FA2803D1E7
:1054700017B1BAF1000F08D06FF003012846FBF70F
:10548000E6FB6FF00300BDE8F09F05F10C0000F0B3
:1054900092FA0446D4B1394604F10C006A6AFBF76B
:1054A0003AFAF92020700020A07084F80390676019
:1054B000A56000BF00BFA346584600F005FC394672
:1054C0002846FBF7C8FB4FF0000805E039462846A0
:1054D000FBF7C4FB6FF002084046D4E770B50B48F9
:1054E000B0F854605630FBF7A5F858B1314607487C
:1054F0005A30FBF77CF805460448C06D50F825404B
:1055000000BF00E00024204670BD0000A88B0024EE
:105510002DE9F04106460C48B0F854703946563033
:10552000FBF756F8B8420BDA394607485830FBF714
:105530005EF804460448C06D40F82460012500E090
:1055400000252846BDE8F081A88B0024FEF742FD27
:10555000FDF77BFD00F07CF8054A0021054800F0CE
:1055600021FF0549086000F08FF800BFFEE700004A
:10557000846E0008890A00085C8B002470B505461B
:105580002846FBF74EFBFEF78FF810B9FEF75CF8E4
:1055900030B16FF00500FBF746FB6FF0050406E045
:1055A00000BF2846DFF80CC000DF044600BF2046DD
:1055B00070BD0000F163000870B505462846FBF792
:1055C00034FBFEF771F810B9FEF73EF830B16FF01A
:1055D0000500FBF728FB6FF0050406E000BF284636
:1055E000DFF80CC000DF044600BF204670BD00009D
:1055F0001D64000810B5FEF75FF828B9FEF730F813
:1056000010B9FEF7ACF818B100F02CFF044605E025
:1056100000BFDFF80CC000DF044600BF204610BD0D
:105620006564000810B5FEF747F810B9FEF718F8E2
:1056300018B100F023FF044605E000BFDFF80CC0FE
:1056400000DF044600BF204610BD00007D64000856
:1056500010B500F0C5F8FBF7EEFAFEF72DF810B91B
:10566000FDF7FEFF30B16FF00500FBF7E1FA6FF0D8
:10567000050405E000BFDFF80CC000DF044600BFF2
:10568000204610BD9164000810B5FBF7D6FAFEF76E
:1056900013F810B9FDF7E4FF30B16FF00500FBF728
:1056A000C7FA6FF0050405E000BFDFF80CC000DFAB
:1056B000044600BF204610BDB56600082DE9F04144
:1056C00080460D4616461F463B4632462946404612
:1056D000FBF7BEFAFDF7F8FF10B9FDF7CDFF38B1C3
:1056E0003B46324629464046FFF774FE044609E031
:1056F00000BF3B46324629464046DFF810C000DF77
:10570000044600BF2046BDE8F08100008D67000818
:105710002DE9F04107460D461646324629463846E1
:10572000FBF79BFAFDF7D0FF10B9FDF7A5FF30B1ED
:105730006FF005010020FBF78AFA002408E000BFA3
:10574000324629463846DFF810C000DF044600BF65
:105750002046BDE8F0810000C56800082DE9F04151
:1057600080460D4616461F463B4632462946404671
:10577000FBF776FAFDF7A8FF10B9FDF77DFF38B10A
:105780003B46324629464046FFF765FE044609E09F
:1057900000BF3B46324629464046DFF810C000DFD6
:1057A000044600BF2046BDE8F0810000596A0008A9
:1057B000062809D2DFE800F008030405060704E024
:1057C00003E002E001E000E000BF00BF00BFFEE731
:1057D00000BFFEE70148007A70470000A88B002454
:1057E00070472DE9F84F0446894690462CB1B9F12F
:1057F000000F02D028F0030040B100234246494682
:105800002046FBF71CFA0020BDE8F88F09F10807D5
:10581000F81D20F0070708212046FEF70CF8054682
:1058200000BF2868A0EB050A686820F00300AAEB17
:10583000000ABA4500D30BE02D6828680028F0D193
:105840000023424649462046FBF7F9F90020DBE7F2
:1058500000BF00BF00BF201D61683944616000BF08
:1058600000BF2068A0F1080B59462046FDF7E3FF72
:10587000064600BF00BF61687068814203D900BF5F
:1058800000BF60687060686840B947EA08006860F7
:1058900008212846FDF7CFFF009011E0686820F04E
:1058A00003012846FDF7C7FF06462868306047EA2F
:1058B000080070602E6008213046FDF7BCFF0090A4
:1058C000424649462046009BFBF7B9F900989BE702
:1058D0002DE9F04105460F4605B13FB90022394692
:1058E0002846FBF7B0F90020BDE8F08100213846DA
:1058F000FDF7A1FF8046A8F10808002608212846E8
:10590000FDF799FF044609E02646246834B90022D1
:1059100039462846FBF797F90020E5E74445F3D1DF
:1059200000BF00BF281D6968626822F00302891A5F
:10593000696016B90020606001E0206830600122D3
:1059400039462846FBF77FF90120CDE72DE9F041E4
:1059500004460D463CB104F0070020B905F00700ED
:1059600008B9182D07D2002229462046FBF76CF90A
:105970000020BDE8F08100BF00BF27463D60102039
:10598000786008212046FDF756FF0646A5F108017C
:105990002046FDF750FF306000203168086010207D
:1059A0003168486000207060012229462046FBF7DC
:1059B0004BF90120DDE770B504462CB900210846FB
:1059C000FBF73EF9002070BD04F11400FAF7F7FC74
:1059D000054615B1201DFAF7AAFC29462046FBF71B
:1059E0002FF92846EFE770B504460D462CB1E06864
:1059F000A84202D82069A84208D86FF003022946BD
:105A00002046FBF71EF96FF0030070BD294604F134
:105A10001400FAF7E1FC201DFAF7AEFC002229463B
:105A20002046FBF70EF90020EFE72DE9F04704468A
:105A30000F4690461E4624B11FB1B8F1000F00D0AA
:105A400016B90020BDE8F087276000206060C4F828
:105A50000880E660666107FB0860206133464246C5
:105A600039462046FBF7EEF8354604E005EB080919
:105A7000C5F800904D46781E071EF7D1286001201A
:105A8000E0E72DE9F05F0546A87800283CD0EC68F7
:105A900029462046FDF716FF00202870294604F10C
:105AA0000C00FFF7A0FFA06800286CD004F10C00E8
:105AB000FFF781FF0646002E65D000BF00BFA3465A
:105AC000584600F0A7FA804600221146404600F0F2
:105AD00097FB404600F012FB0746D7F8089049466E
