:020000040800F2
:1000000098190020AD02000853220008613F000843
:10001000512200083508000849300008000000009F
:100020000000000000000000000000006B25000838
:100030007D08000800000000552200086D2500081A
:10004000C7020008C7020008C7020008C70200086C
:10005000C7020008C7020008C7020008C70200085C
:10006000C7020008C7020008C7020008C70200084C
:10007000C7020008C7020008C7020008C70200083C
:10008000C7020008C7020008C7020008C70200082C
:10009000C7020008C7020008C7020008C70200081C
:1000A000C7020008C7020008C7020008C70200080C
:1000B00089260008C7020008C7020008C702000816
:1000C000C7020008C7020008C7020008C7020008EC
:1000D000C7020008172F0008C7020008C70200085F
:1000E000C7020008C702000800000000C70200089D
:1000F000C7020008C7020008C7020008C7020008BC
:10010000C7020008C7020008C7020008C7020008AB
:10011000C7020008C7020008C7020008C70200089B
:10012000C7020008C7020008C7020008C70200088B
:10013000C7020008C7020008C7020008C70200087B
:1001400000000000000000000000000000000000AF
:10015000C7020008C7020008C7020008C70200085B
:10016000C7020008C7020008C7020008C70200084B
:10017000C7020008C7020008C7020008000000000C
:10018000C7020008C7020008C7020008C70200082B
:10019000C7020008C7020008C7020008C70200081B
:1001A000C7020008C7020008C7020008C70200080B
:1001B000C7020008C7020008C7020008C7020008FB
:1001C000C7020008C7020008C7020008C7020008EB
:1001D000C7020008C7020008C7020008C7020008DB
:1001E000C7020008C7020008C7020008C7020008CB
:1001F000C7020008C7020008C7020008C7020008BB
:10020000C7020008C7020008C7020008C7020008AA
:10021000C7020008C7020008C7020008C70200089A
:10022000C7020008C7020008C7020008000000005B
:10023000C7020008C702000800000000C70200084B
:10024000C7020008C7020008C7020008C70200086A
:10025000C7020008C7020008C7020008C70200085A
:10026000C7020008C7020008C7020008C70200084A
:10027000C7020008C7020008C7020008000000000B
:10028000C702000800000000C702000800000000CC
:1002900000000000C7020008DFF80CD000F048FAA8
:1002A00000480047D93A00089819002006488047BE
:1002B00006480047FEE7FEE7FEE7FEE7FEE7FEE74B
:1002C000FEE7FEE7FEE7FEE71D26000899020008AC
:1002D0002DE9F05F0546002092469B46884606467B
:1002E000814640241BE0284641464746224600F00E
:1002F00057F853465A46C01A914110D31146184632
:10030000224600F03EF82D1A67EB01084F462246C0
:100310000120002100F035F817EB00094E41201EA6
:10032000A4F10104DFDC484631462A464346BDE8D5
:10033000F09FD2B201E000F8012B491EFBD27047BA
:100340000022F6E710B513460A4604461946FFF7A1
:10035000F0FF204610BD30B50B460146002020229C
:10036000012409E021FA02F59D4205D303FA02F5C2
:10037000491B04FA02F52844151EA2F10102F1DC22
:1003800030BD202A04DB203A00FA02F10020704739
:100390009140C2F1200320FA03F3194390407047C3
:1003A000202A04DB203A21FA02F00021704721FACA
:1003B00002F3D040C2F12002914008431946704731
:1003C0002DE9FE4F804681EA0300C00F0C460090E5
:1003D00021F0004123F00045B8EB0200A94105D20D
:1003E0004046214690461C460B46024623F00040FC
:1003F000104347D0270DC7F30A00C3F30A510290F8
:10040000401A019040286BDAC3F3130040F4801BBC
:100410000098924620B10023D2EB030A63EB0B0B4A
:1004200001985946C0F140025046FFF7AAFF064620
:100430000D4650465946019A00F08CF910EB080021
:100440006141002487EA115284EAE7731A4340D0DD
:10045000009A62B3019A012A4FEA075215DC001B89
:1004600061EB02014FF0004202EA0752CDE900427F
:10047000001C41F5801132462B4600F08CF903B088
:10048000BDE8F08F40462146F9E7001B61EB020111
:10049000001C41F5801300185B412018A2F50017DD
:1004A00047EB030140EAD570B6196D4111E06D08C4
:1004B0004FEA360645EAC0754FEA0752001B61EB6A
:1004C0000201001C41F5801149084FEA3000001973
:1004D000514132462B4603B0BDE8F04F00F04CB915
:1004E0000098012240000023D0EB020263EBE0738E
:1004F000009821464FEAE074B8EB000061EB04017C
:10050000E9E783F000435BE781F0004158E72DE91C
:10051000FE4F81EA030404F0004421F000410094FE
:100520004FF0000B23F0004350EA01045ED052EA82
:1005300003045BD0C3F30A54C1F30A552C44A4F25C
:10054000F3340194A0FB0254C1F3130141F4801170
:10055000C3F3130343F4801301FB024400FB034E77
:10056000840A970A44EA815447EA8357A4FB076840
:1005700002958D0A05FB07854FEA932C04FB0C546A
:100580002705029D4FEA065847EA1637B5EB0805DE
:100590006EEB070C870E920E47EA811742EA831230
:1005A000A7FB0201B6EB0B0164EB00042B0D43EA41
:1005B0000C335E1844EB1C50DA465146E7FB02014F
:1005C000C5F313044FEA0B3343EA14534FEA0432E2
:1005D000019C43EA0603A4F10C040294009CCDE9BB
:1005E00000B400F0D8F803B0BDE8F08F0020014659
:1005F000F9E72DE9F04D81EA030404F0004B21F006
:10060000004514464FF0000A23F0004150EA05026D
:1006100020D054EA01021DD0C5F30A570246C5F3A3
:100620001303C1F31300C1F30A5640F4801543F4D9
:100630008013A7EB0608101BD64608F2FD3873EBB3
:10064000050002D308F1010801E092185B41B8F1FE
:10065000000F03DA00200146BDE8F08D00204FF4C2
:100660008011064684460EE0171B73EB050705D381
:10067000121B63EB050306434CEA010C49084FEAE1
:10068000300092185B4150EA0107EDD152EA0300B5
:1006900012D082EA040083EA0501084305D0101B4A
:1006A000AB4106D20122002306E000224FF00043B6
:1006B00002E06FF0010253101AEB06004CEB0851F8
:1006C00010EB0A0041EB0B01BDE8F04D00F054B80F
:1006D000C1F30A52C1F3130140F2FF3341F4801118
:1006E0009A4202DA00200146704740F233439A42B0
:1006F000A2F2334202DC5242FFF752BEFFF741BE84
:1007000030B5041E71F1000404DB4FF00044404298
:1007100064EB0101141E73F1000405DB1C464FF06D
:100720000043524263EB0403994208BF904230BD3C
:10073000064C074D06E0E06840F0010394E807002E
:1007400098471034AC42F6D3FFF7AAFDF4560008E0
:1007500014570008202A06DBCB17203A41FA02F092
:1007600043EAE07306E041FA02F3D040C2F120020E
:10077000914008431946704710B5141E73F10004E8
:1007800008DA401C41F1000192185B411A4301D183
:1007900020F0010010BD2DE9F04D92469B4611B1AD
:1007A000B1FA81F202E0B0FA80F220329046FFF70F
:1007B000E8FD04460F4640EA0A0041EA0B015346B1
:1007C0005A46084313D0114653EA010019D0C8F124
:1007D00040025046FFF7E4FD05460E465046594696
:1007E0004246FFF7CEFD084305D0012004E0204635
:1007F0003946BDE8F08D0020054346EAE0762C43FB
:1008000037430A986305E40AA0EB08000022FD0ABA
:1008100044EA47540A3002D500200146E9E70105C1
:1008200010196941DDE9084500196941BDE8F04D3D
:10083000A2E70000FEE7000080B5082804D240B21D
:1008400006A151F8200080BD45F2CF604FF48E71B3
:10085000C0F6000000F014F8002080BD68080020F9
:100860000000000000000000000000000000000088
:1008700000000000000000000000000070470000C1
:1008800009B100BFFEE77047B0B5B3F5804F03462E
:1008900015D1002053F822C0CCF6F0708D680CEA18
:1008A000000CCC68D1E9000E40EA0C00896940EAEE
:1008B0000E1040EA052040EA0440014301E06FF0D9
:1008C0007041002043F82210B0BD2DE9F043D1E97A
:1008D000002C40F28045D1E9023ED1E90489D1E9FA
:1008E000066750F82240CFF6C0752C40082B44EA2A
:1008F0000C0545EA030545EA0E0545EA080545EA03
:10090000090546EA050647EA06070E6A47EA0607AA
:100910004E6A47EA06078E6A47EA0607CE6A47EA42
:1009200006070E6B47EA06078E6B47EA06074E6B13
:1009300047EA060708BF47F0400740F822700A6BF5
:10094000B2F5801F05D10A684AB1026842F48012EC
:1009500002600A681AB1496B026811430160002005
:10096000BDE8F083F0B500EB820340F2000CCFF657
:10097000F07C5A688E6802F0404E0D69D1E900277C
:1009800042EA0E02CC6842EA07124F6942EA0622A6
:100990008E690CEB0555FE3742EA04422A43324386
:1009A00042EA07625A600268D20207D542680969C2
:1009B00022F470020CEB0151114341600020F0BDA4
:1009C00040F22040C5F60000016841F001010160DD
:1009D000704700002DE9F04F81B000F126424FF042
:1009E0000A0E02F1FF7342F20042C5F602024FEA1C
:1009F000B324904240F2040B08BF4FF0090EC5F635
:100A0000000B092C38BF4FEAB32E00234FF0010C26
:100A1000002700250CFA05F80E6816EA080F00F00A
:100A20009680D1F8049049F01006122E14D16FF080
:100A3000030207F01C0402EA55060F22064402FADC
:100A400004FAD6F820900A6929EA0A09A24042EA83
:100A500009023262D1F80490032204689A40B9F185
:100A6000120F6FEA020A24EA020209F0030404FAF0
:100A700003F442EA0402026013D80CFA09F212F0FD
:100A8000061F0ED08268CC6802EA0A029C4022430C
:100A9000826042684FEA191422EA0802AC402243FD
:100AA0004260C2688C689C4002EA0A025FEAC9069A
:100AB00042EA0402C2604AD544F2F44440F2084AD1
:100AC000C5F60204C5F6000A0F26226842F00202AB
:100AD0002260226802F00202009225F00302009CCC
:100AE00007F00C0452F80A90A64029EA06060EFA0E
:100AF00004F4344342F80A40DBF87C904C6849EA3D
:100B00000806E20358BF29EA0806A2034FF0B04ADC
:100B1000CBF87C60DBF8809049EA080658BF29EAE8
:100B20000806E202CBF88060DAF8009049EA08068D
:100B300058BF29EA0806A402CAF80060DBF80020C2
:100B400042EA080658BF22EA0806CBF800600135E1
:100B50000437102D03F102037FF45CAF01B0BDE850
:100B6000F08F40F69010C2F200000068704740F22B
:100B7000100040F69011C2F20000C2F200010078AD
:100B80000A6810440860704780B5032000F0BAF886
:100B90000F2000F007F808B1012080BD00F074F8C4
:100BA000002080BDB0B540F2100140F20802C2F250
:100BB0000001C2F200024FF47A7304460978126809
:100BC000B3FBF1F1B2FBF1F1084601F0E9F90F2CAA
:100BD0004FF001050CD858B94FF0FF3000222146E4
:100BE000002500F061F840F21400C2F20000046039
:100BF0002846B0BDB0B502784EF6985CCEF2000C37
:100C00004378CCF80030E2B14368CCF80430037B81
:100C1000C17A90F80AE0457B447A42EA0372837B0A
:100C200042EA0161C27B41EACE41007A41EA854154
:100C300041EA434141EA024141EA042141EA4000DC
:100C400002E00020CCF80400CCF80800B0BD4EF65D
:100C50002450CEF20000BFF35F8F016821F4803191
:100C600001600021016770474EF6245140F00100F9
:100C7000CEF200010867086840F480300860BFF3D6
:100C80004F8FBFF36F8F7047704700280BD400F071
:100C90001F01012202FA01F14EF200124009CEF2C8
:100CA000000242F820107047B0B54EF60C5C00F020
:100CB0000F05CEF2000C043D6544DCF800304FF027
:100CC000FF3CC3F3022E8EF00703042B28BF04233E
:100CD000BEF1030438BF00240CFA03F3B0F1FF3F68
:100CE00021EA030105F10C0300F160450CFA04F060
:100CF000C8BF05F56443A14022EA00000843000193
:100D00001870B0BD4EF60C514FF6FF03CEF2000145
:100D10000A681A4060F30A2242F0806040F0FD70D9
:100D20000860704780B500F05FFE44F2184144F659
:100D30001462C5F60201C0F600020968C1F303217E
:100D4000515CC84040F20801C2F20001086080BD59
:100D500080B500F0FAFD44F2204144F61462C5F675
:100D60000201C0F600020968C1F30211515CC840DB
:100D700080BD000010B544F20041C5F602018A6A48
:100D8000D1F828C002F00303D1F82CE0022BCA6B83
:100D90000CD083B90B689B0649F20003C0F2D03334
:100DA0000DD50C68C4F3C104E34008E047F64003E6
:100DB000C0F27D1303E040F60013C0F23D03C2F31E
:100DC000CC020EF0100462439FED232A00EE102A9D
:100DD0008A6B6FF35F2201EE102ACCF30532B8EE76
:100DE000400AB3FBF2F2B8EE411A00EE021A02EE2C
:100DF000102A8A6BB7EE000AC2F34622B8EE422AE6
:100E0000013231EE000A01EE102A20EE020AB8EE9D
:100E1000411A80EE011ABCEEC11A80ED001A8A6BED
:100E2000C2F30642013201EE102AB8EE411A80EEFA
:100E3000011ABCEEC11A80ED011A896BC1F306617B
:100E4000013101EE101AB8EE411A80EE010ABCEE33
:100E5000C00A80ED020A10BD0000003910B544F24E
:100E60000041C5F602018A6AD1F828C002F00303E6
:100E7000D1F82CE0022B4A6C0CD083B90B689B068E
:100E800049F20003C0F2D0330DD50C68C4F3C1049D
:100E9000E34008E047F64003C0F27D1303E040F66C
:100EA0000013C0F23D03C2F3CC020EF4807462431F
:100EB0009FED232A00EE102A0A6C6FF35F2201EEE9
:100EC000102ACCF30552B8EE400AB3FBF2F2B8EEAA
:100ED000411A00EE021A02EE102A0A6CB7EE000A5E
:100EE000C2F34622B8EE422A013231EE000A01EE88
:100EF000102A20EE020AB8EE411A80EE011ABCEE6A
:100F0000C11A80ED001A0A6CC2F30642013201EEEA
:100F1000102AB8EE411A80EE011ABCEEC11A80ED1B
:100F2000011A096CC1F30661013101EE101AB8EE25
:100F3000411A80EE010ABCEEC00A80ED020A10BD23
:100F4000000000392DE9F0410446C07844F2104811
:100F50000007C5F6020825D5606E4FEA3051032917
:100F60000AD8DFE801F0020B1018D8F81C1041F481
:100F70000031C8F81C100EE0012514E0201D0221EC
:100F800001F0ECF904E004F12400022101F05AFA26
:100F9000054640B9606ED8F8401021F4401108436E
:100FA000C8F8400000256078C00701D12E4629E02E
:100FB000606D04280DD82E46DFE800F0030D1218EE
:100FC0001800D8F81C002E4640F40030C8F81C0069
:100FD0000CE001260BE0201D002101F0BFF904E028
:100FE00004F12400002101F02DFA06460EB135432C
:100FF00008E0D8F84000616D20F0070000260843A3
:10100000C8F840006078800729D5A06D4FEAB0107D
:1010100004280BD8DFE800F0030C11171700D8F8EC
:101020001C0040F40030C8F81C000CE001260BE066
:10103000201D002101F092F904E004F124000021B8
:1010400001F000FA06460EB1354308E0D8F840003A
:10105000A16D20F4E07000260843C8F840006078D5
:1010600040072BD5D4F8A4004FEA705004280BD8C1
:10107000DFE800F0030C11171700D8F81C0040F44B
:101080000030C8F81C000CE001260BE0201D0021F8
:1010900001F064F904E004F12400002101F0D2F928
:1010A00006460EB1354309E0D8F84800D4F8A4103C
:1010B00020F4600000260843C8F848006078000764
:1010C0002BD5D4F8A8004FEA306004280BD8DFE80D
:1010D00000F0030C11171700D8F81C0040F4003082
:1010E000C8F81C000CE001260BE0201D002101F0D7
:1010F00035F904E004F12400002101F0A3F90646CB
:101100000EB1354309E0D8F84800D4F8A81020F013
:10111000E06000260843C8F84800E078800722D540
:10112000A06C4FEA301003280AD8DFE800F0100264
:101130000B10D8F81C0040F40030C8F81C0006E082
:10114000012605E0201D022101F008F906460EB136
:10115000354308E0D8F83C00A16C20F030000026B0
:101160000843C8F83C006078C00629D5E06D4FEA16
:10117000303004280BD8DFE800F0030C11171700FB
:10118000D8F81C0040F40030C8F81C000CE0012620
:101190000BE0201D002101F0E1F804E004F124003F
:1011A000002101F04FF906460EB1354308E0D8F8AA
:1011B0004000E16D20F4E04000260843C8F84000FC
:1011C0006078800622D5206E4FEA3040052809D885
:1011D000DFE800F010030A101010201D012101F0BB
:1011E000BDF806E0012606E004F12400012101F02B
:1011F00029F906460EB1354308E0D8F84000216EC3
:1012000020F4E02000260843C8F84000607840063B
:1012100024D5D4F8AC004FEA3070052809D8DFE8AF
:1012200000F010030A101010201D012101F096F8A3
:1012300006E0012606E004F12400012101F002F994
:1012400006460EB1354309E0D8F84800D4F8AC1092
:1012500020F0E04000260843C8F848006078000607
:1012600020D5E06E88B1B0F1005F09D0B0F1805FA9
:1012700016D1D8F81C0040F40030C8F81C0004E077
:10128000201D012101F06AF8064656B9D8F8400041
:10129000E16E20F0405000260843C8F8400001E00D
:1012A00001263543E078C00720D0606C03280AD8B7
:1012B000DFE800F010020B10D8F81C0040F40030FA
:1012C000C8F81C0006E0012605E0201D022101F0FF
:1012D00045F806460EB1354308E0D8F83C00616C8D
:1012E00020F0030000260843C8F83C00A078400620
:1012F00015D5D8F8F00340F48070C8F8F003FFF774
:1013000030FC0746D8F8F003C00506D4FFF729FCE7
:10131000C01B6428F6D9032600E096B13543207837
:10132000C00753D0A06F4FEAF00005283AD8DFE895
:1013300000F041033B414141201D012101F00EF825
:1013400037E0D8F86010D4F8B000414011F4407F85
:1013500011D0D8F86010D8F8602042F48032C8F874
:101360006020D8F8602021F4407122F48032C8F85F
:101370006020C8F86010B0F5807F40F0ED81FFF785
:10138000F0FB064641F28837D8F86000800700F18C
:10139000E181FFF7E6FB801BB842F5D945F0030574
:1013A0000326BCE7012606E004F12400012101F038
:1013B00049F806460EB1354308E0D8F84400A16F5D
:1013C00020F0380000260843C8F844002078800741
:1013D00020D5606F052809D8DFE800F010030A1057
:1013E0001010201D012100F0B9FF06E0012606E0E3
:1013F00004F12400012101F025F806460EB1354321
:1014000008E0D8F84400616F20F007000026084388
:10141000C8F844002078400722D5D4F89000052869
:1014200009D8DFE800F010030A101010201D012178
:1014300000F094FF06E0012606E004F124000121FB
:1014400001F000F806460EB1354309E0D8F848002F
:10145000D4F8901020F0070000260843C8F8480090
:101460002078800624D5D4F88C004FEA3070052807
:1014700009D8DFE800F010030A101010201D002129
:1014800000F06CFF06E0012606E004F124000221D2
:1014900000F0D8FF06460EB1354309E0D8F8440005
:1014A000D4F88C1020F0E04000260843C8F844002F
:1014B0002078400624D5D4F898004FEAB0200528BB
:1014C00009D8DFE800F010030A101010201D0021D9
:1014D00000F044FF06E0012606E004F124000221AA
:1014E00000F0B0FF06460EB1354309E0D8F84800D9
:1014F000D4F8981020F4E05000260843C8F84800BB
:101500002078000624D5D4F89C004FEA70300528D6
:1015100009D8DFE800F010030A101010201D002188
:1015200000F01CFF06E0012606E004F12400022181
:1015300000F088FF06460EB1354309E0D8F84800B0
:10154000D4F89C1020F4604000260843C8F84800F6
:101550002068010713D5D4F88010B1F5805F07D15A
:1015600004F12400022100F06DFF0543206806E02D
:10157000D8F8442022F440521143C8F84410C10660
:1015800013D5D4F89410B1F5807F07D104F124006D
:10159000022100F057FF0543206806E0D8F84820F4
:1015A00022F440721143C8F84810000321D5D4F842
:1015B000A000B0F5003F0ED0B0F5803F05D0B0B927
:1015C000201D002100F0CAFE04E004F124000221E5
:1015D00000F038FF06465EB9D8F84800D4F8A010ED
:1015E00020F4403000260843C8F8480001E00126F6
:1015F0003543A078400725D5D4F88400B0F5401FC6
:1016000012D0B0F5001F09D0B0F5801F18D1D8F85E
:101610001C0040F40030C8F81C0005E004F1240070
:10162000012100F00FFF06465EB9D8F84400D4F857
:10163000841020F4401000260843C8F8440001E05C
:1016400001263543A078C0071DD0E06CB0F5803F7F
:1016500007D0B0B9D8F81C0040F40030C8F81C001E
:1016600004E0201D022100F079FE064656B9D8F8A4
:101670003C00E16C20F4803000260843C8F83C00B0
:1016800001E0012635432068810006D504F12400DD
:10169000022100F0D7FE0543206881031BD5E16FCE
:1016A0006FF0010202EB3122022A0AD34FEA312203
:1016B0003AB1012A06D1D8F81C2042F40032C8F809
:1016C0001C200EB1012506E0D8F8442022F4407217
:1016D0001143C8F84410C10207D5D8F84010226F52
:1016E00021F000411143C8F84010C10008D5D8F8D6
:1016F0000010D4F8B42021F480411143C8F8001040
:10170000810207D5D8F84010A26E21F080711143F4
:10171000C8F8401041000CD5D8F8001021F4004161
:10172000C8F80010D4F8B810D8F800201143C8F851
:101730000010B0F1FF3F07DCD8F83C00216D20F02D
:1017400040500843C8F83C00002D18BF012528462A
:10175000BDE8F081D4F8B0004FF6CF73D8F8002080
:10176000C0F2FF0300F4407122F47C5203EA10132C
:101770006FF31F30B1F5407F08BF1A430026C8F849
:101780000020D8F860100843C8F86000C7E50000E2
:101790002DE9F04381B042F200080D46C5F2002861
:1017A0000446D8F8002002F007028A420CD2D8F88A
:1017B000000020F007002843C8F80000D8F8000017
:1017C00000F00700A84268D1206844F20047810772
:1017D000C5F6020705D5B969E26821F00F0111438A
:1017E000B961C00748D1D8F8000000F00700A8424E
:1017F0000CD9D8F8000020F007002843C8F80000F2
:10180000D8F8000000F00700A84246D12068410740
:1018100005D5B969226921F070011143B961010749
:1018200005D5F969626921F070011143F961C106BA
:1018300005D5F969A26921F4E0611143F9618006D7
:1018400005D5386AE16920F070000843386200F07D
:10185000CBF8B96944F61462C0F60002C1F3032163
:10186000515C40F20802C2F20002C84010600F2032
:10187000FFF798F9002011E0B86920F47061D4E90D
:101880000102012841EA0201B9610AD0032854D0BB
:10189000022856D13968890306D4012001B0BDE879
:1018A000F0833968C905F8D5396921F00701084383
:1018B0003861FFF756F961680646032941F2883915
:1018C00027D0022933D001290ED100BF386900F09A
:1018D000380008283FF487AFFFF743F9801B4845DD
:1018E0004FF00300F2D9D9E7386910F0380F3FF410
:1018F0007AAFFFF736F9801B48454FF00300F3D964
:10190000CCE700BFFFF72DF9801B48454FF00300DF
:10191000C4D8386900F038001828F3D163E700BF55
:10192000FFF71FF9801B48454FF00300B6D8386910
:1019300000F038001028F3D155E739688901ACD59B
:10194000B2E739684907A8D5AEE780B5FFF7EAF9ED
:1019500044F2184144F61462C5F60201C0F60002D2
:10196000096801F00F01515CC84040F20C01C2F25D
:101970000001086080BD80B5FFF7D4F944F218413A
:1019800044F61463C5F60201C0F6000340F20C0CE5
:101990000A68C2F2000C02F00F029A5CD040CCF848
:1019A00000004968C1F30211595CC84080BD80B590
:1019B000FFF7B8F944F2184144F61463C5F6020182
:1019C000C0F6000340F20C0C0A68C2F2000C02F0F0
:1019D0000F029A5CD040CCF800004968C1F30221A4
:1019E000595CC84080BD000080B544F20041C5F696
:1019F00002010869C0F3C20240F60010032AC0F2D7
:101A00003D000FD0022A2FD0002A5BD10868800643
:101A100049F20000C0F2D03054D50968C1F3C101C9
:101A2000C84080BDD1F828E0D1F828C0CB6A4A6B05
:101A300003F00103C2F3CC025A430EF00303022B5E
:101A400000EE102ACCF30512B8EE400A11D0A3B96B
:101A50000868800649F20000C0F2D0300DD50B684E
:101A6000C3F3C103D84008E047F64000C0F27D1040
:101A700080BD47F64000C0F27D100B6B9FED122A2F
:101A80006FF35F2301EE103AB0FBF2F0B8EE411AAB
:101A900000EE021A02EE100A086BB7EE000AC0F35D
:101AA0004620B8EE422A013031EE000A01EE100A5B
:101AB00020EE020AB8EE411A80EE010ABCEEC00A1E
:101AC00010EE100A80BD00BF00000039F0B581B0F3
:101AD0000446007844F20046C007C5F6020615D059
:101AE000306900F03800102809D0306900F0380063
:101AF000182848D1B06A00F00300022843D13068AA
:101B0000800303D56068002800F08A802078800771
:101B100054D5306910F0380F1DD0306900F038000E
:101B2000182804BFB06A5FEA807014D0E06831689A
:101B3000002800F0D68021F0190108433060FFF73B
:101B400010F805463068400731D4FFF70AF8401B0B
:101B50000228F7D94BE130684007E06801D500283A
:101B60005ED0316821F0190108433060FEF7F9FFBB
:101B7000054600BF3068400719D4FEF7F2FF401B4E
:101B80000228F7D933E16068002800F0FF80B0F543
:101B9000A02F00F01581B0F5803F00F0158130686E
:101BA00020F480303060306820F480200FE17068CD
:101BB000216920F47C3040EA013070602078C00652
:101BC0001BD5306900F03800082809D0306900F0D2
:101BD0003800182860D1B06A00F0030001285BD1FA
:101BE0003068C00502D5E069802819D17068216A83
:101BF00020F0F84040EA816070602078000711D43E
:101C00002078800621D42078400732D4656A002DE0
:101C100000F09181306900F03800182840F094807D
:101C20000120E5E060690028706F4AD040F00100B3
:101C30007067FEF796FF0546706F8007E0D4FEF7E9
:101C400090FF401B0228F7D9D1E0A0690028306836
:101C50006AD040F480503060FEF783FF054600BF35
:101C600030688004CFD4FEF77CFF401B0228F7D9F0
:101C7000BDE0D6F8000440F48070C6F80004FEF71A
:101C800070FF0546D6F80004C0053BD4FEF769FF97
:101C9000401B6428F6D9AAE0E0690028306800F00B
:101CA000A98040F080003060FEF75BFF054600BF72
:101CB0003068C0059AD4FEF754FF401B0228F7D9BC
:101CC00095E020F001007067FEF74BFF054600BF6E
:101CD000706F800794D5FEF744FF401B0228F7D9A8
:101CE00085E021F001003060FEF73BFF054600BFB4
:101CF000306840077FF562AFFEF733FF401B0228D4
:101D0000F6D974E0A068002800F08680052800F06D
:101D10009D80012800F09E80306F20F00100306728
:101D2000306F20F0040098E020F480503060FEF71F
:101D300018FF0546306880047FF565AFFEF711FF98
:101D4000401B0228F6D952E0306820F080703060E5
:101D5000FEF707FF022D05460CD100BF3068800159
:101D600040F18E80FEF7FDFE401B02284FF003007D
:101D7000F4D93DE03068800140F1DD80FEF7F1FEEE
:101D8000401B03284FF00300F4D331E0306820F407
:101D900080303060306820F480203060FEF7E1FE53
:101DA000054641F2883700BF306880037FF5AEAE4C
:101DB000FEF7D7FE401BB8424FF00300F4D917E0FE
:101DC000306840F480203060306840F4803030600B
:101DD000FEF7C7FE054641F2883700BF3068800332
:101DE0003FF594AEFEF7BDFE401BB842F6D9032086
:101DF00001B0F0BD20F080003060FEF7B2FE054675
:101E00003068C0057FF5F9AEFEF7ABFE401B022837
:101E10004FF00300F4D9EBE7306F20F0010030679A
:101E2000306F20F004003067FEF79BFE054641F25C
:101E3000883700BF306F80077FF5E8AEFEF791FE70
:101E4000401BB8424FF00300F4D9D1E7306F40F0A7
:101E500004003067306F40F001003067FEF781FE0C
:101E6000054641F2883700BF306F80073FF5CEAEA0
:101E7000FEF777FE401BB8424FF00300F4D9B7E7F6
:101E800004F12807B06A40F2F33188438ECF08434B
:101E9000591E40EA02104FF47E426FF35F21B06298
:101EA00002EB47204FF4FE0280B2E36B0844A16BC3
:101EB00002EB01414FF0FE4201F4FE0102EB03622E
:101EC000084402F0FE4108443063706B4FF6F8712D
:101ED000A26C884340EAC2007063F06A216C20F073
:101EE0000C000843F062F06A616C20F002000843C5
:101EF000F062F06A40F48030F062F06A40F4003042
:101F0000F062F06A40F48020F062F06A40F0010074
:101F1000F062306840F080703060FEF722FE0446C8
:101F20003068800107D4FEF71CFE001B02284FF02A
:101F30000300F5D95CE700205AE770B370B504469A
:101F400090F8450015460E4628B9002084F8440054
:101F5000204600F024F8206804F10801FEF7B5FCE3
:101F600020683146A268FEF7FDFCD4E90102E36A6D
:101F70002946FEF789FCA068216851F8202042F02C
:101F8000010241F8202044F20000C5F2002001685F
:101F900041F000410160002070BD01207047704792
:101FA000411E0020B0EB116F01D0012070474EF2AE
:101FB0001002F023CEF2000251604EF62351CEF211
:101FC00000010B700721906011607047B0B110B52F
:101FD000044690F83D0028B9002084F83C002046D3
:101FE00000F00EF8022084F83D002068211D00F06A
:101FF0009FFB012084F83D00002010BD01207047A8
:1020000070470146022081F83D000868028842F0CE
:10201000010202800020012281F83D20704710B5A6
:10202000B0B1044690F8790028B9002084F878000F
:10203000204600F026F8242084F879002068016802
:1020400021F001010160204600F0A0FC012801D12F
:10205000012010BD606B10B1204600F002FC20682A
:10206000416821F490414160816821F02A0181603A
:10207000016841F0010101602046BDE8104000F018
:1020800053BC704740F26001C2F200010968084089
:1020900018BF01207047002940F26001C2F2000120
:1020A00002D00A68104302E00A6822EA00000860D1
:1020B00041F20000C6F200000968016070470000AC
:1020C00010B54EF62453CEF200039968B1F1FF3FEC
:1020D00052DD40F2180C1968C2F2000C41F21C02E9
:1020E000C4F201020FF2A00ECCF8201019798CF87E
:1020F00024105979CCF828105969CCF82C10D988BB
:10210000ACF830109968CCF83410D968CCF8381095
:1021100099690023CCF83C101EF80310918100BF90
:1021200011684906FCD50133292BF5D140F25C0238
:102130000021C2F20002116011680029FCD090E871
:102140000A40C468CCF80010CCF80430CCF808E0A1
:10215000CCF80C400169CCF810104169CCF814108F
:102160008169CCF81810C069CCF81C000020106000
:1021700010680028FCD010BD996841F000419960BA
:1021800081690231816110BD0D0A456E746572204E
:10219000486172644661756C745F48616E646C6519
:1021A000722C2053797374656D2048616C742E0D08
:1021B0000A000000B0B5072824D844F64C6C002271
:1021C000FF21C0F6000C00230CEBC20E5CF832407D
:1021D000BEF8045024692C409EF8065018BF012414
:1021E000A54208BF114602F1010208BF0133082AC7
:1021F000EAD183F0010248401043C0B2B0FA80F047
:102200004009B0BD092811D008281FD141F610405F
:10221000C5F60200D0F80004C00517D440F610003F
:10222000C5F60200006880040ED50FE040F61000ED
:10223000C5F602000068800408D441F61040C5F6D7
:1022400002000068C00601D40120B0BD0020B0BD6E
:10225000FEE770477047000080B52DED0A8B1AA08D
:10226000B0EE428AB0EE619AB0EE41AAB0EE60BA2A
:10227000B0EE40CA02F064FDB7EECC0A13A053ECF6
:10228000102B01F077FEB7EECB0A13A053EC102B06
:1022900001F070FEB7EECA0A12A053EC102B01F049
:1022A00069FEB7EEC90A12A053EC102B01F062FED2
:1022B000B7EEC80A11A053EC102BBDEC0A8BBDE899
:1022C000804001F057BE00BF0D0000007131203D7D
:1022D0002025660D0A0000007132203D2025660D84
:1022E0000A0000007133203D2025660D0A00000021
:1022F0007134203D2025660D0A0000007135203D17
:102300002025660D0A0000002DE9F04182B000F1A1
:10231000180801240CA500BF01264746B7EC010AA6
:10232000B7EEC00A2846214632468DED000B01F07B
:1023300021FE0136052EF1D1013408F11408052CD7
:10234000EAD102B0BDE8F08154666B5B25645D5B49
:1023500025645D203D2025660D0A0000F0B581B0A2
:1023600044F20047C5F60207BA6A02F00302032AE4
:1023700001D1012063E0054638680C4620F08060FA
:102380003860FEF7EEFB06463868000105D5FEF71B
:10239000E8FB801B0228F7D94EE0B86AEE6895E8A2
:1023A0000E0020F47C30012C40EA0130A2F1010142
:1023B0006FF35F214FF47E4202EB4322B86292B288
:1023C0004FF0FE4302EB01004FF4FE012A6901EBDE
:1023D000064101F4FE0103EB0262084402F0FE41F3
:1023E0000844B863F86A696920F0C00040EA010057
:1023F000F862F86AA96920F0200040EA01004FF471
:10240000001108BF4FF48011002CF86208BF4FF490
:102410000021F86A0843F862386840F0806038604C
:10242000FEF79FFB044600BF3868000106D4FEF7A4
:1024300098FB001B0328F7D3032000E0002001B025
:10244000F0BD0000F0B581B044F20047C5F60207C8
:10245000BA6A02F00302032A01D1012063E00546B3
:1024600038680C4620F080503860FEF77AFB06464C
:102470003868800005D5FEF774FB801B0228F7D969
:102480004EE0B86AEE6895E80E0020F07C70012CF2
:1024900040EA0150A2F101016FF35F214FF47E4247
:1024A00002EB4322B86292B24FF0FE4302EB01000E
:1024B0004FF4FE012A6901EB064101F4FE0103EB32
:1024C0000262084402F0FE4108443864F86A69690F
:1024D00020F4406040EA0100F862F86AA96920F43B
:1024E000007040EA01004FF0807108BF4FF4000116
:1024F000002CF86208BF4FF48001F86A0843F862C4
:10250000386840F080503860FEF72BFB044600BF6F
:102510003868800006D4FEF724FB001B0328F7D39D
:10252000032000E0002001B0F0BD80B586B044F289
:10253000E040C5F60200016841F002010160006858
:1025400001A900F0020001900198012002900020F2
:102550000390032004900420019040F20040C5F64F
:102560000200FEF737FA06B080BD704780B5FEF76F
:10257000FEFA40F69400C2F20000007818B1BDE8FF
:10258000804000F001B880BD80B540F68C10C2F2EA
:102590000000016849B101680139016005D140F6C8
:1025A00088100121C2F20000017040F6581100208D
:1025B000C2F200014FF0010C0B185A6852B15A6870
:1025C000013A5A6006D183F801C00A5C012A01D1A0
:1025D0009A685A600C303028EED140F664006FF0F3
:1025E0000042C2F2000001680131016001689142BD
:1025F00001D10021016001F0BFF940F25800C2F2A0
:102600000000017801310170CAB20A2A38BF80BDCA
:1026100000210170BDE8804001F0ACB94EF6085CC5
:102620004EF67F50CEF2000CCEF6F620DCF880108D
:1026300041F47001CCF8801044F20041C5F602016B
:102640000A6842F001020A6000220A610B68184021
:1026500008608A61CA610A628A62CA620A634A635E
:102660008A63CA630A644A64086820F480200860A8
:1026700048F208100A66C5F20010012101604FF00F
:102680000060CCF80000704710B50C24C4F20004C0
:102690006068800720680ED510F002000BD04FF65E
:1026A000FD70606021680840206040F69800C2F22A
:1026B0000000006880476068400720680ED510F071
:1026C00004000BD04FF6FB7060602168084020606A
:1026D00040F69C00C2F20000006880476068000776
:1026E00020680ED510F008000BD04FF6F770606030
:1026F00021680840206040F6A000C2F20000006897
:1027000080476068C006206811D510F0100008BF2F
:1027100010BD4FF6EF70606021680840206040F601
:10272000A400C2F200000068BDE81040004710BDE0
:1027300010B540F6FF330288C4F2000398420DDC66
:10274000B0F1804F1BD040F20043C4F20003984226
:1027500015D040F60003C4F200030EE040F600433B
:10276000C4F2000398420AD040F20043C4F20103CD
:10277000984204D00023C4F20103984203D122F00E
:1027800070024B681A434FF6FF7343F6FF7CC4F2A6
:102790000003C4F2010C984210DD60451ADD44F2DA
:1027A0000003C4F2010398422AD044F60003C4F2A5
:1027B0000103984224D044F2004312E040F2FF7338
:1027C000C4F2000398420FDCB0F1804F18D040F201
:1027D000004311E00023C4F20103984210D040F2FC
:1027E0000043C4F2010309E040F60003C4F2000311
:1027F000984205D040F60043C4F20003984203D14A
:1028000022F44072CB681A4322F080024C69604582
:10281000D1F800E08B6842EA04020280C362A0F8AB
:1028200028E00EDD44F20002C4F20102904213D00F
:1028300044F60002C4F2010290420DD044F200427C
:1028400006E00022C4F20102904205D040F20042AC
:10285000C4F20102904201D109690186012141615E
:1028600010BD416BCA0708D00268D0F838C0536861
:1028700023F4003343EA0C0353608A0708D5026847
:10288000D0F83CC0536823F4803343EA0C03536010
:102890004A0708D50268D0F840C0536823F4802363
:1028A00043EA0C0353600A0708D50268D0F844C015
:1028B000536823F4004343EA0C035360CA0608D567
:1028C0000268D0F848C0936823F4805343EA0C03AD
:1028D00093608A0608D50268D0F84CC0936823F448
:1028E000005343EA0C0393604A0612D50268D0F8FD
:1028F00050C05368BCF5801F23F4801343EA0C03D7
:10290000536006D1536823F4C00C436D43EA0C03B3
:102910005360090658BF70470168806D4A6822F409
:102920000022104348607047B0B582B004460020D2
:10293000E067FEF716F9216805460A6812070BD50D
:102940004FF4001100226FF07E40009020462B468D
:1029500000F0A2FA70B92168086840070CD54FF45E
:10296000800100226FF07E40009020462B4600F050
:1029700093FA08B1032007E0202084F8790084F856
:102980007A00002084F8780002B0B0BD2DE9F04153
:1029900086B004460168D0E9023706696569806A35
:1029A000D4F81CC003430A68334346F6F316CCF64A
:1029B000FF762B43324043EA0C031A430A604A680D
:1029C00040F6004322F44052C5F600033A434A6001
:1029D000A76999421CBF226A1743B0F1005F04D176
:1029E000D4E90B02384340EA02074FF2FF428868FD
:1029F000C1F2FF1244F200461040C5F60206384309
:102A0000886047F2FF77C86AC4F2000720F00F021F
:102A1000606AB9424FF0800742EA0002CA621DDDD7
:102A200040F6FF72C4F20102914226DD994245D080
:102A300041F20042C4F20102914205D041F200028B
:102A4000C4F20102914242D1726DC2F3C207062F55
:102A50003CD244F60862C0F600022CE044F6FF3295
:102A6000C4F20002914211DC44F20042C4F20002BE
:102A7000914217D044F6000210E047F60002C4F27B
:102A8000000291420ED047F6004207E044F60042B1
:102A9000C4F20002914205D045F20002C4F20002E5
:102AA000914214D1726D02F00707062F0ED244F640
:102AB0000E62C0F6000217443F7808E0B26D02F0E3
:102AC0000707062F02D20FF2C832F4E78027994297
:102AD00019D0BCF5004F31D10F2F4FF001054FF049
:102AE00000014CDC082F00F25681DFE817F00900E6
:102AF000B90054015401C500540154015401D300DC
:102B0000FEF739FFAEE040F600180F2FC0F23D0887
:102B10004FF0010527DC022F57D0042F58D0082F83
:102B200040F05A813068800649F20000C0F2D0308F
:102B300059D53168C1F3C101C84054E00F2F4FF09F
:102B400001052FDC082F00F24781DFE817F00900AC
:102B5000B10045014501C300450145014501D100D2
:102B6000FEF709FFA6E0102F39D0202F39D0402FD3
:102B700040F032816846FEF771F901982CE0102F81
:102B800000F0C480202F00F0CC80402F40F0038163
:102B90006846FEF763F944F62461606AC0F60001F6
:102BA000019A72E0102F00F0CA80202F00F0D2802E
:102BB000402F40F011816846FEF750F944F6246139
:102BC000606AC0F60001019A8DE0FEF7C1F803E0EB
:102BD00003A8FEF7CFF8049828B90025FCE040468A
:102BE00001E04FF400406268012502EB4201884297
:102BF000C0F0F2801103884200F2EE800F2F4FF0F8
:102C000001051ADC022F00F0EB80042F00F0FE809B
:102C1000082F40F025813068800649F20000C0F29C
:102C2000D03000F12781616A44F62463C0F60003C6
:102C300033F81110B0FBF1F0F6E0102F00F0DC805B
:102C4000202F00F0FC80402F40F00A816846FEF7FC
:102C500005F944F62461606AC0F60001019ADEE0DD
:102C6000FEF7A5FE616A44F62462C0F6000232F85F
:102C70001110B0FBF1F087E003A8FEF77BF844F6F3
:102C80002461606AC0F60001049A31F81000B2FBBA
:102C9000F0F079E03168890665D444F62461C0F625
:102CA000000131F8100049F20001C0F2D03169E0B2
:102CB000FEF77DFE616A44F62462C0F6000232F837
:102CC00011106268B0FBF1F000EB52002168B0FB1C
:102CD000F2F07EE003A8FEF74DF844F62461606A46
:102CE000C0F60001049A31F81000636821686AE0B8
:102CF0003268920657D444F62462C0F6000232F8D5
:102D0000100049F20002C0F2D0325BE044F62461C8
:102D1000C0F6000131F8100040F60011C0F23D018C
:102D200030E044F62461C0F6000131F810004FF4A1
:102D30000041B1FBF0F061684200480827E044F62A
:102D40002462C0F6000232F8100040F60012C0F211
:102D50003D0237E044F62462C0F6000232F810006B
:102D60004FF400422EE044F624623168C0F60002BF
:102D7000C1F3C10132F8100049F20002C0F2D032B2
:102D800022FA01F1B1FBF0F0616840004A081044FA
:102D90000025B0FBF1F14FF6F0700840C1F342019D
:102DA0000844216817E044F624633268C0F6000343
:102DB000C2F3C10233F8100049F20003C0F2D0336D
:102DC00023FA02F26368B2FBF0F000EB5300B0FBB1
:102DD000F3F080B20025C860284606B0BDE8F08157
:102DE000FDF7B6FF616A44F62462C0F6000232F8CD
:102DF0001110B0FBF1F016E0606A44F62461C0F6F1
:102E0000000131F81000B8FBF0F023E003A8FDF753
:102E1000B1FF44F62461606AC0F60001049A31F8FB
:102E20001000B2FBF0F06268010E002300020025E2
:102E300010EB520041F10001FDF74AFA10E0606A20
:102E400044F62461C0F6000131F810004FF400414F
:102E5000B1FBF0F00002002500EB5200B0FBF2F0F5
:102E60004FF6FF42A0F54071C0F20F02914298D98F
:102E70000125B1E73168636A44F62467C1F3C101F3
:102E8000C0F60007C84037F81330B0FBF3F0CBE7CB
:102E900002044008102000002DE9F04381B00446F0
:102EA00000680D46C7693940491BB1FA81F14909EB
:102EB00091422CD1DDF82080B8F1000F15D01646D4
:102EC000994618F1010709D1C1692940491BB1FA96
:102ED00081F14909B1421AD1002FF5D0FDF741FE29
:102EE000A0EB090040452068EED9016821F4D071BB
:102EF0000160816821F001018160202084F879005F
:102F000084F87A00002084F87800032000E0002094
:102F100001B0BDE8F08370B540F66804C2F2000469
:102F20002068C6690568B106816816D5808CA168DD
:102F3000E28A8854E18A4A1CE28292B2E1898A429A
:102F400001D30022E282628B8A4202D2618B01317C
:102F50006183616A09B1C0B28847300622D515F095
:102F600080001FD0A08AA0B1012084F82800D4E9F5
:102F70000001628A895C0185608A0130608280B2CA
:102F8000A189884201D300206082A08A0138A082F2
:102F900008E02068016821F080010160016841F0CB
:102FA00040010160700621D515F040001ED0A08AB6
:102FB00088B1D4E90001628A895C0185608A0130A8
:102FC000608280B2A189884201D300206082A08AF9
:102FD0000138A0820AE02168206A0A6822F04002D3
:102FE0000A6000B18047002084F828002068016A48
:102FF00041F001010162016A41F002010162016ACE
:1030000041F004010162016A41F008010162016AB4
:1030100041F010010162016A41F040010162016A60
:1030200041F480710162016A41F400710162016A38
:1030300041F400310162016A41F480110162016AC8
:1030400041F02001016270BDFEE700009FED201AF3
:10305000B5EE002A00EE012A9FED1E1ABDEEC20A4F
:10306000B5EEC02AF1EE10FA10EE100AB8BF013822
:1030700000EE100A0020B8EEC00A32EE400A9FEDC2
:10308000162A20EE010ABCEEC01A11EE101A30EE1C
:10309000021AB0EB512F18BF002102EE101A44F6AD
:1030A0008C6000FE010AC0F60000B8EE422A00EB78
:1030B000810090ED011A30EE420AB7EE002A32EE9E
:1030C000402A20EE010A90ED001A02EE010A704734
:1030D00083F9223E00000044000000C49FED1F1A47
:1030E00020EE010A9FED1F2ABDEEC01AB5EEC00A00
:1030F000F1EE10FA11EE100AB8BF013801EE100A15
:103100000020B8EEC11A30EE410A9FED151A20EEEC
:10311000010ABCEEC01A11EE101A30EE021AB0EB22
:10312000512F18BF002102EE101A44F68C6000FEE9
:10313000010AC0F60000B8EE422A00EB810090EDD3
:10314000011A30EE420AB7EE002A32EE402A20EE93
:10315000010A90ED001A02EE010A704783F9223E3F
:1031600000000044000000C4032801D9002070477B
:1031700000EB400040F65811C2F2000101EB800163
:1031800011F8010F01284FF0000018BF70470870B8
:103190000120704740F64811C2F20001887ACA7ACD
:1031A000904201D100207047421C085CD3B2092B29
:1031B00088BF00228A7270477047000070B59CB0CB
:1031C0004EF61455CEF20005FDF741FD0120ADF895
:1031D00004004FF01050029012208DF80C004FF4B4
:1031E0008070ADF80D00002001ACC0F20110049019
:1031F000204603268DF80F60FDF7FCFC40F201101D
:10320000ADF804004FF0C04002900F208DF80C0084
:103210004FF08070049020468DF80F600026ADF8C6
:103220000D60FDF7E7FC0420FDF71EFD2868800314
:1032300011D4BFF34F8FBFF36F8FC5F83C62BFF35C
:103240004F8FBFF36F8F286840F400302860BFF3C2
:103250004F8FBFF36F8F2868C00327D400202867E3
:10326000BFF34F8FE86E43F6E07CC0F3C902C0F3B2
:103270004E3102F1010E94070CEA411622467046C7
:1032800042EA0603013802F14042C5F84C32F7D158
:103290000029A1F10101EFD1BFF34F8F286840F45D
:1032A00080302860BFF34F8FBFF36F8F44F60C045C
:1032B000C5F60204FDF768FC206820F004002060D9
:1032C00000200190E06840F44040E060E06800F4D5
:1032D00040400190019800BFE0688004FCD50120C7
:1032E00001904FF48030029002200521CDE90A00C0
:1032F0000C91A021CDE90D10109004200F9001A891
:10330000002404940894082512941195FEF7DEFB1E
:1033100008B100BFFEE715A93F201490032031C17A
:1033200040204FF48061CDE91800CDE91A1014A8AF
:103330000421FEF72DFA00B1FEE744F20040C5F685
:103340000200016841F080010160D0F8F41041F002
:103350000201C0F8F410D0F8F40000F00200009070
:103360000098FDF72DFB00F019F900F0A1F900F02D
:10337000D6F900F005F800F083F91CB070BD00002C
:103380002DE9F0419AB044F2E04040F60045C5F620
:103390000200C5F6020507AC022601684FF00108DD
:1033A00041F0080101600168032701F0080107915D
:1033B0000799016841F010010160016801F01001F6
:1033C00007910799016841F040010160016801F02F
:1033D000400107910799016841F08001016001688F
:1033E00001F0800107910799016841F48071016043
:1033F000016801F480710791079950F80C1C41F4A1
:10340000805140F80C1C50F80C0C214600F4805000
:10341000079007980C200B904CF2B3700790284649
:103420000896CDF824800A97FDF7D4FA4FF68070FD
:10343000079005F580602146FDF7CCFA05F5406060
:1034400021460797FDF7C6FA4FF47F40079005F530
:1034500080502146FDF7BEFA40F2CF60079005F597
:10346000A0502146FDF7B6FA44F200010020C5F253
:1034700000210791CDE91800CDE9160001F5827110
:10348000089105210690CDE90016CDE909000B90C1
:103490002021CDE90C10CDE90E004FF480501090A2
:1034A00004F128001421CDE90268CDE90466FCF797
:1034B00047FF694620460A46FEF73FFD20B10AA0B5
:1034C0004FF49171FDF7DCF940F2600040F61471A1
:1034D000C2F20000016041F20001C6F20001006882
:1034E00008601AB0BDE8F0812E2E2F2E2E2F5573B6
:1034F00065722F6273702F7372632F6273705F66D1
:103500006D635F696F2E630010B592B002AC242129
:1035100004F11C00FCF714FF44F2E8404FF0804235
:10352000C5F60200016841F001010160006800F089
:103530000100019040F208000199C2F200004DF62E
:103540008361C4F21B3102920068A0FB01014FF0BD
:10355000FF30059000EBD14100200490CDE906003A
:1035600089B28020089020460391FEF72FFD38B1E4
:1035700045F2B0604FF40C71C0F60000FDF780F921
:103580001C2000210222FDF78FFB1C20FDF77DFB94
:1035900002A8FEF736FD12B010BD000070B586B06F
:1035A00040F648100021C2F20000642202230026E7
:1035B0004181017340F6A800C2F20000851910365F
:1035C000A02EAA602B712973F8D1642101870622ED
:1035D000A0F83B20A0F8481044F64C66A0F84B2019
:1035E0000025A0F85810C0F60006A0F85B2001AC3A
:1035F000A0F86810A0F86B2044F2E040C5F6020085
:10360000016841F002010160016801F002010191CD
:103610000199016841F004010160016801F00401B1
:1036200001910199016841F040010160016801F0D8
:10363000400101910199016841F080010160016838
:1036400001F0800101910199016841F480710160EC
:10365000006800F48070019001980320CDE90255C4
:10366000049000BF06EBC50021468088019056F803
:103670003500FDF7AFF90135082DF3D106B070BD67
:1036800080B54FF480700121FEF705FD4FF4007006
:103690000121FEF700FD4FF480600121FEF7FBFCE5
:1036A0004FF400600121BDE88040FEF7F4BC00004B
:1036B00040F658110020C2F2000100228B18586019
:1036C0009860587088540C32302AF7D140F20800C4
:1036D00044F6D351C2F20000C1F262010068A0FBBF
:1036E00001014FF0FF3000EB91110020B0EB116FA2
:1036F0000DD14EF21002F023CEF2000251604EF6D0
:103700002351CEF200010B7090600720106040F64C
:1037100094000121C2F200000170FFF7F5BEF0B580
:10372000B5B040F6680041F20004C2F2000040F279
:10373000644140F26402C4F20104C2F20001046078
:10374000C2F200020125C0E901124FF00421C1605C
:10375000002101824182C182018341838182C0E9CB
:103760000711416280F8281001A801951F91FDF70B
:10377000E9FB44F2E04030AEC5F6020007270168DD
:1037800041F001010160016801F0010130913099BF
:10379000016841F001010160016801F0010130910F
:1037A0003099016941F0100101610069314600F072
:1037B0001000309030984FF4007030900220CDE926
:1037C000310500250320C5F60205339028463497BD
:1037D000FDF700F94FF48060309028463146349769
:1037E000FDF7F8F8252000210122FDF75DFA2520DC
:1037F000FDF74BFA4FF4E13100220C23204600F094
:10380000BCF8206A40F040002062208B40F00800A5
:103810002083206840F020002060FEF786FE35B04F
:10382000F0BD00002DE9F04740F6A80540F6481A23
:103830000024C2F200054FF00509C2F2000A4FF061
:1038400001080026002700BFF8B2FEF7B3FCA91953
:103850000A7928B1042A09D881F8049050E000BF01
:10386000062A08D381F8049048E000BF092A06D848
:10387000501C087144E062B3501E08713EE0887A23
:1038800088B99AF80B0007EB4702013281F80A80E9
:103890000AF800209AF80B000130C2B2092A88BF4A
:1038A00000208AF80B00088950B3CA8882422CD2C3
:1038B0000132CA80824223D19AF80B0007EB4701FC
:1038C00003310AF800109AF80B000130C1B209293F
:1038D00031E0887A012811D19AF80B0007EB4702F2
:1038E00002328C720AF800209AF80B000130C2B242
:1038F000092A88BF00208AF80B0000BFCC800C7317
:1039000010360137A02E9FD11AE0C87A0028F7D0D0
:103910000A7B01320A73D3B28342F1D39AF80B00C7
:1039200007EB470201320C730AF800209AF80B00EB
:103930000130C2B2092A88BF00208AF80B00DFE7F5
:10394000BDE8F0870138C1B2032988BF704710B5C0
:1039500040B244F63C61C0F6000151F820402046D8
:10396000FEF790FBB0FA80F041092046BDE8104018
:10397000FEF791BBFFF756BF704710B5A0B06C467D
:103980000492CDE9000100200690CDE9020004F187
:103990001C001C210593FCF7D3FC2046FEF73FFBDF
:1039A00038B145F2CF6040F22731C0F60000FCF795
:1039B00067FF20B010BD000080B504280BD345F28E
:1039C000906045F2B061C0F60000C0F600010CA2A4
:1039D00000F0D0FAFEE700EB400040F6581CC2F2BF
:1039E000000C01220CEB800382F31088596099606F
:1039F000002159700CF8202081F3108880BD00BF91
:103A00006273705F53746172744175746F54696D41
:103A1000657200002DE9F04182B014468846FCF73B
:103A20000BFF002847D00646C06900B18047002C34
:103A30003CD000200121002281F31088B38AADF828
:103A4000063080F3108800BFBDF80650B3899D4250
:103A500014D3BDF806509D4207D133681D682D066A
:103A600003D41D6845F080051D6081F31088B38A7A
:103A7000ADF8063080F31088E6E700BF18F8023092
:103A80007568378A0132EB5581F31088338A013328
:103A900033829BB2B789BB4228BF3082B38AA2422D
:103AA00003F10103B38280F31088C5D13068016847
:103AB00041F08001016002B0BDE8F08110B582B034
:103AC00004468DF807000DF1070100200122FFF7E1
:103AD000A1FF204602B010BDB0B0DFEDA9AAB0EE44
:103AE0006A0AFFF7B3FADFEDA7BAB0EE408AB0EE8C
:103AF0006B0AFFF7ABFADFEDA4CAB0EE40FAB0EE06
:103B00006C0AFFF7A3FADFEDA1DAB0EE409AB0EE4F
:103B10006D0AFFF79BFADFED9E9AF0EE40EAB0EEF9
:103B2000690AFFF793FAB0EE40DAB0EE6A0AFFF7DF
:103B3000D5FAF0EE40FAB0EE6B0AFFF7CFFAF0EEEE
:103B4000408AB0EE6C0AFFF7C9FAB0EE40EAB0EE78
:103B50006D0AFFF7C3FAB0EE40AAB0EE690AFFF7AC
:103B6000BDFAF0EE409AFFF729FBB0EE6A0AF0EEDC
:103B70006B0AF0EE6C1AB0EE6D2A9FEDEB1AFEF7B1
:103B80006BFB002064214FF0000AFFF715FF2DEEBC
:103B9000491AB2EE042A29EEEF4AE6A428EE0D0AED
:103BA000E9A521EE2F1A4FF07E592AEE046A0DF195
:103BB0005C0829EEEE5A0026A8EE0E1ADFEDE0AA08
:103BC000B0EE467A29EEC84A29EE003A2FEE855A21
:103BD0002FEE022AAEEEC17AAFEE8E3AAAEE015A6D
:103BE0008DED157A2AEE047A9EEE816A2EEE844AD5
:103BF0008DED165AB0EE471A9EEEC37A8DED126A1D
:103C000029EE295AB0EE446A9AEE034AAEEE831AC0
:103C10008DED137A6DEE6E0AAAEE436AB2EE063AA5
:103C20008DED141A2DEE2F1AE5EE0A0A8DED114ACC
:103C3000A9EE832A8DED0A6A21EE0ECAB3EE091AA7
:103C40002EEE855ACDED0C0A29EE6F4A28EE013A88
:103C50002FEE811A9DEE4A5AB0EE44AA63EE02BAE4
:103C600023EE423A21EE02BA9FEDB01A68EE81CA05
:103C70008DED0B5AB7EEC31A8DED0E1BB1EE691A1E
:103C8000A0EE0EAA90EE4E4A29EECE0A8DED090A5C
:103C90002EEE410A8DED0D0A9FEDA50AB0EE6C1ACD
:103CA000A8EE09CADDEE40CAF0EE448AB7EECB9A20
:103CB000ADEE001A8DED081AFFF77EFA0020FFF72F
:103CC00053FA10B10220FFF73DFEFFF763FA042814
:103CD00036D00128F0D140469DED140A8DED1D0A25
:103CE0009DED150A8DED220A9DED0B0A8DED270A3B
:103CF0009DED0A0ACDF8B0A08DED1E0A9DED160AC5
:103D00008DED230A9DED0C0A8DED280A9DED090A23
:103D1000CDF8B4A08DED1FAA8DED24CA8DED290A32
:103D20009DED080ACDF8B8A0CDED20BA8DED25BAED
:103D30008DED2A0ACDF8BC90FEF7E6FA0126BBE726
:103D4000F007B9D0012701262046394600F012F9C4
:103D500007F07D009FED700B01281BD1BFEE001B0B
:103D600000F01EFAB0EE490B9DED0E1B00F018FAA4
:103D70009FED6B1B31EE400BB7EEC0DB18E000BFD0
:103D8000341102404FAF9C3F0F0B35407A363BC099
:103D90003065993DB7EE001B00F002FAB0EE490B1A
:103DA0009DED0E1B00F0FCF9B7EEC00BB1EE40DA52
:103DB000B0EE4D0AFFF74AF9B0EE40EAB0EE4D0A18
:103DC000FFF78CF9B0EE40FA9DED110A9DED151A42
:103DD0006FEE00FA9DED160AE0EE0EFA9DED130A65
:103DE0002FEE000AA1EE0E0A2FEEAF1AA0EE001A77
:103DF000B1EEC10AB4EE400AF1EE10FA80F185800E
:103E000006F07F00012818BF042801D0B1EE400A57
:103E10002FEE281AB7EEC00AACEE0E1AB7EEC11A92
:103E200000F0BEF9F7EEC0DBB0EE6D0AFFF756F911
:103E30009DED121AF0EE40EA2EEE011A9DED142AC5
:103E40008FEE800AA2EE0F1AB7EEC00A81EE2E1A8C
:103E5000B7EEC11A00F0A4F92FEE0C1A9DED0D2A51
:103E600082EE2E2AB7EEC08BAAEE0E1AB7EEC22A49
:103E7000B0EE420B81EE2E1AB7EEC11A00F090F9A7
:103E8000F7EEC0EBB0EE6E0AFFF7E0F8F0EE40FAA6
:103E9000B0EE6E0AFFF722F92FEE0B1AB0EE6C2A85
:103EA0009FED233AABEE8E1AAFEE832A9FED253AB3
:103EB000A0EE031A82EE2A0A81EE2A1AB7EEC00A91
:103EC000B7EEC11A00F06CF9B7EEC00B2846B7EE9A
:103ED000CD2AB7EEED3A3EEEC01A53EC122BB7EEF8
:103EE000C00AB7EEC11AB7EEC84A8DED000B8DEDD2
:103EF000021B8DED043B8DED064B00F03BF80137C6
:103F00000136052F7FF420AF18E7B0EE410A00F02C
:103F10002BFA75E700BF00BF0000000000000000A2
:103F2000182D4454FB210940FC1893BF00007AC3AC
:103F3000008089430A526573756C7425643A2000C9
:103F400000007A43008089C3256620202566202052
:103F5000256620202566202025660D0A0000000029
:103F60001EF0040F0CBFEFF30880EFF30980FEF79B
:103F7000A7B800000FB4054B10B503A9044A029876
:103F800000F032FB10BC5DF814FB0000BD3A0008E5
:103F90000000002003B401984100009850EAC120BD
:103FA00018BF04204A0D18BF40F0010040F2FF7214
:103FB000B2EB515F08BF40F00200012808BF0520A6
:103FC00002B070470000000070B565482DED020B8F
:103FD0002DED048B059D25F00044A04218DC6148BE
:103FE000844202DC0AD1049840B19DED040BBDEC83
:103FF000048B02B0BDE8704000F00BBA002DCCBFBE
:104000009FED590B9FED5A0BBDEC048B02B070BDB8
:104010005948A04215DD5948A042D8BF4FF0FF349F
:1040200055DD9DED040B51EC100BFFF7B3FF042899
:1040300008BF00F0F5F99DED040BBDEC048B02B058
:1040400070BD9DED040B51EC100B00F06CFECDE942
:1040500004014B48B7EE000BA0421CDD4948A042CA
:104060000BDD9DED042B0024B0EE001B12EE010BC6
:1040700032EE011B80EE012B27E09DED041B012495
:1040800031EE401B9DED042B32EE000B81EE002B38
:104090008DED042B1BE03C48A0420FDD9DED042B71
:1040A0000224B7EE081B32EE412B9DED043B03EEDC
:1040B000010B82EE001B8DED041B08E09DED040B4F
:1040C0000324BFEE001B81EE002B8DED042B9DED34
:1040D000040B20EE009B29EE098BB0EE480B2B4819
:1040E0000621784400F05DF920EE099BB0EE480B04
:1040F00027480521784400F054F920EE080B002CE5
:104100000BDA39EE001B9DED040B9DED042B02EE46
:10411000410BBDEC048B02B070BD1E48784400EB2F
:10412000C40090ED001B39EE000B9DED042B12EE48
:10413000001B9DED040B31EE400B1748784400EB5B
:10414000C40090ED001B31EE400B002DB8BFB1EE66
:10415000400BBDEC048B02B070BD000000000000FD
:10416000000010440000F07F182D4454FB21F93F5B
:10417000182D4454FB21F9BF0000DC3F0000203E15
:104180000000F33F0000E63F00800340EA0C00001F
:10419000B00C0000680C0000280C000000000000BB
:1041A00070B5614E2DED040B2DED028B82B0DDF864
:1041B0001CC0DDE905235C422CF000411C4341EAB0
:1041C000D474049D22F00040B44205D86C422C43C4
:1041D00040EAD474B4420BD99DED061B9DED040B4F
:1041E00002B0BDEC028B04B0BDE8704000F014B921
:1041F000ACF14054A4F17F641C430BD0022404EAC8
:10420000AC7444EAD27405439FED498B9FED4A2B71
:104210000DD016E09DED040B51EC100B00F07BFD72
:1042200041EC100B02B0BDEC028B04B070BD002C51
:1042300014BF012C9DED040BF4D0022C2ED0032CC6
:104240002FD00B439FED3E1B9FED3F0B0AD0B14299
:104250001DD1B04209D121F0804120F0804007916A
:10426000059014E0002ADDDA15E0394B7B44002C80
:1042700008BF93ED000BD5D0012C04BF93ED000BCC
:10428000B1EE400BCED0022C08D0032C09D0B042A6
:104290000AD1002AC6DAB0EE410BC3E7B0EE480BF4
:1042A000C0E7B0EE420BBDE7401A00153C28C8BF7E
:1042B0008DED000B17DCBCF1000FBEBF10F13C0F01
:1042C0009FED250B8DED000B0DDB9DED041B9DED92
:1042D000062B81EE020B51EC100B00F024FD00F0D8
:1042E0001AFDCDE9000194B1012C0CD09DED001B0D
:1042F0009FED1B0B022C31EE400B0CBF38EE400B38
:1043000030EE480B8EE7019880F0004001909DED63
:10431000000BB5EEC00BF1EE10FA04BF022000F066
:104320009BF89DED000B7DE70000F07F0000000092
:10433000182D4454FB210940182D4454FB2109C079
:10434000182D4454FB21F9BF182D4454FB21F93F8B
:10435000900B0000000000000000000000000000C2
:10436000075C143326A6A13C10B52DED028BB1EEEF
:10437000C08A18EE100A20F00040C0F1FF40C00FC4
:104380000AD010EE100A20F00040C0F1FF40C00F2C
:1043900004BF012000F060F8B0EE480ABDEC028BCB
:1043A00010BDB0EE401B491E00EBC10292ED000BA8
:1043B00031F006020DD0491E00EBC10292ED002B38
:1043C000B0EE403BB0EE420B03EE010B31F00602C3
:1043D000F1D1022914D004290AD0062918BF704748
:1043E00090ED0A2B00EE012B90ED080B02EE010B75
:1043F00090ED062B00EE012B90ED040B02EE010B6D
:1044000090ED022B00EE012B90ED000B02EE010B64
:10441000704730EE000B704730EE010B7047000024
:104420009FED030B20EE000B704700000000000022
:10443000000000000000001002E008C8121F08C1C0
:10444000002AFAD170477047002001E001C1121F15
:10445000002AFBD170470000014908607047000046
:10446000040000202DE9FF5F82B00021DDE9043067
:10447000020DDDF840B0034318D044F61050A2F20C
:10448000FF3242431514119801281FD0A5EB0B00F1
:10449000401C5FEA000A4FF000064E4FDFF83891EB
:1044A000B046504615D5CAF1000413E01198012416
:1044B0004AA3012801D16FEA0B010298119AC0E9C1
:1044C0000031C0E9024206B0BDE8F09FCBF1000028
:1044D000DFE704460021404A491842EB0450CDE989
:1044E000001012E0E00707D032463B4640464946FE
:1044F000FCF70DF88046894632463B461046194681
:10450000FCF705F806460F466410002CEAD1DDE9F9
:104510000401DDE90023BAF1000F06DAFBF7F7FF2B
:1045200042464B46FBF7F3FF05E0FCF762F84246D4
:104530004B46FCF75EF804460E460022284BFCF77B
:10454000DFF803D84FF0FF30014607E00022254B8B
:1045500020463146FBF734FFFCF7BAF8102409E097
:10456000002C0ADB0A220023FBF7B2FE039B303249
:104570001A55641E50EA0102F2D1641C039AC4F178
:1045800011031444119A012A03D0012208430DD1CA
:104590000AE0084304D000204FF0110B119072E79D
:1045A000A3EB0B056D1E0DE05B4504DD4FF0000233
:1045B00005F1010504E003DA4FF00002A5F1010561
:1045C000002AECD002981199C0E90231C0E90045F7
:1045D00079E70000000014400000F03F30000000C8
:1045E0000000F0430000E03F2DE9FF4F95B09B46EF
:1045F0008946064600250FE2252877D10024274664
:10460000F84A0121059400E0044316F8013F203BDD
:1046100001FA03F01042F7D130782A2811D06FF058
:104620002F033078A0F13002092A16D8059A44F0F9
:10463000020402EB820203EB42021044761C059056
:10464000EFE759F8042B0592002A03DA504244F4AC
:104650000054059044F00204761C30782E2816D1C0
:1046600016F8010F44F004042A280DD06FF02F0231
:104670003078A0F13003092B09D807EB870302EB50
:104680004303C718761CF3E759F8047B761C30788F
:104690006C280FD006DC4C2817D068280DD06A286B
:1046A00014D104E0742810D07A280FD10DE044F41E
:1046B00000140AE044F4801401E044F440147278D9
:1046C000824202D104F58014761C761C307866286C
:1046D0000BD013DC582877D009DC002875D045288A
:1046E000F6D04628F4D047281AD19DE118E0632877
:1046F00035D0642879D0652812D195E1702873D01F
:1047000008DC6728F1D069286FD06E280DD06F289B
:1047100006D1B5E073282CD0752875D0782874D0D0
:104720005A46179990476D1C75E1C4F30250022850
:1047300009D003280DD0D9F8001004280DD00D6041
:1047400009F1040967E1D9F80010EA17C1E900523C
:10475000F6E7D9F800100D80F2E70D70F0E719F8D0
:10476000041B8DF8001000208DF80100EA4601209E
:1047700003E059F804AB4FF0FF3061074FF0000140
:1047800002D40DE008F101018846B9420FDA8045F4
:10479000F8DB1AF808100029F4D108E008F101014B
:1047A00088468142FADB1AF808100029F6D10598EC
:1047B0005B46A0EB080721463846179A00F094FAAA
:1047C000284400EB080507E04DE029E10DE01AF868
:1047D000010B5A4617999047B8F10108F7D25B468A
:1047E00021463846179A13E142E00A220092C4F3A8
:1047F00002524FF0000A022A08D059F804CB032ACB
:104800004FEAEC710AD00DE029E02AE009F1070136
:1048100021F00702F2E802C1914609E00FFA8CFC90
:104820004FEAEC71042A03D14FFA8CFC4FEAEC7189
:10483000002907DA0A460021DCF1000C61EB0201D5
:104840002D2202E0220504D52B228DF8042001221E
:1048500003E0E20701D02022F7E7904659E00A2161
:1048600002E010220DE010214FF0000A00910BE051
:1048700010224FF0000A44F004040827009203E0DD
:1048800008224FF0000A0092C4F30252022A05D017
:1048900059F804CB0021032A08D009E009F10701E7
:1048A00021F00702F2E802C1914605E01FFA8CFCF4
:1048B000042A01D10CF0FF0C4FF00008220728D584
:1048C000702806D0009B83F0100353EA0A0305D03A
:1048D0000EE040228DF80420012208E05CEA01028B
:1048E00006D030228DF804208DF805000222904673
:1048F000009B83F0080353EA0A030AD15CEA010231
:1049000001D1620705D530228DF804204FF001084F
:104910007F1E582804D034A003900EA802900DE00A
:1049200036A0F9E753466046009AFBF7D1FC84466F
:104930000398825C0298401E029002705CEA0100BB
:10494000F0D1029806A9081A00F1200A600702D5E2
:1049500024F4803400E00127574502DDA7EB0A006C
:1049600000E0002000EB0A01009005984144401A45
:104970000590E00306D45B462146179A059800F09F
:10498000B3F90544002706E001A85A46C05D17990F
:1049900090476D1C7F1C4745F6DBE0030CD55B465A
:1049A0002146179A059800F09FF9054404E030204D
:1049B0005A46179990476D1C0099481E009000298F
:1049C000F5DC08E0029802995A460078491C0291E9
:1049D000179990476D1CBAF10001AAF1010AF1DCA8
:1049E00065E10000092801003031323334353637B3
:1049F000383961626364656600000000303132332B
:104A000034353637383941424344454600000000CA
:104A100000F058F90544761C307800287FF4ECAD9E
:104A200019B02846BDE8F08F620700D4062709F1C7
:104A3000070222F0070CFCE80223E14603F00048DD
:104A40005FEA080C02D00FF2702C0DE05FEA045C04
:104A500002D50FF2682C07E05FEAC47C02D00FF2A7
:104A6000602C01E0AFF2700C4FF0FF3823F00043F0
:104A7000CDF850C065280CD006DC452809D0462862
:104A80001DD047283DD13DE0662818D067287ED14B
:104A900038E00021112F01DB112000E0781CCDE966
:104AA000000106A90EA8FFF7DDFCDDE90F010E9A53
:104AB00003910021009207F1010A04914DE04FF0AB
:104AC00000400097CDE9011006A90EA8FFF7CAFC27
:104AD000DDE90F0203920E9B11990022DDF80CA074
:104AE0000093049211B9791C00EB010AB7EB0A009C
:104AF00004D4C0F1FF3007F1010A0490AAEB0700CB
:104B0000019044E0012F00DA01270021112F01DD7F
:104B1000112000E03846CDE9000106A90EA8FFF7F4
:104B2000A1FCDDE90F010E9A03910021049100928E
:104B3000BA4621070CD40399514500DA8A46BAF1E6
:104B4000010F05DD009AAAF10101515C302908D05E
:104B5000B84202DA10F1040F06DA0121CDE90110A2
:104B600015E0AAF10101E9E7002805DC04990144F8
:104B70000491AAEB000102E0411C514500DD8A4688
:104B80000499401A401C01904FF000400290200709
:104B900004D40198504501DBCDF8048000208DF845
:104BA0004F0002980DF14F07B0F1004F25D02B2098
:104BB0000E9002984FF0020800280CDA4042029052
:104BC0002D200E9007E00A210298FBF7C4FB30313C
:104BD000029007F8011DB8F10001A8F10108F2DC0C
:104BE00002980028EFD1791E0E980870307800F0F6
:104BF000200040F0450007F8020D12A8C01B00F18C
:104C000007081498007800B1012000EB0A01019810
:104C100001EBE07105984144401A401E0590E00305
:104C200006D45B462146179A059800F05DF80544C6
:104C30001498007818B15A46179990476D1CE003F4
:104C400024D55B462146179A059800F04DF8054497
:104C50001CE00498002807DBDDE90301884203DD3E
:104C60000098405C179901E0179930205A46904708
:104C7000049805F10105401C04900198401E019024
:104C800004D12E205A46179990476D1CBAF10001A5
:104C9000AAF1010ADDDC05E017F8010B5A46179965
:104CA00090476D1CB8F10001A8F10108F4DC5B46E7
:104CB0002146179A0598ABE62D0000002B00000056
:104CC000200000002DE9F041044600251E4617464D
:104CD000880404D405E039462020B0476D1C641ECA
:104CE000F9D52846BDE8F0812DE9F04104460025BC
:104CF0001E469046C80301D5302700E020278804CF
:104D000004D505E041463846B0476D1C641EF9D510
:104D10002846BDE8F08110B541EC100BFFF754F9BF
:104D200051EC100B10BD82B0CDE9000121F0004024
:104D300001909DED000B02B051EC100B704700008C
:104D400010B5044601E0FEF7B9FE14F8010B044962
:104D50000028F8D1BDE810400A20FEF7AFBE0000E1
:104D600000000020000000004FBB610567ACDD3F84
:104D7000182D4454FB21E93F9BF681D20B73EF3F82
:104D8000182D4454FB21F93FE2652F227F2B7A3CFA
:104D9000075C143326A6813CBDCBF07A8807703CB3
:104DA000075C143326A6913CC4EB98999999C9BF26
:104DB000711623FEC671BCBF6D9A74AFF2B0B3BF5B
:104DC0009AFDDE522DDEADBF2F6C6A2C44B4A2BF1B
:104DD0000D5555555555D53FFF8300922449C23F87
:104DE0006E204CC5CD45B73F513DD0A0660DB13FBB
:104DF000EB0D76244B7BA93F11DA22E33AAD903FCD
:104E00000000000000000000010440081020000421
:104E10004008102000000000010203040102030406
:104E200006070809010002000400060008000A0045
:104E30000C00100020004000800000010001000074
:104E400000020000000400000008000000200258DA
:104E5000000100000008025800200000001C025859
:104E6000100000000018025804000000000402585E
:104E70000100000000180258080000000018025845
:104E80008000000000200258000800000000000020
:104E9000920E493CB10AC93C2BC3163D2EFB483D3E
:104EA000752B7B3D04A9963D80B6AF3D36BDC83D10
:104EB0002FBCE13D73B2FA3D87CF093E8340163ED9
:104EC000B5AB223EA2102F3ECF6E3B3EC2C5473E41
:104ED0000115543E135C603E7F9A6C3ECCCF783E09
:104EE000C07D823E938E883E229A8E3E32A0943EB2
:104EF00086A09A3EE59AA03E128FA63ED47CAC3E98
:104F0000EF63B23E2A44B83E491DBE3E15EFC33E94
:104F100053B9C93ECA7BCF3E4136D53E80E8DA3E22
:104F20004F92E03E7533E63EBBCBEB3EEA5AF13E94
:104F3000CBE0F63E275DFC3EE4E7003F3D9C033FAF
:104F4000824B063F9BF5083F6B9A0B3FDA390E3FC9
:104F5000CDD3103F2A68133FD9F6153FC07F183FC5
:104F6000C6021B3FD17F1D3FCBF61F3F9967223FF3
:104F700025D2243F5636273F1594293F4AEB2B3F35
:104F8000DE3B2E3FBB85303FC9C8323FF304353F7F
:104F9000233A373F4268393F3B8F3B3FF9AE3D3FB5
:104FA00067C73F3F70D8413F01E2433F03E4453FBD
:104FB00065DE473F12D1493FF8BB4B3F029F4D3F53
:104FC000207A4F3F3D4D513F4918533F31DB543F0D
:104FD000E595563F5348583F6AF2593F1A945B3F54
:104FE000532D5D3F05BE5E3F2146603F97C5613F43
:104FF0005A3C633F59AA643F880F663FD86B673FAE
:105000003CBF683FA7096A3F0C4B6B3F5E836C3F18
:1050100093B26D3F9ED86E3F73F56F3F0809713FA5
:105020005213723F4714733FDD0B743F0BFA743F0A
:10503000C6DE753F07BA763FC58B773FF853783F9A
:105040009812793F9DC7793F02737A3FBE147B3F28
:10505000CDAC7B3F283B7C3FC9BF7C3FAC3A7D3F1A
:10506000CCAB7D3F23137E3FB0707E3F6DC47E3F4F
:10507000580E7F3F6D4E7F3FAB847F3F0FB17F3F28
:1050800097D37F3F43EC7F3F11FB7F3F0000803F82
:1050900011FB7F3F43EC7F3F97D37F3F0FB17F3FB3
:1050A000AB847F3F6D4E7F3F580E7F3F6DC47E3F88
:1050B000B0707E3F23137E3FCCAB7D3FAC3A7D3F4B
:1050C000C9BF7C3F283B7C3FCDAC7B3FBE147B3FC0
:1050D00002737A3F9DC7793F9812793FF853783F22
:1050E000C58B773F07BA763FC6DE753F0BFA743F34
:1050F000DD0B743F4714733F5213723F0809713F31
:1051000073F56F3F9ED86E3F93B26D3F5E836C3FE9
:105110000C4B6B3FA7096A3F3CBF683FD86B673FAA
:10512000880F663F59AA643F5A3C633F97C5613F69
:105130002146603F05BE5E3F532D5D3F1A945B3FA5
:105140006AF2593F5348583FE595563F31DB543F8B
:105150004918533F3D4D513F207A4F3F029F4D3FED
:10516000F8BB4B3F12D1493F65DE473F03E4453F63
:1051700001E2433F70D8413F67C73F3FF9AE3D3F33
:105180003B8F3B3F4268393F233A373FF304353F7B
:10519000C9C8323FBB85303FDE3B2E3F4AEB2B3F39
:1051A0001594293F5636273F25D2243F9967223F41
:1051B000CBF61F3FD17F1D3FC6021B3FC07F183F6C
:1051C000D9F6153F2A68133FCDD3103FDA390E3F89
:1051D0006B9A0B3F9BF5083F824B063F3D9C033F7C
:1051E000E4E7003F275DFC3ECBE0F63EEA5AF13EA5
:1051F000BBCBEB3E7533E63E4F92E03E80E8DA3EB5
:105200004136D53ECA7BCF3E53B9C93E15EFC33EAA
:10521000491DBE3E2A44B83EEF63B23ED47CAC3E4C
:10522000128FA63EE59AA03E86A09A3E32A0943EFA
:10523000229A8E3E938E883EC07D823ECCCF783EB1
:105240007F9A6C3E135C603E0115543EC2C5473EDA
:10525000CF6E3B3EA2102F3EB5AB223E8340163EA2
:1052600087CF093E73B2FA3D2FBCE13D36BDC83D44
:1052700080B6AF3D04A9963D752B7B3D2EFB483D86
:105280002BC3163DB10AC93C920E493C00000000F8
:10529000920E49BCB10AC9BC2BC316BD2EFB48BD3A
:1052A000752B7BBD04A996BD80B6AFBD36BDC8BD0C
:1052B0002FBCE1BD73B2FABD87CF09BE834016BED5
:1052C000B5AB22BEA2102FBECF6E3BBEC2C547BE3D
:1052D000011554BE135C60BE7F9A6CBECCCF78BE05
:1052E000C07D82BE938E88BE229A8EBE32A094BEAE
:1052F00086A09ABEE59AA0BE128FA6BED47CACBE94
:10530000EF63B2BE2A44B8BE491DBEBE15EFC3BE90
:1053100053B9C9BECA7BCFBE4136D5BE80E8DABE1E
:105320004F92E0BE7533E6BEBBCBEBBEEA5AF1BE90
:10533000CBE0F6BE275DFCBEE4E700BF3D9C03BFAB
:10534000824B06BF9BF508BF6B9A0BBFDA390EBFC5
:10535000CDD310BF2A6813BFD9F615BFC07F18BFC1
:10536000C6021BBFD17F1DBFCBF61FBF996722BFEF
:1053700025D224BF563627BF159429BF4AEB2BBF31
:10538000DE3B2EBFBB8530BFC9C832BFF30435BF7B
:10539000233A37BF426839BF3B8F3BBFF9AE3DBFB1
:1053A00067C73FBF70D841BF01E243BF03E445BFB9
:1053B00065DE47BF12D149BFF8BB4BBF029F4DBF4F
:1053C000207A4FBF3D4D51BF491853BF31DB54BF09
:1053D000E59556BF534858BF6AF259BF1A945BBF50
:1053E000532D5DBF05BE5EBF214660BF97C561BF3F
:1053F0005A3C63BF59AA64BF880F66BFD86B67BFAA
:105400003CBF68BFA7096ABF0C4B6BBF5E836CBF14
:1054100093B26DBF9ED86EBF73F56FBF080971BFA1
:10542000521372BF471473BFDD0B74BF0BFA74BF06
:10543000C6DE75BF07BA76BFC58B77BFF85378BF96
:10544000981279BF9DC779BF02737ABFBE147BBF24
:10545000CDAC7BBF283B7CBFC9BF7CBFAC3A7DBF16
:10546000CCAB7DBF23137EBFB0707EBF6DC47EBF4B
:10547000580E7FBF6D4E7FBFAB847FBF0FB17FBF24
:1054800097D37FBF43EC7FBF11FB7FBF000080BF7E
:1054900011FB7FBF43EC7FBF97D37FBF0FB17FBFAF
:1054A000AB847FBF6D4E7FBF580E7FBF6DC47EBF84
:1054B000B0707EBF23137EBFCCAB7DBFAC3A7DBF47
:1054C000C9BF7CBF283B7CBFCDAC7BBFBE147BBFBC
:1054D00002737ABF9DC779BF981279BFF85378BF1E
:1054E000C58B77BF07BA76BFC6DE75BF0BFA74BF30
:1054F000DD0B74BF471473BF521372BF080971BF2D
:1055000073F56FBF9ED86EBF93B26DBF5E836CBFE5
:105510000C4B6BBFA7096ABF3CBF68BFD86B67BFA6
:10552000880F66BF59AA64BF5A3C63BF97C561BF65
:10553000214660BF05BE5EBF532D5DBF1A945BBFA1
:105540006AF259BF534858BFE59556BF31DB54BF87
:10555000491853BF3D4D51BF207A4FBF029F4DBFE9
:10556000F8BB4BBF12D149BF65DE47BF03E445BF5F
:1055700001E243BF70D841BF67C73FBFF9AE3DBF2F
:105580003B8F3BBF426839BF233A37BFF30435BF77
:10559000C9C832BFBB8530BFDE3B2EBF4AEB2BBF35
:1055A000159429BF563627BF25D224BF996722BF3D
:1055B000CBF61FBFD17F1DBFC6021BBFC07F18BF68
:1055C000D9F615BF2A6813BFCDD310BFDA390EBF85
:1055D0006B9A0BBF9BF508BF824B06BF3D9C03BF78
:1055E000E4E700BF275DFCBECBE0F6BEEA5AF1BEA1
:1055F000BBCBEBBE7533E6BE4F92E0BE80E8DABEB1
:105600004136D5BECA7BCFBE53B9C9BE15EFC3BEA6
:10561000491DBEBE2A44B8BEEF63B2BED47CACBE48
:10562000128FA6BEE59AA0BE86A09ABE32A094BEF6
:10563000229A8EBE938E88BEC07D82BECCCF78BEAD
:105640007F9A6CBE135C60BE011554BEC2C547BED6
:10565000CF6E3BBEA2102FBEB5AB22BE834016BE9E
:1056600087CF09BE73B2FABD2FBCE1BD36BDC8BD40
:1056700080B6AFBD04A996BD752B7BBD2EFB48BD82
:105680002BC316BDB10AC9BC920E49BC00000080F4
:105690004572726F723A2066696C652025732C2002
:1056A00066756E6374696F6E20257328290D0A0074
:1056B0002E2E2F2E2E2F557365722F6273702F731F
:1056C00072632F6273705F74696D65722E63002E52
:1056D0002E2F2E2E2F557365722F6273702F7372BB
:1056E000632F6273705F756172745F6669666F2E97
:1056F0006300000018570008000000201800000098
:1057000038440008305700081800002080190000B5
:1057100048440008000000000000000000000000F5
:105720000090D0030090D0030100000010000000A2
:040000050800029954
:00000001FF
