:020000040800F2
:10000000A0190020AD020008FF1D000859370008A4
:10001000FD1D0008E1030008F12A000800000000AF
:100020000000000000000000000000001320000895
:100030002904000800000000011E00081520000827
:10004000C7020008C7020008C7020008C70200086C
:10005000C7020008C7020008C7020008C70200085C
:10006000C7020008C7020008C7020008C70200084C
:10007000C7020008C7020008C7020008C70200083C
:10008000C7020008C7020008C7020008C70200082C
:10009000C7020008C7020008C7020008C70200081C
:1000A000C7020008C7020008C7020008C70200080C
:1000B00031210008C7020008C7020008C702000873
:1000C000C7020008C7020008C7020008C7020008EC
:1000D000C7020008BF290008C7020008C7020008BD
:1000E000C7020008C702000800000000C70200089D
:1000F000C7020008C7020008C7020008C7020008BC
:10010000C7020008C7020008C7020008C7020008AB
:10011000C7020008C7020008C7020008C70200089B
:10012000C7020008C7020008C7020008C70200088B
:10013000C7020008C7020008C7020008C70200087B
:1001400000000000000000000000000000000000AF
:10015000C7020008C7020008C7020008C70200085B
:10016000C7020008C7020008C7020008C70200084B
:10017000C7020008C7020008C7020008000000000C
:10018000C7020008C7020008C7020008C70200082B
:10019000C7020008C7020008C7020008C70200081B
:1001A000C7020008C7020008C7020008C70200080B
:1001B000C7020008C7020008C7020008C7020008FB
:1001C000C7020008C7020008C7020008C7020008EB
:1001D000C7020008C7020008C7020008C7020008DB
:1001E000C7020008C7020008C7020008C7020008CB
:1001F000C7020008C7020008C7020008C7020008BB
:10020000C7020008C7020008C7020008C7020008AA
:10021000C7020008C7020008C7020008C70200089A
:10022000C7020008C7020008C7020008000000005B
:10023000C7020008C702000800000000C70200084B
:10024000C7020008C7020008C7020008C70200086A
:10025000C7020008C7020008C7020008C70200085A
:10026000C7020008C7020008C7020008C70200084A
:10027000C7020008C7020008C7020008000000000B
:10028000C702000800000000C702000800000000CC
:1002900000000000C7020008DFF80CD000F08EF864
:1002A0000048004705350008A0190020064880478F
:1002B00006480047FEE7FEE7FEE7FEE7FEE7FEE74B
:1002C000FEE7FEE7FEE7FEE7C5200008990200080A
:1002D0002DE9F05F0546002092469B46884606467B
:1002E000814640241BE0284641464746224600F00E
:1002F00054F853465A46C01A914110D31146184635
:10030000224600F03BF82D1A67EB01084F462246C3
:100310000120002100F032F817EB00094E41201EA9
:10032000A4F10104DFDC484631462A464346BDE8D5
:10033000F09F00000649074A0868504343F239021B
:100340001044086040087047014908607047000089
:10035000000000206D4EC641D2B201E000F8012B32
:10036000491EFBD270470022F6E710B513460A4635
:1003700004461946FFF7F0FF204610BD202A04DB93
:10038000203A00FA02F1002070479140C2F12003A8
:1003900020FA03F3194390407047202A04DB203AE7
:1003A00021FA02F00021704721FA02F3D040C2F195
:1003B000200291400843194670470000064C074D43
:1003C00006E0E06840F0010394E807009847103425
:1003D000AC42F6D3FFF764FF9C3F0008BC3F000827
:1003E000FEE7000080B5082804D240B206A151F80B
:1003F000200080BD43F677704FF48E71C0F6000088
:1004000000F014F8002080BD7408002000000000F7
:1004100000000000000000000000000000000000DC
:1004200000000000000000007047000009B100BF9C
:10043000FEE77047B0B5B3F5804F034615D10020F5
:1004400053F822C0CCF6F0708D680CEA000CCC6832
:10045000D1E9000E40EA0C00896940EA0E1040EA3A
:10046000052040EA0440014301E06FF070410020A4
:1004700043F82210B0BD2DE9F043D1E9002C40F241
:100480008045D1E9023ED1E90489D1E9066750F8F7
:100490002240CFF6C0752C40082B44EA0C0545EAF3
:1004A000030545EA0E0545EA080545EA090546EA59
:1004B000050647EA06070E6A47EA06074E6A47EA54
:1004C00006078E6A47EA0607CE6A47EA06070E6BFA
:1004D00047EA06078E6B47EA06074E6B47EA0607B0
:1004E00008BF47F0400740F822700A6BB2F5801F42
:1004F00005D10A684AB1026842F4801202600A68B3
:100500001AB1496B0268114301600020BDE8F08315
:10051000F0B500EB820340F2000CCFF6F07C5A6895
:100520008E6802F0404E0D69D1E9002742EA0E02C2
:10053000CC6842EA07124F6942EA06228E690CEB48
:100540000555FE3742EA04422A43324342EA076233
:100550005A600268D20207D54268096922F4700223
:100560000CEB0151114341600020F0BD40F22040EE
:10057000C5F60000016841F001010160704700000C
:100580002DE9F04F81B000F126424FF00A0E02F142
:10059000FF7342F20042C5F602024FEAB3249042D2
:1005A00040F2040B08BF4FF0090EC5F6000B092CF2
:1005B00038BF4FEAB32E00234FF0010C002700256F
:1005C0000CFA05F80E6816EA080F00F09680D1F8CC
:1005D000049049F01006122E14D16FF0030207F0B8
:1005E0001C0402EA55060F22064402FA04FAD6F861
:1005F00020900A6929EA0A09A24042EA0902326205
:10060000D1F80490032204689A40B9F1120F6FEAFE
:10061000020A24EA020209F0030404FA03F442EA9B
:100620000402026013D80CFA09F212F0061F0ED071
:100630008268CC6802EA0A029C40224382604268D7
:100640004FEA191422EA0802AC4022434260C26811
:100650008C689C4002EA0A025FEAC90642EA040288
:10066000C2604AD544F2F44440F2084AC5F6020496
:10067000C5F6000A0F26226842F0020222602268B4
:1006800002F00202009225F00302009C07F00C0425
:1006900052F80A90A64029EA06060EFA04F43443FA
:1006A00042F80A40DBF87C904C6849EA0806E2030D
:1006B00058BF29EA0806A2034FF0B04ACBF87C6085
:1006C000DBF8809049EA080658BF29EA0806E202EA
:1006D000CBF88060DAF8009049EA080658BF29EAAA
:1006E0000806A402CAF80060DBF8002042EA080607
:1006F00058BF22EA0806CBF8006001350437102DF8
:1007000003F102037FF45CAF01B0BDE8F08F40F667
:100710009C10C2F200000068704740F2100040F6E2
:100720009C11C2F20000C2F2000100780A68104475
:100730000860704780B5032000F0BAF80F2000F081
:1007400007F808B1012080BD00F074F8002080BDDA
:10075000B0B540F2100140F20802C2F20001C2F24C
:1007600000024FF47A73044609781268B3FBF1F182
:10077000B2FBF1F1084601F0E9F90F2C4FF0010549
:100780000CD858B94FF0FF3000222146002500F068
:1007900061F840F21400C2F2000004602846B0BDC7
:1007A000B0B502784EF6985CCEF2000C4378CCF8E7
:1007B0000030E2B14368CCF80430037BC17A90F892
:1007C0000AE0457B447A42EA0372837B42EA016194
:1007D000C27B41EACE41007A41EA854141EA434188
:1007E00041EA024141EA042141EA400002E00020DE
:1007F000CCF80400CCF80800B0BD4EF62450CEF280
:100800000000BFF35F8F016821F480310160002197
:10081000016770474EF6245140F00100CEF200010E
:100820000867086840F480300860BFF34F8FBFF35B
:100830006F8F7047704700280BD400F01F01012212
:1008400002FA01F14EF200124009CEF2000242F823
:1008500020107047B0B54EF60C5C00F00F05CEF2DC
:10086000000C043D6544DCF800304FF0FF3CC3F35E
:10087000022E8EF00703042B28BF0423BEF10304CD
:1008800038BF00240CFA03F3B0F1FF3F21EA030163
:1008900005F10C0300F160450CFA04F0C8BF05F542
:1008A0006443A14022EA0000084300011870B0BD73
:1008B0004EF60C514FF6FF03CEF200010A681A40C3
:1008C00060F30A2242F0806040F0FD7008607047DB
:1008D00080B500F05FFE44F2184143F66042C5F671
:1008E0000201C0F600020968C1F30321515CC8404F
:1008F00040F20801C2F20001086080BD80B500F03E
:10090000FAFD44F2204143F66042C5F60201C0F60A
:1009100000020968C1F30211515CC84080BD0000AB
:1009200010B544F20041C5F602018A6AD1F828C028
:1009300002F00303D1F82CE0022BCA6B0CD083B970
:100940000B689B0649F20003C0F2D0330DD50C684A
:10095000C4F3C104E34008E047F64003C0F27D134E
:1009600003E040F60013C0F23D03C2F3CC020EF0E8
:10097000100462439FED232A00EE102A8A6B6FF366
:100980005F2201EE102ACCF30532B8EE400AB3FB29
:10099000F2F2B8EE411A00EE021A02EE102A8A6B49
:1009A000B7EE000AC2F34622B8EE422A013231EE17
:1009B000000A01EE102A20EE020AB8EE411A80EE7B
:1009C000011ABCEEC11A80ED001A8A6BC2F306420E
:1009D000013201EE102AB8EE411A80EE011ABCEE87
:1009E000C11A80ED011A896BC1F30661013101EE74
:1009F000101AB8EE411A80EE010ABCEEC00A80ED72
:100A0000020A10BD0000003910B544F20041C5F6DD
:100A100002018A6AD1F828C002F00303D1F82CE061
:100A2000022B4A6C0CD083B90B689B0649F2000379
:100A3000C0F2D0330DD50C68C4F3C104E34008E024
:100A400047F64003C0F27D1303E040F60013C0F206
:100A50003D03C2F3CC020EF4807462439FED232A5F
:100A600000EE102A0A6C6FF35F2201EE102ACCF31D
:100A70000552B8EE400AB3FBF2F2B8EE411A00EEAE
:100A8000021A02EE102A0A6CB7EE000AC2F34622DE
:100A9000B8EE422A013231EE000A01EE102A20EEB1
:100AA000020AB8EE411A80EE011ABCEEC11A80EDBE
:100AB000001A0A6CC2F30642013201EE102AB8EEA7
:100AC000411A80EE011ABCEEC11A80ED011A096CC0
:100AD000C1F30661013101EE101AB8EE411A80EE41
:100AE000010ABCEEC00A80ED020A10BD0000003908
:100AF0002DE9F0410446C07844F210480007C5F6DD
:100B0000020825D5606E4FEA305103290AD8DFE884
:100B100001F0020B1018D8F81C1041F40031C8F88D
:100B20001C100EE0012514E0201D022101F06AF9DD
:100B300004E004F12400022101F0D8F9054640B98F
:100B4000606ED8F8401021F440110843C8F8400006
:100B500000256078C00701D12E4629E0606D042889
:100B60000DD82E46DFE800F0030D12181800D8F853
:100B70001C002E4640F40030C8F81C000CE0012692
:100B80000BE0201D002101F03DF904E004F12400F8
:100B9000002101F0ABF906460EB1354308E0D8F864
:100BA0004000616D20F0070000260843C8F84000AF
:100BB0006078800729D5A06D4FEAB01004280BD8C3
:100BC000DFE800F0030C11171700D8F81C0040F400
:100BD0000030C8F81C000CE001260BE0201D0021AD
:100BE00001F010F904E004F12400002101F07EF985
:100BF00006460EB1354308E0D8F84000A16D20F458
:100C0000E07000260843C8F84000607840072BD504
:100C1000D4F8A4004FEA705004280BD8DFE800F0A5
:100C2000030C11171700D8F81C0040F40030C8F866
:100C30001C000CE001260BE0201D002101F0E2F871
:100C400004E004F12400002101F050F906460EB141
:100C5000354309E0D8F84800D4F8A41020F4600027
:100C600000260843C8F84800607800072BD5D4F860
:100C7000A8004FEA306004280BD8DFE800F0030C2E
:100C800011171700D8F81C0040F40030C8F81C00F9
:100C90000CE001260BE0201D002101F0B3F804E078
:100CA00004F12400002101F021F906460EB135437C
:100CB00009E0D8F84800D4F8A81020F0E060002639
:100CC0000843C8F84800E078800722D5A06C4FEAB6
:100CD000301003280AD8DFE800F010020B10D8F813
:100CE0001C0040F40030C8F81C0006E0012605E0B6
:100CF000201D022101F086F806460EB1354308E0BA
:100D0000D8F83C00A16C20F0300000260843C8F859
:100D10003C006078C00629D5E06D4FEA30300428E9
:100D20000BD8DFE800F0030C11171700D8F81C00EF
:100D300040F40030C8F81C000CE001260BE0201D38
:100D4000002101F05FF804E004F12400002101F02B
:100D5000CDF806460EB1354308E0D8F84000E16D05
:100D600020F4E04000260843C8F840006078800680
:100D700022D5206E4FEA3040052809D8DFE800F080
:100D800010030A101010201D012101F03BF806E0AD
:100D9000012606E004F12400012101F0A7F806462F
:100DA0000EB1354308E0D8F84000216E20F4E02071
:100DB00000260843C8F840006078400624D5D4F8DF
:100DC000AC004FEA3070052809D8DFE800F01003C6
:100DD0000A101010201D012101F014F806E0012670
:100DE00006E004F12400012101F080F806460EB16E
:100DF000354309E0D8F84800D4F8AC1020F0E040C2
:100E000000260843C8F848006078000620D5E06E48
:100E100088B1B0F1005F09D0B0F1805F16D1D8F889
:100E20001C0040F40030C8F81C0004E0201D012123
:100E300000F0E8FF064656B9D8F84000E16E20F011
:100E4000405000260843C8F8400001E00126354321
:100E5000E078C00720D0606C03280AD8DFE800F0F3
:100E600010020B10D8F81C0040F40030C8F81C0029
:100E700006E0012605E0201D022100F0C3FF064622
:100E80000EB1354308E0D8F83C00616C20F0030057
:100E900000260843C8F83C00A078400615D5D8F8CD
:100EA000F00340F48070C8F8F003FFF730FC074609
:100EB000D8F8F003C00506D4FFF729FCC01B64284E
:100EC000F6D9032600E096B135432078C00753D009
:100ED000A06F4FEAF00005283AD8DFE800F04103A0
:100EE0003B414141201D012100F08CFF37E0D8F843
:100EF0006010D4F8B000414011F4407F11D0D8F810
:100F00006010D8F8602042F48032C8F86020D8F829
:100F1000602021F4407122F48032C8F86020C8F8C3
:100F20006010B0F5807F40F0ED81FFF7F0FB0646E2
:100F300041F28837D8F86000800700F1E181FFF7BF
:100F4000E6FB801BB842F5D945F003050326BCE754
:100F5000012606E004F12400012100F0C7FF064647
:100F60000EB1354308E0D8F84400A16F20F03800F6
:100F700000260843C8F844002078800720D5606F19
:100F8000052809D8DFE800F010030A101010201D12
:100F9000012100F037FF06E0012606E004F12400FD
:100FA000012100F0A3FF06460EB1354308E0D8F852
:100FB0004400616F20F0070000260843C8F8440091
:100FC0002078400722D5D4F89000052809D8DFE81A
:100FD00000F010030A101010201D012100F012FF74
:100FE00006E0012606E004F12400012100F07EFF66
:100FF00006460EB1354309E0D8F84800D4F8901001
:1010000020F0070000260843C8F848002078800632
:1010100024D5D4F88C004FEA3070052809D8DFE8D1
:1010200000F010030A101010201D002100F0EAFE4D
:1010300006E0012606E004F12400022100F056FF3C
:1010400006460EB1354309E0D8F84400D4F88C10B8
:1010500020F0E04000260843C8F84400207840060D
:1010600024D5D4F898004FEAB020052809D8DFE845
:1010700000F010030A101010201D002100F0C2FE25
:1010800006E0012606E004F12400022100F02EFF14
:1010900006460EB1354309E0D8F84800D4F8981058
:1010A00020F4E05000260843C8F8480020780006E5
:1010B00024D5D4F89C004FEA7030052809D8DFE821
:1010C00000F010030A101010201D002100F09AFEFD
:1010D00006E0012606E004F12400022100F006FFEC
:1010E00006460EB1354309E0D8F84800D4F89C1004
:1010F00020F4604000260843C8F848002068010733
:1011000013D5D4F88010B1F5805F07D104F1240025
:10111000022100F0EBFE0543206806E0D8F84420E9
:1011200022F440521143C8F84410C10613D5D4F834
:101130009410B1F5807F07D104F12400022100F062
:10114000D5FE0543206806E0D8F8482022F4407216
:101150001143C8F84810000321D5D4F8A000B0F519
:10116000003F0ED0B0F5803F05D0B0B9201D002162
:1011700000F048FE04E004F12400022100F0B6FE75
:1011800006465EB9D8F84800D4F8A01020F44030E4
:1011900000260843C8F8480001E001263543A0783E
:1011A000400725D5D4F88400B0F5401F12D0B0F523
:1011B000001F09D0B0F5801F18D1D8F81C0040F4EA
:1011C0000030C8F81C0005E004F12400012100F003
:1011D0008DFE06465EB9D8F84400D4F8841020F499
:1011E000401000260843C8F8440001E001263543BA
:1011F000A078C0071DD0E06CB0F5803F07D0B0B933
:10120000D8F81C0040F40030C8F81C0004E0201D91
:10121000022100F0F7FD064656B9D8F83C00E16C13
:1012200020F4803000260843C8F83C0001E0012685
:1012300035432068810006D504F12400022100F026
:1012400055FE0543206881031BD5E16F6FF0010255
:1012500002EB3122022A0AD34FEA31223AB1012AA3
:1012600006D1D8F81C2042F40032C8F81C200EB178
:10127000012506E0D8F8442022F440721143C8F852
:101280004410C10207D5D8F84010226F21F0004168
:101290001143C8F84010C10008D5D8F80010D4F8A0
:1012A000B42021F480411143C8F80010810207D511
:1012B000D8F84010A26E21F080711143C8F8401098
:1012C00041000CD5D8F8001021F40041C8F80010F6
:1012D000D4F8B810D8F800201143C8F80010B0F1C5
:1012E000FF3F07DCD8F83C00216D20F04050084358
:1012F000C8F83C00002D18BF01252846BDE8F08144
:10130000D4F8B0004FF6CF73D8F80020C0F2FF0336
:1013100000F4407122F47C5203EA10136FF31F3083
:10132000B1F5407F08BF1A430026C8F80020D8F85E
:1013300060100843C8F86000C7E500002DE9F043DD
:1013400081B042F200080D46C5F200280446D8F8E4
:10135000002002F007028A420CD2D8F8000020F0E8
:1013600007002843C8F80000D8F8000000F0070084
:10137000A84268D1206844F200478107C5F60207F9
:1013800005D5B969E26821F00F011143B961C007C1
:1013900048D1D8F8000000F00700A8420CD9D8F8CE
:1013A000000020F007002843C8F80000D8F800002B
:1013B00000F00700A84246D12068410705D5B96969
:1013C000226921F070011143B961010705D5F9695E
:1013D000626921F070011143F961C10605D5F9690F
:1013E000A26921F4E0611143F961800605D5386AEC
:1013F000E16920F070000843386200F0CBF8B96969
:1014000043F66042C0F60002C1F30321515C40F292
:101410000802C2F20002C84010600F20FFF798F9DE
:10142000002011E0B86920F47061D4E901020128BC
:1014300041EA0201B9610AD0032854D0022856D1EA
:101440003968890306D4012001B0BDE8F08339680A
:10145000C905F8D5396921F0070108433861FFF75C
:1014600056F961680646032941F2883927D00229D6
:1014700033D001290ED100BF386900F038000828A8
:101480003FF487AFFFF743F9801B48454FF0030057
:10149000F2D9D9E7386910F0380F3FF47AAFFFF787
:1014A00036F9801B48454FF00300F3D9CCE700BF65
:1014B000FFF72DF9801B48454FF00300C4D8386969
:1014C00000F038001828F3D163E700BFFFF71FF9D9
:1014D000801B48454FF00300B6D8386900F038004B
:1014E0001028F3D155E739688901ACD5B2E73968DE
:1014F0004907A8D5AEE780B5FFF7EAF944F21841ED
:1015000043F66042C5F60201C0F60002096801F028
:101510000F01515CC84040F20C01C2F200010860AA
:1015200080BD80B5FFF7D4F944F2184143F660431B
:10153000C5F60201C0F6000340F20C0C0A68C2F2C4
:10154000000C02F00F029A5CD040CCF80000496811
:10155000C1F30211595CC84080BD80B5FFF7B8F9EE
:1015600044F2184143F66043C5F60201C0F6000399
:1015700040F20C0C0A68C2F2000C02F00F029A5CF6
:10158000D040CCF800004968C1F30221595CC84042
:1015900080BD000080B544F20041C5F60201086933
:1015A000C0F3C20240F60010032AC0F23D000FD083
:1015B000022A2FD0002A5BD10868800649F2000079
:1015C000C0F2D03054D50968C1F3C101C84080BD14
:1015D000D1F828E0D1F828C0CB6A4A6B03F00103A8
:1015E000C2F3CC025A430EF00303022B00EE102A82
:1015F000CCF30512B8EE400A11D0A3B908688006F2
:1016000049F20000C0F2D0300DD50B68C3F3C1031E
:10161000D84008E047F64000C0F27D1080BD47F694
:101620004000C0F27D100B6B9FED122A6FF35F2319
:1016300001EE103AB0FBF2F0B8EE411A00EE021AD9
:1016400002EE100A086BB7EE000AC0F34620B8EEAF
:10165000422A013031EE000A01EE100A20EE020AA1
:10166000B8EE411A80EE010ABCEEC00A10EE100A74
:1016700080BD00BF00000039F0B581B0044600789D
:1016800044F20046C007C5F6020615D0306900F0E6
:101690003800102809D0306900F03800182848D1E7
:1016A000B06A00F00300022843D13068800303D5FC
:1016B0006068002800F08A802078800754D530695F
:1016C00010F0380F1DD0306900F03800182804BF22
:1016D000B06A5FEA807014D0E0683168002800F0DA
:1016E000D68021F0190108433060FFF710F8054655
:1016F0003068400731D4FFF70AF8401B0228F7D9B9
:101700004BE130684007E06801D500285ED03168C1
:1017100021F0190108433060FEF7F9FF054600BFCC
:101720003068400719D4FEF7F2FF401B0228F7D9B2
:1017300033E16068002800F0FF80B0F5A02F00F0D2
:101740001581B0F5803F00F01581306820F48030BD
:101750003060306820F480200FE17068216920F447
:101760007C3040EA013070602078C0061BD53069BB
:1017700000F03800082809D0306900F03800182837
:1017800060D1B06A00F0030001285BD13068C00569
:1017900002D5E069802819D17068216A20F0F840EC
:1017A00040EA816070602078000711D420788006BC
:1017B00021D42078400732D4656A002D00F0918151
:1017C000306900F03800182840F094800120E5E0EE
:1017D00060690028706F4AD040F001007067FEF722
:1017E00096FF0546706F8007E0D4FEF790FF401B20
:1017F0000228F7D9D1E0A069002830686AD040F407
:1018000080503060FEF783FF054600BF30688004DB
:10181000CFD4FEF77CFF401B0228F7D9BDE0D6F8F5
:10182000000440F48070C6F80004FEF770FF05461F
:10183000D6F80004C0053BD4FEF769FF401B6428BE
:10184000F6D9AAE0E0690028306800F0A98040F0ED
:1018500080003060FEF75BFF054600BF3068C005C2
:101860009AD4FEF754FF401B0228F7D995E020F0E8
:1018700001007067FEF74BFF054600BF706F8007E1
:1018800094D5FEF744FF401B0228F7D985E021F0EC
:1018900001003060FEF73BFF054600BF306840079F
:1018A0007FF562AFFEF733FF401B0228F6D974E0E4
:1018B000A068002800F08680052800F09D8001289F
:1018C00000F09E80306F20F001003067306F20F014
:1018D000040098E020F480503060FEF718FF0546C1
:1018E000306880047FF565AFFEF711FF401B0228CA
:1018F000F6D952E0306820F080703060FEF707FFC4
:10190000022D05460CD100BF3068800140F18E8069
:10191000FEF7FDFE401B02284FF00300F4D93DE026
:101920003068800140F1DD80FEF7F1FE401B0328A6
:101930004FF00300F4D331E0306820F480303060A1
:10194000306820F480203060FEF7E1FE054641F269
:10195000883700BF306880037FF5AEAEFEF7D7FE54
:10196000401BB8424FF00300F4D917E0306840F450
:1019700080203060306840F480303060FEF7C7FE71
:10198000054641F2883700BF306880033FF594AECA
:10199000FEF7BDFE401BB842F6D9032001B0F0BDF2
:1019A00020F080003060FEF7B2FE05463068C005CA
:1019B0007FF5F9AEFEF7ABFE401B02284FF00300A7
:1019C000F4D9EBE7306F20F001003067306F20F082
:1019D00004003067FEF79BFE054641F2883700BFE2
:1019E000306F80077FF5E8AEFEF791FE401BB842EE
:1019F0004FF00300F4D9D1E7306F40F004003067B6
:101A0000306F40F001003067FEF781FE054641F27D
:101A1000883700BF306F80073FF5CEAEFEF777FE08
:101A2000401BB8424FF00300F4D9B7E704F1280790
:101A3000B06A40F2F33188438ECF0843591E40EA22
:101A400002104FF47E426FF35F21B06202EB472039
:101A50004FF4FE0280B2E36B0844A16B02EB01413C
:101A60004FF0FE4201F4FE0102EB0362084402F073
:101A7000FE4108443063706B4FF6F871A26C8843E6
:101A800040EAC2007063F06A216C20F00C00084349
:101A9000F062F06A616C20F002000843F062F06AC4
:101AA00040F48030F062F06A40F40030F062F06A96
:101AB00040F48020F062F06A40F00100F06230688B
:101AC00040F080703060FEF722FE044630688001EE
:101AD00007D4FEF71CFE001B02284FF00300F5D9C7
:101AE0005CE700205AE770B370B5044690F84500F3
:101AF00015460E4628B9002084F84400204600F020
:101B000024F8206804F10801FEF7B5FC206831468E
:101B1000A268FEF7FDFCD4E90102E36A2946FEF75C
:101B200089FCA068216851F8202042F0010241F8A8
:101B3000202044F20000C5F20020016841F000417D
:101B40000160002070BD012070477047411E0020D9
:101B5000B0EB116F01D0012070474EF21002F0235C
:101B6000CEF2000251604EF62351CEF200010B700E
:101B70000721906011607047B0B110B5044690F82D
:101B80003D0028B9002084F83C00204600F00EF803
:101B9000022084F83D002068211D00F01DFB01207B
:101BA00084F83D00002010BD0120704770470146B9
:101BB000022081F83D000868028842F0010202809C
:101BC0000020012281F83D20704710B5B0B10446D5
:101BD00090F8790028B9002084F87800204600F0B9
:101BE00026F8242084F879002068016821F001019A
:101BF0000160204600F01EFC012801D1012010BD2B
:101C0000606B10B1204600F080FB2068416821F431
:101C100090414160816821F02A018160016841F0B2
:101C2000010101602046BDE8104000F0D1BB7047C3
:101C300040F26001C2F200010968084018BF0120AB
:101C40007047002940F26001C2F2000102D00A6828
:101C5000104302E00A6822EA0000086041F2000036
:101C6000C6F20000096801607047000010B54EF62A
:101C70002453CEF200039968B1F1FF3F52DD40F2E8
:101C8000180C1968C2F2000C41F21C02C4F20102E5
:101C90000FF2A00ECCF8201019798CF82410597985
:101CA000CCF828105969CCF82C10D988ACF8301031
:101CB0009968CCF83410D968CCF8381099690023A9
:101CC000CCF83C101EF80310918100BF1168490642
:101CD000FCD50133292BF5D140F25C020021C2F280
:101CE0000002116011680029FCD090E80A40C46825
:101CF000CCF80010CCF80430CCF808E0CCF80C405C
:101D00000169CCF810104169CCF814108169CCF845
:101D10001810C069CCF81C00002010601068002862
:101D2000FCD010BD996841F0004199608169023191
:101D3000816110BD0D0A456E746572204861726440
:101D40004661756C745F48616E646C65722C2053DB
:101D5000797374656D2048616C742E0D0A00000063
:101D6000B0B5072824D843F6984C0022FF21C0F6CE
:101D7000000C00230CEBC20E5CF83240BEF804509D
:101D800024692C409EF8065018BF0124A54208BFC4
:101D9000114602F1010208BF0133082AEAD183F09B
:101DA000010248401043C0B2B0FA80F04009B0BD13
:101DB000092811D008281FD141F61040C5F60200AD
:101DC000D0F80004C00517D440F61000C5F6020094
:101DD000006880040ED50FE040F61000C5F6020042
:101DE0000068800408D441F61040C5F6020000687F
:101DF000C00601D40120B0BD0020B0BDFEE7704791
:101E000070470000F0B581B044F20047C5F6020704
:101E1000BA6A02F00302032A01D1012063E00546F9
:101E200038680C4620F080603860FEF770FC06468B
:101E30003868000105D5FEF76AFC801B0228F7D937
:101E40004EE0B86AEE6895E80E0020F47C30012C74
:101E500040EA0130A2F101016FF35F214FF47E42AD
:101E600002EB4322B86292B24FF0FE4302EB010054
:101E70004FF4FE012A6901EB064101F4FE0103EB78
:101E80000262084402F0FE410844B863F86A6969D6
:101E900020F0C00040EA0100F862F86AA96920F069
:101EA000200040EA01004FF4001108BF4FF48011F8
:101EB000002CF86208BF4FF40021F86A0843F8626A
:101EC000386840F080603860FEF721FC044600BFAF
:101ED0003868000106D4FEF71AFC001B0328F7D36C
:101EE000032000E0002001B0F0BD0000F0B581B09B
:101EF00044F20047C5F60207BA6A02F00302032A59
:101F000001D1012063E0054638680C4620F080507E
:101F10003860FEF7FCFB06463868800005D5FEF702
:101F2000F6FB801B0228F7D94EE0B86AEE6895E808
:101F30000E0020F07C70012C40EA0150A2F101015A
:101F40006FF35F214FF47E4202EB4322B86292B2FC
:101F50004FF0FE4302EB01004FF4FE012A6901EB52
:101F6000064101F4FE0103EB0262084402F0FE4167
:101F700008443864F86A696920F4406040EA010066
:101F8000F862F86AA96920F4007040EA01004FF095
:101F9000807108BF4FF40001002CF86208BF4FF4B5
:101FA0008001F86A0843F862386840F08050386071
:101FB000FEF7ADFB044600BF3868800006D4FEF78C
:101FC000A6FB001B0328F7D3032000E0002001B08C
:101FD000F0BD80B586B044F2E040C5F6020001686D
:101FE00041F002010160006801A900F002000190C7
:101FF0000198012002900020039003200490042007
:10200000019040F20040C5F60200FEF7B9FA06B0B2
:1020100080BD704780B5FEF780FB40F6A000C2F29D
:102020000000007818B1BDE8804000F001B880BD24
:1020300080B540F69810C2F20000016849B101680D
:102040000139016005D140F694100121C2F200006F
:10205000017040F664110020C2F200014FF0010C43
:102060000B185A6852B15A68013A5A6006D183F87F
:1020700001C00A5C012A01D19A685A600C303028EC
:10208000EED140F670006FF00042C2F2000001682D
:10209000013101600168914201D10021016001F02C
:1020A0004DF940F25800C2F2000001780131017090
:1020B000CAB20A2A38BF80BD00210170BDE8804045
:1020C00001F03AB94EF6085C4EF67F50CEF2000CA5
:1020D000CEF6F620DCF8801041F47001CCF88010C8
:1020E00044F20041C5F602010A6842F001020A60AA
:1020F00000220A610B68184008608A61CA610A629E
:102100008A62CA620A634A638A63CA630A644A6467
:10211000086820F48020086048F208100A66C5F2BA
:102120000010012101604FF00060CCF80000704702
:1021300010B50C24C4F200046068800720680ED536
:1021400010F002000BD04FF6FD706060216808406F
:10215000206040F6A400C2F200000068804760687A
:10216000400720680ED510F004000BD04FF6FB702E
:10217000606021680840206040F6A800C2F20000BC
:10218000006880476068000720680ED510F00800DE
:102190000BD04FF6F770606021680840206040F671
:1021A000AC00C2F20000006880476068C00620688A
:1021B00011D510F0100008BF10BD4FF6EF70606031
:1021C00021680840206040F6B000C2F200000068BC
:1021D000BDE81040004710BD10B540F6FF3302883F
:1021E000C4F2000398420DDCB0F1804F1BD040F2E6
:1021F0000043C4F20003984215D040F60003C4F235
:1022000000030EE040F60043C4F2000398420AD0F7
:1022100040F20043C4F20103984204D00023C4F208
:102220000103984203D122F070024B681A434FF623
:10223000FF7343F6FF7CC4F20003C4F2010C984222
:1022400010DD60451ADD44F20003C4F20103984238
:102250002AD044F60003C4F20103984224D044F289
:10226000004312E040F2FF73C4F2000398420FDC17
:10227000B0F1804F18D040F2004311E00023C4F2C7
:102280000103984210D040F20043C4F2010309E078
:1022900040F60003C4F20003984205D040F6004324
:1022A000C4F20003984203D122F44072CB681A436F
:1022B00022F080024C696045D1F800E08B6842EA68
:1022C00004020280C362A0F828E00EDD44F200029E
:1022D000C4F20102904213D044F60002C4F201029B
:1022E00090420DD044F2004206E00022C4F2010206
:1022F000904205D040F20042C4F20102904201D166
:10230000096901860121416110BD416BCA0708D0EE
:102310000268D0F838C0536823F4003343EA0C0352
:1023200053608A0708D50268D0F83CC0536823F48C
:10233000803343EA0C0353604A0708D50268D0F89B
:1023400040C0536823F4802343EA0C0353600A0718
:1023500008D50268D0F844C0536823F4004343EA28
:102360000C035360CA0608D50268D0F848C09368C9
:1023700023F4805343EA0C0393608A0608D502686D
:10238000D0F84CC0936823F4005343EA0C039360E5
:102390004A0612D50268D0F850C05368BCF5801FB9
:1023A00023F4801343EA0C03536006D1536823F4EB
:1023B000C00C436D43EA0C035360090658BF7047D5
:1023C0000168806D4A6822F400221043486070471B
:1023D000B0B582B004460020E067FEF798F92168A6
:1023E00005460A6812070BD54FF4001100226FF062
:1023F0007E40009020462B4600F0A2FA70B921687A
:10240000086840070CD54FF4800100226FF07E4031
:10241000009020462B4600F093FA08B1032007E015
:10242000202084F8790084F87A00002084F878006D
:1024300002B0B0BD2DE9F04186B004460168D0E994
:10244000023706696569806AD4F81CC003430A68CC
:10245000334346F6F316CCF6FF762B43324043EA7D
:102460000C031A430A604A6840F6004322F44052C3
:10247000C5F600033A434A60A76999421CBF226A25
:102480001743B0F1005F04D1D4E90B02384340EAAE
:1024900002074FF2FF428868C1F2FF1244F2004681
:1024A0001040C5F602063843886047F2FF77C86AD5
:1024B000C4F2000720F00F02606AB9424FF08007B3
:1024C00042EA0002CA621DDD40F6FF72C4F2010258
:1024D000914226DD994245D041F20042C4F2010208
:1024E000914205D041F20002C4F20102914242D170
:1024F000726DC2F3C207062F3CD243F63442C0F6D7
:1025000000022CE044F6FF32C4F20002914211DCDA
:1025100044F20042C4F20002914217D044F6000295
:1025200010E047F60002C4F2000291420ED047F6D6
:10253000004207E044F60042C4F20002914205D096
:1025400045F20002C4F20002914214D1726D02F011
:102550000707062F0ED243F63A42C0F60002174490
:102560003F7808E0B26D02F00707062F02D20FF2A3
:10257000C832F4E78027994219D0BCF5004F31D119
:102580000F2F4FF001054FF000014CDC082F00F237
:102590005681DFE817F00900B90054015401C50065
:1025A000540154015401D300FEF7BBFFAEE040F6E6
:1025B00000180F2FC0F23D084FF0010527DC022F55
:1025C00057D0042F58D0082F40F05A813068800629
:1025D00049F20000C0F2D03059D53168C1F3C101D1
:1025E000C84054E00F2F4FF001052FDC082F00F2F8
:1025F0004781DFE817F00900B10045014501C3003C
:10260000450145014501D100FEF78BFFA6E0102FE3
:1026100039D0202F39D0402F40F032816846FEF764
:10262000F3F901982CE0102F00F0C480202F00F067
:10263000CC80402F40F003816846FEF7E5F943F671
:102640007041606AC0F60001019A72E0102F00F03C
:10265000CA80202F00F0D280402F40F011816846C0
:10266000FEF7D2F943F67041606AC0F60001019AA4
:102670008DE0FEF743F903E003A8FEF751F9049853
:1026800028B90025FCE0404601E04FF400406268B4
:10269000012502EB42018842C0F0F280110388421A
:1026A00000F2EE800F2F4FF001051ADC022F00F030
:1026B000EB80042F00F0FE80082F40F02581306869
:1026C000800649F20000C0F2D03000F12781616A33
:1026D00043F67043C0F6000333F81110B0FBF1F07D
:1026E000F6E0102F00F0DC80202F00F0FC80402F5F
:1026F00040F00A816846FEF787F943F67041606A48
:10270000C0F60001019ADEE0FEF727FF616A43F69A
:102710007042C0F6000232F81110B0FBF1F087E011
:1027200003A8FEF7FDF843F67041606AC0F60001A9
:10273000049A31F81000B2FBF0F079E031688906B4
:1027400065D443F67041C0F6000131F8100049F23B
:102750000001C0F2D03169E0FEF7FFFE616A43F686
:102760007042C0F6000232F811106268B0FBF1F05E
:1027700000EB52002168B0FBF2F07EE003A8FEF708
:10278000CFF843F67041606AC0F60001049A31F850
:102790001000636821686AE03268920657D443F6F5
:1027A0007042C0F6000232F8100049F20002C0F296
:1027B000D0325BE043F67041C0F6000131F8100002
:1027C00040F60011C0F23D0130E043F67041C0F622
:1027D000000131F810004FF40041B1FBF0F06168E6
:1027E0004200480827E043F67042C0F6000232F883
:1027F000100040F60012C0F23D0237E043F670428E
:10280000C0F6000232F810004FF400422EE043F60A
:1028100070423168C0F60002C1F3C10132F8100005
:1028200049F20002C0F2D03222FA01F1B1FBF0F01D
:10283000616840004A0810440025B0FBF1F14FF6F2
:10284000F0700840C1F342010844216817E043F6E4
:1028500070433268C0F60003C2F3C10233F81000BF
:1028600049F20003C0F2D03323FA02F26368B2FBEC
:10287000F0F000EB5300B0FBF3F080B20025C8602D
:10288000284606B0BDE8F081FEF738F8616A43F6E5
:102890007042C0F6000232F81110B0FBF1F016E001
:1028A000606A43F67041C0F6000131F81000B8FBD1
:1028B000F0F023E003A8FEF733F843F67041606AB6
:1028C000C0F60001049A31F81000B2FBF0F0626823
:1028D000010E00230002002510EB520041F100011F
:1028E000FDF7F6FC10E0606A43F67041C0F60001A7
:1028F00031F810004FF40041B1FBF0F00002002568
:1029000000EB5200B0FBF2F04FF6FF42A0F5407131
:10291000C0F20F02914298D90125B1E73168636A8C
:1029200043F67047C1F3C101C0F60007C84037F84D
:102930001330B0FBF3F0CBE7020440081020000096
:102940002DE9F04381B0044600680D46C76939405F
:10295000491BB1FA81F1490991422CD1DDF820805F
:10296000B8F1000F15D01646994618F1010709D1A4
:10297000C1692940491BB1FA81F14909B1421AD113
:10298000002FF5D0FDF7C3FEA0EB090040452068FD
:10299000EED9016821F4D0710160816821F0010154
:1029A0008160202084F8790084F87A00002084F87F
:1029B0007800032000E0002001B0BDE8F08370B58E
:1029C00040F67404C2F200042068C6690568B106C6
:1029D000816816D5808CA168E28A8854E18A4A1CF5
:1029E000E28292B2E1898A4201D30022E282628BC2
:1029F0008A4202D2618B01316183616A09B1C0B23E
:102A00008847300622D515F080001FD0A08AA0B1DB
:102A1000012084F82800D4E90001628A895C0185DC
:102A2000608A0130608280B2A189884201D300208F
:102A30006082A08A0138A08208E02068016821F045
:102A400080010160016841F040010160700621D5FC
:102A500015F040001ED0A08A88B1D4E90001628A36
:102A6000895C0185608A0130608280B2A1898842D8
:102A700001D300206082A08A0138A0820AE0216888
:102A8000206A0A6822F040020A6000B180470020F4
:102A900084F828002068016A41F001010162016A9E
:102AA00041F002010162016A41F004010162016A20
:102AB00041F008010162016A41F010010162016AFE
:102AC00041F040010162016A41F480710162016AD2
:102AD00041F400710162016A41F400310162016A4E
:102AE00041F480110162016A41F02001016270BD70
:102AF000FEE7032801D90020704700EB400040F6B4
:102B00006411C2F2000101EB800111F8010F0128EC
:102B10004FF0000018BF7047087001207047000098
:102B200010B5C0B101284FF0010108BF022081F3A8
:102B3000108840F6981140F69414C2F20001C2F2D7
:102B4000000408600020207080F3108800F016F860
:102B500020780128FAD110BD40F65411C2F20001CC
:102B6000887ACA7A904201D100207047421C085CE2
:102B7000D3B2092B88BF00228A72704770470000C9
:102B800070B59CB04EF61455CEF20005FDF735FE3B
:102B90000120ADF804004FF01050029012208DF883
:102BA0000C004FF48070ADF80D00002001ACC0F2B5
:102BB00001100490204603268DF80F60FDF7F0FD0C
:102BC00040F20110ADF804004FF0C04002900F2019
:102BD0008DF80C004FF08070049020468DF80F6047
:102BE0000026ADF80D60FDF7DBFD0420FDF712FEB9
:102BF0002868800311D4BFF34F8FBFF36F8FC5F8E0
:102C00003C62BFF34F8FBFF36F8F286840F40030F2
:102C10002860BFF34F8FBFF36F8F2868C00327D49E
:102C200000202867BFF34F8FE86E43F6E07CC0F3C7
:102C3000C902C0F34E3102F1010E94070CEA4116AD
:102C40002246704642EA0603013802F14042C5F8C6
:102C50004C32F7D10029A1F10101EFD1BFF34F8F21
:102C6000286840F480302860BFF34F8FBFF36F8F28
:102C700044F60C04C5F60204FDF75CFD206820F064
:102C80000400206000200190E06840F44040E060D3
:102C9000E06800F440400190019800BFE0688004C3
:102CA000FCD5012001904FF48030029002200521D4
:102CB000CDE90A000C91A021CDE90D10109004205F
:102CC0000F9001A8002404940894082512941195EB
:102CD000FEF7D2FC08B100BFFEE715A93F20149013
:102CE000032031C140204FF48061CDE91800CDE9C7
:102CF0001A1014A80421FEF721FB00B1FEE744F2EC
:102D00000040C5F60200016841F080010160D0F882
:102D1000F41041F00201C0F8F410D0F8F40000F013
:102D2000020000900098FDF721FC00F019F900F076
:102D3000A1F900F0D6F900F005F800F083F91CB015
:102D400070BD00002DE9F0419AB044F2E04040F639
:102D50000045C5F60200C5F6020507AC022601686B
:102D60004FF0010841F0080101600168032701F0FC
:102D7000080107910799016841F01001016001689D
:102D800001F0100107910799016841F040010160CD
:102D9000016801F0400107910799016841F0800145
:102DA0000160016801F0800107910799016841F411
:102DB00080710160016801F480710791079950F8F2
:102DC0000C1C41F4805140F80C1C50F80C0C2146AE
:102DD00000F48050079007980C200B904CF2B370D1
:102DE000079028460896CDF824800A97FDF7C8FB7F
:102DF0004FF68070079005F580602146FDF7C0FB17
:102E000005F5406021460797FDF7BAFB4FF47F4078
:102E1000079005F580502146FDF7B2FB40F2CF60E8
:102E2000079005F5A0502146FDF7AAFB44F20001EA
:102E30000020C5F200210791CDE91800CDE9160068
:102E400001F58271089105210690CDE90016CDE9C2
:102E500009000B902021CDE90C10CDE90E004FF4B4
:102E60008050109004F128001421CDE90268CDE9CA
:102E70000466FDF778FA694620460A46FEF733FEF7
:102E800020B10AA04FF49171FDF7D0FA40F2600032
:102E900040F61471C2F20000016041F20001C6F276
:102EA0000001006808601AB0BDE8F0812E2E2F2EB8
:102EB0002E2F557365722F6273702F7372632F629A
:102EC00073705F666D635F696F2E630010B592B0BB
:102ED00002AC242104F11C00FDF745FA44F2E8405D
:102EE0004FF08042C5F60200016841F00101016027
:102EF000006800F00100019040F208000199C2F260
:102F000000004DF68361C4F21B3102920068A0FB01
:102F100001014FF0FF30059000EBD14100200490FB
:102F2000CDE9060089B28020089020460391FEF783
:102F300023FE38B143F658704FF40C71C0F6000010
:102F4000FDF774FA1C2000210222FDF783FC1C20EF
:102F5000FDF771FC02A8FEF72AFE12B010BD0000BA
:102F600070B586B040F654100021C2F20000642211
:102F7000022300264181017340F6B400C2F2000032
:102F800085191036A02EAA602B712973F8D16421FF
:102F900001870622A0F83B20A0F8481043F6984687
:102FA000A0F84B200025A0F85810C0F60006A0F8A5
:102FB0005B2001ACA0F86810A0F86B2044F2E04060
:102FC000C5F60200016841F002010160016801F0EC
:102FD000020101910199016841F004010160016859
:102FE00001F0040101910199016841F04001016083
:102FF000016801F0400101910199016841F08001EF
:103000000160016801F0800101910199016841F4BA
:1030100080710160006800F48070019001980320C5
:10302000CDE90255049000BF06EBC500214680881B
:10303000019056F83500FDF7A3FA0135082DF3D1BC
:1030400006B070BD80B54FF480700121FEF7F9FD28
:103050004FF400700121FEF7F4FD4FF48060012170
:10306000FEF7EFFD4FF400600121BDE88040FEF760
:10307000E8BD000040F664110020C2F20001002209
:103080008B1858609860587088540C32302AF7D1E9
:1030900040F2080044F6D351C2F20000C1F26201CE
:1030A0000068A0FB01014FF0FF3000EB9111002000
:1030B000B0EB116F0DD14EF21002F023CEF20002F0
:1030C00051604EF62351CEF200010B709060072044
:1030D000106040F6A0000121C2F200000170FFF76D
:1030E000F5BEF0B5B5B040F6740041F20004C2F28E
:1030F000000040F26E4140F26402C4F20104C2F2E8
:1031000000010460C2F200020125C0E901124FF083
:103110000421C160002101824182C1820183418377
:103120008182C0E90711416280F8281001A8019549
:103130001F91FDF7DDFC44F2E04030AEC5F6020021
:103140000727016841F001010160016801F00101F8
:1031500030913099016841F001010160016801F08E
:10316000010130913099016941F01001016100695C
:10317000314600F01000309030984FF400703090DD
:103180000220CDE9310500250320C5F60205339064
:1031900028463497FDF7F4F94FF4806030902846C4
:1031A00031463497FDF7ECF9252000210122FDF787
:1031B00051FB2520FDF73FFB4FF4E13100220C23AA
:1031C000204600F0BCF8206A40F040002062208BCE
:1031D00040F008002083206840F020002060FEF7C7
:1031E000F8FE35B0F0BD00002DE9F04740F6B4051B
:1031F00040F6541A0024C2F200054FF00509C2F24D
:10320000000A4FF001080026002700BFF8B2FEF7C1
:10321000A7FDA9190A7928B1042A09D881F80490D0
:1032200050E000BF062A08D381F8049048E000BFB0
:10323000092A06D8501C087144E062B3501E087178
:103240003EE0887A88B99AF80B0007EB4702013212
:1032500081F80A800AF800209AF80B000130C2B207
:10326000092A88BF00208AF80B00088950B3CA8851
:1032700082422CD20132CA80824223D19AF80B00BA
:1032800007EB470103310AF800109AF80B000130F0
:10329000C1B2092931E0887A012811D19AF80B00CE
:1032A00007EB470202328C720AF800209AF80B00F2
:1032B0000130C2B2092A88BF00208AF80B0000BF83
:1032C000CC800C7310360137A02E9FD11AE0C87A3B
:1032D0000028F7D00A7B01320A73D3B28342F1D3BC
:1032E0009AF80B0007EB470201320C730AF8002032
:1032F0009AF80B000130C2B2092A88BF00208AF870
:103300000B00DFE7BDE8F0870138C1B2032988BFB1
:10331000704710B540B243F68841C0F6000151F83D
:1033200020402046FEF784FCB0FA80F04109204698
:10333000BDE81040FEF785BCFFF756BF704710B5DB
:10334000A0B06C460492CDE9000100200690CDE9C2
:10335000020004F11C001C210593FDF704F820462F
:10336000FEF733FC38B143F6777040F22731C0F6F0
:103370000000FDF75BF820B010BD000080B5042808
:103380000BD343F6387043F65871C0F60000C0F610
:1033900000010CA200F0EAF9FEE700EB400040F665
:1033A000641CC2F2000C01220CEB800382F3108833
:1033B00059609960002159700CF8202081F3108821
:1033C00080BD00BF6273705F537461727441757425
:1033D0006F54696D6572000010B50C46FDF702F878
:1033E000F8B1012181F31088428B002181F310880C
:1033F000C2B18168028B895C2170012181F3108840
:10340000018B0131018389B2C289914201D300212C
:103410000183418B01394183002080F31088012111
:1034200000E00021084610BD2DE9F04182B01446AD
:103430008846FCF7D7FF002847D00646C06900B190
:103440008047002C3CD000200121002281F310880D
:10345000B38AADF8063080F3108800BFBDF806507F
:10346000B3899D4214D3BDF806509D4207D13368FD
:103470001D682D0603D41D6845F080051D6081F38D
:103480001088B38AADF8063080F31088E6E700BFF5
:1034900018F802307568378A0132EB5581F31088CD
:1034A000338A013333829BB2B789BB4228BF308253
:1034B000B38AA24203F10103B38280F31088C5D11D
:1034C0003068016841F08001016002B0BDE8F08120
:1034D00080B582B08DF807100DF107010122FFF7CA
:1034E000A3FF02B080BD10B582B004468DF807007E
:1034F0000DF1070100200122FFF796FF204602B0E0
:1035000010BD000082B0FFF73BFB43F61F54C0F62E
:103510000004204600F02AF94EF6000040F20801AF
:10352000C1F6F170C2F20001056846688768086854
:103530004DF68361C4F21B31A0FB010143F6F0405C
:10354000C0F60000890C00F011F943F65F503946CF
:10355000C0F6000032462B4600F008F958A000F0F3
:1035600005F9204600F002F943F68E5043F6197132
:10357000C0F60000C0F6000100F0F8F843F67650FF
:1035800050A1C0F6000000F0F1F843F6D84043F631
:103590000E71C0F60000C0F6000100F0E7F843F637
:1035A000DD50C0F6000000F033FB47A000F030FB18
:1035B00043F6A650C0F6000000F02AFB43F6756003
:1035C000C0F6000000F024FB40A000F021FB43F611
:1035D000BD50C0F6000000F01BFB43F65560C0F67E
:1035E000000000F015FB40A000F012FB204600F0A8
:1035F000BDF848A000F00CFB43F60E60C0F60000DA
:1036000000F006FB47A000F003FB43F68960C0F61C
:10361000000000F0FDFA00203221FFF7AFFE40F27B
:10362000644543F640470DF10704C2F20005D92670
:10363000C0F60007FFF7A2FA0020FFF75AFA10B110
:103640000220FFF761FE06202146FFF7C5FE38B3D2
:103650009DF807000D2823D10420FFF755FE0A200E
:10366000FFF75EFA06200D21FFF732FFFCF762FE3E
:10367000A880FCF75FFEE880FCF75CFE2881FCF781
:1036800059FE2870FCF756FE6870FCF753FEA870D0
:10369000FCF750FEE87006200A222946FFF7C4FE18
:1036A000FFF75AFA0138C1B20729C3D826FA01F147
:1036B000C907BFD040B257F8200000F0A9FAB9E717
:1036C0000A0D0000312E30002A200D002A20456D01
:1036D00061696C203A2061726D666C794071712E5F
:1036E000636F6D200D0000002A20436F70797269AE
:1036F000676874207777772E61726D666C792E63B8
:103700006F6D20E5AE89E5AF8CE88EB1E794B5E545
:10371000AD900D00E6938DE4BD9CE68F90E7A4BAD2
:103720003A0D0000322E20E8AFB7E4BC98E585885A
:10373000E8BF90E8A18CE5BC80E58F91E69DBFEFE6
:10374000BC8CE784B6E5908EE8BF90E8A18C6D61F3
:10375000746C61620D0000001EF0040F0CBFEFF3EB
:103760000880EFF30980FEF781BA00000FB4054B23
:1037700010B503A9044A029800F018F810BC5DF8CF
:1037800014FB0000E73400080400002002E008C831
:10379000121F08C1002AFAD170477047002001E0CB
:1037A00001C1121F002AFBD1704700002DE9FF4F15
:1037B0008DB00F460546002606E025280BD0DDE932
:1037C0000F1290476D1C761C28780028F5D111B097
:1037D0003046BDE8F08F0024A246A1460122EC4904
:1037E00000E0044315F8013F203B02FA03F00842D1
:1037F000F7D128782A2810D06FF02F022878A0F16E
:103800003001092914D80AEB8A0102EB410144F086
:10381000020400EB010A6D1CF0E701CF5FEA000A29
:1038200003D544F40054CAF1000A44F002046D1CAC
:1038300028782E2817D115F8010F44F004042A28FF
:103840000ED06FF02F022878A0F1300109290AD894
:1038500009EB890102EB410100EB01096D1CF2E764
:1038600057F8049B6D1C28786C280FD006DC4C2878
:1038700017D068280DD06A2814D104E0742810D01D
:103880007A280FD10DE044F400140AE044F48014C7
:1038900001E044F440146978814202D104F58014B7
:1038A0006D1C6D1C2A786E2A1FD00CDC632A31D067
:1038B00004DC002A8BD0582A11D1A3E0642A68D0F6
:1038C000692A0CD165E0732A2ED004DC6F2A73D0EC
:1038D000702A04D19BE0752A6FD0782A6ED01046EA
:1038E000DDE90F129047761C50E1C4F30250022824
:1038F00006D0032809D0042801CF09D0066045E18D
:1039000001CFF117C0E9006140E101CF06803DE140
:1039100006703BE117F8040B8DF8000000208DF8CD
:103920000100EB46012003E057F804BB4FF0FF30E5
:1039300061074FF0000102D40DE008F10101884653
:1039400049450FDA8045F8DB1BF808100029F4D14F
:1039500008E008F1010188468142FADB1BF80810F3
:103960000029F6D1DDE90F23AAEB080081462146A4
:1039700000F036F9304400EB080604E0DDE90F12F0
:103980001BF8010B9047B8F10108F7D221464846D1
:10399000F7E00A21C4F302534FF0000B0891022B09
:1039A00004D001CFC117032B09D00AE0FF1D27F077
:1039B0000707F7E8020108E032E01FE020E000B26C
:1039C000C117042B01D140B2C117031E71F10003CE
:1039D00007DA4FF0000CD0EB0C006CEB01012D234B
:1039E00002E0230504D52B238DF82430012303E0C6
:1039F000E30701D02023F7E7984658E00A2110E0BA
:103A000010210EE010204FF0000B08900CE0102168
:103A10004FF0000B44F004044FF00809089103E054
:103A200008214FF0000B0891C4F30253022B04D07D
:103A300001CF0021032B06D006E0FF1D27F007076A
:103A4000F7E8020103E080B2042B00D1C0B24FF0CE
:103A5000000823072BD5702A07D0DDF820C08CF092
:103A6000100C5CEA0B0C05D00EE040238DF82430DE
:103A7000012308E050EA010306D030238DF82430FA
:103A80008DF8252002239846DDF820C08CF0080C24
:103A90005CEA0B0C0BD150EA010301D1630706D598
:103AA00030238DF824304FF00108A9F10109582A7C
:103AB00004D038A20B9208AA0A920BE03AA2F9E7C6
:103AC0005B46089AFCF704FC0B9B9B5C0A9A521E0F
:103AD0000A92137050EA0102F2D10A98ADEB00008D
:103AE00000F1200B600702D524F4803401E04FF090
:103AF0000109D94502DDA9EB0B0000E0002000EB35
:103B00000B0141440890AAEB010AE00306D4DDE969
:103B10000F232146504600F063F806444FF0000999
:103B200008E009A911F80900DDE90F12904709F131
:103B30000109761CC145F4DBE0030CD5DDE90F2358
:103B40002146504600F04CF8064404E0DDE90F122F
:103B500030209047761C0899481E08900029F5DC13
:103B600008E00A980A990078491C0A91DDE90F12C9
:103B70009047761CBBF10001ABF1010BF1DC214653
:103B80005046DDE90F2300F019F806446D1C1BE6D2
:103B90000928010030313233343536373839616223
:103BA00063646566000000003031323334353637E7
:103BB0003839414243444546000000002DE9F041B8
:103BC000044600251E461746880404D405E03946FD
:103BD0002020B0476D1C641EF9D52846BDE8F08151
:103BE0002DE9F041044600251E469046C80301D544
:103BF000302700E02027880404D505E041463846F8
:103C0000B0476D1C641EF9D52846BDE8F081000060
:103C100010B5044601E0FFF766FC14F8010B0449F7
:103C20000028F8D1BDE810400A20FFF75CBC000076
:103C30000400002001044008102000044008102067
:103C4000CD3E0008E73E0008E73E0008DA3E0008E7
:103C5000F43E0008E73E0008E73E0008013F000888
:103C60000000000001020304010203040607080922
:103C7000010002000400060008000A000C00100009
:103C80002000400080000001000100000002000050
:103C9000000400000008000000200258000100009D
:103CA0000008025800200000001C0258100000000C
:103CB000001802580400000000040258010000002F
:103CC0000018025808000000001802588000000088
:103CD00000200258000800002A20E58F91E5B883F3
:103CE000E697A5E69C9F2020203A2025730D0A0028
:103CF0000D0A435055203A2053544D33324837343F
:103D000033584948362C204247413234302C20E485
:103D1000B8BBE9A2913A2025644D487A0D0A002AE1
:103D20002A2A2A2A2A2A2A2A2A2A2A2A2A2A2A2AF3
:103D30002A2A2A2A2A2A2A2A2A2A2A2A2A2A2A2AE3
:103D40002A2A2A2A2A2A2A2A2A2A2A2A2A2A2A2AD3
:103D50002A2A2A2A2A2A2A2A2A2A2A2A0A0D0055FF
:103D60004944203D2025303858202530385820251A
:103D70003038580A0D002A20E4BE8BE7A88BE7896B
:103D800088E69CAC2020203A2025730A0D002A20CA
:103D9000E4BE8BE7A88BE5908DE7A7B02020203A02
:103DA0002025730A0D002A205151202020203A207E
:103DB00031323935373434363330200D002A20E59E
:103DC000BEAEE4BFA1E585ACE4BC97E58FB73A2071
:103DD00061726D666C795F636F6D200D002A2048FB
:103DE000414CE5BA93E78988E69CAC20203A2056FE
:103DF000312E332E30202853544D333248377878C3
:103E00002048414C20447269766572290D00312E9C
:103E100020E590AFE58AA8E4B880E4B8AAE887AACC
:103E2000E58AA8E9878DE8A385E8BDAFE4BBB6E5E0
:103E3000AE9AE697B6E599A8EFBC8CE6AF8F313025
:103E4000306D73E7BFBBE8BDACE4B880E6ACA14C15
:103E50004544320D002A20E6B798E5AE9DE5BA97B5
:103E60003A2061726D666C792E74616F62616F2E9B
:103E7000636F6D0D002A20E697BAE697BA20203AC4
:103E80002061726D666C790D00332E20E8B083E8F6
:103E9000AF956D61746C6162E4B8B2E58FA3E6958D
:103EA000B0E68DAEE58F91E98081E5898DEFBC8C20
:103EB000E8AFB7E58AA1E5BF85E585B3E997ADE44D
:103EC000B8B2E58FA3E58AA9E6898B0D004B31E9ED
:103ED00094AEE68C89E4B88B0D004B32E994AEE6E3
:103EE0008C89E4B88B0D004B33E994AEE68C89E401
:103EF000B88B0D004B32E994AEE5BCB9E8B5B70D0F
:103F0000004B33E994AEE5BCB9E8B5B70D003230EB
:103F100031392D30392D30370056372D4D61746CC5
:103F20006162E79A84E4B8B2E58FA3E695B0E68DC6
:103F3000AEE9809AE4BFA1004572726F723A2066C2
:103F4000696C652025732C2066756E6374696F6ECD
:103F500020257328290D0A002E2E2F2E2E2F557363
:103F600065722F6273702F7372632F6273705F7448
:103F7000696D65722E63002E2E2F2E2E2F557365C0
:103F8000722F6273702F7372632F6273705F75612B
:103F900072745F6669666F2E63000000C03F0008A0
:103FA00000000020180000008C370008D83F0008EF
:103FB00018000020881900009C370008000000004D
:103FC00000000000000000000090D0030090D0032B
:083FD0000100000010000000D8
:040000050800029954
:00000001FF
